:100000000C945D000C9485000C9485000C94850084
:100010000C9485000C9485000C9485000C9485004C
:100020000C9485000C9485000C9485000C9485003C
:100030000C9485000C9485000C9485000C9485002C
:100040000C94DB010C9485000C9485000C948500C5
:100050000C9485000C9485000C9485000C9485000C
:100060000C9485000C94850000000008000201003B
:100070000003040700000000000000000102040863
:100080001020408001020408102001020408102002
:10009000040404040404040402020202020203032E
:1000A0000303030300000000250028002B000000CC
:1000B0000000240027002A00BB0111241FBECFEF3F
:1000C000D8E0DEBFCDBF11E0A0E0B1E0E0E1F7E0B5
:1000D00002C005900D92A031B107D9F721E0A0E14F
:1000E000B1E001C01D92AF31B207E1F710E0CDE5FC
:1000F000D0E004C02197FE010E948003CC35D107D7
:10010000C9F70E94AC010C9486030C94000008957A
:1001100061E087E00E94130361E085E00E94130321
:1001200061E08DE00E94130361E08BE00E94130305
:1001300061E087E00E944F0360E971E080E090E0B9
:100140000E94560260E087E00C944F03CF92DF924A
:10015000EF92FF920E942502C0901201D0901301ED
:10016000E0901401F0901501DC01CB018C199D0980
:10017000AE09BF0921E0C0900601D0900701E090D0
:100180000801F09009018C159D05AE05BF0508F426
:1001900020E0822FFF90EF90DF90CF900895CF93D3
:1001A000DF9300D000D0CDB7DEB724E031E03A8352
:1001B000298324E531E03C832B8320910001309199
:1001C0000101F901EE0FFF1F41E050E04C0F5D1FF0
:1001D000E40FF51F408151814817590794F420918D
:1001E000020130910301F901EE0FFF1F41E050E0E1
:1001F0004C0F5D1FE40FF51F4081518148175907CF
:100200002CF0309311012093100108C0809104015B
:100210009091050190931101809310010F900F9020
:100220000F900F90DF91CF910895CF92DF92EF92D0
:10023000FF9261E08DE00E944F0361E085E00E9443
:100240004F030E9425026B017C01DC01CB018C195C
:100250009D09AE09BF0940910A0150910B016091BF
:100260000C0170910D0184179507A607B70718F4C4
:100270000E942502EACF84E00E94CD027C0160E06A
:1002800085E00E944F0360E08DE00E944F03C701AC
:10029000FF90EF90DF90CF900C94CF00882361F017
:1002A0000E94250260931201709313018093140140
:1002B000909315010C9415010895029710F461E0D4
:1002C00001C060E087E00C944F03CF92DF92EF9281
:1002D000FF920E9425026B017C01DC01CB018C198D
:1002E0009D09AE09BF0980319742A105B105A0F46F
:1002F000209110013091110180910401909105012C
:100300002817390749F061E08BE00E944F030E94F3
:1003100015010E942502E1CF60E08BE0FF90EF9095
:10032000DF90CF900C944F03892B11F40C9465014E
:1003300060E08BE00C944F030E94A6000E944E01E7
:1003400080911001909111010E945D018091100136
:10035000909111010C9494010E9492020E948700D6
:100360000E948800C0E0D0E00E949C012097E1F349
:100370000E940000F9CF8091060190910701A091A1
:100380000801B0910901B095A095909581959F4F76
:10039000AF4FBF4F8093120190931301A0931401AC
:1003A000B093150180910401909105019093110182
:1003B0008093100108951F920F920FB60F9211248F
:1003C0002F933F938F939F93AF93BF938091170188
:1003D00090911801A0911901B0911A013091160164
:1003E00023E0230F2D3720F40196A11DB11D05C078
:1003F00026E8230F0296A11DB11D209316018093BC
:10040000170190931801A0931901B0931A018091DC
:100410001B0190911C01A0911D01B0911E0101963C
:10042000A11DB11D80931B0190931C01A0931D0180
:10043000B0931E01BF91AF919F918F913F912F91EA
:100440000F900FBE0F901F9018952FB7F8946091E2
:100450001701709118018091190190911A012FBF15
:1004600008953FB7F89480911B0190911C01A091D1
:100470001D01B0911E0126B5A89B05C02F3F19F0A4
:100480000196A11DB11D3FBFBA2FA92F982F882714
:10049000820F911DA11DB11DBC01CD0142E0660F6F
:1004A000771F881F991F4A95D1F708958F929F92C1
:1004B000AF92BF92CF92DF92EF92FF926B017C01DD
:1004C0000E9431024B015C01C114D104E104F1042A
:1004D00001F10E947F030E943102DC01CB018819E7
:1004E0009909AA09BB09883E9340A105B10560F3AB
:1004F00021E0C21AD108E108F10888EE880E83E0F5
:10050000981EA11CB11CC114D104E104F10419F717
:10051000DBCFFF90EF90DF90CF90BF90AF909F9098
:100520008F900895789484B5826084BD84B581608D
:1005300084BD85B5826085BD85B5816085BDEEE6EB
:10054000F0E0808181608083E1E8F0E010828081CA
:1005500082608083808181608083E0E8F0E0808138
:1005600081608083E1EBF0E0808184608083E0EB58
:10057000F0E0808181608083EAE7F0E08081846040
:10058000808380818260808380818160808380819C
:10059000806880831092C10008958E3008F08E50DC
:1005A000877020910E0190E4299F90011124822BE5
:1005B00080937C0080917A00806480937A0080919F
:1005C0007A0086FDFCCF809178002091790090E040
:1005D000922B0895833081F028F4813099F0823095
:1005E000A1F008958730A9F08830B9F08430D1F4B3
:1005F000809180008F7D03C0809180008F778093F1
:100600008000089584B58F7702C084B58F7D84BD46
:1006100008958091B0008F7703C08091B0008F7DE6
:100620008093B0000895CF93DF9390E0FC01E458ED
:10063000FF4F2491FC01E057FF4F8491882361F123
:1006400090E0880F991FFC01E255FF4FC591D491AE
:10065000FC01EC55FF4FA591B491611109C09FB702
:10066000F8948881209582238883EC912E230BC0F7
:10067000623061F49FB7F8943881822F809583238C
:100680008883EC912E2B2C939FBF06C08FB7F894D4
:10069000E8812E2B28838FBFDF91CF9108951F9380
:1006A000CF93DF93282F30E0F901E859FF4F849171
:1006B000F901E458FF4FD491F901E057FF4FC4917D
:1006C000CC23C9F0162F81110E94EA02EC2FF0E032
:1006D000EE0FFF1FEC55FF4FA591B4918FB7F89423
:1006E000111105C09C91ED2FE095E92302C0EC911A
:1006F000ED2BEC938FBFDF91CF911F91089508955B
:10070000EE0FFF1F0590F491E02D0994F894FFCFB0
:1007100000000100020040771B00E8030000010018
:00000001FF
