:100000000C945D000C9485000C9485000C94850084
:100010000C9485000C9485000C9485000C9485004C
:100020000C9485000C9485000C9485000C9485003C
:100030000C9485000C9485000C9485000C9485002C
:100040000C945E010C9485000C9485000C94850042
:100050000C9485000C9485000C9485000C9485000C
:100060000C9485000C94850000000008000201003B
:100070000003040700000000000000000102040863
:100080001020408001020408102001020408102002
:10009000040404040404040402020202020203032E
:1000A0000303030300000000250028002B000000CC
:1000B0000000240027002A00460111241FBECFEFB4
:1000C000D8E0DEBFCDBF11E0A0E0B1E0E6E1F6E0B0
:1000D00002C005900D92AC30B107D9F721E0ACE039
:1000E000B1E001C01D92A931B207E1F710E0CDE502
:1000F000D0E004C02197FE010E940303CC35D10754
:10010000C9F70E9437010C9409030C94000008956C
:1001100061E087E00E94960261E086E00E9496021C
:1001200061E08DE00E94960261E087E00E94D202C9
:1001300068EC70E080E090E00E94D90160E087E028
:100140000C94D202CF92DF92EF92FF920E94A8010C
:10015000C0900C01D0900D01E0900E01F0900F01C5
:10016000DC01CB018C199D09AE09BF0921E0C090CB
:100170000201D0900301E0900401F09005018C157C
:100180009D05AE05BF0508F420E0822FFF90EF909B
:10019000DF90CF900895853591402CF410920101A5
:1001A00010920001089581E090E090930101809306
:1001B00000010895CF92DF92EF92FF9261E08DE00F
:1001C0000E94D20261E086E00E94D2020E94A80151
:1001D0006B017C01DC01CB018C199D09AE09BF09C3
:1001E0004091060150910701609108017091090149
:1001F000481759076A077B0718F00E94A801EACF41
:1002000084E00E9450027C0160E086E00E94D202FD
:1002100060E08DE00E94D202C701FF90EF90DF9076
:10022000CF900C94CB00882361F00E94A8016093CA
:100230000C0170930D0180930E0190930F010C94AB
:10024000DA000895009719F0019719F0089561E018
:1002500001C060E087E00C94D2020E94A2000E94DC
:10026000130180910001909101010C9422010E94E0
:1002700015020E9487000E948800C0E0D0E00E9422
:100280002D012097E1F30E940000F9CF8091020137
:1002900090910301A0910401B0910501B095A09542
:1002A000909581959F4FAF4FBF4F80930C019093D6
:1002B0000D01A0930E01B0930F0108951F920F92AC
:1002C0000FB60F9211242F933F938F939F93AF9369
:1002D000BF938091110190911201A0911301B091EF
:1002E00014013091100123E0230F2D3720F40196E3
:1002F000A11DB11D05C026E8230F0296A11DB11D49
:10030000209310018093110190931201A093130187
:10031000B09314018091150190911601A0911701DD
:10032000B09118010196A11DB11D80931501909304
:100330001601A0931701B0931801BF91AF919F913F
:100340008F913F912F910F900FBE0F901F90189596
:100350002FB7F894609111017091120180911301EF
:10036000909114012FBF08953FB7F8948091150123
:1003700090911601A0911701B091180126B5A89B84
:1003800005C02F3F19F00196A11DB11D3FBFBA2F27
:10039000A92F982F8827820F911DA11DB11DBC0187
:1003A000CD0142E0660F771F881F991F4A95D1F74C
:1003B00008958F929F92AF92BF92CF92DF92EF9269
:1003C000FF926B017C010E94B4014B015C01C114DE
:1003D000D104E104F10401F10E9402030E94B4017E
:1003E000DC01CB0188199909AA09BB09883E934011
:1003F000A105B10560F321E0C21AD108E108F108B6
:1004000088EE880E83E0981EA11CB11CC114D10493
:10041000E104F10419F7DBCFFF90EF90DF90CF906C
:10042000BF90AF909F908F900895789484B582602C
:1004300084BD84B5816084BD85B5826085BD85B588
:10044000816085BDEEE6F0E0808181608083E1E837
:10045000F0E010828081826080838081816080836F
:10046000E0E8F0E0808181608083E1EBF0E0808172
:1004700084608083E0EBF0E0808181608083EAE744
:10048000F0E08081846080838081826080838081CD
:10049000816080838081806880831092C10008958C
:1004A0008E3008F08E50877020910A0190E4299FC9
:1004B00090011124822B80937C0080917A008064CB
:1004C00080937A0080917A0086FDFCCF809178003D
:1004D0002091790090E0922B0895833081F028F4E8
:1004E000813099F08230A1F008958730A9F08830EA
:1004F000B9F08430D1F4809180008F7D03C0809169
:1005000080008F7780938000089584B58F7702C034
:1005100084B58F7D84BD08958091B0008F7703C02E
:100520008091B0008F7D8093B0000895CF93DF93CA
:1005300090E0FC01E458FF4F2491FC01E057FF4F8D
:100540008491882361F190E0880F991FFC01E255A6
:10055000FF4FC591D491FC01EC55FF4FA591B4918B
:10056000611109C09FB7F894888120958223888300
:10057000EC912E230BC0623061F49FB7F894388160
:10058000822F809583238883EC912E2B2C939FBF01
:1005900006C08FB7F894E8812E2B28838FBFDF9198
:1005A000CF9108951F93CF93DF93282F30E0F90167
:1005B000E859FF4F8491F901E458FF4FD491F901B4
:1005C000E057FF4FC491CC23C9F0162F81110E9430
:1005D0006D02EC2FF0E0EE0FFF1FEC55FF4FA591E1
:1005E000B4918FB7F894111105C09C91ED2FE0954F
:1005F000E92302C0EC91ED2BEC938FBFDF91CF91FB
:100600001F9108950895EE0FFF1F0590F491E02DBE
:060610000994F894FFCFED
:0C061600010040771B00D007000001002D
:00000001FF
