:100000000C9425020C944D020C944D020C944D025C
:100010000C944D020C944D020C944D020C944D0224
:100020000C944D020C944D020C944D020C944D0214
:100030000C944D020C944D020C944D020C944D0204
:100040000C94AF0A0C944D020C9422080C945408A2
:100050000C944D020C944D020C944D020C944D02E4
:100060000C944D020C944D02E616EC16F216F8169E
:10007000FE1604170A17101716171C172217281731
:100080002E1734173A17401746174C1752175817A0
:100090005E170000000800020100000304070000D2
:1000A000000000000000010204081020408001024E
:1000B00004081020010204081020040404040404AD
:1000C000040402020202020203030303030300000A
:1000D0000000250028002B0000000000240027005D
:1000E0002A0025750025692E25692E25692E25698A
:1000F0000041542B5253495F534E443D002C002C79
:1001000030002C002C30002C002C0041542B52537A
:10011000495F534E443D002C002C30002C002C3005
:10012000002C002C0041542B5253495F434C533D4B
:100130000041542B5253495F5544503D0041542BCC
:100140005253495F5443503D0041542B5253495F31
:10015000204D554C5449434153543D002C002C0034
:1001600041542B5253495F4950434F4E463D302C2A
:10017000002C002C3235352E3235352E3235352EC9
:1001800030002C003139322E3136382E302E3100ED
:1001900041542B5253495F444E5353455256455296
:1001A0003D0041542B5253495F4950434F4E463D09
:1001B000312C302C300041542B5253495F4950436D
:1001C0004F4E463D322C302C300041542B52534977
:1001D0005F4A4F494E3D002C31322C320041542BA6
:1001E0005253495F4A4F494E3D002C31322C310069
:1001F00041542B5253495F4A4F494E3D002C3132F6
:100200002C300041542B5253495F4A4F494E3D0018
:100210002C392C320041542B5253495F4A4F494EDE
:100220003D002C392C310041542B5253495F4A4F29
:10023000494E3D002C392C300041542B5253495F1C
:100240004A4F494E3D002C372C320041542B52531B
:10025000495F4A4F494E3D002C372C310041542B09
:100260005253495F4A4F494E3D002C372C300041D4
:10027000542B5253495F4A4F494E3D002C342C3287
:100280000041542B5253495F4A4F494E3D002C3494
:100290002C310041542B5253495F4A4F494E3D0087
:1002A0002C342C300041542B5253495F4A4F494E55
:1002B0003D002C322C320041542B5253495F4A4F9F
:1002C000494E3D002C322C310041542B5253495F92
:1002D0004A4F494E3D002C322C300041542B525392
:1002E000495F4A4F494E3D002C312C320041542B7E
:1002F0005253495F4A4F494E3D002C312C31004149
:10030000542B5253495F4A4F494E3D002C312C30FB
:100310000041542B5253495F4A4F494E3D002C3007
:100320002C320041542B5253495F4A4F494E3D00F5
:100330002C302C310041542B5253495F4A4F494EC7
:100340003D002C302C300041542B5253495F505308
:100350004B3D0041542B5253495F415554484D4F3A
:1003600044453D0041542B5253495F4E4554574F2D
:10037000524B3D494253532C312C0041542B525384
:10038000495F4E4554574F524B3D494253535F537B
:1003900045432C312C0041542B5253495F4E455458
:1003A000574F524B3D494253532C302C300041544F
:1003B0002B5253495F4E4554574F524B3D49425380
:1003C000535F5345432C302C300041542B5253493A
:1003D0005F4E4554574F524B3D494E465241535440
:1003E000525543545552450041542B5253495F5383
:1003F00043414E3D300041542B5253495F4E554DC1
:100400005343414E3D300041542B5253495F444EBB
:10041000534745543D0041542B5253495F494E497F
:10042000540041542B5253495F42414E443D3000E9
:1004300041542B5253495F465756455253494F4EEC
:100440003F000D0A00009A06840811241FBECFEF5A
:10045000D8E0DEBFCDBF13E0A0E0B1E0E4E6F4E415
:1004600002C005900D92AC35B107D9F724E0ACE598
:10047000B3E001C01D92A337B207E1F712E0C5E275
:10048000D2E004C02197FE010E94511BC332D10764
:10049000C9F70E948B060C9430220C94000008953A
:1004A000CF93DF93EC0187E294E00E94300DBE0110
:1004B00080E793E00E94F10887E294E0DF91CF911A
:1004C0000C941F0DCF93DF93EC0187E294E00E9420
:1004D000300DBE0180E793E00E94FE0887E294E0C1
:1004E000DF91CF910C941F0DCF92DF92EF92FF928C
:1004F000CF93DF93EC016A017B0187E294E00E94D5
:10050000300DBE0180E793E00E94F10868E472E0DC
:1005100080E793E00E94F10822E030E0B701A601F5
:1005200080E793E00E949D0A87E294E0DF91CF91FB
:10053000FF90EF90DF90CF900C941F0D0F931F93BF
:10054000CF93DF938C01EB0187E294E00E94300DA2
:10055000B80180E793E00E94F10868E472E080E768
:1005600093E00E94F108BE0180E793E00E94FE083C
:1005700087E294E0DF91CF911F910F910C941F0DB2
:10058000CF93DF930E94530CEC0187E294E00E942A
:10059000300D64E371E080E793E00E94F10868E4C5
:1005A00072E080E793E00E94F1084AE050E0BE016B
:1005B00080E793E00E94A30987E294E0DF91CF9166
:1005C0000C941F0DCF93DF93C5E6D0E0882339F05C
:1005D0002197B9F187E294E00E943F18F7CF87E2B4
:1005E00094E00E94871620E043E451E064E571E066
:1005F00087E294E00E948217C5E6D0E0882361F08C
:100600002197F9F020E043E451E064E571E087E2EE
:1006100094E00E948217F2CF87E294E00E94541681
:10062000C5E6D0E0882339F0219759F087E294E0BD
:100630000E945416F7CF8FE591E0DF91CF910C9493
:100640006202DF91CF9108952F923F924F925F9275
:100650006F927F928F929F92AF92BF92CF92DF92D2
:10066000EF92FF920F931F93CF93DF93CDB7DEB737
:10067000CE52D1400FB6F894DEBF0FBECDBF7B0186
:100680002DB73EB7C35DDE4F39832883CD52D140AD
:100690000E94F90A2B013C016DE771E0C7010E943D
:1006A000F108C301B201812C912C00E010E0DE01C1
:1006B00011965D01DC01CB0184199509A609B709E2
:1006C00081369A4EA105B10508F09BC081149104B2
:1006D00009F097C0C7010E94B818892B91F0C70193
:1006E0000E94DF188F3FBFEF9B0759F00B32E1E00C
:1006F0001E07A8F7F501E00FF11F80830F5F1F4F62
:10070000EECF0115110509F467C0C7010E94151944
:10071000811162C02DB63EB6C7010E943A19F5019B
:10072000E00FF11F1082C5010E9450022DB73EB7A5
:10073000205331090FB6F8943EBF0FBE2DBFEDB761
:10074000FEB73196DF0120E11D922A95E9F723EAF1
:1007500031E0ADB7BEB712963C932E9311972DB7EB
:100760003EB72F5E3F4FD90180E11D928A95E9F790
:10077000ABEAB1E0B18BA08B205F3F4FD90180E1A4
:100780001D928A95E9F7A3EBB1E0B1A3A0A38F0175
:100790008DB69EB6B1E38B0E911CD801CD90DC9046
:1007A000B601C5010E94091F8A199B0997FD17C050
:1007B000B60183E991E00E949E02B5E7CB16B1E055
:1007C000DB06A9F00FB6F8943EBE0FBE2DBE82E048
:1007D000882E912C00E010E00E94F90A6BCF82E98C
:1007E00091E00E94620285E791E00E946202005F50
:1007F0001F4F0815190589F695E7C92E91E0D92EE6
:10080000E1CFC7010E947118C601C35DDE4F288188
:100810003981CD52D1400FB6F8943EBF0FBE2DBFE7
:10082000C25DDE4F0FB6F894DEBF0FBECDBFDF91C5
:10083000CF911F910F91FF90EF90DF90CF90BF90DD
:10084000AF909F908F907F906F905F904F903F9070
:100850002F9008958230910541F08330910541F049
:10086000019741F42BEB31E005C02DEC31E002C0E3
:1008700026EE31E0C90108958F929F92AF92BF9208
:10088000CF92DF92EF92FF920F931F93CF93DF935C
:100890004B015C017A01C9010E942A046C0161E0EC
:1008A00070E085E090E00E949A1D8C014AE0BC0156
:1008B000C4010E94231FF60101900020E9F731973F
:1008C000CF018C199D09F70101900020E9F73197BC
:1008D000EE19FF09D8010D900020E9F71197A01B30
:1008E000B10BE80FF91FCF01825A9F4F61E070E012
:1008F0008A0F9B1F0E949A1DEC01B6010E94FE1EEA
:1009000068EF71E0CE010E94FE1E6FEF71E0CE0134
:100910000E94FE1E64E072E0CE010E94FE1EB7013E
:10092000CE010E94FE1E6BE072E0CE010E94FE1E10
:10093000B801CE010E94FE1E63E172E0CE010E946A
:10094000FE1E69E372E0CE010E94FE1E6BE472E0BF
:10095000CE010E94FE1E60E971E0CE010E94FE1EE3
:10096000C8010E944B1ECE01DF91CF911F910F91C4
:10097000FF90EF90DF90CF90BF90AF909F908F90BF
:100980000895AF92BF92CF92DF92EF92FF920F93B2
:100990001F93CF93DF93CDB7DEB7A2970FB6F8942E
:1009A000DEBF0FBECDBF6B017C015A01890180EC17
:1009B0008F8F88EA88A382EB89A388E18AA340E528
:1009C00050E0BE01615E7F4FCE0140960E943C1A0E
:1009D0009801A501C701B6010E943C047C0140E5D5
:1009E00050E0BE01615E7F4FCE0140960E94961A94
:1009F000892B79F1B701CE0140960E94F1088A89CE
:100A00009B899C838B8380E393E09A8389838C8981
:100A10008D838D899E89AF89B88D8E839F83A887AA
:100A2000B987898D9A8D9B878A878B8D9C8D9D87B1
:100A30008C878D8D8E878E8D8F87BE016F5F7F4FE8
:100A4000C8010E9424038C01CE0101960E94561A0F
:100A500008C082E792E00E9462020E94E20205E77B
:100A600011E0C7010E944B1E0E94C002CE014096B9
:100A70000E94561AC801A2960FB6F894DEBF0FBEA8
:100A8000CDBFDF91CF911F910F91FF90EF90DF903D
:100A9000CF90BF90AF9008958F929F92AF92BF92E8
:100AA000CF92DF92EF92FF920F931F93CF93DF933A
:100AB0004B015C018A017901C6E0D0E08EE8C82EC6
:100AC00082E0D82E9701A801C501B4010E94C1049B
:100AD00021E08B3A920739F485E892E090930B017C
:100AE00080930A0109C0D0920B01C0920A01855778
:100AF000914011F4219731F7DF91CF911F910F9120
:100B0000FF90EF90DF90CF90BF90AF909F908F902D
:100B100008958F929F92AF92BF92CF93DF9300D0B0
:100B200000D0CDB7DEB74B015C0129833A834B83FC
:100B30005C830E94F90ADC01CB0188199909AA0992
:100B4000BB0961E029813A814B815C81821793075F
:100B5000A407B50708F460E0862F0F900F900F9060
:100B60000F90DF91CF91BF90AF909F908F9008959D
:100B700026E040E855E260E070E080E793E00E9404
:100B8000BD0783EB92E00E94620261E087E00E9471
:100B9000E70B61E085E00E94E70B61E08DE00E94D9
:100BA000E70B61E080912E010E94E70B61E087E096
:100BB0000E94230C60E971E080E090E00E942A0B23
:100BC00060E087E00E94230C0C94E202CF92DF9257
:100BD000EF92FF92882309F441C00E94F90A6093C2
:100BE000640370936503809366039093670381E1C8
:100BF0000E94A10BBC01990F880B990B0E94731CDA
:100C00006B017C01AB01BC018DEB92E00E94740290
:100C100020E030E040EA50E4C701B6010E94281D00
:100C200020E030E048EC52E40E94281D20E030E053
:100C300040E85AE30E94281DAB01BC0140935C03CD
:100C400050935D0360935E0370935F038FEC92E0BB
:100C5000FF90EF90DF90CF900C947402FF90EF9094
:100C6000DF90CF900895FB01882349F0BA01550F1A
:100C7000880B990B21E030E0AF010C944C050895EE
:100C8000CF93209128013091290140912A01509160
:100C90002B01609168037091690380916A039091C0
:100CA0006B030E9489052091180130911901409130
:100CB0001A0150911B016091600370916103809152
:100CC0006203909163030E94890520912001309175
:100CD00021014091220150912301609164037091A0
:100CE000650380916603909167030E948905C82F70
:100CF0000E94E60560915C0370915D0380915E0344
:100D000090915F030E943B1CAB0163E073E08C2F6A
:100D1000CF910C9433060E94660B0E944F020E94F2
:100D2000B805C5E2D7E00E9440062097E1F30E9493
:100D30002507F9CF8091100190911101A091120126
:100D4000B0911301B095A095909581959F4FAF4FAD
:100D5000BF4F80936C0390936D03A0936E03B09389
:100D60006F038091280190912901A0912A01B091EF
:100D70002B01B095A095909581959F4FAF4FBF4F98
:100D80008093680390936903A0936A03B0936B0305
:100D90008091200190912101A0912201B091230125
:100DA000B095A095909581959F4FAF4FBF4F809381
:100DB000640390936503A0936603B09367038091E7
:100DC000180190911901A0911A01B0911B01B095E1
:100DD000A095909581959F4FAF4FBF4F8093600333
:100DE00090936103A0936203B09363030895FC01A1
:100DF000918D228D892F90E0805C9F4F821B9109FD
:100E00008F7399270895FC01918D828D981731F089
:100E1000828DE80FF11D858D90E008958FEF9FEF93
:100E20000895FC01918D828D981761F0828DDF010C
:100E3000A80FB11D5D968C91928D9F5F9F73928FCD
:100E400090E008958FEF9FEF08958AE798E0892B4F
:100E500049F080E090E0892B29F00E947A08811106
:100E60000C9400000895FC01848DDF01A80FB11DD2
:100E7000A35ABF4F2C91848D90E001968F739927D0
:100E8000848FA689B7892C93A089B1898C918064BD
:100E90008C93938D848D981306C00288F389E02D7E
:100EA00080818F7D80830895CF93DF93EC01888DBF
:100EB0008823C9F0EA89FB89808185FD05C0A8895E
:100EC000B9898C9186FD0FC00FB607FCF5CF8081E4
:100ED00085FFF2CFA889B9898C9185FFEDCFCE012E
:100EE0000E943307E7CFDF91CF910895EF92FF92F1
:100EF0000F931F93CF93DF93EC0181E0888F9B8D3D
:100F00008C8D981305C0E889F989808185FD24C0FE
:100F1000F62E0B8D10E00F5F1F4F0F731127E02E81
:100F20008C8DE8120CC00FB607FCFACFE889F9895E
:100F3000808185FFF5CFCE010E943307F1CF8B8DE5
:100F4000FE01E80FF11DE35AFF4FF0820B8FEA8993
:100F5000FB898081806207C0EE89FF896083E88910
:100F6000F98980818064808381E090E0DF91CF9176
:100F70001F910F91FF90EF900895CF92DF92EF9223
:100F8000FF921F93CF93DF93EC016A017B01122F35
:100F9000E889F98982E080834115514E6105710528
:100FA000B1F060E079E08DE390E0A70196010E9446
:100FB0002F1BDA01C9010197A109B109B695A795BF
:100FC00097958795AC01411580E15807A8F0E8890D
:100FD000F989108260E874E88EE190E0A70196013B
:100FE0000E942F1BBA01A9014150510961097109E1
:100FF0007695679557954795EC85FD855083EE85E9
:10100000FF854083188EEC89FD891083EA89FB896E
:10101000808180618083EA89FB8980818860808308
:10102000EA89FB89808180688083EA89FB898081E5
:101030008F7D8083DF91CF911F91FF90EF90DF90A4
:10104000CF9008951F920F920FB60F9211242F93F5
:101050008F939F93EF93FF93E0918003F09181032F
:101060008081E0918603F091870382FD12C0908118
:10107000809189038F5F8F7320918A03821751F0CB
:10108000E0918903F0E0E059FC4F958F809389034C
:1010900001C08081FF91EF919F918F912F910F90CF
:1010A0000FBE0F901F9018951F920F920FB60F92C0
:1010B00011242F933F934F935F936F937F938F935D
:1010C0009F93AF93BF93EF93FF9380E793E00E94CA
:1010D0003307FF91EF91BF91AF919F918F917F91D6
:1010E0006F915F914F913F912F910F900FBE0F9095
:1010F0001F90189580E793E00E94F70621E0892B66
:1011000009F420E0822F0895E0E7F3E013821282D1
:1011100088EE93E0A0E0B0E084839583A683B78354
:1011200082E193E09183808385EC90E095878487CA
:1011300084EC90E09787868780EC90E0918B808BA1
:1011400081EC90E0938B828B82EC90E0958B848B8A
:1011500086EC90E0978B868B118E128E138E148EF8
:101160000895CF92DF92EF92FF920F931F93CF9348
:10117000DF936C017A018B01C0E0D0E0CE15DF0572
:1011800089F0D8016D918D01D601ED91FC9101900E
:10119000F081E02DC6010995892B11F47E0102C072
:1011A0002196ECCFC701DF91CF911F910F91FF9056
:1011B000EF90DF90CF9008956115710579F0FB01F4
:1011C00001900020E9F73197AF01461B570BDC0176
:1011D000ED91FC910280F381E02D099480E090E094
:1011E00008950C94DC08DC01ED91FC910190F081F4
:1011F000E02D099460E971E00C94DC080F931F93D3
:10120000CF93DF93EC010E94DC088C01CE010E9499
:10121000FA08800F911FDF91CF911F910F910895D0
:101220004F925F926F927F92EF92FF920F931F9374
:10123000CF93DF93CDB7DEB7A1970FB6F894DEBF9B
:101240000FBECDBF7C01FA01CB0119A2223008F4F8
:101250002AE08E010F5D1F4F422E512C612C712C04
:10126000BF01A30192010E942F1BF901CA01015085
:1012700011096A3014F4605D01C0695CD8016C9397
:10128000232B242B252B61F7B801C7010E94DC0812
:10129000A1960FB6F894DEBF0FBECDBFDF91CF9100
:1012A0001F910F91FF90EF907F906F905F904F9004
:1012B0000895CF92DF92EF92FF920F931F93CF93F7
:1012C000DF93EC016A017B012115310579F4E88196
:1012D000F9810190F081E02D642FDF91CF911F9172
:1012E0000F91FF90EF90DF90CF9009942A30310555
:1012F000E9F477FF1AC06DE20E94F3088C014427DD
:101300005527BA014C195D096E097F092AE0CE0103
:101310000E941009800F911FDF91CF911F910F91B3
:10132000FF90EF90DF90CF9008952AE0B701A601DB
:10133000CE01DF91CF911F910F91FF90EF90DF9041
:10134000CF900C9410090F931F93CF93DF93EC0170
:101350009A01AB01770F660B770B0E9459098C013C
:10136000CE010E94FA08800F911FDF91CF911F914B
:101370000F9108954F925F926F927F928F929F92FA
:10138000AF92BF92CF92DF92EF92FF92CF93DF9313
:10139000EC016A017B01B22E9A01AB01C701B601D3
:1013A0000E94951D882319F06EE173E027C0260185
:1013B0003701E89477F82FEF3FEF4FE75FE7C3017E
:1013C000B2010E94951D81110DC02FEF3FEF4FE735
:1013D0005FE7C301B2010E94C41B18161CF462E24D
:1013E00073E00CC02FEF3FEF4FE75FE4C701B6019A
:1013F0000E94231D18169CF466E273E0CE01DF9173
:10140000CF91FF90EF90DF90CF90BF90AF909F90E3
:101410008F907F906F905F904F900C94DC082FEF2F
:101420003FEF4FE75FECC701B6010E94C41B87FD89
:10143000E3CF20E030E0A901C701B6010E94C41B40
:1014400087FF0AC06DE2CE010E94F3084C01F7FA53
:10145000F094F7F8F09402C0812C912CA12C60E05C
:1014600070E080E09FE3AB1441F020E030E040E228
:1014700051E40E94C91BA394F6CF9B01AC01C701A4
:10148000B6010E94581B2B013C010E94421C6B01BB
:101490007C010E94711C9B01AC01C301B2010E943E
:1014A000571B2B013C012AE0B701A601CE010E9487
:1014B00010097C01E80CF91CBB2039F06AE273E0EA
:1014C000CE010E94DC08E80EF91EDB2CDD2029F19C
:1014D00020E030E040E251E4C301B2010E94281D47
:1014E0002B013C010E94421C4B01A12CB12C2AE093
:1014F000B501A401CE010E941009E80EF91EC50134
:10150000B4010E94711C9B01AC01C301B2010E9495
:10151000571B2B013C01DA94D9CFC701DF91CF9142
:10152000FF90EF90DF90CF90BF90AF909F908F9003
:101530007F906F905F904F9008950F931F93CF937C
:10154000DF93EC010E94BA098C01CE010E94FA08D7
:10155000800F911FDF91CF911F910F9108951F92DE
:101560000F920FB60F9211242F933F938F939F9357
:10157000AF93BF9380910E0490910F04A09110043B
:10158000B091110430910D0423E0230F2D3720F486
:101590000196A11DB11D05C026E8230F0296A11DCD
:1015A000B11D20930D0480930E0490930F04A0931B
:1015B0001004B09311048091120490911304A0912F
:1015C0001404B09115040196A11DB11D809312045D
:1015D00090931304A0931404B0931504BF91AF919A
:1015E0009F918F913F912F910F900FBE0F901F9061
:1015F00018952FB7F89460910E0470910F048091A4
:101600001004909111042FBF08953FB7F894809172
:10161000120490911304A0911404B091150426B5FE
:10162000A89B05C02F3F19F00196A11DB11D3FBF1A
:10163000BA2FA92F982F8827820F911DA11DB11DA8
:10164000BC01CD0142E0660F771F881F991F4A95A4
:10165000D1F708958F929F92AF92BF92CF92DF926F
:10166000EF92FF926B017C010E94050B4B015C0124
:10167000C114D104E104F10401F10E942E1B0E9467
:10168000050BDC01CB0188199909AA09BB09883E21
:101690009340A105B10560F321E0C21AD108E10829
:1016A000F10888EE880E83E0981EA11CB11CC114BD
:1016B000D104E104F10419F7DBCFFF90EF90DF9044
:1016C000CF90BF90AF909F908F900895789484B5FD
:1016D000826084BD84B5816084BD85B5826085BD2E
:1016E00085B5816085BDEEE6F0E080818160808314
:1016F000E1E8F0E0108280818260808380818160F7
:101700008083E0E8F0E0808181608083E1EBF0E0BD
:10171000808184608083E0EBF0E080818160808361
:10172000EAE7F0E08081846080838081826080834A
:101730008081816080838081806880831092C10075
:1017400008958E3008F08E5087702091300190E41B
:10175000299F90011124822B80937C0080917A0034
:10176000806480937A0080917A0086FDFCCF80911E
:1017700078002091790090E0922B0895833081F0D9
:1017800028F4813099F08230A1F008958730A9F0D3
:101790008830B9F08430D1F4809180008F7D03C00F
:1017A000809180008F7780938000089584B58F7733
:1017B00002C084B58F7D84BD08958091B0008F777D
:1017C00003C08091B0008F7D8093B0000895CF93C7
:1017D000DF9390E0FC01EA55FF4F2491FC01E654B1
:1017E000FF4F8491882361F190E0880F991FFC01DD
:1017F000E852FF4FC591D491FC01E253FF4FA591F0
:10180000B491611109C09FB7F89488812095822313
:101810008883EC912E230BC0623061F49FB7F8945B
:101820003881822F809583238883EC912E2B2C93F3
:101830009FBF06C08FB7F894E8812E2B28838FBFF7
:10184000DF91CF9108951F93CF93DF93282F30E03E
:10185000F901EE56FF4F8491F901EA55FF4FD491FB
:10186000F901E654FF4FC491CC23C9F0162F811122
:101870000E94BE0BEC2FF0E0EE0FFF1FE253FF4F74
:10188000A591B4918FB7F894111105C09C91ED2FDB
:10189000E095E92302C0EC91ED2BEC938FBFDF9133
:1018A000CF911F910895CF93DF9300D0CDB7DEB7CE
:1018B00020916F0430917004CE01019621153105FD
:1018C00019F48357944002C0821B930B9A83898337
:1018D00089819A810F900F90DF91CF910895DC015B
:1018E000DA9620E030E04C91461307C0220F331FF8
:1018F000FC01E20FF31F83AD08952F5F3F4F129657
:101900002730310581F78FEF0895403885E2580779
:101910006105710560F0413080E4580788E368078D
:10192000710548F040E050E468E370E004C040E82E
:1019300055E260E070E026E080E793E00E94BD079A
:101940008091C20088608093C2000895CF93DF9396
:1019500000D0CDB7DEB7FB0183811F928F938281C8
:101960001F928F9381811F928F9380811F928F93FB
:1019700085EE90E09F938F935F934F9349835A83B3
:101980000E94481F0FB6F894DEBF0FBECDBF49813D
:10199000842F5A81952F0F900F90DF91CF9108954A
:1019A000662341F08FE39CE90197F1F700C0000046
:1019B0006150F6CF089580E793E00E94F706892BE7
:1019C000D1F380E793E00E941107089580E793E048
:1019D0000E9411070895CF92DF92EF92FF92CF936A
:1019E000DF93EC0180E793E00E9454070E94F90A1C
:1019F0006B017C018091C00087FF11C00E94F90A31
:101A0000AB01BC014C195D096E097F0942335105D8
:101A10006105710550F4CE010E94E60CEBCF80E722
:101A200093E00E94F706892B49F761E0CE01DF9130
:101A3000CF91FF90EF90DF90CF900C94D00CCF938C
:101A4000DF93EC010E94EB0C4AA95BA96CA97DA96C
:101A5000CE010E94850C19825B98DF91CF91089589
:101A6000CF93DF93EC010E94EB0C19825B9ADF911C
:101A7000CF910895FC011182FB96AC01475B5F4F4B
:101A80002FEFDF0111972C9320833296E417F5078F
:101A9000C1F70C94EB0C0F931F93CF93DF938C0142
:101AA00080E793E00E94540780E793E00E94F706E6
:101AB000EC01209729F0C8010E94E60C2197F9CF8C
:101AC000DF91CF911F910F9108952F923F924F92E6
:101AD0005F926F927F928F929F92AF92BF92CF92BE
:101AE000DF92EF92FF920F931F93CF93DF93CDB7C7
:101AF000DEB727970FB6F894DEBF0FBECDBF9F832A
:101B00008E834B012A0159013801FA82E982FC01D6
:101B100081818230C9F4FB0180818F3F21F0909157
:101B2000310189130EC0C114D10471F480913101C7
:101B3000F40180838091250490912604F201918321
:101B4000808380E090E09FC100E010E02E813F8123
:101B5000265C3F4F3C832B8333243A9452E0252E5E
:101B6000EE81FF8181818130E1F018F0823029F12E
:101B7000DAC021E0EE81FF812183309231011092A1
:101B8000260410922504109224041092230410922B
:101B9000220410921E0410921F041092200410922E
:101BA000210480912404883068F580E793E00E9446
:101BB000F706892B09F02DC125C08E819F810E94D7
:101BC000DB0CE981FA818083F1E0CF1AD1080F5F45
:101BD0001F4F80912504909126040197909326042D
:101BE00080932504892B09F09AC08E819F810E94E1
:101BF000DB0C8E819F810E94DB0CEE81FF811182C4
:101C000021E092C080912404883008F48CC0709147
:101C100016046091170450911804409119043091F2
:101C20001A0420911B0490911C0480911D047235AC
:101C300009F094C0633509F0DAC0593409F0D7C00F
:101C40004F3509F0D4C0323509F0D1C0253409F040
:101C5000CEC0913409F0CBC0843409F0C8C08E8165
:101C60009F810E94DB0C809331018E819F810E94B5
:101C7000DB0C90E090932604809325048E819F8155
:101C80000E94DB0C2091250430912604A901582BD9
:101C9000CA01509326044093250460913101EE81DE
:101CA000FF816F3F09F44DC0892B09F44AC021829E
:101CB000CF010E946F0C813071F58E819F810E944F
:101CC000DB0C80931E048E819F810E94DB0C80932D
:101CD0001F048E819F810E94DB0C809320048E81E3
:101CE0009F810E94DB0C809321048E819F810E9442
:101CF000DB0C90E090932304809322048E819F81DB
:101D00000E94DB0C2091220430912304382B309365
:101D1000230420932204F40180818F3FD1F421E039
:101D2000C114D10409F020E080E793E02D830E94E4
:101D3000F7062D81892B09F47CC0222309F410CFEA
:101D400078C011823092310110922604109225043D
:101D5000EACF90913101891711F3F3CE733509F071
:101D600046C0693409F043C05F3509F040C04334D0
:101D7000F1F53C34E1F52F34D1F59335C1F58534D7
:101D8000B1F58E819F810E94DB0C809331018E81A1
:101D90009F810E94DB0C8E819F810E94DB0C109240
:101DA000260410922504EE81FF81118220913101D9
:101DB000EB81FC8180E090E03081321310C0FC01A7
:101DC0007D96EE0FFF1F2E813F81E20FF31F3082C1
:101DD000880F991FF901E80FF91F33AE05C001966E
:101DE00032968730910541F70FEF1FEF09CF77E06B
:101DF00070932404609316045093170440931804BE
:101E00003093190420931A0490931B0480931C04AC
:101E10008ACFE090240481E08E0D80932404F12C7D
:101E200080E793E00E941107F701EA5EFB4F808391
:101E3000B8CE80913101F401808380912504909186
:101E40002604F20191838083A114B10479F080917A
:101E50001E04882359F0F501808380911F0481833B
:101E60008091200482838091210483836114710412
:101E700049F08091220490912304009719F0F30116
:101E800091838083C80127960FB6F894DEBF0FBEFA
:101E9000CDBFDF91CF911F910F91FF90EF90DF9019
:101EA000CF90BF90AF909F908F907F906F905F90FA
:101EB0004F903F902F9008959F92AF92BF92CF92F4
:101EC000DF92EF92FF920F931F93CF93DF9300D097
:101ED0001F92CDB7DEB75C01962E80E793E00E949B
:101EE000F706892BA9F08FEF8B831A821982C12CF8
:101EF000D12CE12CF12C00E010E020E030E0AE012C
:101F00004F5F5F4FBE016D5F7F4FC5010E94650D42
:101F10008FEF981661F0F501FA9688E4A80EB11CCF
:101F20008081891531F03296EA15FB05C9F781E009
:101F300001C080E00F900F900F90DF91CF911F9123
:101F40000F91FF90EF90DF90CF90BF90AF909F9058
:101F50000895CF92DF92EF92FF920F931F93680143
:101F6000790100E010E020E030E00E94650D1F9153
:101F70000F91FF90EF90DF90CF9008952F923F92B6
:101F80004F925F926F927F928F929F92AF92BF9289
:101F9000CF92DF92EF92FF920F931F93CF93DF9335
:101FA000CDB7DEB72E970FB6F894DEBF0FBECDBF0C
:101FB0002C013B014A873C872B871E870D87170121
:101FC0004601FC018181823009F44CC180E793E035
:101FD0000E94F706892BD1F08FEF89871A82198228
:101FE000C12CD12CE12CF12C00E010E020E030E0FD
:101FF000AE014F5F5F4FBE01675F7F4FC2010E941E
:10200000650D89819A81892B09F02CC1EB85FC85AE
:1020100064918F010F5F1F4F662339F080E793E0D3
:102020000E947607F8016491F5CF8D859E85892BF6
:1020300039F42114310441F181010F5F1F4F20C099
:102040000D851E85F80161918F01662391F380E76C
:1020500093E00E947607F6CF6D3009F010C1F801C9
:1020600084918A3009F00BC16BED80E793E00E9408
:1020700076076CED80E793E00E9476070E5F1F4FB6
:10208000F10164916111F0C0A114B104F1F4C20135
:102090000E944B0D6DE080E793E00E9476076AE0B6
:1020A00080E793E00E947607FA85F1117EC01982DD
:1020B0001E820E94F90A4B015C0130E1C32E37E217
:1020C000D32EE12CF12C10E040C0F40160816B3D77
:1020D00081F480E793E00E9476076DED80E793E05E
:1020E0000E947607FFEF8F1A9F0A81E0A81AB108B5
:1020F000CBCF6D30C9F4F40181818A30A9F4F2E0CC
:10210000AF16B10488F06BED80E793E00E9476078C
:102110006CED80E793E00E94760782E0880E911CC8
:1021200092E0A91AB108B0CFEFEF8E1A9E0A80E7AD
:1021300093E00E947607F1E0AF1AB108A5CF80E7DF
:1021400093E00E94F706892B71F40E94F90ADC01E2
:10215000CB0188199909AA09BB098C159D05AE0503
:10216000BF0568F36BC080E793E00E941107183049
:1021700080F401E0010FE1E0F0E0EC0FFD1FE10F62
:10218000F11D808389818F3429F0853419F000E0B6
:1021900001C0012F0E94F90A4B015C0123E0C22E0D
:1021A000D12CE12CF12C102FD0CFF301108215820D
:1021B0000E94F90A6B017C0190E1892E97E2992E29
:1021C000A12CB12C10E00E94F90ADC01CB018C1982
:1021D0009D09AE09BF0988159905AA05BB0538F503
:1021E00080E793E00E94F706892B69F380E793E08C
:1021F0000E941107FA851F1770F401E0010FF30127
:10220000E10FF11D8083F30180818F3429F0853443
:1022100019F000E001C0012F0E94F90A6B017C0156
:1022200083E0882E912CA12CB12C102FCCCFF30160
:102230008081898381818A8385818E8389818F349E
:1022400039F481E09A819B3409F480E081951FC0C4
:10225000853441F48A81823529F48E81882311F0F6
:102260008D30A9F48FEF13C0C80101961C016B3D9E
:1022700009F0F2CE80E793E00E9476076DED80E7EB
:1022800093E00E947607F80164918101FBCE2E96BF
:102290000FB6F894DEBF0FBECDBFDF91CF911F9177
:1022A0000F91FF90EF90DF90CF90BF90AF909F90F5
:1022B0008F907F906F905F904F903F902F900895F8
:1022C0005F926F927F928F929F92AF92BF92CF92C6
:1022D000DF92EF92FF920F931F93CF93DF93CDB7CF
:1022E000DEB72A970FB6F894DEBF0FBECDBF4C0104
:1022F0003B01542EC8014AE0BE016F5F7F4F298722
:102300003A870E94231FA12CB12CC12CD12CE12C87
:10231000F12C8E010F5F1F4F29853A85452DB301A2
:10232000C4010E94BE0F2A960FB6F894DEBF0FBEFE
:10233000CDBFDF91CF911F910F91FF90EF90DF9074
:10234000CF90BF90AF909F908F907F906F905F9055
:1023500008950F931F939B018A0140E060E070E0B5
:102360000E9460111F910F9108958F929F92AF92DA
:10237000BF92CF92DF92EF92FF920F931F93CF9372
:10238000DF93CDB7DEB72B970FB6F894DEBF0FBE45
:10239000CDBF5C01962E88248A9480E793E00E944A
:1023A000F706892B81F18B861A861986C12CD12CD0
:1023B000E12CF12C00E010E020E030E0AE01475FBE
:1023C0005F4FBE01655F7F4FC5010E94650D8B8524
:1023D000891119C089859A85892BF9F29B8628E095
:1023E000C22ED12CCE0101967C0100E010E020E04D
:1023F00030E0AE01475F5F4FBE01655F7F4FC501B3
:102400000E94650DE7CF9FEF991202C080E02CC0BB
:10241000F501FA9620E030E0808189111EC0F901B3
:102420007D96EE0FFF1FEA0DFB1D8FEF8083220FBD
:10243000331FF501E20FF31F83AF13E0892C912CBA
:10244000A40165E271E0C5010E94A9118823F1F29F
:102450008E3FE1F21150A1F707C02F5F3F4F329638
:1024600027303105C9F6D2CF2B960FB6F894DEBFD0
:102470000FBECDBFDF91CF911F910F91FF90EF90D5
:10248000DF90CF90BF90AF909F908F900895AF92C4
:10249000BF92CF92DF92EF92FF920F931F9357015B
:1024A0006801E12CF12C00E010E00E94BE0F1F91AA
:1024B0000F91FF90EF90DF90CF90BF90AF90089575
:1024C0006F927F928F929F92AF92BF92CF92DF9244
:1024D000EF92FF920F931F93CF93DF93EC016B0169
:1024E0004A0183E0782E5E0182E0A80EB11C90E3E1
:1024F000692EF501862D11928A95E9F7F601019072
:102500000020E9F731977F01EC18FD08860127E0EC
:1025100034E040E3B501CE010E94471281110EC0A4
:102520009C81992359F08D819E81AF81B885F401FA
:1025300080839183A283B38380E003C07A94711077
:10254000D8CFDF91CF911F910F91FF90EF90DF9047
:10255000CF90BF90AF909F908F907F906F90089595
:10256000AF92BF92CF92DF92EF92FF920F931F93A1
:10257000A12CB12CC12CD12CE12CF12C0E94BE0F2E
:102580001F910F91FF90EF90DF90CF90BF90AF9091
:1025900008958F929F92AF92BF92DF92EF92FF9237
:1025A0000F931F93CF93DF9300D0CDB7DEB74C01CD
:1025B000D62EBA017C0182E0E80EF11CA701C4010D
:1025C00029833A830E94A60C6EE571E0C7010E9440
:1025D000E31EF70101900020E9F73197EE19FF099A
:1025E0003A813F9329812F9352EEA52E50E0B52ECC
:1025F000BF92AF92FF273296E80DF91DFF93EF933C
:102600000E94481F6CE571E0C7010E94E31EF701BC
:1026100001900020E9F73197EE19FF091F930F93FE
:10262000BF92AF92FF273296E80DF91DFF93EF930B
:102630000E94481F0FB6F894DEBF0FBECDBFF2E078
:102640008701DF1203C029E431E004C0D1100CC0BF
:102650002DE331E048E0B701C4010E94B0128111BE
:102660002EC0F40184810DC021E331E048E0B701C0
:10267000C4010E94B012811122C0F4018481DD24C2
:10268000D3948F3FE9F0F401FA9620E030E0908196
:102690009F3F71F4F9017D96EE0FFF1FE80DF91DC4
:1026A0008083220F331F280D391DF901D3AE08C0D6
:1026B0002F5F3F4F32962730310549F701C08FEF2A
:1026C0000F900F90DF91CF911F910F91FF90EF909E
:1026D000DF90BF90AF909F908F9008950F931F93BE
:1026E000E0913201F09133013196E13078E0F70763
:1026F00010F0E0E0F4E0F0933301E0933201009158
:102700003201109133010E94C9121F910F91089557
:10271000AF92BF92CF92DF92EF92FF920F931F93EF
:10272000A12CB12CC12CD12CE12CF12C00E010E01B
:102730000E94BE0F1F910F91FF90EF90DF90CF90FE
:10274000BF90AF900895AF92BF92CF92DF92EF9279
:10275000FF920F931F93A12CB12CC12CD12C790186
:102760008A019B0140E060E070E00E94BE0F1F9173
:102770000F91FF90EF90DF90CF90BF90AF900895B2
:102780005F926F927F928F929F92AF92BF92CF9201
:10279000DF92EF92FF920F931F93CF93DF937C0111
:1027A000762E6A015901CA010E94EE1E682E592E2A
:1027B000E70122961F927F9282EE882E80E0982E6B
:1027C0009F928F92DF93CF930E94481F69E071E040
:1027D000CE010E94E31EFE0101900020E9F731972F
:1027E000EC1BFD0B5F926F929F928F92FF273296A8
:1027F000EE0DFF1DFF93EF930E94481F8DB79EB70C
:102800000C960FB6F8949EBF0FBE8DBFA114B104F5
:1028100009F463C0672DC7010E946F0C813009F075
:102820005CC067E071E0CE010E94E31EFE010190F2
:102830000020E9F73197AF014C1B5D0B55274E5F28
:102840005F4F4E0D5F1DB501C7010E94A60C01151B
:10285000110509F448C0672DC7010E946F0C813033
:1028600009F041C062E071E0CE010E94E31EFE016A
:1028700001900020E9F73197EC1BFD0B1F930F939C
:1028800082EE90E09F938F93FF273296EE0DFF1D0F
:10289000FF93EF930E94481F0F900F900F900F909F
:1028A0000F900F906DEF70E0CE010E94E31E960135
:1028B000AE0161EF70E0C701DF91CF911F910F91E1
:1028C000FF90EF90DF90CF90BF90AF909F908F9050
:1028D0007F906F905F900C94A31364E071E0CE0141
:1028E0000E94E31EB4CF6FEF70E0CE010E94E31EA2
:1028F000D9CFAF92BF92CF92DF92EF92FF920F9318
:102900001F9358016901E12CF12C8A019B0140E0E1
:1029100060E070E00E94BE0F1F910F91FF90EF905A
:10292000DF90CF90BF90AF9008955F926F927F92AB
:102930008F929F92AF92BF92CF92DF92EF92FF92CF
:102940000F931F93CF93DF936C01762E4A01522E83
:10295000632EEC0122961F926F9382EEA82E80E0E8
:10296000B82EBF92AF92DF93CF930E94481F63E2CD
:1029700071E0CE010E94E31EFE0101900020E9F704
:102980003197EC1BFD0B6F925F92BF92AF92FF27C6
:102990003296EC0DFD1DFF93EF930E94481F8DB7FB
:1029A0009EB70C960FB6F8949EBF0FBE8DBF011553
:1029B000110539F0672DC6010E946F0C813009F4B2
:1029C0004EC06EE171E0CE010E94E31EE114F104FD
:1029D00009F45CC0672DC6010E946F0C813009F0BC
:1029E00055C06CE171E0CE010E94E31EFE01019032
:1029F0000020E9F73197EC1BFD0BFF92EF9282EE7E
:102A000090E09F938F93FF273296EC0DFD1DFF936F
:102A1000EF930E94481F0F900F900F900F900F9010
:102A20000F9067E171E0CE010E94E31E052D162D87
:102A30009401AE016BE071E0C6010E947914DF9150
:102A4000CF911F910F91FF90EF90DF90CF90BF90AB
:102A5000AF909F908F907F906F905F90089561E20C
:102A600071E0CE010E94E31EFE0101900020E9F713
:102A70003197AF014C1B5D0B55274E5F5F4F4C0DDF
:102A80005D1DB801C6010E94A60CA0CF69E171E0EE
:102A9000CE010E94E31EC5CFEF92FF920F931F93CA
:102AA000FA0101900020E9F73197E41BF50B78015A
:102AB00089019F010E9495141F910F91FF90EF9043
:102AC0000895AF92BF92CF92DF92EF92FF920F9351
:102AD0001F939B01A12CB12CC12CD12CE12CF12CEA
:102AE0008A0140E060E070E00E94BE0F1F910F91EC
:102AF000FF90EF90DF90CF90BF90AF9008956F92CE
:102B00007F928F929F92AF92BF92CF92DF92EF927D
:102B1000FF920F931F93CF93DF931F92CDB7DEB732
:102B20003C015A01490169830E943A0DF30116AA3A
:102B300017AA10AE11AE6301F2E0CF0ED11C80E3F4
:102B4000F60111928A95E9F76981623051F426EB1A
:102B500031E040E3B601C3010E948813811191C0A6
:102B60000BC0662399F022EA31E040E3B601C301CD
:102B70000E948813811187C0F301428553856485C3
:102B8000758546AB57AB60AF71AF7EC081149104C1
:102B900059F0A601B401C3010E94A60CA60160E988
:102BA00071E0C3010E946115A114B10481F0A60176
:102BB000B501C3010E94A60CF50180819181A2811B
:102BC000B381F30186AB97ABA0AFB1AF0DC064E8A2
:102BD00071E0C6010E94E31E80ECF30186AB88EA37
:102BE00087AB10AE81E081AFE114F104B9F062E887
:102BF00071E0C6010E94E31EF60101900020E9F792
:102C00003197AF014C195D0955274E5F5F4F460D57
:102C1000571DB701C3010E94A60C05C063E771E010
:102C2000C6010E94E31E01151105B1F061E771E0D4
:102C3000C6010E94E31EF60101900020E9F73197DA
:102C4000AF014C195D0955274E5F5F4F460D571D6B
:102C5000B801C3010E94A60CA60160E671E0C301A1
:102C60000F90DF91CF911F910F91FF90EF90DF9028
:102C7000CF90BF90AF909F908F907F906F900C946B
:102C8000611582E001C081E00F90DF91CF911F912B
:102C90000F91FF90EF90DF90CF90BF90AF909F90FB
:102CA0008F907F906F900895EF92FF920F931F93F4
:102CB000E12CF12C00E010E020E030E040E050E0BA
:102CC00061E00E947F151F910F91FF90EF90089592
:102CD000AF92BF92CF92DF92EF92FF920F931F932A
:102CE0009B01A12CB12CC12CD12CE12CF12C00E0AA
:102CF00010E040E060E070E00E94BE0F1F910F9175
:102D0000FF90EF90DF90CF90BF90AF900895CF935A
:102D1000DF93EC0166EF73E00E94681668EE73E0E3
:102D2000CE01DF91CF910C946816AF92BF92CF92F3
:102D3000DF92EF920F931F93CF93DF93EC016B0120
:102D40005A011E2D213049F018F0223091F020C098
:102D50006AEC73E00E9468161BC0452B29F06EEAEE
:102D600073E00E946816BFC066E973E00E946816AF
:102D7000B6C0402F50E0A114B10429F06BE773E016
:102D80000E94A911B0C064E673E00E94A911A7C017
:102D9000153038F4412F50E063E573E0CE010E9416
:102DA000A911A114B10431F0A50167E473E0CE01CB
:102DB0000E946115E8818E2F90E08531910508F021
:102DC00096C0FC01EC5CFF4F0C94511B22E433E0F5
:102DD000A60165E373E077C020E333E0A60163E278
:102DE00073E071C02EE133E0A60161E173E06BC0D6
:102DF0002CE033E0A6016FEF72E065C02AEF32E00D
:102E0000A6016DEE72E05FC028EE32E0A6016BED28
:102E100072E059C026ED32E0A60169EC72E053C0C1
:102E200024EC32E0A60167EB72E04DC022EB32E009
:102E3000A60165EA72E047C020EA32E0A60163E934
:102E400072E041C02EE832E0A60161E872E03BC0CA
:102E50002CE732E0A6016FE672E035C02AE632E0E8
:102E6000A6016DE572E02FC028E532E0A6016BE413
:102E700072E029C026E432E0A60169E372E023C0D3
:102E800024E332E0A60167E272E01DC022E232E0F4
:102E9000A60165E172E017C020E132E0A60163E01F
:102EA00072E011C02DEF31E0A60160EF71E00BC0C0
:102EB0002AEE31E0A6016DED71E005C027ED31E0AD
:102EC000A6016AEC71E0CE01DF91CF911F910F91C5
:102ED000EF90DF90CF90BF90AF900C94A31315307C
:102EE00008F068CF57CF153008F05ECF53CF80E0A1
:102EF000DF91CF911F910F91EF90DF90CF90BF9016
:102F0000AF900895EF920F93EE24EA9400E00E94B0
:102F100095160F91EF900895BF92CF92DF92EF92A6
:102F2000FF920F931F93CF93DF93EC016A017B0114
:102F3000B22E61E083E00E94E70B5B9A61E082E0E1
:102F40000E94E70B5A9861E081E00E94E70B61E084
:102F500081E00E94230C60E080E00E94E70B61E0CA
:102F600080E00E94230C1EAA1FAA18AE19AEFE0113
:102F7000329680E3DF011D928A95E9F7CAAADBAA9F
:102F8000ECAAFDAAB701A601CE010E94850CCE01D4
:102F90000E941F0D5A9865E0CE010E94D00C5A9AEB
:102FA0006BE0CE010E94D00C14E00FEF6CE180E7E3
:102FB00093E00E9476070E94F90A6B017C010E944F
:102FC000F90ADC01CB018C199D09AE09BF09883CC7
:102FD0009105A105B10508F580E793E00E94F70689
:102FE000892B69F380E793E00E941107853539F753
:102FF00065E580E793E00E9476076AE0CE010E94D3
:10300000D00C6EE680E793E00E9476076AE080E7E6
:1030100093E00E94760711E00EEF115039F664E15B
:10302000CE010E94D00C13E0CE010E94EB0C60E3B5
:1030300074E0CE010E94681681110DC062E274E056
:10304000CE010E94681666E174E0CE010E94681607
:10305000B88200E009C06AE0CE010E94D00C115095
:1030600019F7CE010E94300D802FDF91CF911F9173
:103070000F91FF90EF90DF90CF90BF90089522E0E6
:1030800040E855E260E070E00C948C17CF92DF923C
:10309000EF92FF920F931F93CF93DF937C016A010E
:1030A0008B01C0E0D0E0CC15DD0589F0D701ED91B2
:1030B000FC91068CF78DE02DC70109958F3FBFEF7E
:1030C0009B0729F0F80181938F012196ECCFCE0167
:1030D000DF91CF911F910F91FF90EF90DF90CF90F4
:1030E00008950F931F93CF93DF93EC01E881F9814B
:1030F000048CF58DE02D09958C010115110551F019
:10310000E881F981068CF78DE02DCE0109950150FB
:103110001109F3CFDF91CF911F910F9108950F9374
:103120001F93CF93DF938C01DC01ED91FC9106A0FE
:10313000F7A1E02D0995EC01892B61F0D801ED9103
:10314000FC9106A0F7A1E02D62E474E0C8010995A6
:10315000C80FD91FCE01DF91CF911F910F91089514
:1031600021E0FC0184818F3F09F420E0822F089543
:103170000F931F93CF93DF9300D01F92CDB7DEB78D
:10318000FC0184818B831A8219828F3F71F000E0E9
:1031900010E020E030E0AE014F5F5F4FBE016D5F99
:1031A0007F4F87E294E00E94A90F89819A810F9056
:1031B0000F900F90DF91CF911F910F910895EF9293
:1031C000FF920F931F93CF93DF9300D000D0CDB722
:1031D000DEB7FC0124812B832F3FB9F07C0101E095
:1031E00010E09E012C5F3F4FAE014F5F5F4FBE016D
:1031F0006D5F7F4F87E294E00E94A90F009729F04E
:10320000019631F48FEFF70184838FEF9FEF02C0B7
:103210008C8190E00F900F900F900F90DF91CF91E5
:103220001F910F91FF90EF9008951F93CF93DF931D
:10323000FC0164816F3FB1F0EC0187E294E00E94F1
:103240005C0F182F882319F08FEF8C830BC08E85AD
:103250008A3050F06C8187E294E00E94B5118FEFC4
:103260008C8303C010E001C011E0812FDF91CF916A
:103270001F910895CF93DF93FC0124812F3F81F0AC
:10328000EC010190F081E02D02A0F3A1E02D099561
:103290006C8187E294E00E94B5118FEF8C831E86CB
:1032A000DF91CF910895CF92DF92EF92FF920F932B
:1032B0001F93CF93DF931F92CDB7DEB76983FC01D5
:1032C00064816F3F01F16C01FC01E184F2848C01A7
:1032D0000B5F1F4F21E030E0AE014F5F5F4F87E291
:1032E00094E00E949514F601882381F086858F5F13
:1032F00086878A3040F0648187E294E00E94B511AD
:103300008FEFF601848380E090E003C0168681E0B1
:1033100090E00F90DF91CF911F910F91FF90EF9070
:10332000DF90CF900895CF92DF92EF92FF920F93AC
:103330001F93CF93DF93DC011496EC91EF3FF1F0F4
:10334000C52ED42EAB01EC01E984FA848C010B5F0D
:103350001F4F2D2D3C2D6E2F87E294E00E94951477
:10336000882379F08E858F5F8E878A3038F06C8164
:1033700087E294E00E94B5118FEF8C8380E090E0AB
:1033800003C01E868D2D9C2DDF91CF911F910F9133
:10339000FF90EF90DF90CF900895EF92FF920F9300
:1033A0001F93CF93DF93EC019C819F3FD1F07B0172
:1033B00009851A859E012B5F3F4FAB01692F87E27C
:1033C00094E00E944C15882379F08E858F5F8E875C
:1033D0008A3038F06C8187E294E00E94B5118FEF5B
:1033E0008C8380E090E009C01E86F70101900020E8
:1033F000E9F73197CF018E199F09DF91CF911F9186
:103400000F91FF90EF900895EF92FF920F931F930B
:10341000CF93DF937B01FC0164816F3F21F1EC01CD
:10342000018512859C012B5F3F4FA70187E294E045
:103430000E94C013882369F08E858F5F8E878A3043
:1034400090F06C8187E294E00E94B5118FEF8C833D
:103450000AC01E86C701DF91CF911F910F91FF9087
:10346000EF900C94EE1E80E090E0DF91CF911F91E1
:103470000F91FF90EF900895FC01DB0113821282FF
:1034800080E393E0918380838C91858311968C9166
:103490001197868312968C911297878313968C913D
:1034A0008087528741878FEF8483089520E333E03C
:1034B000FC01318320830C943A19FF920F931F93E0
:1034C000CF93DF93FC0124812F3F19F080E090E03F
:1034D0001BC0F62EEC010385148521853285AC01D5
:1034E0004B5F5F4F87E294E00115110519F00E94D0
:1034F000C91202C00E946E138C838C818F3F31F3FE
:10350000FD861E8681E090E0DF91CF911F910F91A3
:10351000FF90089560E00C945D1A61E00C945D1AD0
:1035200060E00C945D1A61E00C945D1AFC01DB0113
:103530008C91858311968C911197868312968C912C
:103540001297878313968C9180875287418760E01A
:10355000CF010C945D1AFC01DB018C9185831196DF
:103560008C911197868312968C911297878313966C
:103570008C9180875287418761E0CF010C945D1A5E
:10358000FC01DB018C91858311968C9111978683C8
:1035900012968C911297878313968C91808752870D
:1035A00041873487238760E0CF010C945D1AFC01CA
:1035B000DB018C91858311968C91119786831296ED
:1035C0008C911297878313968C91808752874187BD
:1035D0003487238761E0CF010C945D1A0F931F930A
:1035E000CF93DF93EC018A01AC014B5F5F4F87E221
:1035F00094E00E94601281110AC01A87098760E076
:10360000CE01DF91CF911F910F910C945D1A80E054
:1036100090E0DF91CF911F910F9108950F931F9329
:10362000CF93DF93EC018A01AC014B5F5F4F87E2E0
:1036300094E00E94601281110AC01A87098761E034
:10364000CE01DF91CF911F910F910C945D1A80E014
:1036500090E0DF91CF911F910F9108950895A1E21D
:103660001A2EAA1BBB1BFD010DC0AA1FBB1FEE1FFC
:10367000FF1FA217B307E407F50720F0A21BB30B47
:10368000E40BF50B661F771F881F991F1A9469F7C3
:1036900060957095809590959B01AC01BD01CF011F
:1036A0000895EE0FFF1F0590F491E02D09945058F6
:1036B000BB27AA270E946F1B0C94E91C0E94DB1CED
:1036C00038F00E94E21C20F039F49F3F19F426F4F0
:1036D0000C94D81C0EF4E095E7FB0C94D21CE92F57
:1036E0000E94FA1C58F3BA176207730784079507FC
:1036F00020F079F4A6F50C941C1D0EF4E0950B2E29
:10370000BA2FA02D0B01B90190010C01CA01A00133
:103710001124FF27591B99F0593F50F4503E68F18E
:103720001A16F040A22F232F342F4427585FF3CFCF
:10373000469537952795A795F0405395C9F77EF4A0
:103740001F16BA0B620B730B840BBAF09150A1F0E9
:10375000FF0FBB1F661F771F881FC2F70EC0BA0F6F
:10376000621F731F841F48F4879577956795B795F7
:10377000F7959E3F08F0B0CF9395880F08F09927F2
:10378000EE0F9795879508950E94AE1C08F481E08E
:1037900008950E94DD1B0C94E91C0E94E21C58F065
:1037A0000E94DB1C40F029F45F3F29F00C94D21CEE
:1037B00051110C941D1D0C94D81C0E94FA1C68F326
:1037C0009923B1F3552391F3951B550BBB27AA27DA
:1037D00062177307840738F09F5F5F4F220F331F14
:1037E000441FAA1FA9F335D00E2E3AF0E0E832D0DC
:1037F00091505040E695001CCAF72BD0FE2F29D0DF
:10380000660F771F881FBB1F261737074807AB07B0
:10381000B0E809F0BB0B802DBF01FF2793585F4F25
:103820003AF09E3F510578F00C94D21C0C941D1D6B
:103830005F3FE4F3983ED4F3869577956795B79507
:10384000F7959F5FC9F7880F911D9695879597F912
:103850000895E1E0660F771F881FBB1F621773078B
:103860008407BA0720F0621B730B840BBA0BEE1FA0
:1038700088F7E09508950E94421C6894B1110C9459
:103880001D1D08950E94021D88F09F5798F0B92FC2
:103890009927B751B0F0E1F0660F771F881F991F85
:1038A0001AF0BA95C9F714C0B13091F00E941C1DEE
:1038B000B1E008950C941C1D672F782F8827B85FFE
:1038C00039F0B93FCCF3869577956795B395D9F7DD
:1038D0003EF490958095709561957F4F8F4F9F4FE7
:1038E0000895E89409C097FB3EF4909580957095F3
:1038F00061957F4F8F4F9F4F9923A9F0F92F96E93C
:10390000BB279395F695879577956795B795F111B0
:10391000F8CFFAF4BB0F11F460FF1BC06F5F7F4F4D
:103920008F4F9F4F16C0882311F096E911C077235F
:1039300021F09EE8872F762F05C0662371F096E868
:10394000862F70E060E02AF09A95660F771F881F37
:10395000DAF7880F9695879597F90895990F0008DB
:10396000550FAA0BE0E8FEEF16161706E807F90751
:10397000C0F012161306E407F50798F0621B730BEC
:10398000840B950B39F40A2661F0232B242B252B6D
:1039900021F408950A2609F4A140A6958FEF811D10
:1039A000811D089597F99F6780E870E060E00895B1
:1039B0009FEF80EC089500240A9416161706180647
:1039C0000906089500240A94121613061406050623
:1039D0000895092E0394000C11F4882352F0BB0FB4
:1039E00040F4BF2B11F460FF04C06F5F7F4F8F4F17
:1039F0009F4F089557FD9058440F551F59F05F3F52
:103A000071F04795880F97FB991F61F09F3F79F000
:103A100087950895121613061406551FF2CF469582
:103A2000F1DF08C0161617061806991FF1CF869504
:103A30007105610508940895E894BB2766277727E8
:103A4000CB0197F908950E94AE1C08F48FEF0895FA
:103A50000E943B1D0C94E91C0E94DB1C38F00E9464
:103A6000E21C20F0952311F00C94D21C0C94D81C6D
:103A700011240C941D1D0E94FA1C70F3959FC1F334
:103A8000950F50E0551F629FF001729FBB27F00D0C
:103A9000B11D639FAA27F00DB11DAA1F649F662761
:103AA000B00DA11D661F829F2227B00DA11D621FB0
:103AB000739FB00DA11D621F839FA00D611D221F6A
:103AC000749F3327A00D611D231F849F600D211D4E
:103AD000822F762F6A2F11249F5750409AF0F1F0D1
:103AE00088234AF0EE0FFF1FBB1F661F771F881F3A
:103AF00091505040A9F79E3F510580F00C94D21C84
:103B00000C941D1D5F3FE4F3983ED4F386957795A2
:103B10006795B795F795E7959F5FC1F7FE2B880FDF
:103B2000911D9695879597F908950E94AE1C880B74
:103B3000990B08950F931F93CF93DF93869F800176
:103B4000879F100D969F100D1124C8010E94B61D6D
:103B5000EC01009729F0A80160E070E00E94F71ED8
:103B6000CE01DF91CF911F910F910895CF93DF93F5
:103B70008230910510F482E090E0E0917104F091C0
:103B8000720420E030E0C0E0D0E0309711F14081D5
:103B9000518148175907C0F04817590761F48281CD
:103BA0009381209719F09B838A832BC09093720492
:103BB0008093710426C02115310519F0421753076F
:103BC00018F49A01BE01DF01EF010280F381E02DBC
:103BD000DCCF2115310509F1281B390B24303105C3
:103BE00090F412968D919C9113976115710521F0B7
:103BF000FB019383828304C09093720480937104C9
:103C0000FD01329644C0FD01E20FF31F81939193B1
:103C1000225031092D933C933AC020916F0430918A
:103C20007004232B41F42091020130910301309361
:103C3000700420936F04209100013091010121153F
:103C4000310541F42DB73EB7409104015091050173
:103C5000241B350BE0916F04F0917004E217F30719
:103C6000A0F42E1B3F0B2817390778F0AC014E5FEC
:103C70005F4F2417350748F04E0F5F1F50937004B5
:103C800040936F048193919302C0E0E0F0E0CF0194
:103C9000DF91CF9108950F931F93CF93DF930097F8
:103CA00009F48CC0FC0132971382128200917104D6
:103CB000109172040115110581F420813181820F68
:103CC000931F20916F04309170042817390779F5FC
:103CD000F0937004E0936F0471C0D80140E050E0AD
:103CE000AE17BF0750F412962D913C911397AD017A
:103CF0002115310509F1D901F3CF9D01DA01338393
:103D0000228360817181860F971F8217930769F460
:103D1000EC0128813981260F371F2E5F3F4F3183F9
:103D200020838A819B8193838283452B29F4F0939E
:103D30007204E093710442C01396FC93EE931297C1
:103D4000ED01499159919E01240F351FE217F307A8
:103D500071F480819181840F951F029611969C9336
:103D60008E938281938113969C938E931297E0E0B9
:103D7000F0E0D80112968D919C911397009719F05D
:103D8000F8018C01F6CF8D919C9198012E5F3F4FE9
:103D9000820F931F20916F04309170042817390708
:103DA00069F4309729F4109272041092710402C0E1
:103DB000138212821093700400936F04DF91CF91ED
:103DC0001F910F910895FB01DC010D900020E9F790
:103DD000119705900D920020E1F70895FC010590E0
:103DE0000020E9F7809590958E0F9F1F0895DC01C4
:103DF00001C06D9341505040E0F70895FB01DC0194
:103E00000D900020E9F7119701900D920020E1F745
:103E10000895FB0151915523A9F0BF01DC014D919B
:103E200045174111E1F759F4CD010190002049F007
:103E30004D9140154111C9F3FB014111EFCF81E0D4
:103E400090E001970895BB274A3031F4992322F47A
:103E5000BDE2909581959F4F0C942F1FBB27FB01CE
:103E60005527AA27880F991FAA1FA41710F0A41B73
:103E700083955051B9F7A05DAA3308F0A95DA193CD
:103E8000009779F7B111B1931192CB010C945321A2
:103E9000AEE0B0E0EEE4FFE10C9407220D891E894C
:103EA0008EE08C831A8309838FEF9FE79E838D8337
:103EB000AE01475E5F4F6F89788DCE0101960E94FB
:103EC0006B1F2F813885F801E20FF31F10822E96A9
:103ED000E4E00C942322ACE0B0E0E1E7FFE10C94D5
:103EE000F9217C016B018A01FC0117821682838112
:103EF00081FFBDC1CE0101964C01F7019381F6010E
:103F000093FD859193FF81916F01882309F4ABC1E3
:103F1000853239F493FD859193FF81916F0185324C
:103F200029F4B70190E00E946321E7CF512C312C96
:103F300020E02032A0F48B3269F030F4803259F066
:103F4000833269F420612CC08D3239F0803339F42A
:103F5000216026C02260246023C0286021C027FD84
:103F600027C030ED380F3A3078F426FF06C0FAE06B
:103F70005F9E300D1124532E13C08AE0389E300D01
:103F80001124332E20620CC08E3221F426FD6BC129
:103F9000206406C08C3611F4206802C0883641F4D3
:103FA000F60193FD859193FF81916F018111C1CF3E
:103FB000982F9F7D9554933028F40C5F1F4FFFE39B
:103FC000F9830DC0833631F0833771F0833509F002
:103FD0005BC022C0F801808189830E5F1F4F44249B
:103FE0004394512C540115C03801F2E06F0E711C3E
:103FF000F801A080B18026FF03C0652D70E002C0EB
:104000006FEF7FEFC5012C870E9448212C018301AF
:104010002C852F77222E17C03801F2E06F0E711C0D
:10402000F801A080B18026FF03C0652D70E002C0BA
:104030006FEF7FEFC5012C870E943D212C012C855D
:104040002068222E830123FC1BC0832D90E048169C
:104050005906B0F4B70180E290E00E9463213A94DF
:10406000F4CFF50127FC859127FE81915F01B7010F
:1040700090E00E94632131103A94F1E04F1A510808
:104080004114510471F7E5C0843611F0893639F5D1
:10409000F80127FF07C060817181828193810C5FE5
:1040A0001F4F08C060817181072E000C880B990B8F
:1040B0000E5F1F4F2F76722E97FF09C09095809547
:1040C000709561957F4F8F4F9F4F2068722E2AE029
:1040D00030E0A4010E949B21A82EA81844C0853777
:1040E00029F42F7EB22E2AE030E025C0F22FF97F8E
:1040F000BF2E8F36C1F018F4883579F0B4C0803700
:1041000019F0883721F0AFC02F2F2061B22EB4FEF6
:104110000DC08B2D8460B82E09C024FF0AC09F2FCC
:104120009660B92E06C028E030E005C020E130E0FE
:1041300002C020E132E0F801B7FE07C06081718162
:10414000828193810C5F1F4F06C06081718180E086
:1041500090E00E5F1F4FA4010E949B21A82EA8187B
:10416000FB2DFF777F2E76FE0BC0372D3E7FA514EB
:1041700050F474FE0AC072FC08C0372D3E7E05C0A4
:10418000BA2C372D03C0BA2C01C0B52C34FF0DC09A
:10419000FE01EA0DF11D8081803311F4397E09C0E2
:1041A00032FF06C0B394B39404C0832F867809F01D
:1041B000B39433FD13C030FF06C05A2CB31418F467
:1041C000530C5B18B32CB31468F4B70180E290E091
:1041D0003C870E946321B3943C85F5CFB31410F45F
:1041E0003B1801C0312C34FF12C0B70180E390E0CE
:1041F0003C870E9463213C8532FF17C031FD03C01C
:1042000088E790E002C088E590E0B7010CC0832FFA
:10421000867859F031FF02C08BE201C080E237FDA1
:104220008DE2B70190E00E946321A51438F4B70134
:1042300080E390E00E9463215A94F7CFAA94F4019E
:10424000EA0DF11D8081B70190E00E946321A11069
:10425000F5CF332009F451CEB70180E290E00E94FF
:1042600063213A94F6CFF7018681978102C08FEFE0
:104270009FEF2C96E2E10C941522FC010590615011
:1042800070400110D8F7809590958E0F9F1F08956C
:10429000FC016150704001900110D8F78095909515
:1042A0008E0F9F1F0895DC01FC01672F719177230A
:1042B000E1F7329704C07C916D9370836291AE17E1
:1042C000BF07C8F308950F931F93CF93DF93FB01AC
:1042D000238121FD03C08FEF9FEF28C022FF16C06E
:1042E00046815781248135814217530744F4A081C8
:1042F000B1819D012F5F3F4F318320838C932681B5
:1043000037812F5F3F4F3783268310C0EB01092F82
:10431000182F0084F185E02D0995892BE1F68E8117
:104320009F8101969F838E83812F902FDF91CF9164
:104330001F910F910895FA01AA27283051F12031D9
:1043400081F1E8946F936E7F6E5F7F4F8F4F9F4F29
:10435000AF4FB1E03ED0B4E03CD0670F781F891F6B
:104360009A1FA11D680F791F8A1F911DA11D6A0F39
:10437000711D811D911DA11D20D009F468943F91EC
:104380002AE0269F11243019305D3193DEF6CF01EB
:104390000895462F4770405D4193B3E00FD0C9F7B1
:1043A000F6CF462F4F70405D4A3318F0495D31FD1E
:1043B0004052419302D0A9F7EACFB4E0A695979571
:1043C000879577956795BA95C9F700976105710547
:1043D00008959B01AC010A2E069457954795379591
:1043E0002795BA95C9F7620F731F841F951FA01DEB
:1043F00008952F923F924F925F926F927F928F9289
:104400009F92AF92BF92CF92DF92EF92FF920F9363
:104410001F93CF93DF93CDB7DEB7CA1BDB0B0FB66D
:10442000F894DEBF0FBECDBF09942A88398848882A
:104430005F846E847D848C849B84AA84B984C884C0
:10444000DF80EE80FD800C811B81AA81B981CE0FB7
:10445000D11D0FB6F894DEBF0FBECDBFED0108959C
:04446000F894FFCFFE
:10446400000073048000010000008E0280EE36001C
:1044740060EA0000A0BB0D0060EA0000009749015B
:104484001027000040771B0060EA00000B000D00BD
:1044940001FF000443757272656E74204D656D6F83
:1044A4007279003136303436343434363234363876
:1044B40030333600574C414E2D4B6162656C0057CA
:1044C40069466920536869656C6420636F6E6E6524
:1044D40063746564006661696C75726500436F6E30
:1044E4006E656374696F6E3A20636C6F73650D0A51
:1044F4000D0A0074656D7052657475726E56616C48
:104504007565007375636365737300696E697469B7
:104514006174007265736574656400474554202FA7
:1045240076616C75656765742E70687000474554D4
:10453400202F63616C6C5F696E6974696174696F63
:104544006E2E70687000474554202F776174657231
:10455400696E672E706870003F6E616D653D005432
:104564006573740026747970653D002676616C75F8
:10457400653D00266B65793D633337383136333317
:104584006631666231646463613737633930333866
:1045940064343939343334350020485454502F317D
:1045A4002E310D0A486F73743A20003139322E319E
:1045B40036382E3137382E323400757267656E7492
:1045C4006C79206472790076657279206D6F6973F5
:1045D400740073657276657220756E617661696CBC
:1045E40061626C6500696E69746961746500726505
:1045F400736574005265736574496E697469617496
:10460400696F6E0050726F7A656E74666575636863
:104614007465007465737420646174610074656DFD
:104624007020616E616C6F6720696E7075740054E0
:10463400656D70657261747572654D6561737572CF
:10464400656D656E74526573756C7443656C7369DE
:10465400757300436865636B496E69746961746955
:104664006F6E0054656D7065726174757200000040
:1046740000007607B108F7061107030754076E61B7
:104684006E00696E66006F7666002E000000000002
:10469400531993198A1A8D1A901A931A961AAB1AE7
:1046A400C01AD71AEE1A0E1B15193A19B818DF18C2
:0C46B40046187118CD19041A8F18B018A0
:00000001FF
