:100000000C942D020C9455020C9455020C9455023C
:100010000C9455020C9455020C9455020C94550204
:100020000C9455020C9455020C9455020C945502F4
:100030000C9455020C9455020C9455020C945502E4
:100040000C94960A0C9455020C94BD080C94EF087D
:100050000C9455020C9455020C9455020C945502C4
:100060000C9455020C945502CD16D316D916DF16F2
:10007000E516EB16F116F716FD16031709170F17FD
:1000800015171B17211727172D17331739173F1768
:1000900045170000000800020100000304070000EB
:1000A000000000000000010204081020408001024E
:1000B00004081020010204081020040404040404AD
:1000C000040402020202020203030303030300000A
:1000D0000000250028002B0000000000240027005D
:1000E0002A0025750025692E25692E25692E25698A
:1000F0000041542B5253495F534E443D002C002C79
:1001000030002C002C30002C002C0041542B52537A
:10011000495F534E443D002C002C30002C002C3005
:10012000002C002C0041542B5253495F434C533D4B
:100130000041542B5253495F5544503D0041542BCC
:100140005253495F5443503D0041542B5253495F31
:10015000204D554C5449434153543D002C002C0034
:1001600041542B5253495F4950434F4E463D302C2A
:10017000002C002C3235352E3235352E3235352EC9
:1001800030002C003139322E3136382E302E3100ED
:1001900041542B5253495F444E5353455256455296
:1001A0003D0041542B5253495F4950434F4E463D09
:1001B000312C302C300041542B5253495F4950436D
:1001C0004F4E463D322C302C300041542B52534977
:1001D0005F4449534153534F430041542B525349B9
:1001E0005F4A4F494E3D002C31322C320041542B96
:1001F0005253495F4A4F494E3D002C31322C310059
:1002000041542B5253495F4A4F494E3D002C3132E5
:100210002C300041542B5253495F4A4F494E3D0008
:100220002C392C320041542B5253495F4A4F494ECE
:100230003D002C392C310041542B5253495F4A4F19
:10024000494E3D002C392C300041542B5253495F0C
:100250004A4F494E3D002C372C320041542B52530B
:10026000495F4A4F494E3D002C372C310041542BF9
:100270005253495F4A4F494E3D002C372C300041C4
:10028000542B5253495F4A4F494E3D002C342C3277
:100290000041542B5253495F4A4F494E3D002C3484
:1002A0002C310041542B5253495F4A4F494E3D0077
:1002B0002C342C300041542B5253495F4A4F494E45
:1002C0003D002C322C320041542B5253495F4A4F8F
:1002D000494E3D002C322C310041542B5253495F82
:1002E0004A4F494E3D002C322C300041542B525382
:1002F000495F4A4F494E3D002C312C320041542B6E
:100300005253495F4A4F494E3D002C312C31004138
:10031000542B5253495F4A4F494E3D002C312C30EB
:100320000041542B5253495F4A4F494E3D002C30F7
:100330002C320041542B5253495F4A4F494E3D00E5
:100340002C302C310041542B5253495F4A4F494EB7
:100350003D002C302C300041542B5253495F5053F8
:100360004B3D0041542B5253495F415554484D4F2A
:1003700044453D0041542B5253495F4E4554574F1D
:10038000524B3D494253532C312C0041542B525374
:10039000495F4E4554574F524B3D494253535F536B
:1003A00045432C312C0041542B5253495F4E455448
:1003B000574F524B3D494253532C302C300041543F
:1003C0002B5253495F4E4554574F524B3D49425370
:1003D000535F5345432C302C300041542B5253492A
:1003E0005F4E4554574F524B3D494E465241535430
:1003F000525543545552450041542B5253495F5373
:1004000043414E3D300041542B5253495F4E554DB0
:100410005343414E3D300041542B5253495F444EAB
:10042000534745543D0041542B5253495F494E496F
:10043000540041542B5253495F42414E443D3000D9
:1004400041542B5253495F465756455253494F4EDC
:100450003F000D0A000063071F0911241FBECFEFE4
:10046000D8E0DEBFCDBF13E0A0E0B1E0EEE5F0E400
:1004700002C005900D92A636B107D9F724E0A6E692
:10048000B3E001C01D92A537B207E1F712E0CDE25B
:10049000D2E004C02197FE010E94771BCB32D10726
:1004A000C9F70E9454070C942D200C940000089565
:1004B000CF93DF93EC0189E294E00E94170DBE0117
:1004C00082E793E00E948C0989E294E0DF91CF916A
:1004D0000C94060DCF93DF93EC0189E294E00E9427
:1004E000170DBE0182E793E00E94990989E294E02A
:1004F000DF91CF910C94060D0F931F93CF93DF9351
:100500008C01EB0189E294E00E94170DB80182E7AB
:1005100093E00E948C0966E772E082E793E00E9414
:100520008C09BE0182E793E00E94990989E294E078
:10053000DF91CF911F910F910C94060DCF93DF9314
:100540000E943A0CEC0189E294E00E94170D6CE2E3
:1005500071E082E793E00E948C0966E772E082E72F
:1005600093E00E948C094AE050E0BE0182E793E0EC
:100570000E943E0A89E294E0DF91CF910C94060D2F
:100580001F93CF93DF93C3E3D0E0112369F021974A
:1005900009F449C089E294E00E943618182F8BE3D1
:1005A00091E00E946A02F1CF89E294E00E946E1607
:1005B00020E04DE451E06EE571E089E294E00E94B4
:1005C0006917182FC3E3D0E0112389F0219759F15F
:1005D00020E04DE451E06EE571E089E294E00E9494
:1005E0006917182F89E691E00E946A02EDCF89E22F
:1005F00094E00E943B16182FC3E3D0E0112361F072
:10060000219789F089E294E00E943B16182F8BE72E
:1006100091E00E946A02F2CF8EE891E0DF91CF91E3
:100620001F910C946A02DF91CF911F9108953F9220
:100630004F925F926F927F928F929F92AF92BF92F2
:10064000CF92DF92EF92FF920F931F93CF93DF939E
:10065000CDB7DEB7CC52D1400FB6F894DEBF0FBE97
:10066000CDBF4C017B010E94E00A2B013C0184EAD2
:1006700091E00E946A02C301B201A12CB12C00E0FA
:1006800010E09E012F5F3F4F6901DC01CB0184190F
:100690009509A609B709813C944DA140B10508F020
:1006A00053C0A114B10409F04FC0C7010E94AF1894
:1006B000892B91F0C7010E94D6188F3F3FEF930717
:1006C00059F00B3221E01207A8F7F601E00FF11FF5
:1006D00080830F5F1F4FEECF0115110539F1C70160
:1006E0000E940C19811122C0C7010E94311989E2B0
:1006F00094E00E947317F601E00FF11F1082C6010B
:100700000E945802B401C6010E94061D8C199D0961
:1007100097FD0FC0B40182EB91E00E947C0292E051
:10072000A92EB12C00E010E0332433940E94E00A9B
:10073000ACCF89EC91E00E946A0282E0A82EB12C35
:1007400000E010E0312CF2CF81ED91E00E946A02CE
:10075000C7010E946818832DC45DDE4F0FB6F89460
:10076000DEBF0FBECDBFDF91CF911F910F91FF90E4
:10077000EF90DF90CF90BF90AF909F908F907F9041
:100780006F905F904F903F9008958130910529F0D0
:10079000029729F424EF31E002C021EE31E0C901D3
:1007A00008958F929F92AF92BF92EF92FF920F9314
:1007B0001F93CF93DF934B015C01CA010E94C503D5
:1007C0007C0161E070E085E090E00E94971B8C0165
:1007D0004AE0BC01C4010E94201DF70101900020E5
:1007E000E9F73197CF018E199F09F8010190002098
:1007F000E9F73197E01BF10B8E0F9F1F61E070E06E
:1008000082599F4F0E94971BEC01B7010E94FB1C6D
:1008100067E172E0CE010E94FB1C6EE172E0CE0146
:100820000E94FB1C63E272E0CE010E94FB1C6AE2A4
:1008300072E0CE010E94FB1C69E372E0CE010E94CF
:10084000FB1CB801CE010E94FB1C61E472E0CE01EA
:100850000E94FB1C67E672E0CE010E94FB1C69E768
:1008600072E0CE010E94FB1C68E872E0CE010E949B
:10087000FB1CCE01DF91CF911F910F91FF90EF9064
:10088000BF90AF909F908F9008958130910529F08F
:10089000029729F422EA32E002C02DE832E0C901D1
:1008A00008954F925F926F927F92AF92BF92CF92D4
:1008B000DF92EF92FF920F931F93CF93DF93CDB709
:1008C000DEB72F970FB6F894DEBF0FBECDBF2B015A
:1008D0003C015A0179018AEA92E00E946A02A5016C
:1008E000C301B2010E94D1036C01C5010E944504FD
:1008F0005C0140E550E0B801C7010E948D1A892BC8
:1009000079F1B601C7010E948C09F70182819381B8
:100910009C838B8389E393E09A83898384818D838D
:1009200085819681A781B0858E839F83A887B987AB
:10093000818592859B878A87838594859D878C870F
:1009400085858E8786858F87BE016F5F7F4FC50146
:100950000E941703F82ECE0101960E944D1A07C07F
:1009600082EC92E00E946A020E94C002F12CC60151
:100970000E94481C8F2D2F960FB6F894DEBF0FBE35
:10098000CDBFDF91CF911F910F91FF90EF90DF903E
:10099000CF90BF90AF907F906F905F904F900895F1
:1009A0004F925F926F927F92AF92BF92CF92DF92FF
:1009B000EF92FF920F931F93CF93DF93CDB7DEB7E4
:1009C000A2970FB6F894DEBF0FBECDBF2B013C013E
:1009D0006A0185ED92E00E946A020E949E0280EC0C
:1009E0008F8F88EA88A382EB89A388E18AA340E5F8
:1009F00050E0BE01615E7F4FCE0140960E94331AE7
:100A0000EE24E394F12C99E3A92E93E0B92E8FEF15
:100A1000E81AF80A8A899B899C838B83BA82A98207
:100A20008C898D838D899E89AF89B88D8E839F83B4
:100A3000A887B987898D9A8D9B878A878B8D9C8D96
:100A40009D878C878D8D8E878E8D8F878E01015E21
:100A50001F4F9E012F5F3F4FA601C301B2010E94AD
:100A60005104811105C011E085E0E816F1040CF095
:100A700010E0CE0101960E944D1A1111C8CFCE018F
:100A800040960E944D1AA2960FB6F894DEBF0FBE94
:100A9000CDBFDF91CF911F910F91FF90EF90DF902D
:100AA000CF90BF90AF907F906F905F904F900895E0
:100AB00026E040E855E260E070E082E793E00E94C3
:100AC000580861E087E00E94CE0B61E085E00E945B
:100AD000CE0B61E08DE00E94CE0B61E08BE00E94C6
:100AE000CE0B61E087E00E940A0C60E971E080E0D3
:100AF00090E00E94110B60E087E00E940A0C0C94C9
:100B0000C0028F929F92AF92BF92CF93DF9300D09B
:100B100000D0CDB7DEB74B015C0129833A834B830C
:100B20005C830E94E00ADC01CB0188199909AA09BB
:100B3000BB0961E029813A814B815C81821793076F
:100B4000A407B50708F460E0862F0F900F900F9070
:100B50000F90DF91CF91BF90AF909F908F900895AD
:100B60006F927F92AF92BF92CF92DF92EF92FF92FD
:100B70000F931F9320910A0130910B0160900C019B
:100B800070900D01A0910E01B0910F01E091100144
:100B9000F0911101409112015091130182179307B6
:100BA00034F08C01481759071CF48A0101C08901EF
:100BB000B801012E000C880B990B601671068CF0A1
:100BC0007301770C000B110B032E000C440B550B1B
:100BD0001F921F921F92E4E1EF93A12CB12C6501AB
:100BE00047C0A017B107B4F07D01BB0F000B110B7C
:100BF00093012F5F3F4F032E000C440B550B1F92A8
:100C00001F921F92E8E2EF93A5E1AA2EB12CC12C0E
:100C1000D12C2EC0E017F107B4F07F01FF0F000BBD
:100C2000110B9D012F5F3F4F032E000C440B550B02
:100C30001F921F921F92E0E5EF93F9E2AF2EB12CC5
:100C4000C12CD12C15C07A01550F000B110B9F013F
:100C50002F5F3F4F032E000C440B550B1F921F922A
:100C60001F92E4E6EF93E1E5AE2EB12CC12CD12C1E
:100C70000E94550A0F900F900F900F901F910F91A7
:100C8000FF90EF90DF90CF90BF90AF907F906F90EC
:100C90000895CF92DF92EF92FF9261E085E00E948B
:100CA0000A0C0E94E00A6B017C01DC01CB018C196B
:100CB0009D09AE09BF094091240150912501609121
:100CC00026017091270184179507A607B70718F426
:100CD0000E94E00AEACF84E00E94880B90936903A7
:100CE0008093680360E085E00E940A0C80916803AD
:100CF00090916903FF90EF90DF90CF9008950E944C
:100D0000490620910C0130910D01281739078CF408
:100D100020910E0130910F01281739076CF42091B2
:100D2000100130911101281739074CF48BEF92E034
:100D300008958EEE92E0089587EF92E0089580E0A6
:100D400093E00895882381F00E94E00A60936E0387
:100D500070936F0380937003909371030E947F06DA
:100D60009093670380936603089522E08E3E920776
:100D700039F0875F924021F060E087E00C940A0C24
:100D80000895CF92DF92EF92FF920E94E00A6B01EA
:100D90007C01DC01CB018C199D09AE09BF098032B1
:100DA0009E44A105B10578F060E08BE00E940A0C3A
:100DB00080E093E09093670380936603FF90EF9049
:100DC000DF90CF9008950E947F068B5F924061F381
:100DD00061E08BE00E940A0C0E94E00ADACF8E5E8E
:100DE000924011F40C94C10660E08BE00C940A0C64
:100DF000882339F0CB010E94B00541E050E00C940B
:100E0000D0040895882361F086E093E00E946A028E
:100E100042E050E061E070E080E090E00C94D004AB
:100E20000895CF93DF9320912001309121014091CB
:100E300022015091230160916E0370916F038091A4
:100E40007003909171030E948105C82F20911801B1
:100E50003091190140911A0150911B0160916A0370
:100E600070916B0380916C0390916D030E948105DA
:100E7000D82F8C2F0E94A206809166039091670361
:100E80000E94B50680916603909167030E94EF0669
:100E90008D2F0E94020760916803709169038C2F67
:100EA000DF91CF910C94F8060E944D0B0E945702DF
:100EB0000E945805C0ECD7E00E9411072097E1F38B
:100EC0000E94C007F9CF8091200190912101A0914B
:100ED0002201B0912301B095A095909581959F4FE7
:100EE000AF4FBF4F80936E0390936F03A093700337
:100EF000B09371038091180190911901A0911A018A
:100F0000B0911B01B095A095909581959F4FAF4FE3
:100F1000BF4F80936A0390936B03A0936C03B093CD
:100F20006D030895FC01918D228D892F90E0805CE6
:100F30009F4F821B91098F7399270895FC01918D12
:100F4000828D981731F0828DE80FF11D858D90E02C
:100F500008958FEF9FEF0895FC01918D828D981772
:100F600061F0828DDF01A80FB11D5D968C91928D8D
:100F70009F5F9F73928F90E008958FEF9FEF08958A
:100F800085E199E0892B49F080E090E0892B29F0F8
:100F90000E94150981110C9400000895FC01848DB4
:100FA000DF01A80FB11DA35ABF4F2C91848D90E093
:100FB00001968F739927848FA689B7892C93A0896E
:100FC000B1898C9180648C93938D848D981306C025
:100FD0000288F389E02D80818F7D80830895CF93EF
:100FE000DF93EC01888D8823C9F0EA89FB89808131
:100FF00085FD05C0A889B9898C9186FD0FC00FB603
:1010000007FCF5CF808185FFF2CFA889B9898C9143
:1010100085FFEDCFCE010E94CE07E7CFDF91CF91C4
:101020000895EF92FF920F931F93CF93DF93EC01FC
:1010300081E0888F9B8D8C8D981305C0E889F98994
:10104000808185FD24C0F62E0B8D10E00F5F1F4FB1
:101050000F731127E02E8C8DE8120CC00FB607FC21
:10106000FACFE889F989808185FFF5CFCE010E940A
:10107000CE07F1CF8B8DFE01E80FF11DE35AFF4F34
:10108000F0820B8FEA89FB898081806207C0EE893C
:10109000FF896083E889F98980818064808381E0A9
:1010A00090E0DF91CF911F910F91FF90EF90089505
:1010B000CF92DF92EF92FF921F93CF93DF93EC01D9
:1010C0006A017B01122FE889F98982E0808341154A
:1010D000514E61057105B1F060E079E08DE390E07B
:1010E000A70196010E94361BDA01C9010197A109E7
:1010F000B109B695A79597958795AC01411580E103
:101100005807A8F0E889F989108260E874E88EE150
:1011100090E0A70196010E94361BBA01A901415037
:101120005109610971097695679557954795EC8541
:10113000FD855083EE85FF854083188EEC89FD89FF
:101140001083EA89FB89808180618083EA89FB8939
:10115000808188608083EA89FB89808180688083C0
:10116000EA89FB8980818F7D8083DF91CF911F91F8
:10117000FF90EF90DF90CF9008951F920F920FB6DF
:101180000F9211242F938F939F93EF93FF93E091EE
:101190008203F09183038081E0918803F0918903B9
:1011A00082FD12C0908180918B038F5F8F7320919D
:1011B0008C03821751F0E0918B03F0E0EE58FC4F66
:1011C000958F80938B0301C08081FF91EF919F9158
:1011D0008F912F910F900FBE0F901F9018951F9217
:1011E0000F920FB60F9211242F933F934F935F935B
:1011F0006F937F938F939F93AF93BF93EF93FF93DF
:1012000082E793E00E94CE07FF91EF91BF91AF91EB
:101210009F918F917F916F915F914F913F912F910E
:101220000F900FBE0F901F90189582E793E00E94D9
:10123000920721E0892B09F420E0822F0895E2E74C
:10124000F3E01382128288EE93E0A0E0B0E08483A2
:101250009583A683B7838BE193E09183808385ECAC
:1012600090E09587848784EC90E09787868780EC70
:1012700090E0918B808B81EC90E0938B828B82EC61
:1012800090E0958B848B86EC90E0978B868B118E0B
:10129000128E138E148E0895CF92DF92EF92FF92EA
:1012A0000F931F93CF93DF936C017A018B01C0E002
:1012B000D0E0CE15DF0589F0D8016D918D01D60102
:1012C000ED91FC910190F081E02DC6010995892BEB
:1012D00011F47E0102C02196ECCFC701DF91CF91BE
:1012E0001F910F91FF90EF90DF90CF9008956115BF
:1012F000710579F0FB0101900020E9F73197AF010A
:10130000461B570BDC01ED91FC910280F381E02D2F
:10131000099480E090E008950C947709DC01ED9148
:10132000FC910190F081E02D09946AE872E00C9440
:1013300077090F931F93CF93DF93EC010E947709F6
:101340008C01CE010E949509800F911FDF91CF91F2
:101350001F910F9108954F925F926F927F92EF923B
:10136000FF920F931F93CF93DF93CDB7DEB7A19773
:101370000FB6F894DEBF0FBECDBF7C01FA01CB01E2
:1013800019A2223008F42AE08E010F5D1F4F422E71
:10139000512C612C712CBF01A30192010E94361BBC
:1013A000F901CA01015011096A3014F4605D01C0ED
:1013B000695CD8016C93232B242B252B61F7B80192
:1013C000C7010E947709A1960FB6F894DEBF0FBE41
:1013D000CDBFDF91CF911F910F91FF90EF907F9044
:1013E0006F905F904F900895CF92DF92EF92FF92AF
:1013F0000F931F93CF93DF93EC016A017B012115BB
:10140000310579F4E881F9810190F081E02D642FB4
:10141000DF91CF911F910F91FF90EF90DF90CF90D0
:1014200009942A303105E9F477FF1AC06DE20E9471
:101430008E098C0144275527BA014C195D096E09A4
:101440007F092AE0CE010E94AB09800F911FDF9136
:10145000CF911F910F91FF90EF90DF90CF90089563
:101460002AE0B701A601CE01DF91CF911F910F9124
:10147000FF90EF90DF90CF900C94AB090F931F93E8
:10148000CF93DF93EC019A01AB01770F660B770BDB
:101490000E94F4098C01CE010E949509800F911FD2
:1014A000DF91CF911F910F9108954F925F926F92AC
:1014B0007F92AF92BF92CF92DF92EF92FF920F9303
:1014C0001F93CF93DF93CDB7DEB729013A019B017C
:1014D000AC01241935094609570989899A89AB89CC
:1014E000BC89BC01CD016A197B098C099D090E9448
:1014F000261BA801970124193509460957090E949E
:10150000581BCA01B9016A0D7B1D8C1D9D1DDF9101
:10151000CF911F910F91FF90EF90DF90CF90BF90F0
:10152000AF907F906F905F904F9008951F920F92B1
:101530000FB60F9211242F933F938F939F93AF93E6
:10154000BF938091100490911104A0911204B09166
:10155000130430910F0423E0230F2D3720F401965C
:10156000A11DB11D05C026E8230F0296A11DB11DC6
:1015700020930F048093100490931104A0931204FD
:10158000B09313048091140490911504A091160453
:10159000B09117040196A11DB11D8093140490937E
:1015A0001504A0931604B0931704BF91AF919F91B7
:1015B0008F913F912F910F900FBE0F901F90189514
:1015C0002FB7F89460911004709111048091120467
:1015D000909113042FBF08953FB7F894809114049D
:1015E00090911504A0911604B091170426B5A89BFC
:1015F00005C02F3F19F00196A11DB11D3FBFBA2FA5
:10160000A92F982F8827820F911DA11DB11DBC0104
:10161000CD0142E0660F771F881F991F4A95D1F7C9
:1016200008958F929F92AF92BF92CF92DF92EF92E6
:10163000FF926B017C010E94EC0A4B015C01C1141A
:10164000D104E104F10401F10E94251B0E94EC0A7F
:10165000DC01CB0188199909AA09BB09883E93408E
:10166000A105B10560F321E0C21AD108E108F10833
:1016700088EE880E83E0981EA11CB11CC114D10411
:10168000E104F10419F7DBCFFF90EF90DF90CF90EA
:10169000BF90AF909F908F900895789484B58260AA
:1016A00084BD84B5816084BD85B5826085BD85B506
:1016B000816085BDEEE6F0E0808181608083E1E8B5
:1016C000F0E01082808182608083808181608083ED
:1016D000E0E8F0E0808181608083E1EBF0E08081F0
:1016E00084608083E0EBF0E0808181608083EAE7C2
:1016F000F0E080818460808380818260808380814B
:10170000816080838081806880831092C100089509
:101710008E3008F08E5087702091280190E4299F28
:1017200090011124822B80937C0080917A00806448
:1017300080937A0080917A0086FDFCCF80917800BA
:101740002091790090E0922B0895833081F028F465
:10175000813099F08230A1F008958730A9F0883067
:10176000B9F08430D1F4809180008F7D03C08091E6
:1017700080008F7780938000089584B58F7702C0B2
:1017800084B58F7D84BD08958091B0008F7703C0AC
:101790008091B0008F7D8093B0000895CF93DF9348
:1017A00090E0FC01EA55FF4F2491FC01E654FF4F05
:1017B0008491882361F190E0880F991FFC01E85221
:1017C000FF4FC591D491FC01E253FF4FA591B49115
:1017D000611109C09FB7F89488812095822388837E
:1017E000EC912E230BC0623061F49FB7F8943881DE
:1017F000822F809583238883EC912E2B2C939FBF7F
:1018000006C08FB7F894E8812E2B28838FBFDF9115
:10181000CF9108951F93CF93DF93282F30E0F901E4
:10182000EE56FF4F8491F901EA55FF4FD491F9012B
:10183000E654FF4FC491CC23C9F0162F81110E94AA
:10184000A50BEC2FF0E0EE0FFF1FE253FF4FA59129
:10185000B4918FB7F894111105C09C91ED2FE095CC
:10186000E92302C0EC91ED2BEC938FBFDF91CF9178
:101870001F910895CF93DF9300D0CDB7DEB72091AD
:10188000710430917204CE0101962115310519F4CD
:101890008557944002C0821B930B9A838983898168
:1018A0009A810F900F90DF91CF910895DC01DA9625
:1018B00020E030E04C91461307C0220F331FFC019B
:1018C000E20FF31F83AD08952F5F3F4F129627302D
:1018D000310581F78FEF0895403885E2580761059B
:1018E000710560F0413080E4580788E368077105AE
:1018F00048F040E050E468E370E004C040E855E29E
:1019000060E070E026E082E793E00E945808809152
:10191000C20088608093C2000895CF93DF9300D007
:10192000CDB7DEB7FB0183811F928F9382811F9217
:101930008F9381811F928F9380811F928F9385EE69
:1019400090E09F938F935F934F9349835A830E94B4
:10195000451D0FB6F894DEBF0FBECDBF4981842F61
:101960005A81952F0F900F90DF91CF9108956623A4
:1019700041F08FE39CE90197F1F700C0000061504E
:10198000F6CF089582E793E00E949207892BD1F366
:1019900082E793E00E94AC07089582E793E00E94FB
:1019A000AC070895CF92DF92EF92FF92CF93DF932F
:1019B000EC0182E793E00E94EF070E94E00A6B01CE
:1019C0007C018091C00087FF11C00E94E00AAB013A
:1019D000BC014C195D096E097F094233510561054F
:1019E000710550F4CE010E94CD0CEBCF82E793E05D
:1019F0000E949207892B49F761E0CE01DF91CF91D8
:101A0000FF90EF90DF90CF900C94B70CCF93DF93C3
:101A1000EC010E94D20C4AA95BA96CA97DA9CE0158
:101A20000E946C0C19825B98DF91CF910895CF933F
:101A3000DF93EC010E94D20C19825B9ADF91CF9167
:101A40000895FC011182FB96AC01475B5F4F2FEFBD
:101A5000DF0111972C9320833296E417F507C1F725
:101A60000C94D20C0F931F93CF93DF938C0182E7DA
:101A700093E00E94EF0782E793E00E949207EC0157
:101A8000209729F0C8010E94CD0C2197F9CFDF9152
:101A9000CF911F910F9108952F923F924F925F9295
:101AA0006F927F928F929F92AF92BF92CF92DF926E
:101AB000EF92FF920F931F93CF93DF93CDB7DEB7D3
:101AC00027970FB6F894DEBF0FBECDBF9F838E83DE
:101AD0004B012A0159013801FA82E982FC01818116
:101AE0008230C9F4FB0180818F3F21F09091290160
:101AF00089130EC0C114D10471F480912901F4013D
:101B000080838091270490912804F201918380833F
:101B100080E090E09FC100E010E02E813F81265CD4
:101B20003F4F3C832B8333243A9452E0252EEE81A1
:101B3000FF8181818130E1F018F0823029F1DAC033
:101B400021E0EE81FF812183309229011092280447
:101B50001092270410922604109225041092240457
:101B60001092200410922104109222041092230457
:101B700080912604883068F582E793E00E949207FE
:101B8000892B09F02DC125C08E819F810E94C20C36
:101B9000E981FA818083F1E0CF1AD1080F5F1F4FEE
:101BA00080912704909128040197909328048093B2
:101BB0002704892B09F09AC08E819F810E94C20C54
:101BC0008E819F810E94C20CEE81FF81118221E0F3
:101BD00092C080912604883008F48CC0709118045B
:101BE0006091190450911A0440911B0430911C0417
:101BF00020911D0490911E0480911F04723509F0FC
:101C000094C0633509F0DAC0593409F0D7C04F35B4
:101C100009F0D4C0323509F0D1C0253409F0CEC066
:101C2000913409F0CBC0843409F0C8C08E819F8103
:101C30000E94C20C809329018E819F810E94C20C58
:101C400090E090932804809327048E819F810E94C6
:101C5000C20C2091270430912804A901582BCA01F5
:101C6000509328044093270460912901EE81FF815D
:101C70006F3F09F44DC0892B09F44AC02182CF017E
:101C80000E94560C813071F58E819F810E94C20C9A
:101C9000809320048E819F810E94C20C8093210436
:101CA0008E819F810E94C20C809322048E819F812D
:101CB0000E94C20C809323048E819F810E94C20CDB
:101CC00090E090932504809324048E819F810E944C
:101CD000C20C2091240430912504382B3093250424
:101CE00020932404F40180818F3FD1F421E0C114BA
:101CF000D10409F020E082E793E02D830E9492074F
:101D00002D81892B09F47CC0222309F410CF78C0DF
:101D10001182309229011092280410922704EACFF0
:101D200090912901891711F3F3CE733509F046C05C
:101D3000693409F043C05F3509F040C04334F1F520
:101D40003C34E1F52F34D1F59335C1F58534B1F547
:101D50008E819F810E94C20C809329018E819F8178
:101D60000E94C20C8E819F810E94C20C1092280496
:101D700010922704EE81FF81118220912901EB81CD
:101D8000FC8180E090E03081321310C0FC017D9630
:101D9000EE0FFF1F2E813F81E20FF31F3082880F6D
:101DA000991FF901E80FF91F33AE05C0019632966D
:101DB0008730910541F70FEF1FEF09CF77E0709360
:101DC0002604609318045093190440931A04309326
:101DD0001B0420931C0490931D0480931E048ACF3F
:101DE000E090260481E08E0D80932604F12C82E79A
:101DF00093E00E94AC07F701E85EFB4F8083B8CE0A
:101E000080912901F4018083809127049091280416
:101E1000F20191838083A114B10479F080912004B0
:101E2000882359F0F501808380912104818380917A
:101E3000220482838091230483836114710449F016
:101E40008091240490912504009719F0F301918367
:101E50008083C80127960FB6F894DEBF0FBECDBFB2
:101E6000DF91CF911F910F91FF90EF90DF90CF9076
:101E7000BF90AF909F908F907F906F905F904F90AA
:101E80003F902F9008959F92AF92BF92CF92DF9292
:101E9000EF92FF920F931F93CF93DF9300D01F9287
:101EA000CDB7DEB75C01962E82E793E00E949207E1
:101EB000892BA9F08FEF8B831A821982C12CD12C28
:101EC000E12CF12C00E010E020E030E0AE014F5FAB
:101ED0005F4FBE016D5F7F4FC5010E944C0D8FEFBC
:101EE000981661F0F501FA9688E4A80EB11C80817D
:101EF000891531F03296EA15FB05C9F781E001C07A
:101F000080E00F900F900F90DF91CF911F910F9174
:101F1000FF90EF90DF90CF90BF90AF909F9008958B
:101F2000CF92DF92EF92FF920F931F936801790196
:101F300000E010E020E030E00E944C0D1F910F9176
:101F4000FF90EF90DF90CF9008952F923F924F92A5
:101F50005F926F927F928F929F92AF92BF92CF9239
:101F6000DF92EF92FF920F931F93CF93DF93CDB742
:101F7000DEB72E970FB6F894DEBF0FBECDBF2C0193
:101F80003B014A873C872B871E870D871701460137
:101F9000FC018181823009F44CC182E793E00E9408
:101FA0009207892BD1F08FEF89871A821982C12C71
:101FB000D12CE12CF12C00E010E020E030E0AE016B
:101FC0004F5F5F4FBE01675F7F4FC2010E944C0DA4
:101FD00089819A81892B09F02CC1EB85FC8564915C
:101FE0008F010F5F1F4F662339F082E793E00E9455
:101FF0001108F8016491F5CF8D859E85892B39F400
:102000002114310441F181010F5F1F4F20C00D8564
:102010001E85F80161918F01662391F382E793E0B9
:102020000E941108F6CF6D3009F010C1F8018491BB
:102030008A3009F00BC16BED82E793E00E94110832
:102040006CED82E793E00E9411080E5F1F4FF101D3
:1020500064916111F0C0A114B104F1F4C2010E94B5
:10206000320D6DE082E793E00E9411086AE082E79A
:1020700093E00E941108FA85F1117EC019821E8238
:102080000E94E00A4B015C0130E1C32E37E2D32EFF
:10209000E12CF12C10E040C0F40160816B3D81F433
:1020A00082E793E00E9411086DED82E793E00E94C1
:1020B0001108FFEF8F1A9F0A81E0A81AB108CBCF51
:1020C0006D30C9F4F40181818A30A9F4F2E0AF16D1
:1020D000B10488F06BED82E793E00E9411086CED8B
:1020E00082E793E00E94110882E0880E911C92E042
:1020F000A91AB108B0CFEFEF8E1A9E0A82E793E0DB
:102100000E941108F1E0AF1AB108A5CF82E793E071
:102110000E949207892B71F40E94E00ADC01CB0136
:1021200088199909AA09BB098C159D05AE05BF053B
:1021300068F36BC082E793E00E94AC07183080F42C
:1021400001E0010FE1E0F0E0EC0FFD1FE10FF11DF8
:10215000808389818F3429F0853419F000E001C033
:10216000012F0E94E00A4B015C0123E0C22ED12C1A
:10217000E12CF12C102FD0CFF301108215820E9498
:10218000E00A6B017C0190E1892E97E2992EA12C47
:10219000B12C10E00E94E00ADC01CB018C199D09F2
:1021A000AE09BF0988159905AA05BB0538F582E770
:1021B00093E00E949207892B69F382E793E00E94E3
:1021C000AC07FA851F1770F401E0010FF301E10F6E
:1021D000F11D8083F30180818F3429F0853419F05B
:1021E00000E001C0012F0E94E00A6B017C0183E046
:1021F000882E912CA12CB12C102FCCCFF3018081F3
:10220000898381818A8385818E8389818F3439F4A2
:1022100081E09A819B3409F480E081951FC0853468
:1022200041F48A81823529F48E81882311F08D3022
:10223000A9F48FEF13C0C80101961C016B3D09F092
:10224000F2CE82E793E00E9411086DED82E793E001
:102250000E941108F80164918101FBCE2E960FB601
:10226000F894DEBF0FBECDBFDF91CF911F910F91CC
:10227000FF90EF90DF90CF90BF90AF909F908F90A6
:102280007F906F905F904F903F902F9008955F9256
:102290006F927F928F929F92AF92BF92CF92DF9276
:1022A000EF92FF920F931F93CF93DF93CDB7DEB7DB
:1022B0002A970FB6F894DEBF0FBECDBF4C013B018D
:1022C000542EC8014AE0BE016F5F7F4F29873A87CD
:1022D0000E94201DA12CB12CC12CD12CE12CF12C61
:1022E0008E010F5F1F4F29853A85452DB301C4012B
:1022F0000E94A50F2A960FB6F894DEBF0FBECDBF81
:10230000DF91CF911F910F91FF90EF90DF90CF90D1
:10231000BF90AF909F908F907F906F905F90089547
:102320000F931F939B018A0140E060E070E00E94E0
:1023300047111F910F9108958F929F92AF92BF9274
:10234000CF92DF92EF92FF920F931F93CF93DF9381
:10235000CDB7DEB72B970FB6F894DEBF0FBECDBF5B
:102360005C01962E88248A9482E793E00E9492076B
:10237000892B81F18B861A861986C12CD12CE12CF0
:10238000F12C00E010E020E030E0AE01475F5F4F4D
:10239000BE01655F7F4FC5010E944C0D8B85891181
:1023A00019C089859A85892BF9F29B8628E0C22E6F
:1023B000D12CCE0101967C0100E010E020E030E05D
:1023C000AE01475F5F4FBE01655F7F4FC5010E9451
:1023D0004C0DE7CF9FEF991202C080E02CC0F501B1
:1023E000FA9620E030E0808189111EC0F9017D96C7
:1023F000EE0FFF1FEA0DFB1D8FEF8083220F331FAF
:10240000F501E20FF31F83AF13E0892C912CA40197
:1024100065E271E0C5010E9490118823F1F28E3FC0
:10242000E1F21150A1F707C02F5F3F4F32962730DE
:102430003105C9F6D2CF2B960FB6F894DEBF0FBE8A
:10244000CDBFDF91CF911F910F91FF90EF90DF9063
:10245000CF90BF90AF909F908F900895AF92BF9212
:10246000CF92DF92EF92FF920F931F935701680173
:10247000E12CF12C00E010E00E94A50F1F910F91BC
:10248000FF90EF90DF90CF90BF90AF9008956F9244
:102490007F928F929F92AF92BF92CF92DF92EF92F4
:1024A000FF920F931F93CF93DF93EC016B014A01CF
:1024B00083E0782E5E0182E0A80EB11C90E3692EC5
:1024C000F501862D11928A95E9F7F6010190002019
:1024D000E9F731977F01EC18FD08860127E134E028
:1024E00040E3B501CE010E942E1281110EC09C81E5
:1024F000992359F08D819E81AF81B885F401808345
:102500009183A283B38380E003C07A947110D8CF03
:10251000DF91CF911F910F91FF90EF90DF90CF90BF
:10252000BF90AF909F908F907F906F900895AF92E3
:10253000BF92CF92DF92EF92FF920F931F93A12C45
:10254000B12CC12CD12CE12CF12C0E94A50F1F9194
:102550000F91FF90EF90DF90CF90BF90AF900895D4
:102560008F929F92AF92BF92DF92EF92FF920F9362
:102570001F93CF93DF9300D0CDB7DEB74C01D62E9B
:10258000BA017C0182E0E80EF11CA701C401298395
:102590003A830E948D0C6EE571E0C7010E94E01C39
:1025A000F70101900020E9F73197EE19FF093A8110
:1025B0003F9329812F9352EEA52E50E0B52EBF9266
:1025C000AF92FF273296E80DF91DFF93EF930E941B
:1025D000451D6CE571E0C7010E94E01CF701019008
:1025E0000020E9F73197EE19FF091F930F93BF926F
:1025F000AF92FF273296E80DF91DFF93EF930E94EB
:10260000451D0FB6F894DEBF0FBECDBFF2E08701C7
:10261000DF1203C029E431E004C0D1100CC02DE367
:1026200031E048E0B701C4010E94971281112EC029
:10263000F40184810DC021E331E048E0B701C40119
:102640000E949712811122C0F4018481DD24D39469
:102650008F3FE9F0F401FA9620E030E090819F3F4F
:1026600071F4F9017D96EE0FFF1FE80DF91D8083CF
:10267000220F331F280D391DF901D3AE08C02F5F7B
:102680003F4F32962730310549F701C08FEF0F9049
:102690000F90DF91CF911F910F91FF90EF90DF90FE
:1026A000BF90AF909F908F9008950F931F93E091EC
:1026B0002A01F0912B013196E13078E0F70710F014
:1026C000E0E0F4E0F0932B01E0932A0100912A016D
:1026D00010912B010E94B0121F910F910895AF929B
:1026E000BF92CF92DF92EF92FF920F931F93A12C94
:1026F000B12CC12CD12CE12CF12C00E010E00E9477
:10270000A50F1F910F91FF90EF90DF90CF90BF909A
:10271000AF900895AF92BF92CF92DF92EF92FF9267
:102720000F931F93A12CB12CC12CD12C79018A01BC
:102730009B0140E060E070E00E94A50F1F910F91A7
:10274000FF90EF90DF90CF90BF90AF9008955F9291
:102750006F927F928F929F92AF92BF92CF92DF92B1
:10276000EF92FF920F931F93CF93DF937C01762E0E
:102770006A015901CA010E94EB1C682E592EE7011B
:1027800022961F927F9282EE882E80E0982E9F9252
:102790008F92DF93CF930E94451D69E071E0CE01D7
:1027A0000E94E01CFE0101900020E9F73197EC1B2C
:1027B000FD0B5F926F929F928F92FF273296EE0DE4
:1027C000FF1DFF93EF930E94451D8DB79EB70C969A
:1027D0000FB6F8949EBF0FBE8DBFA114B10409F4CB
:1027E00063C0672DC7010E94560C813009F05CC0A0
:1027F00067E071E0CE010E94E01CFE010190002024
:10280000E9F73197AF014C1B5D0B55274E5F5F4FCA
:102810004E0D5F1DB501C7010E948D0C01151105FC
:1028200009F448C0672DC7010E94560C813009F099
:1028300041C062E071E0CE010E94E01CFE01019007
:102840000020E9F73197EC1BFD0B1F930F9382EEED
:1028500090E09F938F93FF273296EE0DFF1DFF931D
:10286000EF930E94451D0F900F900F900F900F90C7
:102870000F906DEF70E0CE010E94E01C9601AE015A
:1028800061EF70E0C701DF91CF911F910F91FF9031
:10289000EF90DF90CF90BF90AF909F908F907F9000
:1028A0006F905F900C948A1364E071E0CE010E94F7
:1028B000E01CB4CF6FEF70E0CE010E94E01CD9CFD6
:1028C000AF92BF92CF92DF92EF92FF920F931F933E
:1028D00058016901E12CF12C8A019B0140E060E084
:1028E00070E00E94A50F1F910F91FF90EF90DF9075
:1028F000CF90BF90AF9008955F926F927F928F922A
:102900009F92AF92BF92CF92DF92EF92FF920F937E
:102910001F93CF93DF936C01762E4A01522E632EC4
:10292000EC0122961F926F9382EEA82E80E0B82EC3
:10293000BF92AF92DF93CF930E94451D63E271E097
:10294000CE010E94E01CFE0101900020E9F73197C2
:10295000EC1BFD0B6F925F92BF92AF92FF273296F6
:10296000EC0DFD1DFF93EF930E94451D8DB79EB7A3
:102970000C960FB6F8949EBF0FBE8DBF01151105C2
:1029800039F0672DC6010E94560C813009F44EC003
:102990006EE171E0CE010E94E01CE114F10409F443
:1029A0005CC0672DC6010E94560C813009F055C0ED
:1029B0006CE171E0CE010E94E01CFE01019000205C
:1029C000E9F73197EC1BFD0BFF92EF9282EE90E05E
:1029D0009F938F93FF273296EC0DFD1DFF93EF938E
:1029E0000E94451D0F900F900F900F900F900F9029
:1029F00067E171E0CE010E94E01C052D162D9401C7
:102A0000AE016BE071E0C6010E946014DF91CF91CE
:102A10001F910F91FF90EF90DF90CF90BF90AF90FC
:102A20009F908F907F906F905F90089561E271E02A
:102A3000CE010E94E01CFE0101900020E9F73197D1
:102A4000AF014C1B5D0B55274E5F5F4F4C0D5D1D5D
:102A5000B801C6010E948D0CA0CF69E171E0CE01E2
:102A60000E94E01CC5CFEF92FF920F931F93FA01D3
:102A700001900020E9F73197E41BF50B78018901FB
:102A80009F010E947C141F910F91FF90EF90089579
:102A9000AF92BF92CF92DF92EF92FF920F931F936C
:102AA0009B01A12CB12CC12CD12CE12CF12C8A0141
:102AB00040E060E070E00E94A50F1F910F91FF9031
:102AC000EF90DF90CF90BF90AF9008956F927F927C
:102AD0008F929F92AF92BF92CF92DF92EF92FF922E
:102AE0000F931F93CF93DF931F92CDB7DEB73C01B7
:102AF0005A01490169830E94210DF30116AA17AA00
:102B000010AE11AE6301F2E0CF0ED11C80E3F601EE
:102B100011928A95E9F76981623051F426EB31E030
:102B200040E3B601C3010E946F13811191C00BC035
:102B3000662399F022EA31E040E3B601C3010E9426
:102B40006F13811187C0F3014285538564857585B4
:102B500046AB57AB60AF71AF7EC08114910459F0A2
:102B6000A601B401C3010E948D0CA60160E971E0C9
:102B7000C3010E944815A114B10481F0A601B5015A
:102B8000C3010E948D0CF50180819181A281B381E6
:102B9000F30186AB97ABA0AFB1AF0DC064E871E0B5
:102BA000C6010E94E01C80ECF30186AB88EA87AB8B
:102BB00010AE81E081AFE114F104B9F062E871E098
:102BC000C6010E94E01CF60101900020E9F7319750
:102BD000AF014C195D0955274E5F5F4F460D571DDC
:102BE000B701C3010E948D0C05C063E771E0C60107
:102BF0000E94E01C01151105B1F061E771E0C6010A
:102C00000E94E01CF60101900020E9F73197AF0126
:102C10004C195D0955274E5F5F4F460D571DB80192
:102C2000C3010E948D0CA60160E671E0C3010F9004
:102C3000DF91CF911F910F91FF90EF90DF90CF9098
:102C4000BF90AF909F908F907F906F900C9448159D
:102C500082E001C081E00F90DF91CF911F910F9131
:102C6000FF90EF90DF90CF90BF90AF909F908F90AC
:102C70007F906F900895EF92FF920F931F93E12C36
:102C8000F12C00E010E020E030E040E050E061E0B6
:102C90000E9466151F910F91FF90EF900895AF92DB
:102CA000BF92CF92DF92EF92FF920F931F939B01FF
:102CB000A12CB12CC12CD12CE12CF12C00E010E086
:102CC00040E060E070E00E94A50F1F910F91FF901F
:102CD000EF90DF90CF90BF90AF900895CF93DF93A8
:102CE000EC0166E074E00E944F1668EF73E0CE01DD
:102CF000DF91CF910C944F16AF92BF92CF92DF929B
:102D0000EF920F931F93CF93DF93EC016B015A0166
:102D10001E2D213049F018F0223091F020C06AEDCC
:102D200073E00E944F161BC0452B29F06EEB73E039
:102D30000E944F16BFC066EA73E00E944F16B6C0ED
:102D4000402F50E0A114B10429F06BE873E00E9419
:102D50009011B0C064E773E00E949011A7C01530D5
:102D600038F4412F50E063E673E0CE010E949011E9
:102D7000A114B10431F0A50167E573E0CE010E9412
:102D80004815E8818E2F90E08531910508F096C0B6
:102D9000FC01EC5CFF4F0C94771B22E533E0A601AD
:102DA00065E473E077C020E433E0A60163E373E0F9
:102DB00071C02EE233E0A60161E273E06BC02CE14A
:102DC00033E0A6016FE073E065C02AE033E0A601BE
:102DD0006DEF72E05FC028EF32E0A6016BEE72E0AB
:102DE00059C026EE32E0A60169ED72E053C024ED31
:102DF00032E0A60167EC72E04DC022EC32E0A601A1
:102E000065EB72E047C020EB32E0A60163EA72E0B6
:102E100041C02EE932E0A60161E972E03BC02CE836
:102E200032E0A6016FE772E035C02AE732E0A60182
:102E30006DE672E02FC028E632E0A6016BE572E095
:102E400029C026E532E0A60169E472E023C024E44B
:102E500032E0A60167E372E01DC022E332E0A60182
:102E600065E272E017C020E232E0A60163E172E0A1
:102E700011C02DE032E0A60160E072E00BC02AEF45
:102E800031E0A6016DEE71E005C027EE31E0A6014C
:102E90006AED71E0CE01DF91CF911F910F91EF901C
:102EA000DF90CF90BF90AF900C948A13153008F04C
:102EB00068CF57CF153008F05ECF53CF80E0DF9159
:102EC000CF911F910F91EF90DF90CF90BF90AF9077
:102ED0000895EF920F93EE24EA9400E00E947C168E
:102EE0000F91EF900895CF93DF93EC010E94210D95
:102EF0001EAA1FAA18AE19AE6AEC71E0CE01DF91CE
:102F0000CF910C944F16BF92CF92DF92EF92FF9227
:102F10000F931F93CF93DF93EC016A017B01B22ED5
:102F200061E083E00E94CE0B5B9A61E082E00E9448
:102F3000CE0B5A9861E081E00E94CE0B61E081E007
:102F40000E940A0C60E080E00E94CE0B61E080E00D
:102F50000E940A0C1EAA1FAA18AE19AEFE013296D4
:102F600080E3DF011D928A95E9F7CAAADBAAECAAE1
:102F7000FDAAB701A601CE010E946C0CCE010E94F1
:102F8000060D5A9865E0CE010E94B70C5A9A6BE084
:102F9000CE010E94B70C14E00FEF6CE182E793E0E2
:102FA0000E9411080E94E00A6B017C010E94E00A65
:102FB000DC01CB018C199D09AE09BF09883C910544
:102FC000A105B10508F582E793E00E949207892BDD
:102FD00069F382E793E00E94AC07853539F765E530
:102FE00082E793E00E9411086AE0CE010E94B70CCC
:102FF0006EE682E793E00E9411086AE082E793E0C0
:103000000E94110811E00EEF115039F664E1CE0173
:103010000E94B70C13E0CE010E94D20C60E474E071
:10302000CE010E944F1681110DC062E374E0CE0103
:103030000E944F1666E274E0CE010E944F16B882DD
:1030400000E009C06AE0CE010E94B70C115019F7E8
:10305000CE010E94170D802FDF91CF911F910F910C
:10306000FF90EF90DF90CF90BF90089522E040E86E
:1030700055E260E070E00C948317CF92DF92EF92FC
:10308000FF920F931F93CF93DF937C016A018B0113
:10309000C0E0D0E0CC15DD0589F0D701ED91FC91C1
:1030A000068CF78DE02DC70109958F3FBFEF9B0779
:1030B00029F0F80181938F012196ECCFCE01DF91A9
:1030C000CF911F910F91FF90EF90DF90CF900895D7
:1030D0000F931F93CF93DF93EC01E881F981048C68
:1030E000F58DE02D09958C010115110551F0E88150
:1030F000F981068CF78DE02DCE010995015011095B
:10310000F3CFDF91CF911F910F9108950F931F93EC
:10311000CF93DF938C01DC01ED91FC9106A0F7A128
:10312000E02D0995EC01892B61F0D801ED91FC911E
:1031300006A0F7A1E02D62E574E0C8010995C80F6B
:10314000D91FCE01DF91CF911F910F91089521E0FA
:10315000FC0184818F3F09F420E0822F08950F93B2
:103160001F93CF93DF9300D01F92CDB7DEB7FC0142
:1031700084818B831A8219828F3F71F000E010E006
:1031800020E030E0AE014F5F5F4FBE016D5F7F4FCB
:1031900089E294E00E94900F89819A810F900F90AC
:1031A0000F90DF91CF911F910F910895EF92FF92B1
:1031B0000F931F93CF93DF9300D000D0CDB7DEB72E
:1031C000FC0124812B832F3FB9F07C0101E010E04A
:1031D0009E012C5F3F4FAE014F5F5F4FBE016D5FA1
:1031E0007F4F89E294E00E94900F009729F00196AA
:1031F00031F48FEFF70184838FEF9FEF02C08C8152
:1032000090E00F900F900F900F90DF91CF911F9152
:103210000F91FF90EF9008951F93CF93DF93FC01E0
:1032200064816F3FB1F0EC0189E294E00E94430FAA
:10323000182F882319F08FEF8C830BC08E858A306E
:1032400050F06C8189E294E00E949C118FEF8C8396
:1032500003C010E001C011E0812FDF91CF911F91D9
:103260000895CF93DF93FC0124812F3F81F0EC017F
:103270000190F081E02D02A0F3A1E02D09956C8171
:1032800089E294E00E949C118FEF8C831E86DF916F
:10329000CF910895CF92DF92EF92FF920F931F93F9
:1032A000CF93DF931F92CDB7DEB76983FC016481B2
:1032B0006F3F01F16C01FC01E184F2848C010B5F32
:1032C0001F4F21E030E0AE014F5F5F4F89E294E095
:1032D0000E947C14F601882381F086858F5F8687A3
:1032E0008A3040F0648189E294E00E949C118FEF63
:1032F000F601848380E090E003C0168681E090E0D0
:103300000F90DF91CF911F910F91FF90EF90DF9081
:10331000CF900895CF92DF92EF92FF920F931F9379
:10332000CF93DF93DC011496EC91EF3FF1F0C52EC3
:10333000D42EAB01EC01E984FA848C010B5F1F4FA2
:103340002D2D3C2D6E2F89E294E00E947C14882361
:1033500079F08E858F5F8E878A3038F06C8189E2B4
:1033600094E00E949C118FEF8C8380E090E003C07A
:103370001E868D2D9C2DDF91CF911F910F91FF9077
:10338000EF90DF90CF900895EF92FF920F931F93ED
:10339000CF93DF93EC019C819F3FD1F07B010985A6
:1033A0001A859E012B5F3F4FAB01692F89E294E0A4
:1033B0000E943315882379F08E858F5F8E878A303F
:1033C00038F06C8189E294E00E949C118FEF8C832D
:1033D00080E090E009C01E86F70101900020E9F727
:1033E0003197CF018E199F09DF91CF911F910F91D6
:1033F000FF90EF900895EF92FF920F931F93CF935A
:10340000DF937B01FC0164816F3F21F1EC010185B9
:1034100012859C012B5F3F4FA70189E294E00E9437
:10342000A713882369F08E858F5F8E878A3090F08E
:103430006C8189E294E00E949C118FEF8C830AC01A
:103440001E86C701DF91CF911F910F91FF90EF90E2
:103450000C94EB1C80E090E0DF91CF911F910F91D5
:10346000FF90EF900895FC01DB011382128289E343
:1034700093E0918380838C91858311968C91119731
:10348000868312968C911297878313968C918087EE
:10349000528741878FEF8483089529E333E0FC014D
:1034A000318320830C943119FF920F931F93CF9394
:1034B000DF93FC0124812F3F19F080E090E01BC0D6
:1034C000F62EEC010385148521853285AC014B5F16
:1034D0005F4F89E294E00115110519F00E94B012C6
:1034E00002C00E9455138C838C818F3F31F3FD867F
:1034F0001E8681E090E0DF91CF911F910F91FF90A8
:10350000089560E00C94541A61E00C94541A60E041
:103510000C94541A61E00C94541AFC01DB018C9158
:10352000858311968C911197868312968C911297B0
:10353000878313968C9180875287418760E0CF0103
:103540000C94541AFC01DB018C91858311968C91AB
:103550001197868312968C911297878313968C917C
:1035600080875287418761E0CF010C94541AFC0197
:10357000DB018C91858311968C911197868312962D
:103580008C911297878313968C91808752874187FD
:103590003487238760E0CF010C94541AFC01DB01CF
:1035A0008C91858311968C911197868312968C91BC
:1035B0001297878313968C9180875287418734872F
:1035C000238761E0CF010C94541A0F931F93CF937C
:1035D000DF93EC018A01AC014B5F5F4F89E294E01D
:1035E0000E94471281110AC01A87098760E0CE0144
:1035F000DF91CF911F910F910C94541A80E090E0CD
:10360000DF91CF911F910F9108950F931F93CF9347
:10361000DF93EC018A01AC014B5F5F4F89E294E0DC
:103620000E94471281110AC01A87098761E0CE0102
:10363000DF91CF911F910F910C94541A80E090E08C
:10364000DF91CF911F910F9108950895DB018F9322
:103650009F930E947D1BBF91AF91A29F800D911DF2
:10366000A39F900DB29F900D11240895A1E21A2EF0
:10367000AA1BBB1BFD010DC0AA1FBB1FEE1FFF1F16
:10368000A217B307E407F50720F0A21BB30BE40B66
:10369000F50B661F771F881F991F1A9469F76095AD
:1036A0007095809590959B01AC01BD01CF01089567
:1036B000052E97FB1EF400940E946F1B57FD07D048
:1036C0000E94361B07FC03D04EF40C946F1B5095E0
:1036D0004095309521953F4F4F4F5F4F08959095FE
:1036E0008095709561957F4F8F4F9F4F0895EE0F96
:1036F000FF1F0590F491E02D09940E94881BA59F5F
:10370000900DB49F900DA49F800D911D11240895DC
:10371000A29FB001B39FC001A39F700D811D112412
:10372000911DB29F700D811D1124911D08950F935D
:103730001F93CF93DF93869F8001879F100D969FE5
:10374000100D1124C8010E94B31BEC01009729F051
:10375000A80160E070E00E94F41CCE01DF91CF91DF
:103760001F910F910895CF93DF938230910510F44C
:1037700082E090E0E0917304F091740420E030E086
:10378000C0E0D0E0309711F14081518148175907CE
:10379000C0F04817590761F482819381209719F08E
:1037A0009B838A832BC0909374048093730426C0F8
:1037B0002115310519F04217530718F49A01BE017B
:1037C000DF01EF010280F381E02DDCCF211531050F
:1037D00009F1281B390B2430310590F412968D9194
:1037E0009C9113976115710521F0FB0193838283EE
:1037F00004C09093740480937304FD01329644C016
:10380000FD01E20FF31F81939193225031092D9313
:103810003C933AC02091710430917204232B41F4FF
:1038200020910201309103013093720420937104BE
:1038300020910001309101012115310541F42DB78E
:103840003EB74091040150910501241B350BE091D6
:103850007104F0917204E217F307A0F42E1B3F0BE2
:103860002817390778F0AC014E5F5F4F24173507F2
:1038700048F04E0F5F1F5093720440937104819380
:10388000919302C0E0E0F0E0CF01DF91CF91089585
:103890000F931F93CF93DF93009709F48CC0FC0123
:1038A00032971382128200917304109174040115EF
:1038B000110581F420813181820F931F20917104C1
:1038C000309172042817390779F5F0937204E09368
:1038D000710471C0D80140E050E0AE17BF0750F44A
:1038E00012962D913C911397AD012115310509F1E7
:1038F000D901F3CF9D01DA01338322836081718185
:10390000860F971F8217930769F4EC01288139818C
:10391000260F371F2E5F3F4F318320838A819B8183
:1039200093838283452B29F4F0937404E09373040A
:1039300042C01396FC93EE931297ED014991599171
:103940009E01240F351FE217F30771F480819181E6
:10395000840F951F029611969C938E93828193817A
:1039600013969C938E931297E0E0F0E0D8011296A4
:103970008D919C911397009719F0F8018C01F6CF67
:103980008D919C9198012E5F3F4F820F931F209144
:103990007104309172042817390769F4309729F4BB
:1039A000109274041092730402C013821282109356
:1039B000720400937104DF91CF911F910F910895CC
:1039C000FB01DC010D900020E9F7119705900D92A5
:1039D0000020E1F70895FC0105900020E9F78095AB
:1039E00090958E0F9F1F0895DC0101C06D9341508B
:1039F0005040E0F70895FB01DC010D900020E9F74D
:103A0000119701900D920020E1F70895FB0151916B
:103A10005523A9F0BF01DC014D9145174111E1F794
:103A200059F4CD010190002049F04D91401541110C
:103A3000C9F3FB014111EFCF81E090E001970895B8
:103A4000BB274A3031F4992322F4BDE29095819549
:103A50009F4F0C942C1DBB27FB015527AA27880FCD
:103A6000991FAA1FA41710F0A41B83955051B9F7F2
:103A7000A05DAA3308F0A95DA193009779F7B11171
:103A8000B1931192CB010C94501FAEE0B0E0EBE487
:103A9000FDE10C9404200D891E898EE08C831A832D
:103AA00009838FEF9FE79E838D83AE01475E5F4F53
:103AB0006F89788DCE0101960E94681D2F8138850F
:103AC000F801E20FF31F10822E96E4E00C94202000
:103AD000ACE0B0E0EEE6FDE10C94F61F7C016B017A
:103AE0008A01FC0117821682838181FFBDC1CE014C
:103AF00001964C01F7019381F60193FD859193FFA7
:103B000081916F01882309F4ABC1853239F493FDAB
:103B1000859193FF81916F01853229F4B70190E07F
:103B20000E94601FE7CF512C312C20E02032A0F4FE
:103B30008B3269F030F4803259F0833269F42061BD
:103B40002CC08D3239F0803339F4216026C02260D8
:103B5000246023C0286021C027FD27C030ED380F26
:103B60003A3078F426FF06C0FAE05F9E300D11244B
:103B7000532E13C08AE0389E300D1124332E20625C
:103B80000CC08E3221F426FD6BC1206406C08C3639
:103B900011F4206802C0883641F4F60193FD859146
:103BA00093FF81916F018111C1CF982F9F7D955413
:103BB000933028F40C5F1F4FFFE3F9830DC0833669
:103BC00031F0833771F0833509F05BC022C0F80112
:103BD000808189830E5F1F4F44244394512C5401EC
:103BE00015C03801F2E06F0E711CF801A080B180A1
:103BF00026FF03C0652D70E002C06FEF7FEFC501A7
:103C00002C870E94451F2C0183012C852F77222EA3
:103C100017C03801F2E06F0E711CF801A080B1806E
:103C200026FF03C0652D70E002C06FEF7FEFC50176
:103C30002C870E943A1F2C012C852068222E83019C
:103C400023FC1BC0832D90E048165906B0F4B70141
:103C500080E290E00E94601F3A94F4CFF50127FCC7
:103C6000859127FE81915F01B70190E00E94601F5E
:103C700031103A94F1E04F1A51084114510471F790
:103C8000E5C0843611F0893639F5F80127FF07C001
:103C900060817181828193810C5F1F4F08C06081B8
:103CA0007181072E000C880B990B0E5F1F4F2F762A
:103CB000722E97FF09C090958095709561957F4F02
:103CC0008F4F9F4F2068722E2AE030E0A4010E949F
:103CD000981FA82EA81844C0853729F42F7EB22E2D
:103CE0002AE030E025C0F22FF97FBF2E8F36C1F0D9
:103CF00018F4883579F0B4C0803719F0883721F08E
:103D0000AFC02F2F2061B22EB4FE0DC08B2D84606A
:103D1000B82E09C024FF0AC09F2F9660B92E06C096
:103D200028E030E005C020E130E002C020E132E0D0
:103D3000F801B7FE07C060817181828193810C5FB9
:103D40001F4F06C06081718180E090E00E5F1F4FC1
:103D5000A4010E94981FA82EA818FB2DFF777F2E84
:103D600076FE0BC0372D3E7FA51450F474FE0AC0BA
:103D700072FC08C0372D3E7E05C0BA2C372D03C01B
:103D8000BA2C01C0B52C34FF0DC0FE01EA0DF11DA7
:103D90008081803311F4397E09C032FF06C0B394AC
:103DA000B39404C0832F867809F0B39433FD13C015
:103DB00030FF06C05A2CB31418F4530C5B18B32C04
:103DC000B31468F4B70180E290E03C870E94601F62
:103DD000B3943C85F5CFB31410F43B1801C0312CDB
:103DE00034FF12C0B70180E390E03C870E94601F5F
:103DF0003C8532FF17C031FD03C088E790E002C068
:103E000088E590E0B7010CC0832F867859F031FF28
:103E100002C08BE201C080E237FD8DE2B70190E085
:103E20000E94601FA51438F4B70180E390E00E945F
:103E3000601F5A94F7CFAA94F401EA0DF11D808116
:103E4000B70190E00E94601FA110F5CF332009F464
:103E500051CEB70180E290E00E94601F3A94F6CF05
:103E6000F7018681978102C08FEF9FEF2C96E2E1E8
:103E70000C941220FC010590615070400110D8F79D
:103E8000809590958E0F9F1F0895FC0161507040A2
:103E900001900110D8F7809590958E0F9F1F08957F
:103EA000DC01FC01672F71917723E1F7329704C0A1
:103EB0007C916D9370836291AE17BF07C8F308952C
:103EC0000F931F93CF93DF93FB01238121FD03C049
:103ED0008FEF9FEF28C022FF16C0468157812481B3
:103EE00035814217530744F4A081B1819D012F5FB2
:103EF0003F4F318320838C93268137812F5F3F4F43
:103F00003783268310C0EB01092F182F0084F18519
:103F1000E02D0995892BE1F68E819F8101969F8383
:103F20008E83812F902FDF91CF911F910F91089554
:103F3000FA01AA27283051F1203181F1E8946F93DA
:103F40006E7F6E5F7F4F8F4F9F4FAF4FB1E03ED080
:103F5000B4E03CD0670F781F891F9A1FA11D680F1E
:103F6000791F8A1F911DA11D6A0F711D811D911D51
:103F7000A11D20D009F468943F912AE0269F1124C6
:103F80003019305D3193DEF6CF010895462F47702A
:103F9000405D4193B3E00FD0C9F7F6CF462F4F7085
:103FA000405D4A3318F0495D31FD4052419302D0E3
:103FB000A9F7EACFB4E0A695979587957795679589
:103FC000BA95C9F700976105710508959B01AC0189
:103FD0000A2E06945795479537952795BA95C9F7B0
:103FE000620F731F841F951FA01D08952F923F928B
:103FF0004F925F926F927F928F929F92AF92BF92F9
:10400000CF92DF92EF92FF920F931F93CF93DF93A4
:10401000CDB7DEB7CA1BDB0B0FB6F894DEBF0FBE01
:10402000CDBF09942A88398848885F846E847D844E
:104030008C849B84AA84B984C884DF80EE80FD8050
:104040000C811B81AA81B981CE0FD11D0FB6F894C6
:0E405000DEBF0FBECDBFED010895F894FFCF87
:10405E000000750480000100000036016801900127
:10406E00BA01E101A0BB0D00C0D4010040771B00D6
:10407E00C0D40100E803000001FF00044375727212
:10408E00656E74204D656D6F727900526564466C75
:10409E00792E696E6974204552524F520031363076
:1040AE003436343434363234363830333600574CB6
:1040BE00414E2D4B6162656C00526564466C792EE3
:1040CE006A6F696E204552524F5200526564466CBB
:1040DE00792E626567696E204552524F52005769BC
:1040EE00466920536869656C6420636F6E6E656304
:1040FE007465640073746172742077616974696E9B
:10410E00670073756363657373537472696E675773
:10411E006562736572766572006661696C7572654B
:10412E000073746F707065642077616974696E676F
:10413E0000504F5354202F76616C75656765742E51
:10414E0070687000504F5354202F63616C6C5F7712
:10415E0061746572696E675F696E697469617469AD
:10416E006F6E2E706870003F6E616D653D00546518
:10417E0073740026747970653D0050726F7A656EA7
:10418E007466657563687465002676616C75653D49
:10419E0000266B65793D63333738313633336631FC
:1041AE00666231646463613737633930333864343F
:1041BE003939343334350020485454502F312E3190
:1041CE000D0A486F73743A20003139322E31363869
:1041DE002E3137382E3234000D0A0D0A00747261FA
:1041EE006E736D697373696F6E2073756363657338
:1041FE007300696E697461746500526573756C74D1
:10420E004F6648747470506F737452657175657330
:10421E00740073657276657220756E617661696C75
:10422E0061626C650046756C6C48747470506F7387
:10423E00745472616E736D697373696F6E0075720B
:10424E0067656E746C792064727900766572792078
:10425E006D6F69737400497354696D65546F436172
:10426E006C6C44617461000000000011084C0992EE
:10427E0007AC079E07EF076E616E00696E66006FF2
:10428E007666002E00000000004A198A19811A84F1
:10429E001A871A8A1A8D1AA21AB71ACE1AE51A0591
:1042AE001B0C193119AF18D6183D186818C419FB14
:0642BE00198618A7180084
:00000001FF
