:100000000C9425020C944D020C944D020C944D025C
:100010000C944D020C944D020C944D020C944D0224
:100020000C944D020C944D020C944D020C944D0214
:100030000C944D020C944D020C944D020C944D0204
:100040000C94E80A0C944D020C940F090C9441098D
:100050000C944D020C944D020C944D020C944D02E4
:100060000C944D020C944D021F1725172B173117B6
:1000700037173D17431749174F1755175B17611768
:1000800067176D17731779177F1785178B179117D8
:100090009717000000080002010000030407000099
:1000A000000000000000010204081020408001024E
:1000B00004081020010204081020040404040404AD
:1000C000040402020202020203030303030300000A
:1000D0000000250028002B0000000000240027005D
:1000E0002A0025750025692E25692E25692E25698A
:1000F0000041542B5253495F534E443D002C002C79
:1001000030002C002C30002C002C0041542B52537A
:10011000495F534E443D002C002C30002C002C3005
:10012000002C002C0041542B5253495F434C533D4B
:100130000041542B5253495F5544503D0041542BCC
:100140005253495F5443503D0041542B5253495F31
:10015000204D554C5449434153543D002C002C0034
:1001600041542B5253495F4950434F4E463D302C2A
:10017000002C002C3235352E3235352E3235352EC9
:1001800030002C003139322E3136382E302E3100ED
:1001900041542B5253495F444E5353455256455296
:1001A0003D0041542B5253495F4950434F4E463D09
:1001B000312C302C300041542B5253495F4950436D
:1001C0004F4E463D322C302C300041542B52534977
:1001D0005F4A4F494E3D002C31322C320041542BA6
:1001E0005253495F4A4F494E3D002C31322C310069
:1001F00041542B5253495F4A4F494E3D002C3132F6
:100200002C300041542B5253495F4A4F494E3D0018
:100210002C392C320041542B5253495F4A4F494EDE
:100220003D002C392C310041542B5253495F4A4F29
:10023000494E3D002C392C300041542B5253495F1C
:100240004A4F494E3D002C372C320041542B52531B
:10025000495F4A4F494E3D002C372C310041542B09
:100260005253495F4A4F494E3D002C372C300041D4
:10027000542B5253495F4A4F494E3D002C342C3287
:100280000041542B5253495F4A4F494E3D002C3494
:100290002C310041542B5253495F4A4F494E3D0087
:1002A0002C342C300041542B5253495F4A4F494E55
:1002B0003D002C322C320041542B5253495F4A4F9F
:1002C000494E3D002C322C310041542B5253495F92
:1002D0004A4F494E3D002C322C300041542B525392
:1002E000495F4A4F494E3D002C312C320041542B7E
:1002F0005253495F4A4F494E3D002C312C31004149
:10030000542B5253495F4A4F494E3D002C312C30FB
:100310000041542B5253495F4A4F494E3D002C3007
:100320002C320041542B5253495F4A4F494E3D00F5
:100330002C302C310041542B5253495F4A4F494EC7
:100340003D002C302C300041542B5253495F505308
:100350004B3D0041542B5253495F415554484D4F3A
:1003600044453D0041542B5253495F4E4554574F2D
:10037000524B3D494253532C312C0041542B525384
:10038000495F4E4554574F524B3D494253535F537B
:1003900045432C312C0041542B5253495F4E455458
:1003A000574F524B3D494253532C302C300041544F
:1003B0002B5253495F4E4554574F524B3D49425380
:1003C000535F5345432C302C300041542B5253493A
:1003D0005F4E4554574F524B3D494E465241535440
:1003E000525543545552450041542B5253495F5383
:1003F00043414E3D300041542B5253495F4E554DC1
:100400005343414E3D300041542B5253495F444EBB
:10041000534745543D0041542B5253495F494E497F
:10042000540041542B5253495F42414E443D3000E9
:1004300041542B5253495F465756455253494F4EEC
:100440003F000D0A00009E07710911241FBECFEF67
:10045000D8E0DEBFCDBF12E0A0E0B1E0E2EEF0E414
:1004600002C005900D92AA3FB107D9F724E0AAEF88
:10047000B2E001C01D92AD30B207E1F712E0C5E273
:10048000D2E004C02197FE010E94B91BC332D107FC
:10049000C9F70E948F070C946F200C9400000895F8
:1004A000CF93DF93EC0181EC93E00E94690DBE01D4
:1004B0008AE093E00E94DE0981EC93E0DF91CF9126
:1004C0000C94580DCF93DF93EC0181EC93E00E94E4
:1004D000690DBE018AE093E00E94EB0981EC93E094
:1004E000DF91CF910C94580D0F931F93CF93DF930F
:1004F0008C01EB0181EC93E00E94690DB8018AE068
:1005000093E00E94DE096FE572E08AE093E00E94CA
:10051000DE09BE018AE093E00E94EB0981EC93E0E2
:10052000DF91CF911F910F910C94580DCF93DF93D2
:100530000E948C0CEC0181EC93E00E94690D6AE34F
:1005400071E08AE093E00E94DE096FE572E08AE0E4
:1005500093E00E94DE094AE050E0BE018AE093E0A9
:100560000E94900A81EC93E0DF91CF910C94580D9A
:10057000CF93DF93C5E6D0E0882339F02197B9F116
:1005800081EC93E00E947818F7CF81EC93E00E9411
:10059000C01620E049E451E06AE571E081EC93E0A7
:1005A0000E94BB17C5E6D0E0882361F02197F9F0DF
:1005B00020E049E451E06AE571E081EC93E00E94BB
:1005C000BB17F2CF81EC93E00E948D16C5E6D0E018
:1005D000882339F0219759F081EC93E00E948D1621
:1005E000F7CF85E691E0DF91CF910C946202DF9125
:1005F000CF9108952F923F924F925F926F927F9288
:100600008F929F92AF92BF92CF92DF92EF92FF9222
:100610000F931F93CF93DF93CDB7DEB7CE52D14068
:100620000FB6F894DEBF0FBECDBF7B012DB73EB72E
:10063000C35DDE4F39832883CD52D1400E94320BF7
:100640002B013C0163E871E0C7010E94DE09C30190
:10065000B201812C912C00E010E0DE0111965D01C9
:10066000DC01CB0184199509A609B70981369A4E98
:10067000A105B10508F09BC08114910409F097C051
:10068000C7010E94F118892B91F0C7010E94181927
:100690008F3FBFEF9B0759F00B32E1E01E07A8F731
:1006A000F501E00FF11F80830F5F1F4FEECF0115A3
:1006B000110509F467C0C7010E944E19811162C07B
:1006C0002DB63EB6C7010E947319F501E00FF11F68
:1006D0001082C5010E9450022DB73EB72053310948
:1006E0000FB6F8943EBF0FBE2DBFEDB7FEB73196E3
:1006F000DF0120E11D922A95E9F729EA31E0ADB743
:10070000BEB712963C932E9311972DB73EB72F5E2E
:100710003F4FD90180E11D928A95E9F7A1EBB1E045
:10072000B18BA08B205F3F4FD90180E11D928A954C
:10073000E9F7A9EBB1E0B1A3A0A38F018DB69EB6F6
:10074000B1E38B0E911CD801CD90DC90B601C501B0
:100750000E94481D8A199B0997FD17C0B60189E9B7
:1007600091E00E947402BBE7CB16B1E0DB06A9F072
:100770000FB6F8943EBE0FBE2DBE82E0882E912C9F
:1007800000E010E00E94320B6BCF88E991E00E94FC
:1007900062028BE791E00E946202005F1F4F081522
:1007A000190589F69BE7C92E91E0D92EE1CFC70143
:1007B0000E94AA18C601C35DDE4F28813981CD523F
:1007C000D1400FB6F8943EBF0FBE2DBFC25DDE4FC5
:1007D0000FB6F894DEBF0FBECDBFDF91CF911F9152
:1007E0000F91FF90EF90DF90CF90BF90AF909F90D0
:1007F0008F907F906F905F904F903F902F900895D3
:100800008230910541F08330910541F0019741F428
:1008100021EC31E005C023ED31E002C02CEE31E0E7
:10082000C90108958F929F92AF92BF92EF92FF926B
:100830000F931F93CF93DF934B015C01CA010E947A
:1008400000047C0161E070E085E090E00E94D91B2B
:100850008C014AE0BC01C4010E94621DF7010190B5
:100860000020E9F73197CF018E199F09F801019017
:100870000020E9F73197E01BF10B8E0F9F1F61E01D
:1008800070E082599F4F0E94D91BEC01B7010E9472
:100890003D1D6EEF71E0CE010E943D1D65E072E0EE
:1008A000CE010E943D1D6CE072E0CE010E943D1D14
:1008B00063E172E0CE010E943D1D62E272E0CE0172
:1008C0000E943D1DB801CE010E943D1D6AE272E00A
:1008D000CE010E943D1D60E572E0CE010E943D1DEB
:1008E00062E672E0CE010E943D1D66E971E0CE0134
:1008F0000E943D1DC8010E948A1CCE01DF91CF914C
:100900001F910F91FF90EF90BF90AF909F908F90AD
:100910000895CF92DF92EF92FF9261E085E00E940E
:100920005C0C0E94320B6B017C01DC01CB018C1949
:100930009D09AE09BF0940912E0150912F01609190
:1009400030017091310184179507A607B70718F495
:100950000E94320BEACF84E00E94DA0B9093FD02F2
:100960008093FC0260E085E00E945C0C8091FC02B8
:100970009091FD02FF90EF90DF90CF9008950E943C
:10098000890420910E0130910F01281739078CF44A
:100990002091100130911101281739076CF4209132
:1009A000120130911301281739074CF48EE792E0B9
:1009B000089581E792E008958AE792E0089583E838
:1009C00092E00895CF92DF92EF92FF920E94320B55
:1009D0006B017C01DC01CB018C199D09AE09BF09BB
:1009E00080339547A105B10580F060E08091320128
:1009F0000E945C0C83E892E09093FB028093FA02E1
:100A0000FF90EF90DF90CF9008950E94BF048E5723
:100A1000924059F361E0809132010E945C0C0E9487
:100A2000320BD8CFCF92DF92EF92FF920F931F93AA
:100A3000CF93DF93CDB7DEB7A2970FB6F894DEBFA2
:100A40000FBECDBF6B017C018A0180EC8F8F88EADD
:100A500088A382EB89A388E18AA340E550E0BE0128
:100A6000615E7F4FCE0140960E94751AA801C701B2
:100A7000B6010E9412047C0140E550E0BE01615EB7
:100A80007F4FCE0140960E94CF1A892B79F1B70192
:100A9000CE0140960E94DE098A899B899C838B83C4
:100AA0008DEC92E09A8389838C898D838D899E89D0
:100AB000AF89B88D8E839F83A887B987898D9A8DDA
:100AC0009B878A878B8D9C8D9D878C878D8D8E874C
:100AD0008E8D8F87BE016F5F7F4FC8010E94FA0223
:100AE0008C01CE0101960E948F1A08C089E892E01D
:100AF0000E9462020E94B8020BE711E0C7010E9447
:100B00008A1C0E949602CE0140960E948F1AC8014C
:100B1000A2960FB6F894DEBF0FBECDBFDF91CF9186
:100B20001F910F91FF90EF90DF90CF9008958F92DB
:100B30009F92AF92BF92EF92FF920F931F93CF932A
:100B4000DF934B015C018A01C6E0D0E085EAE82E24
:100B500082E0F82EA801C501B4010E94120521E02F
:100B6000813B920739F48CE992E090930B018093DA
:100B70000A0109C0F0920B01E0920A018B579140E3
:100B800011F4219739F7DF91CF911F910F91FF90C9
:100B9000EF90BF90AF909F908F90089543E050E00A
:100BA00061E070E080E090E00C9497058F929F9256
:100BB000AF92BF92CF93DF9300D000D0CDB7DEB716
:100BC0004B015C0129833A834B835C830E94320B87
:100BD000DC01CB0188199909AA09BB0961E02981C7
:100BE0003A814B815C8182179307A407B50708F40B
:100BF00060E0862F0F900F900F900F90DF91CF91B4
:100C0000BF90AF909F908F9008956F927F92AF9218
:100C1000BF92CF92DF92EF92FF920F931F9320919A
:100C20000C0130910D0160900E0170900F01A091A8
:100C30001001B0911101E0911201F0911301409166
:100C40001401509115018217930734F08C01481755
:100C500059071CF48A0101C08901B801012E000C5A
:100C6000880B990B601671068CF07301770C000BE2
:100C7000110B032E000C440B550B1F921F921F9259
:100C8000E4E1EF93A12CB12C650147C0A017B10797
:100C9000B4F07D01BB0F000B110B93012F5F3F4F91
:100CA000032E000C440B550B1F921F921F92E8E27B
:100CB000EF93A5E1AA2EB12CC12CD12C2EC0E017A8
:100CC000F107B4F07F01FF0F000B110B9D012F5FA7
:100CD0003F4F032E000C440B550B1F921F921F9287
:100CE000E0E5EF93F9E2AF2EB12CC12CD12C15C069
:100CF0007A01550F000B110B9F012F5F3F4F032E01
:100D0000000C440B550B1F921F921F92E4E6EF93C9
:100D1000E1E5AE2EB12CC12CD12C0E94A70A0F9078
:100D20000F900F900F901F910F91FF90EF90DF9019
:100D3000CF90BF90AF907F906F9008958C59924064
:100D400091F52091160130911701409118015091B1
:100D50001901609106037091070380910803909137
:100D600009030E94D6058823F1F00E94320B60939C
:100D700006037093070380930803909309030E946E
:100D8000E20485EA92E090930B0180930A010E94AD
:100D9000CE058091FC029091FD020E94050641E083
:100DA00050E00C949705089526E040E855E260E095
:100DB00070E08AE093E00E94AA0861E087E00E9468
:100DC000200C61E085E00E94200C61E08DE00E9433
:100DD000200C61E0809132010E94200C61E087E0EC
:100DE0000E945C0C60E971E080E090E00E94630B7F
:100DF00060E087E00E945C0C0C94B802882381F0CC
:100E00000E94320B609302037093030380930403E8
:100E1000909305030E94BF049093FB028093FA0213
:100E2000089522E08137920739F08A57924021F0E5
:100E300060E087E00C945C0C08958157924011F4B7
:100E40000C94E20460E0809132010C945C0C8823E5
:100E500039F0CB010E94050641E050E00C94970563
:100E60000895882391F00E94320B6093FE027093E4
:100E7000FF02809300039093010342E050E061E0A1
:100E800070E080E090E00C9497050895CF93DF9395
:100E9000209126013091270140912801509129018C
:100EA0006091020370910303809104039091050304
:100EB0000E94D605C82F20911E0130911F0140913C
:100EC0002001509121016091FE027091FF028091FA
:100ED0000003909101030E94D605D82F8C2F0E9409
:100EE000FE068091FA029091FB020E941107809108
:100EF000FA029091FB020E941D078D2F0E9431077C
:100F000080910A0190910B010E949E066091FC0263
:100F10007091FD028C2FDF91CF910C9427070E94D6
:100F20009F0B0E944F020E94D406C2E1D8E00E94AB
:100F300046072097E1F30E941208F9CF809116012D
:100F400090911701A0911801B0911901B095A09549
:100F5000909581959F4FAF4FBF4F8093060390931D
:100F60000703A0930803B093090380912601909191
:100F70002701A0912801B0912901B095A0959095E5
:100F800081959F4FAF4FBF4F809302039093030310
:100F9000A0930403B093050380911E0190911F015B
:100FA000A0912001B0912101B095A09590958195D7
:100FB0009F4FAF4FBF4F8093FE029093FF02A093CD
:100FC0000003B09301030895FC01918D228D892FB8
:100FD00090E0805C9F4F821B91098F739927089541
:100FE000FC01918D828D981731F0828DE80FF11DF3
:100FF000858D90E008958FEF9FEF0895FC01918D0E
:10100000828D981761F0828DDF01A80FB11D5D966A
:101010008C91928D9F5F9F73928F90E008958FEFD8
:101020009FEF089587E699E0892B49F080E090E0F2
:10103000892B29F00E94670981110C940000089502
:10104000FC01848DDF01A80FB11DA35ABF4F2C9165
:10105000848D90E001968F739927848FA689B78934
:101060002C93A089B1898C9180648C93938D848D0D
:10107000981306C00288F389E02D80818F7D8083DC
:101080000895CF93DF93EC01888D8823C9F0EA8916
:10109000FB89808185FD05C0A889B9898C9186FD71
:1010A0000FC00FB607FCF5CF808185FFF2CFA8896E
:1010B000B9898C9185FFEDCFCE010E942008E7CF42
:1010C000DF91CF910895EF92FF920F931F93CF93EB
:1010D000DF93EC0181E0888F9B8D8C8D981305C088
:1010E000E889F989808185FD24C0F62E0B8D10E0FA
:1010F0000F5F1F4F0F731127E02E8C8DE8120CC06D
:101100000FB607FCFACFE889F989808185FFF5CF12
:10111000CE010E942008F1CF8B8DFE01E80FF11D5A
:10112000E35AFF4FF0820B8FEA89FB89808180624E
:1011300007C0EE89FF896083E889F989808180642E
:10114000808381E090E0DF91CF911F910F91FF901C
:10115000EF900895CF92DF92EF92FF921F93CF937B
:10116000DF93EC016A017B01122FE889F98982E0A3
:1011700080834115514E61057105B1F060E079E061
:101180008DE390E0A70196010E94781BDA01C90166
:101190000197A109B109B695A79597958795AC01D7
:1011A000411580E15807A8F0E889F989108260E8C4
:1011B00074E88EE190E0A70196010E94781BBA01C5
:1011C000A9014150510961097109769567955795B3
:1011D0004795EC85FD855083EE85FF854083188E0D
:1011E000EC89FD891083EA89FB8980818061808395
:1011F000EA89FB89808188608083EA89FB89808114
:1012000080688083EA89FB8980818F7D8083DF917C
:10121000CF911F91FF90EF90DF90CF9008951F9294
:101220000F920FB60F9211242F938F939F93EF93EA
:10123000FF93E0911A03F0911B038081E09120035A
:10124000F091210382FD12C09081809123038F5F72
:101250008F7320912403821751F0E0912303F0E073
:10126000E65FFC4F958F8093230301C08081FF913F
:10127000EF919F918F912F910F900FBE0F901F9024
:1012800018951F920F920FB60F9211242F933F9330
:101290004F935F936F937F938F939F93AF93BF937E
:1012A000EF93FF938AE093E00E942008FF91EF9173
:1012B000BF91AF919F918F917F916F915F914F916E
:1012C0003F912F910F900FBE0F901F9018958AE0BD
:1012D00093E00E94E40721E0892B09F420E0822FAB
:1012E0000895EAE0F3E01382128288EE93E0A0E032
:1012F000B0E084839583A683B7838FEA92E09183DD
:10130000808385EC90E09587848784EC90E09787D4
:10131000868780EC90E0918B808B81EC90E0938BC2
:10132000828B82EC90E0958B848B86EC90E0978B9F
:10133000868B118E128E138E148E0895CF92DF92AB
:10134000EF92FF920F931F93CF93DF936C017A017B
:101350008B01C0E0D0E0CE15DF0589F0D8016D919A
:101360008D01D601ED91FC910190F081E02DC60137
:101370000995892B11F47E0102C02196ECCFC7019B
:10138000DF91CF911F910F91FF90EF90DF90CF9061
:1013900008956115710579F0FB0101900020E9F7CE
:1013A0003197AF01461B570BDC01ED91FC91028098
:1013B000F381E02D099480E090E008950C94C90930
:1013C000DC01ED91FC910190F081E02D099466E93A
:1013D00071E00C94C9090F931F93CF93DF93EC0135
:1013E0000E94C9098C01CE010E94E709800F911F5C
:1013F000DF91CF911F910F9108954F925F926F925D
:101400007F92EF92FF920F931F93CF93DF93CDB70D
:10141000DEB7A1970FB6F894DEBF0FBECDBF7C013B
:10142000FA01CB0119A2223008F42AE08E010F5DE7
:101430001F4F422E512C612C712CBF01A301920130
:101440000E94781BF901CA01015011096A3014F495
:10145000605D01C0695CD8016C93232B242B252B84
:1014600061F7B801C7010E94C909A1960FB6F894A7
:10147000DEBF0FBECDBFDF91CF911F910F91FF90C7
:10148000EF907F906F905F904F900895CF92DF9292
:10149000EF92FF920F931F93CF93DF93EC016A01BA
:1014A0007B012115310579F4E881F9810190F08102
:1014B000E02D642FDF91CF911F910F91FF90EF905E
:1014C000DF90CF9009942A303105E9F477FF1AC0F4
:1014D0006DE20E94E0098C0144275527BA014C199E
:1014E0005D096E097F092AE0CE010E94FD09800F87
:1014F000911FDF91CF911F910F91FF90EF90DF909F
:10150000CF9008952AE0B701A601CE01DF91CF91D7
:101510001F910F91FF90EF90DF90CF900C94FD09F9
:101520000F931F93CF93DF93EC019A01AB01770FD9
:10153000660B770B0E94460A8C01CE010E94E709D8
:10154000800F911FDF91CF911F910F9108954F92BE
:101550005F926F927F92AF92BF92CF92DF92EF92A3
:10156000FF920F931F93CF93DF93CDB7DEB729017F
:101570003A019B01AC0124193509460957098989AB
:101580009A89AB89BC89BC01CD016A197B098C0998
:101590009D090E94681BA801970124193509460975
:1015A00057090E949A1BCA01B9016A0D7B1D8C1D47
:1015B0009D1DDF91CF911F910F91FF90EF90DF90D4
:1015C000CF90BF90AF907F906F905F904F900895B5
:1015D0001F920F920FB60F9211242F933F938F9368
:1015E0009F93AF93BF938091A8039091A903A0917B
:1015F000AA03B091AB033091A70323E0230F2D374B
:1016000020F40196A11DB11D05C026E8230F029606
:10161000A11DB11D2093A7038093A8039093A90354
:10162000A093AA03B093AB038091AC039091AD0358
:10163000A091AE03B091AF030196A11DB11D80939F
:10164000AC039093AD03A093AE03B093AF03BF91EF
:10165000AF919F918F913F912F910F900FBE0F905F
:101660001F9018952FB7F8946091A8037091A90363
:101670008091AA039091AB032FBF08953FB7F894D0
:101680008091AC039091AD03A091AE03B091AF03F4
:1016900026B5A89B05C02F3F19F00196A11DB11DCD
:1016A0003FBFBA2FA92F982F8827820F911DA11D08
:1016B000B11DBC01CD0142E0660F771F881F991F45
:1016C0004A95D1F708958F929F92AF92BF92CF9291
:1016D000DF92EF92FF926B017C010E943E0B4B0167
:1016E0005C01C114D104E104F10401F10E94671B03
:1016F0000E943E0BDC01CB0188199909AA09BB099C
:10170000883E9340A105B10560F321E0C21AD108DB
:10171000E108F10888EE880E83E0981EA11CB11C38
:10172000C114D104E104F10419F7DBCFFF90EF906D
:10173000DF90CF90BF90AF909F908F900895789456
:1017400084B5826084BD84B5816084BD85B58260C6
:1017500085BD85B5816085BDEEE6F0E08081816064
:101760008083E1E8F0E01082808182608083808164
:1017700081608083E0E8F0E0808181608083E1EB3C
:10178000F0E0808184608083E0EBF0E08081816024
:101790008083EAE7F0E080818460808380818260DA
:1017A00080838081816080838081806880831092C3
:1017B000C10008958E3008F08E5087702091360158
:1017C00090E4299F90011124822B80937C008091CA
:1017D0007A00806480937A0080917A0086FDFCCF45
:1017E000809178002091790090E0922B08958330C9
:1017F00081F028F4813099F08230A1F0089587308B
:10180000A9F08830B9F08430D1F4809180008F7DC8
:1018100003C0809180008F7780938000089584B505
:101820008F7702C084B58F7D84BD08958091B0000C
:101830008F7703C08091B0008F7D8093B0000895B2
:10184000CF93DF9390E0FC01EA55FF4F2491FC0118
:10185000E654FF4F8491882361F190E0880F991F2F
:10186000FC01E852FF4FC591D491FC01E253FF4FB8
:10187000A591B491611109C09FB7F8948881209512
:1018800082238883EC912E230BC0623061F49FB7D2
:10189000F8943881822F809583238883EC912E2BB6
:1018A0002C939FBF06C08FB7F894E8812E2B288316
:1018B0008FBFDF91CF9108951F93CF93DF93282F90
:1018C00030E0F901EE56FF4F8491F901EA55FF4FE0
:1018D000D491F901E654FF4FC491CC23C9F0162FDF
:1018E00081110E94F70BEC2FF0E0EE0FFF1FE25387
:1018F000FF4FA591B4918FB7F894111105C09C9139
:10190000ED2FE095E92302C0EC91ED2BEC938FBF16
:10191000DF91CF911F910895CF93DF9300D0CDB782
:10192000DEB72091090430910A04CE0101962115F9
:10193000310519F48D50944002C0821B930B9A8399
:10194000898389819A810F900F90DF91CF910895BB
:10195000DC01DA9620E030E04C91461307C0220FFC
:10196000331FFC01E20FF31F83AD08952F5F3F4F3C
:1019700012962730310581F78FEF0895403885E2C0
:1019800058076105710560F0413080E4580788E32D
:101990006807710548F040E050E468E370E004C077
:1019A00040E855E260E070E026E08AE093E00E94C3
:1019B000AA088091C20088608093C2000895CF93E6
:1019C000DF9300D0CDB7DEB7FB0183811F928F93E9
:1019D00082811F928F9381811F928F9380811F92AA
:1019E0008F9385EE90E09F938F935F934F934983FE
:1019F0005A830E94871D0FB6F894DEBF0FBECDBF7D
:101A00004981842F5A81952F0F900F90DF91CF91AC
:101A10000895662341F08FE39CE90197F1F700C038
:101A200000006150F6CF08958AE093E00E94E40739
:101A3000892BD1F38AE093E00E94FE0708958AE0A3
:101A400093E00E94FE070895CF92DF92EF92FF92FB
:101A5000CF93DF93EC018AE093E00E9441080E945B
:101A6000320B6B017C018091C00087FF11C00E9486
:101A7000320BAB01BC014C195D096E097F09423381
:101A800051056105710550F4CE010E941F0DEBCF89
:101A90008AE093E00E94E407892B49F761E0CE01D8
:101AA000DF91CF91FF90EF90DF90CF900C94090DD4
:101AB000CF93DF93EC010E94240D4AA95BA96CA986
:101AC0007DA9CE010E94BE0C19825B98DF91CF9157
:101AD0000895CF93DF93EC010E94240D19825B9A45
:101AE000DF91CF910895FC011182FB96AC01475B19
:101AF0005F4F2FEFDF0111972C9320833296E4176D
:101B0000F507C1F70C94240D0F931F93CF93DF9328
:101B10008C018AE093E00E9441088AE093E00E94F1
:101B2000E407EC01209729F0C8010E941F0D2197BE
:101B3000F9CFDF91CF911F910F9108952F923F928E
:101B40004F925F926F927F928F929F92AF92BF92CD
:101B5000CF92DF92EF92FF920F931F93CF93DF9379
:101B6000CDB7DEB727970FB6F894DEBF0FBECDBF57
:101B70009F838E834B012A0159013801FA82E98241
:101B8000FC0181818230C9F4FB0180818F3F21F00B
:101B90009091370189130EC0C114D10471F4809162
:101BA0003701F40180838091BF039091C003F2015B
:101BB0009183808380E090E09FC100E010E02E815F
:101BC0003F81265C3F4F3C832B8333243A9452E081
:101BD000252EEE81FF8181818130E1F018F0823085
:101BE00029F1DAC021E0EE81FF81218330923701B3
:101BF0001092C0031092BF031092BE031092BD0357
:101C00001092BC031092B8031092B9031092BA0359
:101C10001092BB038091BE03883068F58AE093E0A0
:101C20000E94E407892B09F02DC125C08E819F8178
:101C30000E94140DE981FA818083F1E0CF1AD10866
:101C40000F5F1F4F8091BF039091C0030197909346
:101C5000C0038093BF03892B09F09AC08E819F81B6
:101C60000E94140D8E819F810E94140DEE81FF81D0
:101C7000118221E092C08091BE03883008F48CC0AC
:101C80007091B0036091B1035091B2034091B303DE
:101C90003091B4032091B5039091B6038091B703BE
:101CA000723509F094C0633509F0DAC0593409F08F
:101CB000D7C04F3509F0D4C0323509F0D1C0253432
:101CC00009F0CEC0913409F0CBC0843409F0C8C00B
:101CD0008E819F810E94140D809337018E819F8198
:101CE0000E94140D90E09093C0038093BF038E81F7
:101CF0009F810E94140D2091BF033091C003A90160
:101D0000582BCA015093C0034093BF036091370121
:101D1000EE81FF816F3F09F44DC0892B09F44AC061
:101D20002182CF010E94A80C813071F58E819F81A4
:101D30000E94140D8093B8038E819F810E94140D20
:101D40008093B9038E819F810E94140D8093BA0302
:101D50008E819F810E94140D8093BB038E819F8191
:101D60000E94140D90E09093BD038093BC038E817C
:101D70009F810E94140D2091BC033091BD03382B2C
:101D80003093BD032093BC03F40180818F3FD1F4D5
:101D900021E0C114D10409F020E08AE093E02D8312
:101DA0000E94E4072D81892B09F47CC0222309F4C9
:101DB00010CF78C01182309237011092C003109278
:101DC000BF03EACF90913701891711F3F3CE733532
:101DD00009F046C0693409F043C05F3509F040C0DE
:101DE0004334F1F53C34E1F52F34D1F59335C1F5A9
:101DF0008534B1F58E819F810E94140D8093370147
:101E00008E819F810E94140D8E819F810E94140DEE
:101E10001092C0031092BF03EE81FF8111822091C6
:101E20003701EB81FC8180E090E03081321310C0FB
:101E3000FC017D96EE0FFF1F2E813F81E20FF31F05
:101E40003082880F991FF901E80FF91F33AE05C0E2
:101E5000019632968730910541F70FEF1FEF09CFBA
:101E600077E07093BE036093B0035093B103409347
:101E7000B2033093B3032093B4039093B5038093DC
:101E8000B6038ACFE090BE0381E08E0D8093BE033F
:101E9000F12C8AE093E00E94FE07F701E055FC4F29
:101EA0008083B8CE80913701F40180838091BF0395
:101EB0009091C003F20191838083A114B10479F061
:101EC0008091B803882359F0F50180838091B9038C
:101ED00081838091BA0382838091BB0383836114E1
:101EE000710449F08091BC039091BD03009719F0F3
:101EF000F30191838083C80127960FB6F894DEBF63
:101F00000FBECDBFDF91CF911F910F91FF90EF904A
:101F1000DF90CF90BF90AF909F908F907F906F9009
:101F20005F904F903F902F9008959F92AF92BF92F5
:101F3000CF92DF92EF92FF920F931F93CF93DF9395
:101F400000D01F92CDB7DEB75C01962E8AE093E0F9
:101F50000E94E407892BA9F08FEF8B831A821982E4
:101F6000C12CD12CE12CF12C00E010E020E030E07D
:101F7000AE014F5F5F4FBE016D5F7F4FC5010E9495
:101F80009E0D8FEF981661F0F501FA9688E4A80E81
:101F9000B11C8081891531F03296EA15FB05C9F72D
:101FA00081E001C080E00F900F900F90DF91CF9102
:101FB0001F910F91FF90EF90DF90CF90BF90AF9067
:101FC0009F900895CF92DF92EF92FF920F931F930D
:101FD0006801790100E010E020E030E00E949E0DF1
:101FE0001F910F91FF90EF90DF90CF9008952F9267
:101FF0003F924F925F926F927F928F929F92AF9299
:10200000BF92CF92DF92EF92FF920F931F93CF93E5
:10201000DF93CDB7DEB72E970FB6F894DEBF0FBEB5
:10202000CDBF2C013B014A873C872B871E870D873C
:1020300017014601FC018181823009F44CC18AE01C
:1020400093E00E94E407892BD1F08FEF89871A82F1
:102050001982C12CD12CE12CF12C00E010E020E001
:1020600030E0AE014F5F5F4FBE01675F7F4FC2013F
:102070000E949E0D89819A81892B09F02CC1EB85E4
:10208000FC8564918F010F5F1F4F662339F08AE052
:1020900093E00E946308F8016491F5CF8D859E85D9
:1020A000892B39F42114310441F181010F5F1F4F55
:1020B00020C00D851E85F80161918F01662391F383
:1020C0008AE093E00E946308F6CF6D3009F010C1FA
:1020D000F80184918A3009F00BC16BED8AE093E03E
:1020E0000E9463086CED8AE093E00E9463080E5F33
:1020F0001F4FF10164916111F0C0A114B104F1F41A
:10210000C2010E94840D6DE08AE093E00E946308A2
:102110006AE08AE093E00E946308FA85F1117EC0CC
:1021200019821E820E94320B4B015C0130E1C32EEA
:1021300037E2D32EE12CF12C10E040C0F401608195
:102140006B3D81F48AE093E00E9463086DED8AE0C4
:1021500093E00E946308FFEF8F1A9F0A81E0A81A9C
:10216000B108CBCF6D30C9F4F40181818A30A9F474
:10217000F2E0AF16B10488F06BED8AE093E00E94C4
:1021800063086CED8AE093E00E94630882E0880EA9
:10219000911C92E0A91AB108B0CFEFEF8E1A9E0AF7
:1021A0008AE093E00E946308F1E0AF1AB108A5CF7E
:1021B0008AE093E00E94E407892B71F40E94320BBD
:1021C000DC01CB0188199909AA09BB098C159D0569
:1021D000AE05BF0568F36BC08AE093E00E94FE077E
:1021E000183080F401E0010FE1E0F0E0EC0FFD1F9A
:1021F000E10FF11D808389818F3429F0853419F036
:1022000000E001C0012F0E94320B4B015C0123E072
:10221000C22ED12CE12CF12C102FD0CFF301108243
:1022200015820E94320B6B017C0190E1892E97E2AE
:10223000992EA12CB12C10E00E94320BDC01CB01B5
:102240008C199D09AE09BF0988159905AA05BB051A
:1022500038F58AE093E00E94E407892B69F38AE06D
:1022600093E00E94FE07FA851F1770F401E0010F4A
:10227000F301E10FF11D8083F30180818F3429F098
:10228000853419F000E001C0012F0E94320B6B0170
:102290007C0183E0882E912CA12CB12C102FCCCF67
:1022A000F3018081898381818A8385818E838981FD
:1022B0008F3439F481E09A819B3409F480E0819570
:1022C0001FC0853441F48A81823529F48E818823A8
:1022D00011F08D30A9F48FEF13C0C80101961C01D5
:1022E0006B3D09F0F2CE8AE093E00E9463086DED49
:1022F0008AE093E00E946308F80164918101FBCEBB
:102300002E960FB6F894DEBF0FBECDBFDF91CF91F2
:102310001F910F91FF90EF90DF90CF90BF90AF9003
:102320009F908F907F906F905F904F903F902F90F5
:1023300008955F926F927F928F929F92AF92BF9219
:10234000CF92DF92EF92FF920F931F93CF93DF9381
:10235000CDB7DEB72A970FB6F894DEBF0FBECDBF5C
:102360004C013B01542EC8014AE0BE016F5F7F4F14
:1023700029873A870E94621DA12CB12CC12CD12C37
:10238000E12CF12C8E010F5F1F4F29853A85452DD9
:10239000B301C4010E94F70F2A960FB6F894DEBF6E
:1023A0000FBECDBFDF91CF911F910F91FF90EF90A6
:1023B000DF90CF90BF90AF909F908F907F906F9065
:1023C0005F9008950F931F939B018A0140E060E0A6
:1023D00070E00E9499111F910F9108958F929F9222
:1023E000AF92BF92CF92DF92EF92FF920F931F9323
:1023F000CF93DF93CDB7DEB72B970FB6F894DEBF40
:102400000FBECDBF5C01962E88248A948AE093E0AB
:102410000E94E407892B81F18B861A861986C12CCC
:10242000D12CE12CF12C00E010E020E030E0AE01F6
:10243000475F5F4FBE01655F7F4FC5010E949E0DE4
:102440008B85891119C089859A85892BF9F29B861C
:1024500028E0C22ED12CCE0101967C0100E010E0D4
:1024600020E030E0AE01475F5F4FBE01655F7F4F08
:10247000C5010E949E0DE7CF9FEF991202C080E038
:102480002CC0F501FA9620E030E0808189111EC051
:10249000F9017D96EE0FFF1FEA0DFB1D8FEF808384
:1024A000220F331FF501E20FF31F83AF13E0892CD6
:1024B000912CA40165E271E0C5010E94E21188231C
:1024C000F1F28E3FE1F21150A1F707C02F5F3F4FAD
:1024D000329627303105C9F6D2CF2B960FB6F89435
:1024E000DEBF0FBECDBFDF91CF911F910F91FF9047
:1024F000EF90DF90CF90BF90AF909F908F90089516
:10250000AF92BF92CF92DF92EF92FF920F931F9301
:1025100057016801E12CF12C00E010E00E94F70F58
:102520001F910F91FF90EF90DF90CF90BF90AF90F1
:1025300008956F927F928F929F92AF92BF92CF92A7
:10254000DF92EF92FF920F931F93CF93DF93EC01F3
:102550006B014A0183E0782E5E0182E0A80EB11C77
:1025600090E3692EF501862D11928A95E9F7F6011F
:1025700001900020E9F731977F01EC18FD088601F2
:1025800027E034E040E3B501CE010E9480128111C2
:102590000EC09C81992359F08D819E81AF81B885B1
:1025A000F40180839183A283B38380E003C07A9493
:1025B0007110D8CFDF91CF911F910F91FF90EF90C5
:1025C000DF90CF90BF90AF909F908F907F906F9053
:1025D0000895AF92BF92CF92DF92EF92FF920F9346
:1025E0001F93A12CB12CC12CD12CE12CF12C0E94D9
:1025F000F70F1F910F91FF90EF90DF90CF90BF905A
:10260000AF9008958F929F92AF92BF92DF92EF9218
:10261000FF920F931F93CF93DF9300D0CDB7DEB718
:102620004C01D62EBA017C0182E0E80EF11CA70114
:10263000C40129833A830E94DF0C6EE571E0C70173
:102640000E94221DF70101900020E9F73197EE1951
:10265000FF093A813F9329812F9352EEA52E50E036
:10266000B52EBF92AF92FF273296E80DF91DFF936A
:10267000EF930E94871D6CE571E0C7010E94221D47
:10268000F70101900020E9F73197EE19FF091F9338
:102690000F93BF92AF92FF273296E80DF91DFF937B
:1026A000EF930E94871D0FB6F894DEBF0FBECDBF1B
:1026B000F2E08701DF1203C029E431E004C0D11049
:1026C0000CC02DE331E048E0B701C4010E94E912DB
:1026D00081112EC0F40184810DC021E331E048E076
:1026E000B701C4010E94E912811122C0F401848162
:1026F000DD24D3948F3FE9F0F401FA9620E030E036
:1027000090819F3F71F4F9017D96EE0FFF1FE80D58
:10271000F91D8083220F331F280D391DF901D3AE17
:1027200008C02F5F3F4F32962730310549F701C06F
:102730008FEF0F900F90DF91CF911F910F91FF902E
:10274000EF90DF90BF90AF909F908F9008950F9380
:102750001F93E0913801F09139013196E13078E032
:10276000F70710F0E0E0F4E0F0933901E09338016E
:1027700000913801109139010E9402131F910F91AD
:102780000895AF92BF92CF92DF92EF92FF920F9394
:102790001F93A12CB12CC12CD12CE12CF12C00E0E9
:1027A00010E00E94F70F1F910F91FF90EF90DF90C4
:1027B000CF90BF90AF900895AF92BF92CF92DF922B
:1027C000EF92FF920F931F93A12CB12CC12CD12C0F
:1027D00079018A019B0140E060E070E00E94F70F00
:1027E0001F910F91FF90EF90DF90CF90BF90AF902F
:1027F00008955F926F927F928F929F92AF92BF9255
:10280000CF92DF92EF92FF920F931F93CF93DF93BC
:102810007C01762E6A015901CA010E942D1D682E85
:10282000592EE70122961F927F9282EE882E80E039
:10283000982E9F928F92DF93CF930E94871D69E01D
:1028400071E0CE010E94221DFE0101900020E9F7F7
:102850003197EC1BFD0B5F926F929F928F92FF2737
:102860003296EE0DFF1DFF93EF930E94871D8DB7EB
:102870009EB70C960FB6F8949EBF0FBE8DBFA114E5
:10288000B10409F463C0672DC7010E94A80C813010
:1028900009F05CC067E071E0CE010E94221DFE01DC
:1028A00001900020E9F73197AF014C1B5D0B5527D4
:1028B0004E5F5F4F4E0D5F1DB501C7010E94DF0CDB
:1028C0000115110509F448C0672DC7010E94A80C25
:1028D000813009F041C062E071E0CE010E94221D0A
:1028E000FE0101900020E9F73197EC1BFD0B1F93CF
:1028F0000F9382EE90E09F938F93FF273296EE0D19
:10290000FF1DFF93EF930E94871D0F900F900F9074
:102910000F900F900F906DEF70E0CE010E94221D7E
:102920009601AE0161EF70E0C701DF91CF911F9179
:102930000F91FF90EF90DF90CF90BF90AF909F905E
:102940008F907F906F905F900C94DC1364E071E047
:10295000CE010E94221DB4CF6FEF70E0CE010E9425
:10296000221DD9CFAF92BF92CF92DF92EF92FF920A
:102970000F931F9358016901E12CF12C8A019B01EF
:1029800040E060E070E00E94F70F1F910F91FF9010
:10299000EF90DF90CF90BF90AF9008955F926F92CD
:1029A0007F928F929F92AF92BF92CF92DF92EF92DF
:1029B000FF920F931F93CF93DF936C01762E4A0102
:1029C000522E632EEC0122961F926F9382EEA82E58
:1029D00080E0B82EBF92AF92DF93CF930E94871D05
:1029E00063E271E0CE010E94221DFE0101900020F1
:1029F000E9F73197EC1BFD0B6F925F92BF92AF929C
:102A0000FF273296EC0DFD1DFF93EF930E94871D6B
:102A10008DB79EB70C960FB6F8949EBF0FBE8DBFB4
:102A20000115110539F0672DC6010E94A80C8130EF
:102A300009F44EC06EE171E0CE010E94221DE11446
:102A4000F10409F45CC0672DC6010E94A80C813016
:102A500009F055C06CE171E0CE010E94221DFE011B
:102A600001900020E9F73197EC1BFD0BFF92EF92EC
:102A700082EE90E09F938F93FF273296EC0DFD1D21
:102A8000FF93EF930E94871D0F900F900F900F9070
:102A90000F900F9067E171E0CE010E94221D052D7D
:102AA000162D9401AE016BE071E0C6010E94B214D4
:102AB000DF91CF911F910F91FF90EF90DF90CF901A
:102AC000BF90AF909F908F907F906F905F90089590
:102AD00061E271E0CE010E94221DFE010190002002
:102AE000E9F73197AF014C1B5D0B55274E5F5F4FE8
:102AF0004C0D5D1DB801C6010E94DF0CA0CF69E13D
:102B000071E0CE010E94221DC5CFEF92FF920F937C
:102B10001F93FA0101900020E9F73197E41BF50BB0
:102B2000780189019F010E94CE141F910F91FF909F
:102B3000EF900895AF92BF92CF92DF92EF92FF9203
:102B40000F931F939B01A12CB12CC12CD12CE12CF4
:102B5000F12C8A0140E060E070E00E94F70F1F91C5
:102B60000F91FF90EF90DF90CF90BF90AF900895BE
:102B70006F927F928F929F92AF92BF92CF92DF928D
:102B8000EF92FF920F931F93CF93DF931F92CDB7D6
:102B9000DEB73C015A01490169830E94730DF301BC
:102BA00016AA17AA10AE11AE6301F2E0CF0ED11C27
:102BB00080E3F60111928A95E9F76981623051F458
:102BC00026EB31E040E3B601C3010E94C11381113D
:102BD00091C00BC0662399F022EA31E040E3B601D0
:102BE000C3010E94C113811187C0F301428553853F
:102BF0006485758546AB57AB60AF71AF7EC08114FD
:102C0000910459F0A601B401C3010E94DF0CA60192
:102C100060E971E0C3010E949A15A114B10481F02A
:102C2000A601B501C3010E94DF0CF50180819181ED
:102C3000A281B381F30186AB97ABA0AFB1AF0DC05A
:102C400064E871E0C6010E94221D80ECF30186ABAE
:102C500088EA87AB10AE81E081AFE114F104B9F0EE
:102C600062E871E0C6010E94221DF6010190002079
:102C7000E9F73197AF014C195D0955274E5F5F4F5A
:102C8000460D571DB701C3010E94DF0C05C063E765
:102C900071E0C6010E94221D01151105B1F061E726
:102CA00071E0C6010E94221DF60101900020E9F7A3
:102CB0003197AF014C195D0955274E5F5F4F460DA7
:102CC000571DB801C3010E94DF0CA60160E671E048
:102CD000C3010F90DF91CF911F910F91FF90EF9063
:102CE000DF90CF90BF90AF909F908F907F906F902C
:102CF0000C949A1582E001C081E00F90DF91CF9192
:102D00001F910F91FF90EF90DF90CF90BF90AF9009
:102D10009F908F907F906F900895EF92FF920F9306
:102D20001F93E12CF12C00E010E020E030E040E0C7
:102D300050E061E00E94B8151F910F91FF90EF9055
:102D40000895AF92BF92CF92DF92EF92FF920F93CE
:102D50001F939B01A12CB12CC12CD12CE12CF12C67
:102D600000E010E040E060E070E00E94F70F1F918B
:102D70000F91FF90EF90DF90CF90BF90AF900895AC
:102D8000CF93DF93EC0166EF73E00E94A11668EE2B
:102D900073E0CE01DF91CF910C94A116AF92BF9258
:102DA000CF92DF92EF920F931F93CF93DF93EC01BB
:102DB0006B015A011E2D213049F018F0223091F09C
:102DC00020C06AEC73E00E94A1161BC0452B29F0BD
:102DD0006EEA73E00E94A116BFC066E973E00E942C
:102DE000A116B6C0402F50E0A114B10429F06BE742
:102DF00073E00E94E211B0C064E673E00E94E21149
:102E0000A7C0153038F4412F50E063E573E0CE01E0
:102E10000E94E211A114B10431F0A50167E473E04E
:102E2000CE010E949A15E8818E2F90E085319105A0
:102E300008F096C0FC01EC5CFF4F0C94B91B22E437
:102E400033E0A60165E373E077C020E333E0A60139
:102E500063E273E071C02EE133E0A60161E173E04B
:102E60006BC02CE033E0A6016FEF72E065C02AEF83
:102E700032E0A6016DEE72E05FC028EE32E0A601FE
:102E80006BED72E059C026ED32E0A60169EC72E00C
:102E900053C024EC32E0A60167EB72E04DC022EB98
:102EA00032E0A60165EA72E047C020EA32E0A601FE
:102EB00063E972E041C02EE832E0A60161E872E009
:102EC0003BC02CE732E0A6016FE672E035C02AE68F
:102ED00032E0A6016DE572E02FC028E532E0A601E0
:102EE0006BE472E029C026E432E0A60169E372E0F7
:102EF00023C024E332E0A60167E272E01DC022E2B3
:102F000032E0A60165E172E017C020E132E0A601DF
:102F100063E072E011C02DEF31E0A60160EF71E0D7
:102F20000BC02AEE31E0A6016DED71E005C027ED82
:102F300031E0A6016AEC71E0CE01DF91CF911F91E3
:102F40000F91EF90DF90CF90BF90AF900C94DC1377
:102F5000153008F068CF57CF153008F05ECF53CF4B
:102F600080E0DF91CF911F910F91EF90DF90CF9094
:102F7000BF90AF900895EF920F93EE24EA9400E093
:102F80000E94CE160F91EF900895BF92CF92DF92DC
:102F9000EF92FF920F931F93CF93DF93EC016A019F
:102FA0007B01B22E61E083E00E94200C5B9A61E01D
:102FB00082E00E94200C5A9861E081E00E94200C7F
:102FC00061E081E00E945C0C60E080E00E94200CE7
:102FD00061E080E00E945C0C1EAA1FAA18AE19AE28
:102FE000FE01329680E3DF011D928A95E9F7CAAAB5
:102FF000DBAAECAAFDAAB701A601CE010E94BE0C75
:10300000CE010E94580D5A9865E0CE010E94090D2C
:103010005A9A6BE0CE010E94090D14E00FEF6CE1AB
:103020008AE093E00E9463080E94320B6B017C01EE
:103030000E94320BDC01CB018C199D09AE09BF093E
:10304000883C9105A105B10508F58AE093E00E944E
:10305000E407892B69F38AE093E00E94FE07853537
:1030600039F765E58AE093E00E9463086AE0CE01E3
:103070000E94090D6EE68AE093E00E9463086AE010
:103080008AE093E00E94630811E00EEF115039F6D8
:1030900064E1CE010E94090D13E0CE010E94240DCF
:1030A00060E374E0CE010E94A11681110DC062E2BE
:1030B00074E0CE010E94A11666E174E0CE010E9488
:1030C000A116B88200E009C06AE0CE010E94090D95
:1030D000115019F7CE010E94690D802FDF91CF9119
:1030E0001F910F91FF90EF90DF90CF90BF900895C8
:1030F00022E040E855E260E070E00C94C517CF9202
:10310000DF92EF92FF920F931F93CF93DF937C0197
:103110006A018B01C0E0D0E0CC15DD0589F0D70154
:10312000ED91FC91068CF78DE02DC70109958F3F3D
:10313000BFEF9B0729F0F80181938F012196ECCF17
:10314000CE01DF91CF911F910F91FF90EF90DF9013
:10315000CF9008950F931F93CF93DF93EC01E881F5
:10316000F981048CF58DE02D09958C01011511056F
:1031700051F0E881F981068CF78DE02DCE0109959B
:1031800001501109F3CFDF91CF911F910F91089555
:103190000F931F93CF93DF938C01DC01ED91FC9192
:1031A00006A0F7A1E02D0995EC01892B61F0D8016B
:1031B000ED91FC9106A0F7A1E02D62E474E0C80156
:1031C0000995C80FD91FCE01DF91CF911F910F91A3
:1031D000089521E0FC0184818F3F09F420E0822FD3
:1031E00008950F931F93CF93DF9300D01F92CDB715
:1031F000DEB7FC0184818B831A8219828F3F71F0C4
:1032000000E010E020E030E0AE014F5F5F4FBE0114
:103210006D5F7F4F81EC93E00E94E20F89819A817C
:103220000F900F900F90DF91CF911F910F91089504
:10323000EF92FF920F931F93CF93DF9300D000D0B4
:10324000CDB7DEB7FC0124812B832F3FB9F07C0181
:1032500001E010E09E012C5F3F4FAE014F5F5F4FDA
:10326000BE016D5F7F4F81EC93E00E94E20F0097FB
:1032700029F0019631F48FEFF70184838FEF9FEFF0
:1032800002C08C8190E00F900F900F900F90DF9113
:10329000CF911F910F91FF90EF9008951F93CF93BF
:1032A000DF93FC0164816F3FB1F0EC0181EC93E0AE
:1032B0000E94950F182F882319F08FEF8C830BC075
:1032C0008E858A3050F06C8181EC93E00E94EE1183
:1032D0008FEF8C8303C010E001C011E0812FDF91DC
:1032E000CF911F910895CF93DF93FC0124812F3F4D
:1032F00081F0EC010190F081E02D02A0F3A1E02D1E
:1033000009956C8181EC93E00E94EE118FEF8C8324
:103310001E86DF91CF910895CF92DF92EF92FF92B8
:103320000F931F93CF93DF931F92CDB7DEB76983BF
:10333000FC0164816F3F01F16C01FC01E184F284C6
:103340008C010B5F1F4F21E030E0AE014F5F5F4FFC
:1033500081EC93E00E94CE14F601882381F08685EB
:103360008F5F86878A3040F0648181EC93E00E9411
:10337000EE118FEFF601848380E090E003C01686A3
:1033800081E090E00F90DF91CF911F910F91FF901E
:10339000EF90DF90CF900895CF92DF92EF92FF925F
:1033A0000F931F93CF93DF93DC011496EC91EF3FC3
:1033B000F1F0C52ED42EAB01EC01E984FA848C0126
:1033C0000B5F1F4F2D2D3C2D6E2F81EC93E00E9443
:1033D000CE14882379F08E858F5F8E878A3038F0FF
:1033E0006C8181EC93E00E94EE118FEF8C8380E082
:1033F00090E003C01E868D2D9C2DDF91CF911F91F3
:103400000F91FF90EF90DF90CF900895EF92FF9291
:103410000F931F93CF93DF93EC019C819F3FD1F0DB
:103420007B0109851A859E012B5F3F4FAB01692FF8
:1034300081EC93E00E948515882379F08E858F5F5B
:103440008E878A3038F06C8181EC93E00E94EE1117
:103450008FEF8C8380E090E009C01E86F701019019
:103460000020E9F73197CF018E199F09DF91CF91A5
:103470001F910F91FF90EF900895EF92FF920F939D
:103480001F93CF93DF937B01FC0164816F3F21F198
:10349000EC01018512859C012B5F3F4FA70181EC58
:1034A00093E00E94F913882369F08E858F5F8E87E1
:1034B0008A3090F06C8181EC93E00E94EE118FEFE6
:1034C0008C830AC01E86C701DF91CF911F910F9197
:1034D000FF90EF900C942D1D80E090E0DF91CF9154
:1034E0001F910F91FF90EF900895FC01DB01138273
:1034F00012828DEC92E0918380838C91858311966A
:103500008C911197868312968C91129787831396CC
:103510008C918087528741878FEF848308952DECAB
:1035200032E0FC01318320830C947319FF920F93D6
:103530001F93CF93DF93FC0124812F3F19F080E08C
:1035400090E01BC0F62EEC010385148521853285A1
:10355000AC014B5F5F4F81EC93E00115110519F051
:103560000E94021302C00E94A7138C838C818F3F9C
:1035700031F3FD861E8681E090E0DF91CF911F91AF
:103580000F91FF90089560E00C94961A61E00C94FE
:10359000961A60E00C94961A61E00C94961AFC015D
:1035A000DB018C91858311968C91119786831296FD
:1035B0008C911297878313968C91808752874187CD
:1035C00060E0CF010C94961AFC01DB018C9185839D
:1035D00011968C911197868312968C9112978783FE
:1035E00013968C9180875287418761E0CF010C94BC
:1035F000961AFC01DB018C91858311968C911197B1
:10360000868312968C911297878313968C9180876C
:10361000528741873487238760E0CF010C94961A44
:10362000FC01DB018C91858311968C911197868327
:1036300012968C911297878313968C91808752876C
:1036400041873487238761E0CF010C94961A0F934A
:103650001F93CF93DF93EC018A01AC014B5F5F4F67
:1036600081EC93E00E94991281110AC01A870987A0
:1036700060E0CE01DF91CF911F910F910C94961ACB
:1036800080E090E0DF91CF911F910F9108950F930B
:103690001F93CF93DF93EC018A01AC014B5F5F4F27
:1036A00081EC93E00E94991281110AC01A87098760
:1036B00061E0CE01DF91CF911F910F910C94961A8A
:1036C00080E090E0DF91CF911F910F9108950895D0
:1036D000DB018F939F930E94BF1BBF91AF91A29F6D
:1036E000800D911DA39F900DB29F900D1124089500
:1036F000A1E21A2EAA1BBB1BFD010DC0AA1FBB1FF6
:10370000EE1FFF1FA217B307E407F50720F0A21B67
:10371000B30BE40BF50B661F771F881F991F1A94D4
:1037200069F760957095809590959B01AC01BD01FE
:10373000CF010895052E97FB1EF400940E94B11B43
:1037400057FD07D00E94781B07FC03D04EF40C9461
:10375000B11B50954095309521953F4F4F4F5F4F8E
:10376000089590958095709561957F4F8F4F9F4FED
:103770000895EE0FFF1F0590F491E02D09940E942B
:10378000CA1BA59F900DB49F900DA49F800D911D05
:1037900011240895A29FB001B39FC001A39F700D93
:1037A000811D1124911DB29F700D811D1124911D49
:1037B00008950F931F93CF93DF93869F8001879F78
:1037C000100D969F100D1124C8010E94F51BEC01ED
:1037D000009729F0A80160E070E00E94361DCE013C
:1037E000DF91CF911F910F910895CF93DF93823096
:1037F000910510F482E090E0E0910B04F0910C044C
:1038000020E030E0C0E0D0E0309711F140815181FC
:1038100048175907C0F04817590761F4828193810E
:10382000209719F09B838A832BC090930C0480937C
:103830000B0426C02115310519F04217530718F45F
:103840009A01BE01DF01EF010280F381E02DDCCFA0
:103850002115310509F1281B390B2430310590F46D
:1038600012968D919C9113976115710521F0FB01C2
:103870009383828304C090930C0480930B04FD0116
:10388000329644C0FD01E20FF31F819391932250C1
:1038900031092D933C933AC02091090430910A04D8
:1038A000232B41F4209102013091030130930A044B
:1038B0002093090420910001309101012115310567
:1038C00041F42DB73EB74091040150910501241BEE
:1038D000350BE0910904F0910A04E217F307A0F414
:1038E0002E1B3F0B2817390778F0AC014E5F5F4F56
:1038F0002417350748F04E0F5F1F50930A0440937A
:1039000009048193919302C0E0E0F0E0CF01DF91E0
:10391000CF9108950F931F93CF93DF93009709F4EE
:103920008CC0FC0132971382128200910B0410911B
:103930000C040115110581F420813181820F931F40
:103940002091090430910A042817390779F5F0937A
:103950000A04E093090471C0D80140E050E0AE17BA
:10396000BF0750F412962D913C911397AD0121158C
:10397000310509F1D901F3CF9D01DA0133832283A7
:1039800060817181860F971F8217930769F4EC019C
:1039900028813981260F371F2E5F3F4F31832083C7
:1039A0008A819B8193838283452B29F4F0930C04B5
:1039B000E0930B0442C01396FC93EE931297ED0133
:1039C000499159919E01240F351FE217F30771F4B5
:1039D00080819181840F951F029611969C938E93FE
:1039E0008281938113969C938E931297E0E0F0E08E
:1039F000D80112968D919C911397009719F0F801B8
:103A00008C01F6CF8D919C9198012E5F3F4F820FD4
:103A1000931F2091090430910A042817390769F48B
:103A2000309729F410920C0410920B0402C01382F8
:103A3000128210930A0400930904DF91CF911F9121
:103A40000F910895FB01DC010D900020E9F711971B
:103A500005900D920020E1F70895FC0105900020EB
:103A6000E9F7809590958E0F9F1F0895DC0101C0A6
:103A70006D9341505040E0F70895FB01DC010D903B
:103A80000020E9F7119701900D920020E1F70895C9
:103A9000FB0151915523A9F0BF01DC014D91451760
:103AA0004111E1F759F4CD010190002049F04D9109
:103AB00040154111C9F3FB014111EFCF81E090E0C6
:103AC00001970895BB274A3031F4992322F4BDE2CF
:103AD000909581959F4F0C946E1DBB27FB01552738
:103AE000AA27880F991FAA1FA41710F0A41B83955B
:103AF0005051B9F7A05DAA3308F0A95DA1930097D2
:103B000079F7B111B1931192CB010C94921FAEE0F1
:103B1000B0E0EDE8FDE10C9446200D891E898EE0B1
:103B20008C831A8309838FEF9FE79E838D83AE0179
:103B3000475E5F4F6F89788DCE0101960E94AA1D66
:103B40002F813885F801E20FF31F10822E96E4E0F2
:103B50000C946220ACE0B0E0E0EBFDE10C94382086
:103B60007C016B018A01FC0117821682838181FF2F
:103B7000BDC1CE0101964C01F7019381F60193FD81
:103B8000859193FF81916F01882309F4ABC1853240
:103B900039F493FD859193FF81916F01853229F46A
:103BA000B70190E00E94A21FE7CF512C312C20E0FA
:103BB0002032A0F48B3269F030F4803259F0833235
:103BC00069F420612CC08D3239F0803339F42160E2
:103BD00026C02260246023C0286021C027FD27C0A2
:103BE00030ED380F3A3078F426FF06C0FAE05F9ED9
:103BF000300D1124532E13C08AE0389E300D11244D
:103C0000332E20620CC08E3221F426FD6BC120645D
:103C100006C08C3611F4206802C0883641F4F601E3
:103C200093FD859193FF81916F018111C1CF982FF1
:103C30009F7D9554933028F40C5F1F4FFFE3F98369
:103C40000DC0833631F0833771F0833509F05BC0E6
:103C500022C0F801808189830E5F1F4F4424439462
:103C6000512C540115C03801F2E06F0E711CF8019F
:103C7000A080B18026FF03C0652D70E002C06FEF09
:103C80007FEFC5012C870E94871F2C0183012C85A3
:103C90002F77222E17C03801F2E06F0E711CF80149
:103CA000A080B18026FF03C0652D70E002C06FEFD9
:103CB0007FEFC5012C870E947C1F2C012C8520687A
:103CC000222E830123FC1BC0832D90E04816590649
:103CD000B0F4B70180E290E00E94A21F3A94F4CFC2
:103CE000F50127FC859127FE81915F01B70190E0E6
:103CF0000E94A21F31103A94F1E04F1A510841146A
:103D0000510471F7E5C0843611F0893639F5F801B0
:103D100027FF07C060817181828193810C5F1F4FF3
:103D200008C060817181072E000C880B990B0E5F13
:103D30001F4F2F76722E97FF09C090958095709532
:103D400061957F4F8F4F9F4F2068722E2AE030E0A1
:103D5000A4010E94DA1FA82EA81844C0853729F4B0
:103D60002F7EB22E2AE030E025C0F22FF97FBF2E41
:103D70008F36C1F018F4883579F0B4C0803719F067
:103D8000883721F0AFC02F2F2061B22EB4FE0DC0B6
:103D90008B2D8460B82E09C024FF0AC09F2F966027
:103DA000B92E06C028E030E005C020E130E002C0B6
:103DB00020E132E0F801B7FE07C0608171818281A5
:103DC00093810C5F1F4F06C06081718180E090E09D
:103DD0000E5F1F4FA4010E94DA1FA82EA818FB2D0A
:103DE000FF777F2E76FE0BC0372D3E7FA51450F453
:103DF00074FE0AC072FC08C0372D3E7E05C0BA2C86
:103E0000372D03C0BA2C01C0B52C34FF0DC0FE0104
:103E1000EA0DF11D8081803311F4397E09C032FF33
:103E200006C0B394B39404C0832F867809F0B3948A
:103E300033FD13C030FF06C05A2CB31418F4530CD2
:103E40005B18B32CB31468F4B70180E290E03C87B0
:103E50000E94A21FB3943C85F5CFB31410F43B1815
:103E600001C0312C34FF12C0B70180E390E03C87E1
:103E70000E94A21F3C8532FF17C031FD03C088E7B6
:103E800090E002C088E590E0B7010CC0832F8678EF
:103E900059F031FF02C08BE201C080E237FD8DE2B4
:103EA000B70190E00E94A21FA51438F4B70180E387
:103EB00090E00E94A21F5A94F7CFAA94F401EA0D51
:103EC000F11D8081B70190E00E94A21FA110F5CFE3
:103ED000332009F451CEB70180E290E00E94A21F86
:103EE0003A94F6CFF7018681978102C08FEF9FEF5A
:103EF0002C96E2E10C945420FC0105906150704036
:103F00000110D8F7809590958E0F9F1F0895FC01A2
:103F10006150704001900110D8F7809590958E0FF8
:103F20009F1F0895DC01FC01672F71917723E1F752
:103F3000329704C07C916D9370836291AE17BF0776
:103F4000C8F308950F931F93CF93DF93FB01238151
:103F500021FD03C08FEF9FEF28C022FF16C04681CE
:103F60005781248135814217530744F4A081B181E0
:103F70009D012F5F3F4F318320838C9326813781B2
:103F80002F5F3F4F3783268310C0EB01092F182F77
:103F90000084F185E02D0995892BE1F68E819F81C2
:103FA00001969F838E83812F902FDF91CF911F9158
:103FB0000F910895FA01AA27283051F1203181F19B
:103FC000E8946F936E7F6E5F7F4F8F4F9F4FAF4F21
:103FD000B1E03ED0B4E03CD0670F781F891F9A1F34
:103FE000A11D680F791F8A1F911DA11D6A0F711DE8
:103FF000811D911DA11D20D009F468943F912AE0F4
:10400000269F11243019305D3193DEF6CF010895DB
:10401000462F4770405D4193B3E00FD0C9F7F6CF0C
:10402000462F4F70405D4A3318F0495D31FD4052D4
:10403000419302D0A9F7EACFB4E0A695979587956A
:1040400077956795BA95C9F7009761057105089549
:104050009B01AC010A2E06945795479537952795F5
:10406000BA95C9F7620F731F841F951FA01D08958D
:104070002F923F924F925F926F927F928F929F9278
:10408000AF92BF92CF92DF92EF92FF920F931F9366
:10409000CF93DF93CDB7DEB7CA1BDB0B0FB6F89417
:1040A000DEBF0FBECDBF09942A88398848885F8457
:1040B0006E847D848C849B84AA84B984C884DF80C8
:1040C000EE80FD800C811B81AA81B981CE0FD11DAC
:1040D0000FB6F894DEBF0FBECDBFED010895F89482
:0240E000FFCF10
:1040E20000000D04800001000000A50236016801F5
:1040F2009001BA01E10180EE3600C0D40100A0BBFC
:104102000D00C0D4010040771B00C0D40100E803B9
:1041120000000B000D0001FF000443757272656E12
:1041220074204D656D6F7279003136303436343417
:1041320034363234363830333600574C414E2D4BFC
:104142006162656C005769466920536869656C64F1
:1041520020636F6E6E6563746564006661696C7579
:10416200726500436F6E6E656374696F6E3A2063A9
:104172006C6F73650D0A0D0A0074656D705265747B
:1041820075726E56616C75650073756363657373E2
:1041920000696E697469617400726573657465643F
:1041A20000474554202F76616C75656765742E70E3
:1041B200687000474554202F63616C6C5F696E69BB
:1041C20074696174696F6E2E70687000474554207F
:1041D2002F7761746572696E672E706870003F6E2A
:1041E200616D653D0042616E616E65002674797095
:1041F200653D0050726F7A656E74666575636874AA
:1042020065002676616C75653D00266B65793D63B8
:104212003337383136333366316662316464636111
:10422200373763393033386434393934333435000D
:1042320020485454502F312E310D0A486F73743A6E
:1042420020003139322E3136382E3137382E323481
:1042520000757267656E746C792064727900766598
:104262007279206D6F69737400736572766572205E
:10427200756E617661696C61626C6500696E697404
:104282006961746500726573657400000000006303
:10429200089E09E407FE07F00741086E616E006997
:1042A2006E66006F7666002E00000000008C19CC4E
:1042B20019C31AC61AC91ACC1ACF1AE41AF91A1053
:1042C2001B271B471B4E197319F11818197F18AABF
:0A42D20018061A3D1AC818E9180072
:00000001FF
