:100000000C9425020C944D020C944D020C944D025C
:100010000C944D020C944D020C944D020C944D0224
:100020000C944D020C944D020C944D020C944D0214
:100030000C944D020C944D020C944D020C944D0204
:100040000C94830B0C944D020C94AA090C94DC09BB
:100050000C944D020C944D020C944D020C944D02E4
:100060000C944D020C944D02BA17C017C617CC174A
:10007000D217D817DE17E417EA17F017F617FC1790
:10008000021808180E1814181A18201826182C18F8
:1000900032180000000800020100000304070000FD
:1000A000000000000000010204081020408001024E
:1000B00004081020010204081020040404040404AD
:1000C000040402020202020203030303030300000A
:1000D0000000250028002B0000000000240027005D
:1000E0002A0025750025692E25692E25692E25698A
:1000F0000041542B5253495F534E443D002C002C79
:1001000030002C002C30002C002C0041542B52537A
:10011000495F534E443D002C002C30002C002C3005
:10012000002C002C0041542B5253495F434C533D4B
:100130000041542B5253495F5544503D0041542BCC
:100140005253495F5443503D0041542B5253495F31
:10015000204D554C5449434153543D002C002C0034
:1001600041542B5253495F4950434F4E463D302C2A
:10017000002C002C3235352E3235352E3235352EC9
:1001800030002C003139322E3136382E302E3100ED
:1001900041542B5253495F444E5353455256455296
:1001A0003D0041542B5253495F4950434F4E463D09
:1001B000312C302C300041542B5253495F4950436D
:1001C0004F4E463D322C302C300041542B52534977
:1001D0005F4A4F494E3D002C31322C320041542BA6
:1001E0005253495F4A4F494E3D002C31322C310069
:1001F00041542B5253495F4A4F494E3D002C3132F6
:100200002C300041542B5253495F4A4F494E3D0018
:100210002C392C320041542B5253495F4A4F494EDE
:100220003D002C392C310041542B5253495F4A4F29
:10023000494E3D002C392C300041542B5253495F1C
:100240004A4F494E3D002C372C320041542B52531B
:10025000495F4A4F494E3D002C372C310041542B09
:100260005253495F4A4F494E3D002C372C300041D4
:10027000542B5253495F4A4F494E3D002C342C3287
:100280000041542B5253495F4A4F494E3D002C3494
:100290002C310041542B5253495F4A4F494E3D0087
:1002A0002C342C300041542B5253495F4A4F494E55
:1002B0003D002C322C320041542B5253495F4A4F9F
:1002C000494E3D002C322C310041542B5253495F92
:1002D0004A4F494E3D002C322C300041542B525392
:1002E000495F4A4F494E3D002C312C320041542B7E
:1002F0005253495F4A4F494E3D002C312C31004149
:10030000542B5253495F4A4F494E3D002C312C30FB
:100310000041542B5253495F4A4F494E3D002C3007
:100320002C320041542B5253495F4A4F494E3D00F5
:100330002C302C310041542B5253495F4A4F494EC7
:100340003D002C302C300041542B5253495F505308
:100350004B3D0041542B5253495F415554484D4F3A
:1003600044453D0041542B5253495F4E4554574F2D
:10037000524B3D494253532C312C0041542B525384
:10038000495F4E4554574F524B3D494253535F537B
:1003900045432C312C0041542B5253495F4E455458
:1003A000574F524B3D494253532C302C300041544F
:1003B0002B5253495F4E4554574F524B3D49425380
:1003C000535F5345432C302C300041542B5253493A
:1003D0005F4E4554574F524B3D494E465241535440
:1003E000525543545552450041542B5253495F5383
:1003F00043414E3D300041542B5253495F4E554DC1
:100400005343414E3D300041542B5253495F444EBB
:10041000534745543D0041542B5253495F494E497F
:10042000540041542B5253495F42414E443D3000E9
:1004300041542B5253495F465756455253494F4EEC
:100440003F000D0A000039080C0A11241FBECFEF2F
:10045000D8E0DEBFCDBF14E0A0E0B1E0E8E1F2E417
:1004600002C005900D92A031B107D9F725E0A0E1B7
:10047000B4E001C01D92A332B207E1F712E0C5E279
:10048000D2E004C02197FE010E94541CC332D10760
:10049000C9F70E942A080C940A210C9400000895C0
:1004A000CF93DF93EC0187ED94E00E94040EBE0130
:1004B00080E294E00E94790A87ED94E0DF91CF9189
:1004C0000C94F30DCF93DF93EC0187ED94E00E9441
:1004D000040EBE0180E294E00E94860A87ED94E05B
:1004E000DF91CF910C94F30D0F931F93CF93DF9374
:1004F0008C01EB0187ED94E00E94040EB80180E2CC
:1005000094E00E94790A6EE672E080E294E00E9434
:10051000790A4AE050E0BE0180E294E00E942B0B91
:1005200087ED94E0DF91CF911F910F910C94F30D23
:100530000F931F93CF93DF938C01EB0187ED94E032
:100540000E94040EB80180E294E00E94790A6EE6EF
:1005500072E080E294E00E94790ABE0180E294E0B9
:100560000E94860A87ED94E0DF91CF911F910F9151
:100570000C94F30D0F931F93CF93DF938C01EB013A
:1005800087ED94E00E94040EB80180E294E00E949E
:10059000790A6EE672E080E294E00E94790ABE0178
:1005A00080E294E00E94860A87ED94E0DF91CF918B
:1005B0001F910F910C94F30DCF93DF930E94270DA1
:1005C000EC0187ED94E00E94040E6AE371E080E2A2
:1005D00094E00E94790A6EE672E080E294E00E9464
:1005E000790A4AE050E0BE0180E294E00E942B0BC1
:1005F00087ED94E0DF91CF910C94F30DCF93DF93CF
:10060000C5E6D0E0882339F02197B9F187ED94E071
:100610000E941319F7CF87ED94E00E945B1720E04A
:1006200049E451E06AE571E087ED94E00E945618D4
:10063000C5E6D0E0882361F02197F9F020E049E495
:1006400051E06AE571E087ED94E00E945618F2CF20
:1006500087ED94E00E942817C5E6D0E0882339F0A2
:10066000219759F087ED94E00E942817F7CF85E68F
:1006700091E0DF91CF910C946202DF91CF910895C8
:100680002F923F924F925F926F927F928F929F92A2
:10069000AF92BF92CF92DF92EF92FF920F931F9390
:1006A000CF93DF93CDB7DEB7C053D1400FB6F894E8
:1006B000DEBF0FBECDBF7B012DB73EB7C15DDE4FA4
:1006C00039832883CF52D1400E94CD0B4B015C016E
:1006D00063E871E0C7010E94790AC501B401C12C29
:1006E000D12C00E010E0DE0111961D01DC01CB01F0
:1006F00088199909AA09BB0981369A4EA105B10545
:1007000008F0A9C0C114D10409F0A5C0C7010E9416
:100710008C19892B91F0C7010E94B3198F3FBFEF4D
:100720009B0759F00B32E1E01E07A8F7F101E00F3B
:10073000F11F80830F5F1F4FEECF0115110509F4E4
:100740006FC0C7010E94E91981116AC0CDB6DEB63B
:10075000C7010E940E1AF101E00FF11F1082C101C2
:100760000E9450028DB79EB7C0970FB6F8949EBFF7
:100770000FBE8DBFEDB7FEB73196DF0120E11D92B0
:100780002A95E9F72AEB31E0ADB7BEB712963C9354
:100790002E9311972DB73EB72F5E3F4FD90180E1C1
:1007A0001D928A95E9F7A2ECB1E0B18BA08B205F96
:1007B0003F4FD90180E11D928A95E9F7AAECB1E09B
:1007C000B1A3A0A38F01205F3F4FC35DDE4F3983EC
:1007D0002883CD52D140D8014D905C90B201C10127
:1007E0000E94E31D3C0162187308B30189E991E09E
:1007F0000E94740277FC17C0B2018AEA91E00E945D
:100800009802BBE74B16B1E05B06A9F00FB6F8946F
:10081000DEBE0FBECDBE82E0C82ED12C00E010E0BF
:100820000E94CD0B63CF88E991E00E9462028BE7C2
:1008300091E00E946202005F1F4FC35DDE4F28817E
:100840003981CD52D1400217130729F69BE7492E73
:1008500091E0592EDBCFC7010E944519C201C15D4D
:10086000DE4F28813981CF52D1400FB6F8943EBF78
:100870000FBE2DBFC05DDE4F0FB6F894DEBF0FBEBA
:10088000CDBFDF91CF911F910F91FF90EF90DF903F
:10089000CF90BF90AF909F908F907F906F905F9020
:1008A0004F903F902F9008958230910541F0833012
:1008B000910541F0019741F422ED31E005C024EEAD
:1008C00031E002C02DEF31E0C90108958F929F926F
:1008D000AF92BF92EF92FF920F931F93CF93DF934C
:1008E0004B015C01CA010E9454047C0161E070E08C
:1008F00085E090E00E94741C8C014AE0BC01C401B8
:100900000E94FD1DF70101900020E9F73197CF010A
:100910008E199F09F80101900020E9F73197E01B3B
:10092000F10B8E0F9F1F61E070E084599F4F0E9472
:10093000741CEC01B7010E94D81D6FE072E0CE017B
:100940000E94D81D66E172E0CE010E94D81D6BE1C5
:1009500072E0CE010E94D81D62E272E0CE010E94D8
:10096000D81D61E372E0CE010E94D81DB801CE010E
:100970000E94D81D69E372E0CE010E94D81D6FE588
:1009800072E0CE010E94D81D61E772E0CE010E94A4
:10099000D81D66E971E0CE010E94D81DC8010E94F1
:1009A000251DCE01DF91CF911F910F91FF90EF9008
:1009B000BF90AF909F908F900895CF92DF92EF926B
:1009C000FF9261E085E00E94F70C0E94CD0B6B0165
:1009D0007C01DC01CB018C199D09AE09BF09409156
:1009E0002E0150912F0160913001709131018417D7
:1009F0009507A607B70718F40E94CD0BEACF84E04D
:100A00000E94750C909313048093120460E085E0BB
:100A10000E94F70C8091120490911304FF90EF90C4
:100A2000DF90CF9008950E94DD0420910E01309157
:100A30000F01281739078CF4209110013091110112
:100A4000281739076CF420911201309113012817EF
:100A500039074CF48DE892E0089580E892E008951B
:100A600089E892E0089582E992E00895CF92DF92BA
:100A7000EF92FF9288E992E00E9462020E94CD0B01
:100A80006B017C01DC01CB018C199D09AE09BF090A
:100A900080329E44A105B10580F060E08091340170
:100AA0000E94F70C82E992E0909311048093100465
:100AB000FF90EF90DF90CF9008950E9413058D581E
:100AC000924059F361E0809134010E94F70C0E943A
:100AD000CD0BD8CFCF92DF92EF92FF920F931F935F
:100AE000CF93DF93CDB7DEB7A2970FB6F894DEBFF2
:100AF0000FBECDBF6B017C018A0180EC8F8F88EA2D
:100B000088A382EB89A388E18AA340E550E0BE0177
:100B1000615E7F4FCE0140960E94101BA801C70165
:100B2000B6010E9466047C0140E550E0BE01615EB2
:100B30007F4FCE0140960E946A1B892B79F1B70145
:100B4000CE0140960E94790A8A899B899C838B8377
:100B500084EE93E09A8389838C898D838D899E8925
:100B6000AF89B88D8E839F83A887B987898D9A8D29
:100B70009B878A878B8D9C8D9D878C878D8D8E879B
:100B80008E8D8F87BE016F5F7F4FC8010E9440032B
:100B90008C01CE0101960E942A1B08C08CEA92E0CB
:100BA0000E9462020E94FE020BE711E0C7010E9450
:100BB000251D0E94DC02CE0140960E942A1BC8011E
:100BC000A2960FB6F894DEBF0FBECDBFDF91CF91D6
:100BD0001F910F91FF90EF90DF90CF9008958F922B
:100BE0009F92AF92BF92CF92DF92EF92FF920F93BC
:100BF0001F93CF93DF934B015C017A01C1E0D0E0FA
:100C00008EE2C82E83E0D82EBE018FEB92E00E94C8
:100C100074022196A701C501B4010E946A058C01E6
:100C2000BC018BEC92E00E94980281E0023C180724
:100C3000D9F482EE92E00E94620286E093E0909303
:100C40000B0180930A01BC018FE093E0DF91CF910B
:100C50001F910F91FF90EF90DF90CF90BF90AF90DA
:100C60009F908F900C949802D0920B01C0920A0131
:100C70006EE273E08FE093E00E9498020B57114000
:100C800021F4C730D10509F0BFCFDF91CF911F917B
:100C90000F91FF90EF90DF90CF90BF90AF909F901B
:100CA0008F90089584E393E00E94620243E050E055
:100CB00061E070E080E090E00C94EF058F929F92ED
:100CC000AF92BF92CF93DF9300D000D0CDB7DEB705
:100CD0004B015C0129833A834B835C830E94CD0BDB
:100CE000DC01CB0188199909AA09BB0961E02981B6
:100CF0003A814B815C8182179307A407B50708F4FA
:100D000060E0862F0F900F900F900F90DF91CF91A2
:100D1000BF90AF909F908F9008958650934061F55B
:100D200020911A0130911B0140911C0150911D012D
:100D300060911C0470911D0480911E0490911F0409
:100D40000E945E068823C1F082E693E00E94620260
:100D50000E94CD0B60931C0470931D0480931E04AD
:100D600090931F040E9436058EE293E090930B014E
:100D700080930A010C945206089526E040E855E25B
:100D800060E070E080E294E00E94450961E087E065
:100D90000E94BB0C61E085E00E94BB0C61E08DE02D
:100DA0000E94BB0C61E0809134010E94BB0C61E0A9
:100DB00087E00E94F70C60E971E080E090E00E941B
:100DC000FE0B60E087E00E94F70C0C94FE026F922D
:100DD0007F92AF92BF92CF92DF92EF92FF920F93EA
:100DE0001F9320910C0130910D0160900E017090C5
:100DF0000F01A0911001B0911101E0911201F09149
:100E0000130140911401509115018217930734F09A
:100E10008C01481759071CF48A0101C08901B801E7
:100E2000012E000C880B990B601671068CF0730173
:100E3000770C000B110B032E000C440B550B1F926B
:100E40001F921F92E4E1EF93A12CB12C650147C0E2
:100E5000A017B107B4F07D01BB0F000B110B93017C
:100E60002F5F3F4F032E000C440B550B1F921F9218
:100E70001F92E8E2EF93A5E1AA2EB12CC12CD12C50
:100E80002EC0E017F107B4F07F01FF0F000B110B2C
:100E90009D012F5F3F4F032E000C440B550B1F92FB
:100EA0001F921F92E0E5EF93F9E2AF2EB12CC12C17
:100EB000D12C15C07A01550F000B110B9F012F5F2C
:100EC0003F4F032E000C440B550B1F921F921F9295
:100ED000E4E6EF93E1E5AE2EB12CC12CD12C0E94BB
:100EE000420B0F900F900F900F901F910F91FF905A
:100EF000EF90DF90CF90BF90AF907F906F9008956C
:100F0000882381F00E94CD0B60931804709319041C
:100F100080931A0490931B040E941305909311046C
:100F200080931004089522E08038920739F08958A0
:100F3000924021F060E087E00C94F70C089580580F
:100F4000924061F460E872E08EE793E00E94BA029A
:100F500081E993E00E9462020C94360560E0809182
:100F600034010C94F70CCF93DF93882371F0EB01DD
:100F700080EA93E00E946202CE010E94E70641E00F
:100F800050E0DF91CF910C94EF05DF91CF91089560
:100F90008823B1F081EB93E00E9462020E94CD0BA6
:100FA00060931404709315048093160490931704AF
:100FB00042E050E061E070E080E090E00C94EF05EA
:100FC0000895CF93DF9320912A0130912B01409116
:100FD0002C0150912D016091180470911904809199
:100FE0001A0490911B040E945E06C82F20912201D2
:100FF0003091230140912401509125016091140406
:101000007091150480911604909117040E945E0659
:10101000D82F8C2F0E94800780911004909111048A
:101020000E94930780911004909111040E949F07E1
:101030008D2F0E94C80780910A0190910B010E9498
:101040008D0660911204709113048C2FDF91CF9163
:101050000C94B3070E943A0C0E944F020E94BD06F6
:10106000CDEAD8E00E94E1072097E1F30E94AD08A5
:10107000F9CF80911A0190911B01A0911C01B091B0
:101080001D01B095A095909581959F4FAF4FBF4F93
:1010900080931C0490931D04A0931E04B0931F041E
:1010A00080912A0190912B01A0912C01B0912D01EA
:1010B000B095A095909581959F4FAF4FBF4F80936E
:1010C000180490931904A0931A04B0931B04809100
:1010D000220190912301A0912401B0912501B095A6
:1010E000A095909581959F4FAF4FBF4F809314046B
:1010F00090931504A0931604B09317040895FC016F
:10110000918D228D892F90E0805C9F4F821B9109E9
:101110008F7399270895FC01918D828D981731F076
:10112000828DE80FF11D858D90E008958FEF9FEF80
:101130000895FC01918D828D981761F0828DDF01F9
:10114000A80FB11D5D968C91928D9F5F9F73928FBA
:1011500090E008958FEF9FEF089582E09AE0892B49
:1011600049F080E090E0892B29F00E94020A811169
:101170000C9400000895FC01848DDF01A80FB11DBF
:10118000A35ABF4F2C91848D90E001968F739927BD
:10119000848FA689B7892C93A089B1898C918064AA
:1011A0008C93938D848D981306C00288F389E02D6B
:1011B00080818F7D80830895CF93DF93EC01888DAC
:1011C0008823C9F0EA89FB89808185FD05C0A8894B
:1011D000B9898C9186FD0FC00FB607FCF5CF8081D1
:1011E00085FFF2CFA889B9898C9185FFEDCFCE011B
:1011F0000E94BB08E7CFDF91CF910895EF92FF9255
:101200000F931F93CF93DF93EC0181E0888F9B8D29
:101210008C8D981305C0E889F989808185FD24C0EB
:10122000F62E0B8D10E00F5F1F4F0F731127E02E6E
:101230008C8DE8120CC00FB607FCFACFE889F9894B
:10124000808185FFF5CFCE010E94BB08F1CF8B8D49
:10125000FE01E80FF11DE35AFF4FF0820B8FEA8980
:10126000FB898081806207C0EE89FF896083E889FD
:10127000F98980818064808381E090E0DF91CF9163
:101280001F910F91FF90EF900895CF92DF92EF9210
:10129000FF921F93CF93DF93EC016A017B01122F22
:1012A000E889F98982E080834115514E6105710515
:1012B000B1F060E079E08DE390E0A70196010E9433
:1012C000131CDA01C9010197A109B109B695A795C7
:1012D00097958795AC01411580E15807A8F0E889FA
:1012E000F989108260E874E88EE190E0A701960128
:1012F0000E94131CBA01A9014150510961097109E9
:101300007695679557954795EC85FD855083EE85D5
:10131000FF854083188EEC89FD891083EA89FB895B
:10132000808180618083EA89FB89808188608083F5
:10133000EA89FB89808180688083EA89FB898081D2
:101340008F7D8083DF91CF911F91FF90EF90DF9091
:10135000CF9008951F920F920FB60F9211242F93E2
:101360008F939F93EF93FF93E0913004F0913104BA
:101370008081E0913604F091370482FD12C09081A3
:10138000809139048F5F8F7320913A04821751F056
:10139000E0913904F0E0E05EFB4F958F80933904D3
:1013A00001C08081FF91EF919F918F912F910F90BC
:1013B0000FBE0F901F9018951F920F920FB60F92AD
:1013C00011242F933F934F935F936F937F938F934A
:1013D0009F93AF93BF93EF93FF9380E294E00E94BB
:1013E000BB08FF91EF91BF91AF919F918F917F913A
:1013F0006F915F914F913F912F910F900FBE0F9082
:101400001F90189580E294E00E947F0821E0892BCC
:1014100009F420E0822F0895E0E2F4E013821282C2
:1014200088EE93E0A0E0B0E084839583A683B78341
:1014300086EC93E09183808385EC90E095878487A8
:1014400084EC90E09787868780EC90E0918B808B8E
:1014500081EC90E0938B828B82EC90E0958B848B77
:1014600086EC90E0978B868B118E128E138E148EE5
:101470000895CF92DF92EF92FF920F931F93CF9335
:10148000DF936C017A018B01C0E0D0E0CE15DF055F
:1014900089F0D8016D918D01D601ED91FC910190FB
:1014A000F081E02DC6010995892B11F47E0102C05F
:1014B0002196ECCFC701DF91CF911F910F91FF9043
:1014C000EF90DF90CF9008956115710579F0FB01E1
:1014D00001900020E9F73197AF01461B570BDC0163
:1014E000ED91FC910280F381E02D099480E090E081
:1014F00008950C94640ADC01ED91FC910190F08157
:10150000E02D099466E971E00C94640A0F931F932F
:10151000CF93DF93EC010E94640A8C01CE010E94FC
:10152000820A800F911FDF91CF911F910F91089533
:101530004F925F926F927F92EF92FF920F931F9361
:10154000CF93DF93CDB7DEB7A1970FB6F894DEBF88
:101550000FBECDBF7C01FA01CB0119A2223008F4E5
:101560002AE08E010F5D1F4F422E512C612C712CF1
:10157000BF01A30192010E94131CF901CA0101508D
:1015800011096A3014F4605D01C0695CD8016C9384
:10159000232B242B252B61F7B801C7010E94640A75
:1015A000A1960FB6F894DEBF0FBECDBFDF91CF91ED
:1015B0001F910F91FF90EF907F906F905F904F90F1
:1015C0000895CF92DF92EF92FF920F931F93CF93E4
:1015D000DF93EC016A017B012115310579F4E88183
:1015E000F9810190F081E02D642FDF91CF911F915F
:1015F0000F91FF90EF90DF90CF9009942A30310542
:10160000E9F477FF1AC06DE20E947B0A8C0144273F
:101610005527BA014C195D096E097F092AE0CE01F0
:101620000E94980A800F911FDF91CF911F910F9117
:10163000FF90EF90DF90CF9008952AE0B701A601C8
:10164000CE01DF91CF911F910F91FF90EF90DF902E
:10165000CF900C94980A0F931F93CF93DF93EC01D4
:101660009A01AB01770F660B770B0E94E10A8C01A0
:10167000CE010E94820A800F911FDF91CF911F91AE
:101680000F9108954F925F926F927F92AF92BF92A7
:10169000CF92DF92EF92FF920F931F93CF93DF933E
:1016A000CDB7DEB729013A019B01AC0124193509F8
:1016B0004609570989899A89AB89BC89BC01CD0142
:1016C0006A197B098C099D090E94031CA8019701D6
:1016D00024193509460957090E94351CCA01B90168
:1016E0006A0D7B1D8C1D9D1DDF91CF911F910F9168
:1016F000FF90EF90DF90CF90BF90AF907F906F9072
:101700005F904F9008951F920F920FB60F92112481
:101710002F933F938F939F93AF93BF938091BE047A
:101720009091BF04A091C004B091C1043091BD0458
:1017300023E0230F2D3720F40196A11DB11D05C014
:1017400026E8230F0296A11DB11D2093BD048093AE
:10175000BE049093BF04A093C004B093C1048091D1
:10176000C2049091C304A091C404B091C504019631
:10177000A11DB11D8093C2049093C304A093C4041F
:10178000B093C504BF91AF919F918F913F912F91DD
:101790000F900FBE0F901F9018952FB7F89460917F
:1017A000BE047091BF048091C0049091C1042FBF0A
:1017B00008953FB7F8948091C2049091C304A0911A
:1017C000C404B091C50426B5A89B05C02F3F19F0ED
:1017D0000196A11DB11D3FBFBA2FA92F982F8827B1
:1017E000820F911DA11DB11DBC01CD0142E0660F0C
:1017F000771F881F991F4A95D1F708958F929F925E
:10180000AF92BF92CF92DF92EF92FF926B017C0179
:101810000E94D90B4B015C01C114D104E104F10415
:1018200001F10E94021C0E94D90BDC01CB01881936
:101830009909AA09BB09883E9340A105B10560F347
:1018400021E0C21AD108E108F10888EE880E83E091
:10185000981EA11CB11CC114D104E104F10419F7B4
:10186000DBCFFF90EF90DF90CF90BF90AF909F9035
:101870008F900895789484B5826084BD84B581602A
:1018800084BD85B5826085BD85B5816085BDEEE688
:10189000F0E0808181608083E1E8F0E01082808167
:1018A00082608083808181608083E0E8F0E08081D5
:1018B00081608083E1EBF0E0808184608083E0EBF5
:1018C000F0E0808181608083EAE7F0E080818460DD
:1018D0008083808182608083808181608083808139
:1018E000806880831092C10008958E3008F08E5079
:1018F00087702091360190E4299F90011124822B5A
:1019000080937C0080917A00806480937A0080913B
:101910007A0086FDFCCF809178002091790090E0DC
:10192000922B0895833081F028F4813099F0823031
:10193000A1F008958730A9F08830B9F08430D1F44F
:10194000809180008F7D03C0809180008F7780938D
:101950008000089584B58F7702C084B58F7D84BDE3
:1019600008958091B0008F7703C08091B0008F7D83
:101970008093B0000895CF93DF9390E0FC01EA5587
:10198000FF4F2491FC01E654FF4F8491882361F1BD
:1019900090E0880F991FFC01E852FF4FC591D49148
:1019A000FC01E253FF4FA591B491611109C09FB7AB
:1019B000F8948881209582238883EC912E230BC094
:1019C000623061F49FB7F8943881822F8095832329
:1019D0008883EC912E2B2C939FBF06C08FB7F89471
:1019E000E8812E2B28838FBFDF91CF9108951F931D
:1019F000CF93DF93282F30E0F901EE56FF4F84910B
:101A0000F901EA55FF4FD491F901E654FF4FC49113
:101A1000CC23C9F0162F81110E94920CEC2FF0E01C
:101A2000EE0FFF1FE253FF4FA591B4918FB7F894CB
:101A3000111105C09C91ED2FE095E92302C0EC91B6
:101A4000ED2BEC938FBFDF91CF911F910895CF9332
:101A5000DF9300D0CDB7DEB720911F053091200570
:101A6000CE0101962115310519F48352954002C02B
:101A7000821B930B9A83898389819A810F900F909F
:101A8000DF91CF910895DC01DA9620E030E04C91AF
:101A9000461307C0220F331FFC01E20FF31F83AD73
:101AA00008952F5F3F4F12962730310581F78FEF52
:101AB0000895403885E258076105710560F04130AE
:101AC00080E4580788E36807710548F040E050E477
:101AD00068E370E004C040E855E260E070E026E0B2
:101AE00080E294E00E9445098091C2008860809362
:101AF000C2000895CF93DF9300D0CDB7DEB7FB01CE
:101B000083811F928F9382811F928F9381811F9275
:101B10008F9380811F928F9385EE90E09F938F9398
:101B20005F934F9349835A830E94221E0FB6F89405
:101B3000DEBF0FBECDBF4981842F5A81952F0F90F4
:101B40000F90DF91CF910895662341F08FE39CE9D8
:101B50000197F1F700C000006150F6CF089580E2D0
:101B600094E00E947F08892BD1F380E294E00E94E8
:101B70009908089580E294E00E9499080895CF9210
:101B8000DF92EF92FF92CF93DF93EC0180E294E03B
:101B90000E94DC080E94CD0B6B017C018091C0008B
:101BA00087FF11C00E94CD0BAB01BC014C195D0930
:101BB0006E097F09423351056105710550F4CE016C
:101BC0000E94BA0DEBCF80E294E00E947F08892B3F
:101BD00049F761E0CE01DF91CF91FF90EF90DF9068
:101BE000CF900C94A40DCF93DF93EC010E94BF0D16
:101BF0004AA95BA96CA97DA9CE010E94590D198241
:101C00005B98DF91CF910895CF93DF93EC010E9411
:101C1000BF0D19825B9ADF91CF910895FC0111826B
:101C2000FB96AC01475B5F4F2FEFDF0111972C93C1
:101C300020833296E417F507C1F70C94BF0D0F937C
:101C40001F93CF93DF938C0180E294E00E94DC0825
:101C500080E294E00E947F08EC01209729F0C801FF
:101C60000E94BA0D2197F9CFDF91CF911F910F916B
:101C700008952F923F924F925F926F927F928F9230
:101C80009F92AF92BF92CF92DF92EF92FF920F930B
:101C90001F93CF93DF93CDB7DEB727970FB6F89496
:101CA000DEBF0FBECDBF9F838E834B012A0159013A
:101CB0003801FA82E982FC0181818230C9F4FB019A
:101CC00080818F3F21F09091370189130EC0C1149C
:101CD000D10471F480913701F40180838091D5049F
:101CE0009091D604F2019183808380E090E09FC1BF
:101CF00000E010E02E813F81265C3F4F3C832B8328
:101D000033243A9452E0252EEE81FF818181813087
:101D1000E1F018F0823029F1DAC021E0EE81FF8194
:101D20002183309237011092D6041092D50410927C
:101D3000D4041092D3041092D2041092CE041092C4
:101D4000CF041092D0041092D1048091D404883032
:101D500068F580E294E00E947F08892B09F02DC18C
:101D600025C08E819F810E94AF0DE981FA81808319
:101D7000F1E0CF1AD1080F5F1F4F8091D5049091E9
:101D8000D60401979093D6048093D504892B09F04B
:101D90009AC08E819F810E94AF0D8E819F810E948B
:101DA000AF0DEE81FF81118221E092C08091D404B9
:101DB000883008F48CC07091C6046091C7045091BB
:101DC000C8044091C9043091CA042091CB04909179
:101DD000CC048091CD04723509F094C0633509F0CC
:101DE000DAC0593409F0D7C04F3509F0D4C03235C4
:101DF00009F0D1C0253409F0CEC0913409F0CBC030
:101E0000843409F0C8C08E819F810E94AF0D8093F9
:101E100037018E819F810E94AF0D90E09093D60490
:101E20008093D5048E819F810E94AF0D2091D504AF
:101E30003091D604A901582BCA015093D60440937F
:101E4000D50460913701EE81FF816F3F09F44DC0E9
:101E5000892B09F44AC02182CF010E94430D8130B1
:101E600071F58E819F810E94AF0D8093CE048E818B
:101E70009F810E94AF0D8093CF048E819F810E942D
:101E8000AF0D8093D0048E819F810E94AF0D80930F
:101E9000D1048E819F810E94AF0D90E09093D30476
:101EA0008093D2048E819F810E94AF0D2091D20435
:101EB0003091D304382B3093D3042093D204F4010F
:101EC00080818F3FD1F421E0C114D10409F020E0DA
:101ED00080E294E02D830E947F082D81892B09F4F4
:101EE0007CC0222309F410CF78C0118230923701D0
:101EF0001092D6041092D504EACF90913701891739
:101F000011F3F3CE733509F046C0693409F043C0CC
:101F10005F3509F040C04334F1F53C34E1F52F342E
:101F2000D1F59335C1F58534B1F58E819F810E943D
:101F3000AF0D809337018E819F810E94AF0D8E81FE
:101F40009F810E94AF0D1092D6041092D504EE81AD
:101F5000FF81118220913701EB81FC8180E090E0CC
:101F60003081321310C0FC017D96EE0FFF1F2E81D1
:101F70003F81E20FF31F3082880F991FF901E80FAC
:101F8000F91F33AE05C0019632968730910541F7AF
:101F90000FEF1FEF09CF77E07093D4046093C6046E
:101FA0005093C7044093C8043093C9042093CA04D3
:101FB0009093CB048093CC048ACFE090D40481E04A
:101FC0008E0D8093D404F12C80E294E00E94990855
:101FD000F701EA53FB4F8083B8CE80913701F401BB
:101FE00080838091D5049091D604F20191838083FF
:101FF000A114B10479F08091CE04882359F0F50141
:1020000080838091CF0481838091D00482838091EA
:10201000D10483836114710449F08091D2049091BA
:10202000D304009719F0F30191838083C8012796A8
:102030000FB6F894DEBF0FBECDBFDF91CF911F91D9
:102040000F91FF90EF90DF90CF90BF90AF909F9057
:102050008F907F906F905F904F903F902F9008955A
:102060009F92AF92BF92CF92DF92EF92FF920F9327
:102070001F93CF93DF9300D01F92CDB7DEB75C01E3
:10208000962E80E294E00E947F08892BA9F08FEFC2
:102090008B831A821982C12CD12CE12CF12C00E007
:1020A00010E020E030E0AE014F5F5F4FBE016D5F9A
:1020B0007F4FC5010E94390E8FEF981661F0F50130
:1020C000FA9688E4A80EB11C8081891531F0329609
:1020D000EA15FB05C9F781E001C080E00F900F9081
:1020E0000F90DF91CF911F910F91FF90EF90DF90B4
:1020F000CF90BF90AF909F900895CF92DF92EF92D4
:10210000FF920F931F936801790100E010E020E037
:1021100030E00E94390E1F910F91FF90EF90DF90F9
:10212000CF9008952F923F924F925F926F927F923D
:102130008F929F92AF92BF92CF92DF92EF92FF92D7
:102140000F931F93CF93DF93CDB7DEB72E970FB6C4
:10215000F894DEBF0FBECDBF2C013B014A873C8700
:102160002B871E870D8717014601FC018181823074
:1021700009F44CC180E294E00E947F08892BD1F0E1
:102180008FEF89871A821982C12CD12CE12CF12C76
:1021900000E010E020E030E0AE014F5F5F4FBE0195
:1021A000675F7F4FC2010E94390E89819A81892B16
:1021B00009F02CC1EB85FC8564918F010F5F1F4FE7
:1021C000662339F080E294E00E94FE08F8016491F1
:1021D000F5CF8D859E85892B39F42114310441F189
:1021E00081010F5F1F4F20C00D851E85F801619191
:1021F0008F01662391F380E294E00E94FE08F6CFFF
:102200006D3009F010C1F80184918A3009F00BC1DA
:102210006BED80E294E00E94FE086CED80E294E0B9
:102220000E94FE080E5F1F4FF10164916111F0C022
:10223000A114B104F1F4C2010E941F0E6DE080E20E
:1022400094E00E94FE086AE080E294E00E94FE08AA
:10225000FA85F1117EC019821E820E94CD0B4B01BE
:102260005C0130E1C32E37E2D32EE12CF12C10E0DB
:1022700040C0F40160816B3D81F480E294E00E94F3
:10228000FE086DED80E294E00E94FE08FFEF8F1AD9
:102290009F0A81E0A81AB108CBCF6D30C9F4F401D0
:1022A00081818A30A9F4F2E0AF16B10488F06BEDB9
:1022B00080E294E00E94FE086CED80E294E00E94CF
:1022C000FE0882E0880E911C92E0A91AB108B0CFF6
:1022D000EFEF8E1A9E0A80E294E00E94FE08F1E081
:1022E000AF1AB108A5CF80E294E00E947F08892B45
:1022F00071F40E94CD0BDC01CB0188199909AA0960
:10230000BB098C159D05AE05BF0568F36BC080E267
:1023100094E00E949908183080F401E0010FE1E098
:10232000F0E0EC0FFD1FE10FF11D808389818F34F8
:1023300029F0853419F000E001C0012F0E94CD0B77
:102340004B015C0123E0C22ED12CE12CF12C102F8B
:10235000D0CFF301108215820E94CD0B6B017C015E
:1023600090E1892E97E2992EA12CB12C10E00E94C9
:10237000CD0BDC01CB018C199D09AE09BF09881575
:102380009905AA05BB0538F580E294E00E947F0814
:10239000892B69F380E294E00E949908FA851F175F
:1023A00070F401E0010FF301E10FF11D8083F301EF
:1023B00080818F3429F0853419F000E001C0012FAD
:1023C0000E94CD0B6B017C0183E0882E912CA12C07
:1023D000B12C102FCCCFF3018081898381818A8336
:1023E00085818E8389818F3439F481E09A819B3491
:1023F00009F480E081951FC0853441F48A818235DB
:1024000029F48E81882311F08D30A9F48FEF13C049
:10241000C80101961C016B3D09F0F2CE80E294E008
:102420000E94FE086DED80E294E00E94FE08F80133
:1024300064918101FBCE2E960FB6F894DEBF0FBEDD
:10244000CDBFDF91CF911F910F91FF90EF90DF9063
:10245000CF90BF90AF909F908F907F906F905F9044
:102460004F903F902F9008955F926F927F928F923E
:102470009F92AF92BF92CF92DF92EF92FF920F9313
:102480001F93CF93DF93CDB7DEB72A970FB6F8949B
:10249000DEBF0FBECDBF4C013B01542EC8014AE048
:1024A000BE016F5F7F4F29873A870E94FD1DA12CD7
:1024B000B12CC12CD12CE12CF12C8E010F5F1F4FC0
:1024C00029853A85452DB301C4010E9492102A96B0
:1024D0000FB6F894DEBF0FBECDBFDF91CF911F9135
:1024E0000F91FF90EF90DF90CF90BF90AF909F90B3
:1024F0008F907F906F905F9008950F931F939B0133
:102500008A0140E060E070E00E9434121F910F9158
:1025100008958F929F92AF92BF92CF92DF92EF92E7
:10252000FF920F931F93CF93DF93CDB7DEB72B9717
:102530000FB6F894DEBF0FBECDBF5C01962E882487
:102540008A9480E294E00E947F08892B81F18B8637
:102550001A861986C12CD12CE12CF12C00E010E058
:1025600020E030E0AE01475F5F4FBE01655F7F4F07
:10257000C5010E94390E8B85891119C089859A85FC
:10258000892BF9F29B8628E0C22ED12CCE01019630
:102590007C0100E010E020E030E0AE01475F5F4FDB
:1025A000BE01655F7F4FC5010E94390EE7CF9FEFE7
:1025B000991202C080E02CC0F501FA9620E030E0CC
:1025C000808189111EC0F9017D96EE0FFF1FEA0D73
:1025D000FB1D8FEF8083220F331FF501E20FF31FE6
:1025E00083AF13E0892C912CA40165E271E0C50151
:1025F0000E947D128823F1F28E3FE1F21150A1F783
:1026000007C02F5F3F4F329627303105C9F6D2CF32
:102610002B960FB6F894DEBF0FBECDBFDF91CF91E2
:102620001F910F91FF90EF90DF90CF90BF90AF90F0
:102630009F908F900895AF92BF92CF92DF92EF92CA
:10264000FF920F931F9357016801E12CF12C00E0DA
:1026500010E00E9492101F910F91FF90EF90DF9079
:10266000CF90BF90AF9008956F927F928F929F927C
:10267000AF92BF92CF92DF92EF92FF920F931F9390
:10268000CF93DF93EC016B014A0183E0782E5E016A
:1026900082E0A80EB11C90E3692EF501862D1192FF
:1026A0008A95E9F7F60101900020E9F731977F015B
:1026B000EC18FD08860127E034E040E3B501CE01C7
:1026C0000E941B1381110EC09C81992359F08D81AA
:1026D0009E81AF81B885F40180839183A283B38307
:1026E00080E003C07A947110D8CFDF91CF911F9111
:1026F0000F91FF90EF90DF90CF90BF90AF909F90A1
:102700008F907F906F900895AF92BF92CF92DF929B
:10271000EF92FF920F931F93A12CB12CC12CD12CBF
:10272000E12CF12C0E9492101F910F91FF90EF90DD
:10273000DF90CF90BF90AF9008958F929F92AF920D
:10274000BF92DF92EF92FF920F931F93CF93DF938D
:1027500000D0CDB7DEB74C01D62EBA017C0182E0A5
:10276000E80EF11CA701C40129833A830E947A0D67
:102770006EE571E0C7010E94BD1DF70101900020C8
:10278000E9F73197EE19FF093A813F9329812F9399
:1027900052EEA52E50E0B52EBF92AF92FF27329693
:1027A000E80DF91DFF93EF930E94221E6CE571E086
:1027B000C7010E94BD1DF70101900020E9F7319784
:1027C000EE19FF091F930F93BF92AF92FF27329626
:1027D000E80DF91DFF93EF930E94221E0FB6F894A7
:1027E000DEBF0FBECDBFF2E08701DF1203C029E4D8
:1027F00031E004C0D1100CC02DE331E048E0B70156
:10280000C4010E94841381112EC0F40184810DC083
:1028100021E331E048E0B701C4010E948413811133
:1028200022C0F4018481DD24D3948F3FE9F0F401C8
:10283000FA9620E030E090819F3F71F4F9017D9697
:10284000EE0FFF1FE80DF91D8083220F331F280DA7
:10285000391DF901D3AE08C02F5F3F4F32962730A4
:10286000310549F701C08FEF0F900F90DF91CF91A5
:102870001F910F91FF90EF90DF90BF90AF909F90CE
:102880008F9008950F931F93E0913801F0913901D3
:102890003196E13078E0F70710F0E0E0F4E0F093F3
:1028A0003901E093380100913801109139010E94FB
:1028B0009D131F910F910895AF92BF92CF92DF9217
:1028C000EF92FF920F931F93A12CB12CC12CD12C0E
:1028D000E12CF12C00E010E00E9492101F910F916A
:1028E000FF90EF90DF90CF90BF90AF900895AF92A0
:1028F000BF92CF92DF92EF92FF920F931F93A12C82
:10290000B12CC12CD12C79018A019B0140E060E0FF
:1029100070E00E9492101F910F91FF90EF90DF9056
:10292000CF90BF90AF9008955F926F927F928F92F9
:102930009F92AF92BF92CF92DF92EF92FF920F934E
:102940001F93CF93DF937C01762E6A015901CA0150
:102950000E94C81D682E592EE70122961F927F9271
:1029600082EE882E80E0982E9F928F92DF93CF93F5
:102970000E94221E69E071E0CE010E94BD1DFE0191
:1029800001900020E9F73197EC1BFD0B5F926F92ED
:102990009F928F92FF273296EE0DFF1DFF93EF93CC
:1029A0000E94221E8DB79EB70C960FB6F8949EBF5C
:1029B0000FBE8DBFA114B10409F463C0672DC70118
:1029C0000E94430D813009F05CC067E071E0CE01E8
:1029D0000E94BD1DFE0101900020E9F73197AF0173
:1029E0004C1B5D0B55274E5F5F4F4E0D5F1DB501B4
:1029F000C7010E947A0D0115110509F448C0672D21
:102A0000C7010E94430D813009F041C062E071E0CE
:102A1000CE010E94BD1DFE0101900020E9F7319713
:102A2000EC1BFD0B1F930F9382EE90E09F938F930F
:102A3000FF273296EE0DFF1DFF93EF930E94221E9B
:102A40000F900F900F900F900F900F906DEF70E020
:102A5000CE010E94BD1D9601AE0161EF70E0C7017D
:102A6000DF91CF911F910F91FF90EF90DF90CF906A
:102A7000BF90AF909F908F907F906F905F900C94DD
:102A8000771464E071E0CE010E94BD1DB4CF6FEFFA
:102A900070E0CE010E94BD1DD9CFAF92BF92CF9200
:102AA000DF92EF92FF920F931F9358016901E12C7F
:102AB000F12C8A019B0140E060E070E00E949210DE
:102AC0001F910F91FF90EF90DF90CF90BF90AF904C
:102AD00008955F926F927F928F929F92AF92BF9272
:102AE000CF92DF92EF92FF920F931F93CF93DF93DA
:102AF0006C01762E4A01522E632EEC0122961F9213
:102B00006F9382EEA82E80E0B82EBF92AF92DF9333
:102B1000CF930E94221E63E271E0CE010E94BD1D90
:102B2000FE0101900020E9F73197EC1BFD0B6F923D
:102B30005F92BF92AF92FF273296EC0DFD1DFF937F
:102B4000EF930E94221E8DB79EB70C960FB6F89495
:102B50009EBF0FBE8DBF0115110539F0672DC6014F
:102B60000E94430D813009F44EC06EE171E0CE0148
:102B70000E94BD1DE114F10409F45CC0672DC6017B
:102B80000E94430D813009F055C06CE171E0CE0127
:102B90000E94BD1DFE0101900020E9F73197EC1B5A
:102BA000FD0BFF92EF9282EE90E09F938F93FF27B1
:102BB0003296EC0DFD1DFF93EF930E94221E0F90A5
:102BC0000F900F900F900F900F9067E171E0CE0182
:102BD0000E94BD1D052D162D9401AE016BE071E024
:102BE000C6010E944D15DF91CF911F910F91FF906B
:102BF000EF90DF90CF90BF90AF909F908F907F909D
:102C00006F905F90089561E271E0CE010E94BD1D5A
:102C1000FE0101900020E9F73197AF014C1B5D0BDD
:102C200055274E5F5F4F4C0D5D1DB801C6010E94D8
:102C30007A0DA0CF69E171E0CE010E94BD1DC5CF24
:102C4000EF92FF920F931F93FA0101900020E9F792
:102C50003197E41BF50B780189019F010E946915EA
:102C60001F910F91FF90EF900895AF92BF92CF9276
:102C7000DF92EF92FF920F931F939B01A12CB12C37
:102C8000C12CD12CE12CF12C8A0140E060E070E0F5
:102C90000E9492101F910F91FF90EF90DF90CF90C4
:102CA000BF90AF9008956F927F928F929F92AF9254
:102CB000BF92CF92DF92EF92FF920F931F93CF9329
:102CC000DF931F92CDB7DEB73C015A0149016983FA
:102CD0000E940E0EF30116AA17AA10AE11AE6301E0
:102CE000F2E0CF0ED11C80E3F60111928A95E9F74C
:102CF0006981623051F426EB31E040E3B601C30153
:102D00000E945C14811191C00BC0662399F022EAE5
:102D100031E040E3B601C3010E945C14811187C019
:102D2000F301428553856485758546AB57AB60AF2B
:102D300071AF7EC08114910459F0A601B401C301A2
:102D40000E947A0DA60160E971E0C3010E94351668
:102D5000A114B10481F0A601B501C3010E947A0D4E
:102D6000F50180819181A281B381F30186AB97AB9C
:102D7000A0AFB1AF0DC064E871E0C6010E94BD1DF7
:102D800080ECF30186AB88EA87AB10AE81E081AFBF
:102D9000E114F104B9F062E871E0C6010E94BD1DC2
:102DA000F60101900020E9F73197AF014C195D0958
:102DB00055274E5F5F4F460D571DB701C3010E9457
:102DC0007A0D05C063E771E0C6010E94BD1D0115C3
:102DD0001105B1F061E771E0C6010E94BD1DF60169
:102DE00001900020E9F73197AF014C195D09552793
:102DF0004E5F5F4F460D571DB801C3010E947A0D0B
:102E0000A60160E671E0C3010F90DF91CF911F91A1
:102E10000F91FF90EF90DF90CF90BF90AF909F9079
:102E20008F907F906F900C94351682E001C081E006
:102E30000F90DF91CF911F910F91FF90EF90DF9056
:102E4000CF90BF90AF909F908F907F906F9008959C
:102E5000EF92FF920F931F93E12CF12C00E010E012
:102E600020E030E040E050E061E00E9453161F9106
:102E70000F91FF90EF900895AF92BF92CF92DF92A3
:102E8000EF92FF920F931F939B01A12CB12CC12CA9
:102E9000D12CE12CF12C00E010E040E060E070E08B
:102EA0000E9492101F910F91FF90EF90DF90CF90B2
:102EB000BF90AF900895CF93DF93EC0166EF73E07E
:102EC0000E943C1768EE73E0CE01DF91CF910C9425
:102ED0003C17AF92BF92CF92DF92EF920F931F9366
:102EE000CF93DF93EC016B015A011E2D213049F085
:102EF00018F0223091F020C06AEC73E00E943C1779
:102F00001BC0452B29F06EEA73E00E943C17BFC03E
:102F100066E973E00E943C17B6C0402F50E0A11450
:102F2000B10429F06BE773E00E947D12B0C064E643
:102F300073E00E947D12A7C0153038F4412F50E095
:102F400063E573E0CE010E947D12A114B10431F05B
:102F5000A50167E473E0CE010E943516E8818E2F4B
:102F600090E08531910508F096C0FC01EC5CFF4FC4
:102F70000C94541C22E433E0A60165E373E077C0AF
:102F800020E333E0A60163E273E071C02EE133E099
:102F9000A60161E173E06BC02CE033E0A6016FEFA6
:102FA00072E065C02AEF32E0A6016DEE72E05FC00C
:102FB00028EE32E0A6016BED72E059C026ED32E05A
:102FC000A60169EC72E053C024EC32E0A60167EB85
:102FD00072E04DC022EB32E0A60165EA72E047C024
:102FE00020EA32E0A60163E972E041C02EE832E057
:102FF000A60161E872E03BC02CE732E0A6016FE673
:1030000072E035C02AE632E0A6016DE572E02FC01D
:1030100028E532E0A6016BE472E029C026E432E044
:10302000A60169E372E023C024E332E0A60167E26F
:1030300072E01DC022E232E0A60165E172E017C035
:1030400020E132E0A60163E072E011C02DEF31E033
:10305000A60160EF71E00BC02AEE31E0A6016DED34
:1030600071E005C027ED31E0A6016AEC71E0CE0108
:10307000DF91CF911F910F91EF90DF90CF90BF9094
:10308000AF900C947714153008F068CF57CF1530F7
:1030900008F05ECF53CF80E0DF91CF911F910F9169
:1030A000EF90DF90CF90BF90AF900895EF920F9385
:1030B000EE24EA9400E00E9469170F91EF900895C2
:1030C000BF92CF92DF92EF92FF920F931F93CF9315
:1030D000DF93EC016A017B01B22E61E083E00E9484
:1030E000BB0C5B9A61E082E00E94BB0C5A9861E0E5
:1030F00081E00E94BB0C61E081E00E94F70C60E07F
:1031000080E00E94BB0C61E080E00E94F70C1EAAE8
:103110001FAA18AE19AEFE01329680E3DF011D92A0
:103120008A95E9F7CAAADBAAECAAFDAAB701A6010B
:10313000CE010E94590DCE010E94F30D5A9865E010
:10314000CE010E94A40D5A9A6BE0CE010E94A40DFC
:1031500014E00FEF6CE180E294E00E94FE080E9410
:10316000CD0B6B017C010E94CD0BDC01CB018C19D6
:103170009D09AE09BF09883C9105A105B10508F577
:1031800080E294E00E947F08892B69F380E294E05A
:103190000E949908853539F765E580E294E00E9440
:1031A000FE086AE0CE010E94A40D6EE680E294E083
:1031B0000E94FE086AE080E294E00E94FE0811E0AE
:1031C0000EEF115039F664E1CE010E94A40D13E018
:1031D000CE010E94BF0D60E374E0CE010E943C1757
:1031E00081110DC062E274E0CE010E943C1766E1DD
:1031F00074E0CE010E943C17B88200E009C06AE08A
:10320000CE010E94A40D115019F7CE010E94040EA8
:10321000802FDF91CF911F910F91FF90EF90DF9062
:10322000CF90BF90089522E040E855E260E070E062
:103230000C946018CF92DF92EF92FF920F931F933E
:10324000CF93DF937C016A018B01C0E0D0E0CC1505
:10325000DD0589F0D701ED91FC91068CF78DE02D0D
:10326000C70109958F3FBFEF9B0729F0F8018193B4
:103270008F012196ECCFCE01DF91CF911F910F915D
:10328000FF90EF90DF90CF9008950F931F93CF930F
:10329000DF93EC01E881F981048CF58DE02D09952F
:1032A0008C010115110551F0E881F981068CF78D2B
:1032B000E02DCE01099501501109F3CFDF91CF9197
:1032C0001F910F9108950F931F93CF93DF938C015C
:1032D000DC01ED91FC9106A0F7A1E02D0995EC0130
:1032E000892B61F0D801ED91FC9106A0F7A1E02DAA
:1032F00062E474E0C8010995C80FD91FCE01DF91BF
:10330000CF911F910F91089521E0FC0184818F3F9F
:1033100009F420E0822F08950F931F93CF93DF933A
:1033200000D01F92CDB7DEB7FC0184818B831A8257
:1033300019828F3F71F000E010E020E030E0AE0134
:103340004F5F5F4FBE016D5F7F4F87ED94E00E943E
:103350007D1089819A810F900F900F90DF91CF910E
:103360001F910F910895EF92FF920F931F93CF93A8
:10337000DF9300D000D0CDB7DEB7FC0124812B83D2
:103380002F3FB9F07C0101E010E09E012C5F3F4F20
:10339000AE014F5F5F4FBE016D5F7F4F87ED94E0E1
:1033A0000E947D10009729F0019631F48FEFF7010C
:1033B00084838FEF9FEF02C08C8190E00F900F907D
:1033C0000F900F90DF91CF911F910F91FF90EF9091
:1033D00008951F93CF93DF93FC0164816F3FB1F099
:1033E000EC0187ED94E00E943010182F882319F02B
:1033F0008FEF8C830BC08E858A3050F06C8187ED07
:1034000094E00E9489128FEF8C8303C010E001C00A
:1034100011E0812FDF91CF911F910895CF93DF931A
:10342000FC0124812F3F81F0EC010190F081E02D1F
:1034300002A0F3A1E02D09956C8187ED94E00E9434
:1034400089128FEF8C831E86DF91CF910895CF92E2
:10345000DF92EF92FF920F931F93CF93DF931F9210
:10346000CDB7DEB76983FC0164816F3F01F16C0168
:10347000FC01E184F2848C010B5F1F4F21E030E0FE
:10348000AE014F5F5F4F87ED94E00E946915F60132
:10349000882381F086858F5F86878A3040F064813B
:1034A00087ED94E00E9489128FEFF601848380E01B
:1034B00090E003C0168681E090E00F90DF91CF91FD
:1034C0001F910F91FF90EF90DF90CF900895CF92D2
:1034D000DF92EF92FF920F931F93CF93DF93DC0164
:1034E0001496EC91EF3FF1F0C52ED42EAB01EC0118
:1034F000E984FA848C010B5F1F4F2D2D3C2D6E2F1C
:1035000087ED94E00E946915882379F08E858F5F9E
:103510008E878A3038F06C8187ED94E00E948912A2
:103520008FEF8C8380E090E003C01E868D2D9C2D54
:10353000DF91CF911F910F91FF90EF90DF90CF908F
:103540000895EF92FF920F931F93CF93DF93EC01B7
:103550009C819F3FD1F07B0109851A859E012B5FDD
:103560003F4FAB01692F87ED94E00E94201688231E
:1035700079F08E858F5F8E878A3038F06C8187ED89
:1035800094E00E9489128FEF8C8380E090E009C064
:103590001E86F70101900020E9F73197CF018E19BF
:1035A0009F09DF91CF911F910F91FF90EF900895A8
:1035B000EF92FF920F931F93CF93DF937B01FC0158
:1035C00064816F3F21F1EC01018512859C012B5F25
:1035D0003F4FA70187ED94E00E949414882369F07F
:1035E0008E858F5F8E878A3090F06C8187ED94E0B6
:1035F0000E9489128FEF8C830AC01E86C701DF915B
:10360000CF911F910F91FF90EF900C94C81D80E017
:1036100090E0DF91CF911F910F91FF90EF9008956F
:10362000FC01DB011382128284EE93E0918380839C
:103630008C91858311968C911197868312968C912B
:103640001297878313968C918087528741878FEFDB
:103650008483089524EE33E0FC01318320830C94AD
:103660000E1AFF920F931F93CF93DF93FC012481D7
:103670002F3F19F080E090E01BC0F62EEC0103858F
:10368000148521853285AC014B5F5F4F87ED94E057
:103690000115110519F00E949D1302C00E944214E9
:1036A0008C838C818F3F31F3FD861E8681E090E014
:1036B000DF91CF911F910F91FF90089560E00C94DE
:1036C000311B61E00C94311B60E00C94311B61E014
:1036D0000C94311BFC01DB018C91858311968C913C
:1036E0001197868312968C911297878313968C91EB
:1036F00080875287418760E0CF010C94311BFC0129
:10370000DB018C91858311968C911197868312969B
:103710008C911297878313968C918087528741876B
:1037200061E0CF010C94311BFC01DB018C9185839E
:1037300011968C911197868312968C91129787839C
:1037400013968C918087528741873487238760E066
:10375000CF010C94311BFC01DB018C918583119608
:103760008C911197868312968C911297878313966A
:103770008C918087528741873487238761E0CF010E
:103780000C94311B0F931F93CF93DF93EC018A01AD
:10379000AC014B5F5F4F87ED94E00E9434138111C1
:1037A0000AC01A87098760E0CE01DF91CF911F918F
:1037B0000F910C94311B80E090E0DF91CF911F912D
:1037C0000F9108950F931F93CF93DF93EC018A011C
:1037D000AC014B5F5F4F87ED94E00E943413811181
:1037E0000AC01A87098761E0CE01DF91CF911F914E
:1037F0000F910C94311B80E090E0DF91CF911F91ED
:103800000F9108950895DB018F939F930E945A1C96
:10381000BF91AF91A29F800D911DA39F900DB29F6C
:10382000900D11240895A1E21A2EAA1BBB1BFD01C5
:103830000DC0AA1FBB1FEE1FFF1FA217B307E4078F
:10384000F50720F0A21BB30BE40BF50B661F771FE7
:10385000881F991F1A9469F76095709580959095C7
:103860009B01AC01BD01CF010895052E97FB1EF40D
:1038700000940E944C1C57FD07D00E94131C07FCAB
:1038800003D04EF40C944C1C5095409530952195E6
:103890003F4F4F4F5F4F089590958095709561957C
:1038A0007F4F8F4F9F4F0895EE0FFF1F0590F491AC
:1038B000E02D09940E94651CA59F900DB49F900D6A
:1038C000A49F800D911D11240895A29FB001B39F64
:1038D000C001A39F700D811D1124911DB29F700D19
:1038E000811D1124911D08950F931F93CF93DF9392
:1038F000869F8001879F100D969F100D1124C8018F
:103900000E94901CEC01009729F0A80160E070E093
:103910000E94D11DCE01DF91CF911F910F9108958B
:10392000CF93DF938230910510F482E090E0E09134
:103930002105F091220520E030E0C0E0D0E0309792
:1039400011F14081518148175907C0F048175907B4
:1039500061F482819381209719F09B838A832BC025
:10396000909322058093210526C02115310519F079
:103970004217530718F49A01BE01DF01EF010280DC
:10398000F381E02DDCCF2115310509F1281B390B1E
:103990002430310590F412968D919C911397611506
:1039A000710521F0FB019383828304C0909322056B
:1039B00080932105FD01329644C0FD01E20FF31F03
:1039C00081939193225031092D933C933AC02091D9
:1039D0001F0530912005232B41F4209102013091E5
:1039E00003013093200520931F05209100013091A1
:1039F00001012115310541F42DB73EB74091040175
:103A000050910501241B350BE0911F05F091200515
:103A1000E217F307A0F42E1B3F0B2817390778F0A5
:103A2000AC014E5F5F4F2417350748F04E0F5F1F04
:103A30005093200540931F058193919302C0E0E0CD
:103A4000F0E0CF01DF91CF9108950F931F93CF93B3
:103A5000DF93009709F48CC0FC0132971382128225
:103A600000912105109122050115110581F4208195
:103A70003181820F931F20911F0530912005281757
:103A8000390779F5F0932005E0931F0571C0D8013F
:103A900040E050E0AE17BF0750F412962D913C91D4
:103AA0001397AD012115310509F1D901F3CF9D011E
:103AB000DA013383228360817181860F971F821719
:103AC000930769F4EC0128813981260F371F2E5F97
:103AD0003F4F318320838A819B8193838283452B4F
:103AE00029F4F0932205E093210542C01396FC933C
:103AF000EE931297ED01499159919E01240F351FC4
:103B0000E217F30771F480819181840F951F02966B
:103B100011969C938E938281938113969C938E939E
:103B20001297E0E0F0E0D80112968D919C911397E6
:103B3000009719F0F8018C01F6CF8D919C919801B6
:103B40002E5F3F4F820F931F20911F05309120055C
:103B50002817390769F4309729F41092220510923A
:103B6000210502C0138212821093200500931F05C5
:103B7000DF91CF911F910F910895FB01DC010D9012
:103B80000020E9F7119705900D920020E1F70895C4
:103B9000FC0105900020E9F7809590958E0F9F1FFE
:103BA0000895DC0101C06D9341505040E0F7089545
:103BB000FB01DC010D900020E9F7119701900D92B7
:103BC0000020E1F70895FB0151915523A9F0BF01B1
:103BD000DC014D9145174111E1F759F4CD010190F8
:103BE000002049F04D9140154111C9F3FB014111ED
:103BF000EFCF81E090E001970895BB274A3031F480
:103C0000992322F4BDE2909581959F4F0C94091E53
:103C1000BB27FB015527AA27880F991FAA1FA417A6
:103C200010F0A41B83955051B9F7A05DAA3308F09A
:103C3000A95DA193009779F7B111B1931192CB01CE
:103C40000C942D20AEE0B0E0E8E2FEE10C94E1201F
:103C50000D891E898EE08C831A8309838FEF9FE77D
:103C60009E838D83AE01475E5F4F6F89788DCE0155
:103C700001960E94451E2F813885F801E20FF31F3F
:103C800010822E96E4E00C94FD20ACE0B0E0EBE472
:103C9000FEE10C94D3207C016B018A01FC011782A8
:103CA0001682838181FFBDC1CE0101964C01F701CF
:103CB0009381F60193FD859193FF81916F01882394
:103CC00009F4ABC1853239F493FD859193FF81915D
:103CD0006F01853229F4B70190E00E943D20E7CFC3
:103CE000512C312C20E02032A0F48B3269F030F4DA
:103CF000803259F0833269F420612CC08D3239F062
:103D0000803339F4216026C02260246023C02860FB
:103D100021C027FD27C030ED380F3A3078F426FF58
:103D200006C0FAE05F9E300D1124532E13C08AE0C6
:103D3000389E300D1124332E20620CC08E3221F4B7
:103D400026FD6BC1206406C08C3611F4206802C0C9
:103D5000883641F4F60193FD859193FF81916F01BF
:103D60008111C1CF982F9F7D9554933028F40C5F1B
:103D70001F4FFFE3F9830DC0833631F0833771F0B5
:103D8000833509F05BC022C0F801808189830E5F12
:103D90001F4F44244394512C540115C03801F2E0C4
:103DA0006F0E711CF801A080B18026FF03C0652D45
:103DB00070E002C06FEF7FEFC5012C870E942220C8
:103DC0002C0183012C852F77222E17C03801F2E0B9
:103DD0006F0E711CF801A080B18026FF03C0652D15
:103DE00070E002C06FEF7FEFC5012C870E941720A3
:103DF0002C012C852068222E830123FC1BC0832DDF
:103E000090E048165906B0F4B70180E290E00E94B5
:103E10003D203A94F4CFF50127FC859127FE81914E
:103E20005F01B70190E00E943D2031103A94F1E02B
:103E30004F1A51084114510471F7E5C0843611F04E
:103E4000893639F5F80127FF07C0608171818281C9
:103E500093810C5F1F4F08C060817181072E000C99
:103E6000880B990B0E5F1F4F2F76722E97FF09C09C
:103E700090958095709561957F4F8F4F9F4F2068EB
:103E8000722E2AE030E0A4010E947520A82EA81806
:103E900044C0853729F42F7EB22E2AE030E025C0B9
:103EA000F22FF97FBF2E8F36C1F018F4883579F0E4
:103EB000B4C0803719F0883721F0AFC02F2F2061B0
:103EC000B22EB4FE0DC08B2D8460B82E09C024FF25
:103ED0000AC09F2F9660B92E06C028E030E005C0CA
:103EE00020E130E002C020E132E0F801B7FE07C077
:103EF00060817181828193810C5F1F4F06C0608158
:103F0000718180E090E00E5F1F4FA4010E94752038
:103F1000A82EA818FB2DFF777F2E76FE0BC0372D1D
:103F20003E7FA51450F474FE0AC072FC08C0372D01
:103F30003E7E05C0BA2C372D03C0BA2C01C0B52C6B
:103F400034FF0DC0FE01EA0DF11D8081803311F4B4
:103F5000397E09C032FF06C0B394B39404C0832FE6
:103F6000867809F0B39433FD13C030FF06C05A2C95
:103F7000B31418F4530C5B18B32CB31468F4B701E2
:103F800080E290E03C870E943D20B3943C85F5CFD1
:103F9000B31410F43B1801C0312C34FF12C0B70128
:103FA00080E390E03C870E943D203C8532FF17C0B3
:103FB00031FD03C088E790E002C088E590E0B701DA
:103FC0000CC0832F867859F031FF02C08BE201C00C
:103FD00080E237FD8DE2B70190E00E943D20A514FC
:103FE00038F4B70180E390E00E943D205A94F7CF67
:103FF000AA94F401EA0DF11D8081B70190E00E94BE
:104000003D20A110F5CF332009F451CEB70180E255
:1040100090E00E943D203A94F6CFF7018681978187
:1040200002C08FEF9FEF2C96E2E10C94EF20FC0191
:104030000590615070400110D8F7809590958E0FD3
:104040009F1F0895FC016150704001900110D8F746
:10405000809590958E0F9F1F0895DC01FC01672FBE
:1040600071917723E1F7329704C07C916D9370834F
:104070006291AE17BF07C8F308950F931F93CF93B4
:10408000DF93FB01238121FD03C08FEF9FEF28C049
:1040900022FF16C04681578124813581421753077C
:1040A00044F4A081B1819D012F5F3F4F3183208374
:1040B0008C93268137812F5F3F4F3783268310C033
:1040C000EB01092F182F0084F185E02D0995892B2C
:1040D000E1F68E819F8101969F838E83812F902FA1
:1040E000DF91CF911F910F910895FA01AA272830EF
:1040F00051F1203181F1E8946F936E7F6E5F7F4FB5
:104100008F4F9F4FAF4FB1E03ED0B4E03CD0670F30
:10411000781F891F9A1FA11D680F791F8A1F911D83
:10412000A11D6A0F711D811D911DA11D20D009F4D3
:1041300068943F912AE0269F11243019305D319315
:10414000DEF6CF010895462F4770405D4193B3E0FE
:104150000FD0C9F7F6CF462F4F70405D4A3318F0A5
:10416000495D31FD4052419302D0A9F7EACFB4E056
:10417000A6959795879577956795BA95C9F700970E
:104180006105710508959B01AC010A2E06945795AF
:10419000479537952795BA95C9F7620F731F841F06
:1041A000951FA01D08952F923F924F925F926F929C
:1041B0007F928F929F92AF92BF92CF92DF92EF92B7
:1041C000FF920F931F93CF93DF93CDB7DEB7CA1B38
:1041D000DB0B0FB6F894DEBF0FBECDBF09942A8863
:1041E000398848885F846E847D848C849B84AA840B
:1041F000B984C884DF80EE80FD800C811B81AA8198
:10420000B981CE0FD11D0FB6F894DEBF0FBECDBF62
:08421000ED010895F894FFCFC1
:10421800000023058000010000002E03360168011C
:104228009001BA01E10180EE3600C0D40100A0BBC4
:104238000D00C0D4010040771B00C0D40100E80382
:1042480000000B000D0001FF000443757272656EDB
:1042580074204D656D6F72790031363034363434E0
:1042680034363234363830333600574C414E2D4BC5
:104278006162656C005769466920536869656C64BA
:1042880020636F6E6E6563746564006661696C7542
:10429800726500436F6E6E656374696F6E3A206372
:1042A8006C6F73650D0A0D0A00506F696E74657244
:1042B80020506F736974696F6E0074656D70526514
:1042C8007475726E56616C7565007375636365739A
:1042D8007300696E697469617400726573657465E9
:1042E8006400474554202F76616C75656765742EA8
:1042F80070687000474554202F63616C6C5F696E6D
:104308006974696174696F6E2E70687000474554EE
:10431800202F7761746572696E672E706870003F30
:104328006E616D653D00546573740026747970651F
:104338003D0050726F7A656E746665756368746562
:10434800002676616C75653D00266B65793D6333A3
:1043580037383136333366316662316464636137C6
:1043680037633930333864343939343334350020DD
:10437800485454502F312E310D0A486F73743A2027
:10438800003139322E3136382E3137382E3234005A
:10439800757267656E746C792064727900766572DF
:1043A80079206D6F69737400537461727454686511
:1043B800576174657250756D70282900736572763F
:1043C800657220756E617661696C61626C65006EFC
:1043D800657720617474656D70740074656D7052D2
:1043E800657175657374537563636573735472751A
:1043F800650074656D705265717565737453756386
:104408006365737354727565203D3D2027696E6935
:10441800746961742700696E697469617465006DF7
:10442800616E75616C5761746572696E67496E6912
:1044380074696174696F6E53746174757300726521
:104448007365740072657365745468655761746543
:1044580072696E67496E6974696174696F6E5374C5
:10446800617475734F6E57656273657276657228ED
:10447800290073746172745761746572696E67207C
:104488003D3D2027696E697469617465270052652E
:1044980063656976656420496E64696361746F72E7
:1044A80000537769746368204F4E2070756D7000F3
:1044B800497354696D65546F53656E6444617461E2
:1044C80000497354696D65546F43616C6C44617441
:1044D800610000000000FE08390A7F0899088B086F
:1044E800DC086E616E00696E66006F7666002E00ED
:1044F80000000000271A671A5E1B611B641B671BFC
:104508006A1B7F1B941BAB1BC21BE21BE9190E1A0B
:104518008C19B3191A194519A11AD81A63198419CB
:00000001FF
