:100000000C9425020C944D020C944D020C944D025C
:100010000C944D020C944D020C944D020C944D0224
:100020000C944D020C944D020C944D020C944D0214
:100030000C944D020C944D020C944D020C944D0204
:100040000C94480B0C944D020C946F090C94A1096C
:100050000C944D020C944D020C944D020C944D02E4
:100060000C944D020C944D027F1785178B17911736
:1000700097179D17A317A917AF17B517BB17C11768
:10008000C717CD17D317D917DF17E517EB17F117D8
:10009000F717000000080002010000030407000039
:1000A000000000000000010204081020408001024E
:1000B00004081020010204081020040404040404AD
:1000C000040402020202020203030303030300000A
:1000D0000000250028002B0000000000240027005D
:1000E0002A0025750025692E25692E25692E25698A
:1000F0000041542B5253495F534E443D002C002C79
:1001000030002C002C30002C002C0041542B52537A
:10011000495F534E443D002C002C30002C002C3005
:10012000002C002C0041542B5253495F434C533D4B
:100130000041542B5253495F5544503D0041542BCC
:100140005253495F5443503D0041542B5253495F31
:10015000204D554C5449434153543D002C002C0034
:1001600041542B5253495F4950434F4E463D302C2A
:10017000002C002C3235352E3235352E3235352EC9
:1001800030002C003139322E3136382E302E3100ED
:1001900041542B5253495F444E5353455256455296
:1001A0003D0041542B5253495F4950434F4E463D09
:1001B000312C302C300041542B5253495F4950436D
:1001C0004F4E463D322C302C300041542B52534977
:1001D0005F4A4F494E3D002C31322C320041542BA6
:1001E0005253495F4A4F494E3D002C31322C310069
:1001F00041542B5253495F4A4F494E3D002C3132F6
:100200002C300041542B5253495F4A4F494E3D0018
:100210002C392C320041542B5253495F4A4F494EDE
:100220003D002C392C310041542B5253495F4A4F29
:10023000494E3D002C392C300041542B5253495F1C
:100240004A4F494E3D002C372C320041542B52531B
:10025000495F4A4F494E3D002C372C310041542B09
:100260005253495F4A4F494E3D002C372C300041D4
:10027000542B5253495F4A4F494E3D002C342C3287
:100280000041542B5253495F4A4F494E3D002C3494
:100290002C310041542B5253495F4A4F494E3D0087
:1002A0002C342C300041542B5253495F4A4F494E55
:1002B0003D002C322C320041542B5253495F4A4F9F
:1002C000494E3D002C322C310041542B5253495F92
:1002D0004A4F494E3D002C322C300041542B525392
:1002E000495F4A4F494E3D002C312C320041542B7E
:1002F0005253495F4A4F494E3D002C312C31004149
:10030000542B5253495F4A4F494E3D002C312C30FB
:100310000041542B5253495F4A4F494E3D002C3007
:100320002C320041542B5253495F4A4F494E3D00F5
:100330002C302C310041542B5253495F4A4F494EC7
:100340003D002C302C300041542B5253495F505308
:100350004B3D0041542B5253495F415554484D4F3A
:1003600044453D0041542B5253495F4E4554574F2D
:10037000524B3D494253532C312C0041542B525384
:10038000495F4E4554574F524B3D494253535F537B
:1003900045432C312C0041542B5253495F4E455458
:1003A000574F524B3D494253532C302C300041544F
:1003B0002B5253495F4E4554574F524B3D49425380
:1003C000535F5345432C302C300041542B5253493A
:1003D0005F4E4554574F524B3D494E465241535440
:1003E000525543545552450041542B5253495F5383
:1003F00043414E3D300041542B5253495F4E554DC1
:100400005343414E3D300041542B5253495F444EBB
:10041000534745543D0041542B5253495F494E497F
:10042000540041542B5253495F42414E443D3000E9
:1004300041542B5253495F465756455253494F4EEC
:100440003F000D0A0000FE07D10911241FBECFEFA7
:10045000D8E0DEBFCDBF13E0A0E0B1E0E2EAF1E416
:1004600002C005900D92AC35B107D9F724E0ACE598
:10047000B3E001C01D92A137B207E1F712E0C5E277
:10048000D2E004C02197FE010E94191CC332D1079B
:10049000C9F70E94EF070C94CF200C940000089538
:1004A000CF93DF93EC0185E294E00E94C90DBE0179
:1004B0008EE693E00E943E0A85E294E0DF91CF91C0
:1004C0000C94B80DCF93DF93EC0185E294E00E9489
:1004D000C90DBE018EE693E00E944B0A85E294E0CE
:1004E000DF91CF910C94B80D0F931F93CF93DF93AF
:1004F0008C01EB0185E294E00E94C90DB8018EE603
:1005000093E00E943E0A6FE572E08EE693E00E945F
:100510003E0A4AE050E0BE018EE693E00E94F00AF7
:1005200085E294E0DF91CF911F910F910C94B80D6B
:100530000F931F93CF93DF938C01EB0185E294E03F
:100540000E94C90DB8018EE693E00E943E0A6FE555
:1005500072E08EE693E00E943E0ABE018EE693E0D2
:100560000E944B0A85E294E0DF91CF911F910F9199
:100570000C94B80DCF93DF930E94EC0CEC0185E254
:1005800094E00E94C90D6AE371E08EE693E00E9458
:100590003E0A6FE572E08EE693E00E943E0A4AE072
:1005A00050E0BE018EE693E00E94F00A85E294E0FE
:1005B000DF91CF910C94B80DCF93DF93C5E6D0E0D7
:1005C000882339F02197B9F185E294E00E94D81888
:1005D000F7CF85E294E00E94201720E049E451E043
:1005E0006AE571E085E294E00E941B18C5E6D0E060
:1005F000882361F02197F9F020E049E451E06AE5B1
:1006000071E085E294E00E941B18F2CF85E294E04D
:100610000E94ED16C5E6D0E0882339F0219759F005
:1006200085E294E00E94ED16F7CF85E691E0DF9138
:10063000CF910C946202DF91CF9108952F923F9257
:100640004F925F926F927F928F929F92AF92BF92E2
:10065000CF92DF92EF92FF920F931F93CF93DF938E
:10066000CDB7DEB7CE52D1400FB6F894DEBF0FBE85
:10067000CDBF7B012DB73EB7C35DDE4F39832883E5
:10068000CD52D1400E94920B2B013C0163E871E0F6
:10069000C7010E943E0AC301B201812C912C00E0E7
:1006A00010E0DE0111965D01DC01CB018419950992
:1006B000A609B70981369A4EA105B10508F09BC07D
:1006C0008114910409F097C0C7010E945119892B28
:1006D00091F0C7010E9478198F3FBFEF9B0759F037
:1006E0000B32E1E01E07A8F7F501E00FF11F808350
:1006F0000F5F1F4FEECF0115110509F467C0C70149
:100700000E94AE19811162C02DB63EB6C7010E948B
:10071000D319F501E00FF11F1082C5010E945002AC
:100720002DB73EB7205331090FB6F8943EBF0FBE28
:100730002DBFEDB7FEB73196DF0120E11D922A955E
:10074000E9F729EA31E0ADB7BEB712963C932E9394
:1007500011972DB73EB72F5E3F4FD90180E11D9213
:100760008A95E9F7A1EBB1E0B18BA08B205F3F4FF9
:10077000D90180E11D928A95E9F7A9EBB1E0B1A317
:10078000A0A38F018DB69EB6B1E38B0E911CD8014C
:10079000CD90DC90B601C5010E94A81D8A199B0965
:1007A00097FD17C0B60189E991E00E949802BBE766
:1007B000CB16B1E0DB06A9F00FB6F8943EBE0FBE33
:1007C0002DBE82E0882E912C00E010E00E94920B5A
:1007D0006BCF88E991E00E9462028BE791E00E9472
:1007E0006202005F1F4F0815190589F69BE7C92EA5
:1007F00091E0D92EE1CFC7010E940A19C601C35D5D
:10080000DE4F28813981CD52D1400FB6F8943EBFDA
:100810000FBE2DBFC25DDE4F0FB6F894DEBF0FBE18
:10082000CDBFDF91CF911F910F91FF90EF90DF909F
:10083000CF90BF90AF909F908F907F906F905F9080
:100840004F903F902F9008958230910541F0833072
:10085000910541F0019741F421EC31E005C023ED11
:1008600031E002C02CEE31E0C90108958F929F92D1
:10087000AF92BF92EF92FF920F931F93CF93DF93AC
:100880004B015C01CA010E9424047C0161E070E01C
:1008900085E090E00E94391C8C014AE0BC01C40153
:1008A0000E94C21DF70101900020E9F73197CF01A6
:1008B0008E199F09F80101900020E9F73197E01B9C
:1008C000F10B8E0F9F1F61E070E082599F4F0E94D5
:1008D000391CEC01B7010E949D1D6EEF71E0CE0145
:1008E0000E949D1D65E072E0CE010E949D1D6CE09E
:1008F00072E0CE010E949D1D63E172E0CE010E9474
:100900009D1D62E272E0CE010E949D1DB801CE01E4
:100910000E949D1D6AE272E0CE010E949D1D60E56D
:1009200072E0CE010E949D1D62E672E0CE010E943F
:100930009D1D66E971E0CE010E949D1DC8010E94C7
:10094000EA1CCE01DF91CF911F910F91FF90EF90A4
:10095000BF90AF909F908F900895CF92DF92EF92CB
:10096000FF9261E085E00E94BC0C0E94920B6B013B
:100970007C01DC01CB018C199D09AE09BF094091B6
:100980002E0150912F016091300170913101841737
:100990009507A607B70718F40E94920BEACF84E0E8
:1009A0000E943A0C909361038093600360E085E0BD
:1009B0000E94BC0C8091600390916103FF90EF90C6
:1009C000DF90CF9008950E94AD0420910E013091E8
:1009D0000F01281739078CF4209110013091110173
:1009E000281739076CF42091120130911301281750
:1009F00039074CF48EE792E0089581E792E008957C
:100A00008AE792E0089583E892E00895CF92DF921A
:100A1000EF92FF920E94920B6B017C01DC01CB01F3
:100A20008C199D09AE09BF0980339547A105B10511
:100A300080F060E0809132010E94BC0C83E892E07B
:100A400090935D0380935C03FF90EF90DF90CF90D5
:100A500008950E94E3048E57924059F361E080911B
:100A600032010E94BC0C0E94920BD8CFCF92DF9231
:100A7000EF92FF920F931F93CF93DF93CDB7DEB723
:100A8000A2970FB6F894DEBF0FBECDBF6B017C01FD
:100A90008A0180EC8F8F88EA88A382EB89A388E1A2
:100AA0008AA340E550E0BE01615E7F4FCE014096D3
:100AB0000E94D51AA801C701B6010E9436047C0124
:100AC00040E550E0BE01615E7F4FCE0140960E943E
:100AD0002F1B892B79F1B701CE0140960E943E0A67
:100AE0008A899B899C838B8380E393E09A838983A3
:100AF0008C898D838D899E89AF89B88D8E839F83E4
:100B0000A887B987898D9A8D9B878A878B8D9C8DC5
:100B10009D878C878D8D8E878E8D8F87BE016F5FB1
:100B20007F4FC8010E941E038C01CE0101960E94D6
:100B3000EF1A08C089E892E00E9462020E94DC027B
:100B40000BE711E0C7010E94EA1C0E94BA02CE0125
:100B500040960E94EF1AC801A2960FB6F894DEBF25
:100B60000FBECDBFDF91CF911F910F91FF90EF90FE
:100B7000DF90CF9008958F929F92AF92BF92EF92A5
:100B8000FF920F931F93CF93DF934B015C018A0178
:100B9000C6E0D0E085EAE82E82E0F82EA801C50183
:100BA000B4010E94360521E0813B920739F48CE9BB
:100BB00092E090930B0180930A0109C0F0920B011F
:100BC000E0920A018B57914011F4219739F7DF9198
:100BD000CF911F910F91FF90EF90BF90AF909F909A
:100BE0008F90089543E050E061E070E080E090E095
:100BF0000C94BB058F929F92AF92BF92CF93DF93DD
:100C000000D000D0CDB7DEB74B015C0129833A8319
:100C10004B835C830E94920BDC01CB0188199909FC
:100C2000AA09BB0961E029813A814B815C81821765
:100C30009307A407B50708F460E0862F0F900F9084
:100C40000F900F90DF91CF91BF90AF909F908F90BA
:100C500008956F927F92AF92BF92CF92DF92EF9200
:100C6000FF920F931F9320910C0130910D01609022
:100C70000E0170900F01A0911001B0911101E0914F
:100C80001201F09113014091140150911501821746
:100C9000930734F08C01481759071CF48A0101C0EE
:100CA0008901B801012E000C880B990B60167106A2
:100CB0008CF07301770C000B110B032E000C440B0E
:100CC000550B1F921F921F92E4E1EF93A12CB12CC0
:100CD000650147C0A017B107B4F07D01BB0F000B41
:100CE000110B93012F5F3F4F032E000C440B550B4C
:100CF0001F921F921F92E8E2EF93A5E1AA2EB12C5A
:100D0000C12CD12C2EC0E017F107B4F07F01FF0FEA
:100D1000000B110B9D012F5F3F4F032E000C440B66
:100D2000550B1F921F921F92E0E5EF93F9E2AF2E51
:100D3000B12CC12CD12C15C07A01550F000B110B11
:100D40009F012F5F3F4F032E000C440B550B1F924A
:100D50001F921F92E4E6EF93E1E5AE2EB12CC12C79
:100D6000D12C0E94070B0F900F900F900F901F91A6
:100D70000F91FF90EF90DF90CF90BF90AF907F905A
:100D80006F9008958C59924091F520911601309101
:100D90001701409118015091190160916A037091F7
:100DA0006B0380916C0390916D030E94FA05882378
:100DB000F1F00E94920B60936A0370936B0380932F
:100DC0006C0390936D030E94060585EA92E0909370
:100DD0000B0180930A010E94F205809160039091BB
:100DE00061030E94290641E050E00C94BB05089580
:100DF00026E040E855E260E070E08EE693E00E9475
:100E00000A0961E087E00E94800C61E085E00E94B1
:100E1000800C61E08DE00E94800C61E080913201E5
:100E20000E94800C61E087E00E94BC0C60E971E0E8
:100E300080E090E00E94C30B60E087E00E94BC0C61
:100E40000C94DC02882381F00E94920B609366036D
:100E50007093670380936803909369030E94E3048F
:100E600090935D0380935C03089522E0813792079D
:100E700039F08A57924021F060E087E00C94BC0C76
:100E800008958157924011F40C94060560E080911A
:100E900032010C94BC0CCF92DF92EF92FF920F9331
:100EA0001F93CF93DF930E9429066B017C018BEA8D
:100EB00092E00E94740260915E0370915F0382EC85
:100EC00092E00E947402C0915E03D0915F03CE0154
:100ED00004968C159D051CF0CC16DD062CF4D092E2
:100EE0005F03C0925E03E601BE0184EE92E00E94C1
:100EF0007402CE01DF91CF911F910F91FF90EF907F
:100F0000DF90CF900895882359F0CB010E944B07C2
:100F1000BC01990F880B990B41E050E00C94BB0584
:100F20000895882391F00E94920B6093620370935E
:100F30006303809364039093650342E050E061E0B3
:100F400070E080E090E00C94BB050895CF93DF93B0
:100F500020912601309127014091280150912901CB
:100F600060916603709167038091680390916903B3
:100F70000E94FA05C82F20911E0130911F01409157
:100F8000200150912101609162037091630380916F
:100F90006403909165030E94FA05D82F8C2F0E945C
:100FA000220780915C0390915D030E943507809138
:100FB0005C0390915D030E9441078D2F0E94910771
:100FC00080910A0190910B010E94C206609160031A
:100FD000709161038C2FDF91CF910C9483070E9455
:100FE000FF0B0E944F020E94F806C2E7D8E00E9461
:100FF000A6072097E1F30E947208F9CF80911601AD
:1010000090911701A0911801B0911901B095A09588
:10101000909581959F4FAF4FBF4F80936A039093F8
:101020006B03A0936C03B0936D03809126019091A4
:101030002701A0912801B0912901B095A095909524
:1010400081959F4FAF4FBF4F809366039093670387
:10105000A0936803B093690380911E0190911F01D2
:10106000A0912001B0912101B095A0959095819516
:101070009F4FAF4FBF4F8093620390936303A09342
:101080006403B09365030895FC01918D228D892F2F
:1010900090E0805C9F4F821B91098F739927089580
:1010A000FC01918D828D981731F0828DE80FF11D32
:1010B000858D90E008958FEF9FEF0895FC01918D4D
:1010C000828D981761F0828DDF01A80FB11D5D96AA
:1010D0008C91928D9F5F9F73928F90E008958FEF18
:1010E0009FEF089587EC99E0892B49F080E090E02C
:1010F000892B29F00E94C70981110C9400000895E2
:10110000FC01848DDF01A80FB11DA35ABF4F2C91A4
:10111000848D90E001968F739927848FA689B78973
:101120002C93A089B1898C9180648C93938D848D4C
:10113000981306C00288F389E02D80818F7D80831B
:101140000895CF93DF93EC01888D8823C9F0EA8955
:10115000FB89808185FD05C0A889B9898C9186FDB0
:101160000FC00FB607FCF5CF808185FFF2CFA889AD
:10117000B9898C9185FFEDCFCE010E948008E7CF21
:10118000DF91CF910895EF92FF920F931F93CF932A
:10119000DF93EC0181E0888F9B8D8C8D981305C0C7
:1011A000E889F989808185FD24C0F62E0B8D10E039
:1011B0000F5F1F4F0F731127E02E8C8DE8120CC0AC
:1011C0000FB607FCFACFE889F989808185FFF5CF52
:1011D000CE010E948008F1CF8B8DFE01E80FF11D3A
:1011E000E35AFF4FF0820B8FEA89FB89808180628E
:1011F00007C0EE89FF896083E889F989808180646E
:10120000808381E090E0DF91CF911F910F91FF905B
:10121000EF900895CF92DF92EF92FF921F93CF93BA
:10122000DF93EC016A017B01122FE889F98982E0E2
:1012300080834115514E61057105B1F060E079E0A0
:101240008DE390E0A70196010E94D81BDA01C90145
:101250000197A109B109B695A79597958795AC0116
:10126000411580E15807A8F0E889F989108260E803
:1012700074E88EE190E0A70196010E94D81BBA01A4
:10128000A9014150510961097109769567955795F2
:101290004795EC85FD855083EE85FF854083188E4C
:1012A000EC89FD891083EA89FB89808180618083D4
:1012B000EA89FB89808188608083EA89FB89808153
:1012C00080688083EA89FB8980818F7D8083DF91BC
:1012D000CF911F91FF90EF90DF90CF9008951F92D4
:1012E0000F920FB60F9211242F938F939F93EF932A
:1012F000FF93E0917E03F0917F038081E09184036E
:10130000F091850382FD12C09081809187038F5FE9
:101310008F7320918803821751F0E0918703F0E0EA
:10132000E259FC4F958F8093870301C08081FF9124
:10133000EF919F918F912F910F900FBE0F901F9063
:1013400018951F920F920FB60F9211242F933F936F
:101350004F935F936F937F938F939F93AF93BF93BD
:10136000EF93FF938EE693E00E948008FF91EF9148
:10137000BF91AF919F918F917F916F915F914F91AD
:101380003F912F910F900FBE0F901F9018958EE6F2
:1013900093E00E94440821E0892B09F420E0822F89
:1013A0000895EEE6F3E01382128288EE93E0A0E067
:1013B000B0E084839583A683B78382E193E0918331
:1013C000808385EC90E09587848784EC90E0978714
:1013D000868780EC90E0918B808B81EC90E0938B02
:1013E000828B82EC90E0958B848B86EC90E0978BDF
:1013F000868B118E128E138E148E0895CF92DF92EB
:10140000EF92FF920F931F93CF93DF936C017A01BA
:101410008B01C0E0D0E0CE15DF0589F0D8016D91D9
:101420008D01D601ED91FC910190F081E02DC60176
:101430000995892B11F47E0102C02196ECCFC701DA
:10144000DF91CF911F910F91FF90EF90DF90CF90A0
:1014500008956115710579F0FB0101900020E9F70D
:101460003197AF01461B570BDC01ED91FC910280D7
:10147000F381E02D099480E090E008950C94290A0E
:10148000DC01ED91FC910190F081E02D099466E979
:1014900071E00C94290A0F931F93CF93DF93EC0113
:1014A0000E94290A8C01CE010E94470A800F911FD9
:1014B000DF91CF911F910F9108954F925F926F929C
:1014C0007F92EF92FF920F931F93CF93DF93CDB74D
:1014D000DEB7A1970FB6F894DEBF0FBECDBF7C017B
:1014E000FA01CB0119A2223008F42AE08E010F5D27
:1014F0001F4F422E512C612C712CBF01A301920170
:101500000E94D81BF901CA01015011096A3014F474
:10151000605D01C0695CD8016C93232B242B252BC3
:1015200061F7B801C7010E94290AA1960FB6F89485
:10153000DEBF0FBECDBFDF91CF911F910F91FF9006
:10154000EF907F906F905F904F900895CF92DF92D1
:10155000EF92FF920F931F93CF93DF93EC016A01F9
:101560007B012115310579F4E881F9810190F08141
:10157000E02D642FDF91CF911F910F91FF90EF909D
:10158000DF90CF9009942A303105E9F477FF1AC033
:101590006DE20E94400A8C0144275527BA014C197C
:1015A0005D096E097F092AE0CE010E945D0A800F65
:1015B000911FDF91CF911F910F91FF90EF90DF90DE
:1015C000CF9008952AE0B701A601CE01DF91CF9117
:1015D0001F910F91FF90EF90DF90CF900C945D0AD8
:1015E0000F931F93CF93DF93EC019A01AB01770F19
:1015F000660B770B0E94A60A8C01CE010E94470A57
:10160000800F911FDF91CF911F910F9108954F92FD
:101610005F926F927F92AF92BF92CF92DF92EF92E2
:10162000FF920F931F93CF93DF93CDB7DEB72901BE
:101630003A019B01AC0124193509460957098989EA
:101640009A89AB89BC89BC01CD016A197B098C09D7
:101650009D090E94C81BA801970124193509460954
:1016600057090E94FA1BCA01B9016A0D7B1D8C1D26
:101670009D1DDF91CF911F910F91FF90EF90DF9013
:10168000CF90BF90AF907F906F905F904F900895F4
:101690001F920F920FB60F9211242F933F938F93A7
:1016A0009F93AF93BF9380910C0490910D04A091F0
:1016B0000E04B0910F0430910B0423E0230F2D375B
:1016C00020F40196A11DB11D05C026E8230F029646
:1016D000A11DB11D20930B0480930C0490930D0465
:1016E000A0930E04B0930F04809110049091110404
:1016F000A0911204B09113040196A11DB11D809315
:10170000100490931104A0931204B0931304BF919A
:10171000AF919F918F913F912F910F900FBE0F909E
:101720001F9018952FB7F89460910C0470910D04D8
:1017300080910E0490910F042FBF08953FB7F89445
:101740008091100490911104A0911204B09113049F
:1017500026B5A89B05C02F3F19F00196A11DB11D0C
:101760003FBFBA2FA92F982F8827820F911DA11D47
:10177000B11DBC01CD0142E0660F771F881F991F84
:101780004A95D1F708958F929F92AF92BF92CF92D0
:10179000DF92EF92FF926B017C010E949E0B4B0146
:1017A0005C01C114D104E104F10401F10E94C71BE2
:1017B0000E949E0BDC01CB0188199909AA09BB097B
:1017C000883E9340A105B10560F321E0C21AD1081B
:1017D000E108F10888EE880E83E0981EA11CB11C78
:1017E000C114D104E104F10419F7DBCFFF90EF90AD
:1017F000DF90CF90BF90AF909F908F900895789496
:1018000084B5826084BD84B5816084BD85B5826005
:1018100085BD85B5816085BDEEE6F0E080818160A3
:101820008083E1E8F0E010828081826080838081A3
:1018300081608083E0E8F0E0808181608083E1EB7B
:10184000F0E0808184608083E0EBF0E08081816063
:101850008083EAE7F0E08081846080838081826019
:101860008083808181608083808180688083109202
:10187000C10008958E3008F08E5087702091360197
:1018800090E4299F90011124822B80937C00809109
:101890007A00806480937A0080917A0086FDFCCF84
:1018A000809178002091790090E0922B0895833008
:1018B00081F028F4813099F08230A1F008958730CA
:1018C000A9F08830B9F08430D1F4809180008F7D08
:1018D00003C0809180008F7780938000089584B545
:1018E0008F7702C084B58F7D84BD08958091B0004C
:1018F0008F7703C08091B0008F7D8093B0000895F2
:10190000CF93DF9390E0FC01EA55FF4F2491FC0157
:10191000E654FF4F8491882361F190E0880F991F6E
:10192000FC01E852FF4FC591D491FC01E253FF4FF7
:10193000A591B491611109C09FB7F8948881209551
:1019400082238883EC912E230BC0623061F49FB711
:10195000F8943881822F809583238883EC912E2BF5
:101960002C939FBF06C08FB7F894E8812E2B288355
:101970008FBFDF91CF9108951F93CF93DF93282FCF
:1019800030E0F901EE56FF4F8491F901EA55FF4F1F
:10199000D491F901E654FF4FC491CC23C9F0162F1E
:1019A00081110E94570CEC2FF0E0EE0FFF1FE25365
:1019B000FF4FA591B4918FB7F894111105C09C9178
:1019C000ED2FE095E92302C0EC91ED2BEC938FBF56
:1019D000DF91CF911F910895CF93DF9300D0CDB7C2
:1019E000DEB720916D0430916E04CE010196211571
:1019F000310519F48157944002C0821B930B9A83DE
:101A0000898389819A810F900F90DF91CF910895FA
:101A1000DC01DA9620E030E04C91461307C0220F3B
:101A2000331FFC01E20FF31F83AD08952F5F3F4F7B
:101A300012962730310581F78FEF0895403885E2FF
:101A400058076105710560F0413080E4580788E36C
:101A50006807710548F040E050E468E370E004C0B6
:101A600040E855E260E070E026E08EE693E00E94F8
:101A70000A098091C20088608093C2000895CF93C4
:101A8000DF9300D0CDB7DEB7FB0183811F928F9328
:101A900082811F928F9381811F928F9380811F92E9
:101AA0008F9385EE90E09F938F935F934F9349833D
:101AB0005A830E94E71D0FB6F894DEBF0FBECDBF5C
:101AC0004981842F5A81952F0F900F90DF91CF91EC
:101AD0000895662341F08FE39CE90197F1F700C078
:101AE00000006150F6CF08958EE693E00E9444080E
:101AF000892BD1F38EE693E00E945E0808958EE66E
:101B000093E00E945E080895CF92DF92EF92FF92D9
:101B1000CF93DF93EC018EE693E00E94A1080E9430
:101B2000920B6B017C018091C00087FF11C00E9465
:101B3000920BAB01BC014C195D096E097F09423360
:101B400051056105710550F4CE010E947F0DEBCF68
:101B50008EE693E00E944408892B49F761E0CE01AC
:101B6000DF91CF91FF90EF90DF90CF900C94690DB3
:101B7000CF93DF93EC010E94840D4AA95BA96CA965
:101B80007DA9CE010E941E0D19825B98DF91CF9135
:101B90000895CF93DF93EC010E94840D19825B9A24
:101BA000DF91CF910895FC011182FB96AC01475B58
:101BB0005F4F2FEFDF0111972C9320833296E417AC
:101BC000F507C1F70C94840D0F931F93CF93DF9308
:101BD0008C018EE693E00E94A1088EE693E00E94BD
:101BE0004408EC01209729F0C8010E947F0D21973D
:101BF000F9CFDF91CF911F910F9108952F923F92CE
:101C00004F925F926F927F928F929F92AF92BF920C
:101C1000CF92DF92EF92FF920F931F93CF93DF93B8
:101C2000CDB7DEB727970FB6F894DEBF0FBECDBF96
:101C30009F838E834B012A0159013801FA82E98280
:101C4000FC0181818230C9F4FB0180818F3F21F04A
:101C50009091370189130EC0C114D10471F48091A1
:101C60003701F40180838091230490912404F201D0
:101C70009183808380E090E09FC100E010E02E819E
:101C80003F81265C3F4F3C832B8333243A9452E0C0
:101C9000252EEE81FF8181818130E1F018F08230C4
:101CA00029F1DAC021E0EE81FF81218330923701F2
:101CB0001092240410922304109222041092210402
:101CC0001092200410921C0410921D0410921E0405
:101CD00010921F0480912204883068F58EE693E00C
:101CE0000E944408892B09F02DC125C08E819F8157
:101CF0000E94740DE981FA818083F1E0CF1AD10846
:101D00000F5F1F4F809123049091240401979093BB
:101D1000240480932304892B09F09AC08E819F812B
:101D20000E94740D8E819F810E94740DEE81FF814F
:101D3000118221E092C080912204883008F48CC086
:101D40007091140460911504509116044091170489
:101D5000309118042091190490911A0480911B0469
:101D6000723509F094C0633509F0DAC0593409F0CE
:101D7000D7C04F3509F0D4C0323509F0D1C0253471
:101D800009F0CEC0913409F0CBC0843409F0C8C04A
:101D90008E819F810E94740D809337018E819F8177
:101DA0000E94740D90E090932404809323048E810C
:101DB0009F810E94740D2091230430912404A90175
:101DC000582BCA0150932404409323046091370197
:101DD000EE81FF816F3F09F44DC0892B09F44AC0A1
:101DE0002182CF010E94080D813071F58E819F8183
:101DF0000E94740D80931C048E819F810E94740D3B
:101E000080931D048E819F810E94740D80931E0417
:101E10008E819F810E94740D80931F048E819F810B
:101E20000E94740D90E090932104809320048E8191
:101E30009F810E94740D2091200430912104382B41
:101E40003093210420932004F40180818F3FD1F44A
:101E500021E0C114D10409F020E08EE693E02D8347
:101E60000E9444082D81892B09F47CC0222309F4A7
:101E700010CF78C011823092370110922404109252
:101E80002304EACF90913701891711F3F3CE73350C
:101E900009F046C0693409F043C05F3509F040C01D
:101EA0004334F1F53C34E1F52F34D1F59335C1F5E8
:101EB0008534B1F58E819F810E94740D8093370126
:101EC0008E819F810E94740D8E819F810E94740D6E
:101ED0001092240410922304EE81FF81118220913C
:101EE0003701EB81FC8180E090E03081321310C03B
:101EF000FC017D96EE0FFF1F2E813F81E20FF31F45
:101F00003082880F991FF901E80FF91F33AE05C021
:101F1000019632968730910541F70FEF1FEF09CFF9
:101F200077E0709322046093140450931504409357
:101F30001604309317042093180490931904809387
:101F40001A048ACFE090220481E08E0D809322044F
:101F5000F12C8EE693E00E945E08F701EC5EFB4FE9
:101F60008083B8CE80913701F4018083809123046F
:101F700090912404F20191838083A114B10479F03B
:101F800080911C04882359F0F501808380911D0401
:101F9000818380911E04828380911F048383611456
:101FA000710449F08091200490912104009719F068
:101FB000F30191838083C80127960FB6F894DEBFA2
:101FC0000FBECDBFDF91CF911F910F91FF90EF908A
:101FD000DF90CF90BF90AF909F908F907F906F9049
:101FE0005F904F903F902F9008959F92AF92BF9235
:101FF000CF92DF92EF92FF920F931F93CF93DF93D5
:1020000000D01F92CDB7DEB75C01962E8EE693E02E
:102010000E944408892BA9F08FEF8B831A821982C2
:10202000C12CD12CE12CF12C00E010E020E030E0BC
:10203000AE014F5F5F4FBE016D5F7F4FC5010E94D4
:10204000FE0D8FEF981661F0F501FA9688E4A80E60
:10205000B11C8081891531F03296EA15FB05C9F76C
:1020600081E001C080E00F900F900F90DF91CF9141
:102070001F910F91FF90EF90DF90CF90BF90AF90A6
:102080009F900895CF92DF92EF92FF920F931F934C
:102090006801790100E010E020E030E00E94FE0DD0
:1020A0001F910F91FF90EF90DF90CF9008952F92A6
:1020B0003F924F925F926F927F928F929F92AF92D8
:1020C000BF92CF92DF92EF92FF920F931F93CF9325
:1020D000DF93CDB7DEB72E970FB6F894DEBF0FBEF5
:1020E000CDBF2C013B014A873C872B871E870D877C
:1020F00017014601FC018181823009F44CC18EE652
:1021000093E00E944408892BD1F08FEF89871A82CF
:102110001982C12CD12CE12CF12C00E010E020E040
:1021200030E0AE014F5F5F4FBE01675F7F4FC2017E
:102130000E94FE0D89819A81892B09F02CC1EB85C3
:10214000FC8564918F010F5F1F4F662339F08EE687
:1021500093E00E94C308F8016491F5CF8D859E85B8
:10216000892B39F42114310441F181010F5F1F4F94
:1021700020C00D851E85F80161918F01662391F3C2
:102180008EE693E00E94C308F6CF6D3009F010C1CF
:10219000F80184918A3009F00BC16BED8EE693E073
:1021A0000E94C3086CED8EE693E00E94C3080E5FA8
:1021B0001F4FF10164916111F0C0A114B104F1F459
:1021C000C2010E94E40D6DE08EE693E00E94C30818
:1021D0006AE08EE693E00E94C308FA85F1117EC0A2
:1021E00019821E820E94920B4B015C0130E1C32ECA
:1021F00037E2D32EE12CF12C10E040C0F4016081D5
:102200006B3D81F48EE693E00E94C3086DED8EE68F
:1022100093E00E94C308FFEF8F1A9F0A81E0A81A7B
:10222000B108CBCF6D30C9F4F40181818A30A9F4B3
:10223000F2E0AF16B10488F06BED8EE693E00E94F9
:10224000C3086CED8EE693E00E94C30882E0880E1E
:10225000911C92E0A91AB108B0CFEFEF8E1A9E0A36
:102260008EE693E00E94C308F1E0AF1AB108A5CF53
:102270008EE693E00E944408892B71F40E94920B31
:10228000DC01CB0188199909AA09BB098C159D05A8
:10229000AE05BF0568F36BC08EE693E00E945E0852
:1022A000183080F401E0010FE1E0F0E0EC0FFD1FD9
:1022B000E10FF11D808389818F3429F0853419F075
:1022C00000E001C0012F0E94920B4B015C0123E052
:1022D000C22ED12CE12CF12C102FD0CFF301108283
:1022E00015820E94920B6B017C0190E1892E97E28E
:1022F000992EA12CB12C10E00E94920BDC01CB0195
:102300008C199D09AE09BF0988159905AA05BB0559
:1023100038F58EE693E00E944408892B69F38EE637
:1023200093E00E945E08FA851F1770F401E0010F28
:10233000F301E10FF11D8083F30180818F3429F0D7
:10234000853419F000E001C0012F0E94920B6B014F
:102350007C0183E0882E912CA12CB12C102FCCCFA6
:10236000F3018081898381818A8385818E8389813C
:102370008F3439F481E09A819B3409F480E08195AF
:102380001FC0853441F48A81823529F48E818823E7
:1023900011F08D30A9F48FEF13C0C80101961C0114
:1023A0006B3D09F0F2CE8EE693E00E94C3086DED1E
:1023B0008EE693E00E94C308F80164918101FBCE90
:1023C0002E960FB6F894DEBF0FBECDBFDF91CF9132
:1023D0001F910F91FF90EF90DF90CF90BF90AF9043
:1023E0009F908F907F906F905F904F903F902F9035
:1023F00008955F926F927F928F929F92AF92BF9259
:10240000CF92DF92EF92FF920F931F93CF93DF93C0
:10241000CDB7DEB72A970FB6F894DEBF0FBECDBF9B
:102420004C013B01542EC8014AE0BE016F5F7F4F53
:1024300029873A870E94C21DA12CB12CC12CD12C16
:10244000E12CF12C8E010F5F1F4F29853A85452D18
:10245000B301C4010E9457102A960FB6F894DEBF4C
:102460000FBECDBFDF91CF911F910F91FF90EF90E5
:10247000DF90CF90BF90AF909F908F907F906F90A4
:102480005F9008950F931F939B018A0140E060E0E5
:1024900070E00E94F9111F910F9108958F929F9201
:1024A000AF92BF92CF92DF92EF92FF920F931F9362
:1024B000CF93DF93CDB7DEB72B970FB6F894DEBF7F
:1024C0000FBECDBF5C01962E88248A948EE693E0E1
:1024D0000E944408892B81F18B861A861986C12CAB
:1024E000D12CE12CF12C00E010E020E030E0AE0136
:1024F000475F5F4FBE01655F7F4FC5010E94FE0DC4
:102500008B85891119C089859A85892BF9F29B865B
:1025100028E0C22ED12CCE0101967C0100E010E013
:1025200020E030E0AE01475F5F4FBE01655F7F4F47
:10253000C5010E94FE0DE7CF9FEF991202C080E017
:102540002CC0F501FA9620E030E0808189111EC090
:10255000F9017D96EE0FFF1FEA0DFB1D8FEF8083C3
:10256000220F331FF501E20FF31F83AF13E0892C15
:10257000912CA40165E271E0C5010E9442128823FA
:10258000F1F28E3FE1F21150A1F707C02F5F3F4FEC
:10259000329627303105C9F6D2CF2B960FB6F89474
:1025A000DEBF0FBECDBFDF91CF911F910F91FF9086
:1025B000EF90DF90CF90BF90AF909F908F90089555
:1025C000AF92BF92CF92DF92EF92FF920F931F9341
:1025D00057016801E12CF12C00E010E00E94571037
:1025E0001F910F91FF90EF90DF90CF90BF90AF9031
:1025F00008956F927F928F929F92AF92BF92CF92E7
:10260000DF92EF92FF920F931F93CF93DF93EC0132
:102610006B014A0183E0782E5E0182E0A80EB11CB6
:1026200090E3692EF501862D11928A95E9F7F6015E
:1026300001900020E9F731977F01EC18FD08860131
:1026400027E034E040E3B501CE010E94E0128111A1
:102650000EC09C81992359F08D819E81AF81B885F0
:10266000F40180839183A283B38380E003C07A94D2
:102670007110D8CFDF91CF911F910F91FF90EF9004
:10268000DF90CF90BF90AF909F908F907F906F9092
:102690000895AF92BF92CF92DF92EF92FF920F9385
:1026A0001F93A12CB12CC12CD12CE12CF12C0E9418
:1026B00057101F910F91FF90EF90DF90CF90BF9038
:1026C000AF9008958F929F92AF92BF92DF92EF9258
:1026D000FF920F931F93CF93DF9300D0CDB7DEB758
:1026E0004C01D62EBA017C0182E0E80EF11CA70154
:1026F000C40129833A830E943F0D6EE571E0C70152
:102700000E94821DF70101900020E9F73197EE1930
:10271000FF093A813F9329812F9352EEA52E50E075
:10272000B52EBF92AF92FF273296E80DF91DFF93A9
:10273000EF930E94E71D6CE571E0C7010E94821DC6
:10274000F70101900020E9F73197EE19FF091F9377
:102750000F93BF92AF92FF273296E80DF91DFF93BA
:10276000EF930E94E71D0FB6F894DEBF0FBECDBFFA
:10277000F2E08701DF1203C029E431E004C0D11088
:102780000CC02DE331E048E0B701C4010E944913B9
:1027900081112EC0F40184810DC021E331E048E0B5
:1027A000B701C4010E944913811122C0F401848140
:1027B000DD24D3948F3FE9F0F401FA9620E030E075
:1027C00090819F3F71F4F9017D96EE0FFF1FE80D98
:1027D000F91D8083220F331F280D391DF901D3AE57
:1027E00008C02F5F3F4F32962730310549F701C0AF
:1027F0008FEF0F900F90DF91CF911F910F91FF906E
:10280000EF90DF90BF90AF909F908F9008950F93BF
:102810001F93E0913801F09139013196E13078E071
:10282000F70710F0E0E0F4E0F0933901E0933801AD
:1028300000913801109139010E9462131F910F918C
:102840000895AF92BF92CF92DF92EF92FF920F93D3
:102850001F93A12CB12CC12CD12CE12CF12C00E028
:1028600010E00E9457101F910F91FF90EF90DF90A2
:10287000CF90BF90AF900895AF92BF92CF92DF926A
:10288000EF92FF920F931F93A12CB12CC12CD12C4E
:1028900079018A019B0140E060E070E00E945710DE
:1028A0001F910F91FF90EF90DF90CF90BF90AF906E
:1028B00008955F926F927F928F929F92AF92BF9294
:1028C000CF92DF92EF92FF920F931F93CF93DF93FC
:1028D0007C01762E6A015901CA010E948D1D682E65
:1028E000592EE70122961F927F9282EE882E80E079
:1028F000982E9F928F92DF93CF930E94E71D69E0FD
:1029000071E0CE010E94821DFE0101900020E9F7D6
:102910003197EC1BFD0B5F926F929F928F92FF2776
:102920003296EE0DFF1DFF93EF930E94E71D8DB7CA
:102930009EB70C960FB6F8949EBF0FBE8DBFA11424
:10294000B10409F463C0672DC7010E94080D8130EE
:1029500009F05CC067E071E0CE010E94821DFE01BB
:1029600001900020E9F73197AF014C1B5D0B552713
:102970004E5F5F4F4E0D5F1DB501C7010E943F0DB9
:102980000115110509F448C0672DC7010E94080D03
:10299000813009F041C062E071E0CE010E94821DE9
:1029A000FE0101900020E9F73197EC1BFD0B1F930E
:1029B0000F9382EE90E09F938F93FF273296EE0D58
:1029C000FF1DFF93EF930E94E71D0F900F900F9054
:1029D0000F900F900F906DEF70E0CE010E94821D5E
:1029E0009601AE0161EF70E0C701DF91CF911F91B9
:1029F0000F91FF90EF90DF90CF90BF90AF909F909E
:102A00008F907F906F905F900C943C1464E071E025
:102A1000CE010E94821DB4CF6FEF70E0CE010E9404
:102A2000821DD9CFAF92BF92CF92DF92EF92FF92E9
:102A30000F931F9358016901E12CF12C8A019B012E
:102A400040E060E070E00E9457101F910F91FF90EE
:102A5000EF90DF90CF90BF90AF9008955F926F920C
:102A60007F928F929F92AF92BF92CF92DF92EF921E
:102A7000FF920F931F93CF93DF936C01762E4A0141
:102A8000522E632EEC0122961F926F9382EEA82E97
:102A900080E0B82EBF92AF92DF93CF930E94E71DE4
:102AA00063E271E0CE010E94821DFE0101900020D0
:102AB000E9F73197EC1BFD0B6F925F92BF92AF92DB
:102AC000FF273296EC0DFD1DFF93EF930E94E71D4B
:102AD0008DB79EB70C960FB6F8949EBF0FBE8DBFF4
:102AE0000115110539F0672DC6010E94080D8130CE
:102AF00009F44EC06EE171E0CE010E94821DE11426
:102B0000F10409F45CC0672DC6010E94080D8130F4
:102B100009F055C06CE171E0CE010E94821DFE01FA
:102B200001900020E9F73197EC1BFD0BFF92EF922B
:102B300082EE90E09F938F93FF273296EC0DFD1D60
:102B4000FF93EF930E94E71D0F900F900F900F904F
:102B50000F900F9067E171E0CE010E94821D052D5C
:102B6000162D9401AE016BE071E0C6010E941215B2
:102B7000DF91CF911F910F91FF90EF90DF90CF9059
:102B8000BF90AF909F908F907F906F905F900895CF
:102B900061E271E0CE010E94821DFE0101900020E1
:102BA000E9F73197AF014C1B5D0B55274E5F5F4F27
:102BB0004C0D5D1DB801C6010E943F0DA0CF69E11B
:102BC00071E0CE010E94821DC5CFEF92FF920F935C
:102BD0001F93FA0101900020E9F73197E41BF50BF0
:102BE000780189019F010E942E151F910F91FF907E
:102BF000EF900895AF92BF92CF92DF92EF92FF9243
:102C00000F931F939B01A12CB12CC12CD12CE12C33
:102C1000F12C8A0140E060E070E00E9457101F91A3
:102C20000F91FF90EF90DF90CF90BF90AF900895FD
:102C30006F927F928F929F92AF92BF92CF92DF92CC
:102C4000EF92FF920F931F93CF93DF931F92CDB715
:102C5000DEB73C015A01490169830E94D30DF3019B
:102C600016AA17AA10AE11AE6301F2E0CF0ED11C66
:102C700080E3F60111928A95E9F76981623051F497
:102C800026EB31E040E3B601C3010E94211481111B
:102C900091C00BC0662399F022EA31E040E3B6010F
:102CA000C3010E942114811187C0F301428553851D
:102CB0006485758546AB57AB60AF71AF7EC081143C
:102CC000910459F0A601B401C3010E943F0DA60171
:102CD00060E971E0C3010E94FA15A114B10481F00A
:102CE000A601B501C3010E943F0DF50180819181CC
:102CF000A281B381F30186AB97ABA0AFB1AF0DC09A
:102D000064E871E0C6010E94821D80ECF30186AB8D
:102D100088EA87AB10AE81E081AFE114F104B9F02D
:102D200062E871E0C6010E94821DF6010190002058
:102D3000E9F73197AF014C195D0955274E5F5F4F99
:102D4000460D571DB701C3010E943F0D05C063E743
:102D500071E0C6010E94821D01151105B1F061E705
:102D600071E0C6010E94821DF60101900020E9F782
:102D70003197AF014C195D0955274E5F5F4F460DE6
:102D8000571DB801C3010E943F0DA60160E671E026
:102D9000C3010F90DF91CF911F910F91FF90EF90A2
:102DA000DF90CF90BF90AF909F908F907F906F906B
:102DB0000C94FA1582E001C081E00F90DF91CF9171
:102DC0001F910F91FF90EF90DF90CF90BF90AF9049
:102DD0009F908F907F906F900895EF92FF920F9346
:102DE0001F93E12CF12C00E010E020E030E040E007
:102DF00050E061E00E9418161F910F91FF90EF9034
:102E00000895AF92BF92CF92DF92EF92FF920F930D
:102E10001F939B01A12CB12CC12CD12CE12CF12CA6
:102E200000E010E040E060E070E00E9457101F9169
:102E30000F91FF90EF90DF90CF90BF90AF900895EB
:102E4000CF93DF93EC0166EF73E00E94011768EE09
:102E500073E0CE01DF91CF910C940117AF92BF9236
:102E6000CF92DF92EF920F931F93CF93DF93EC01FA
:102E70006B015A011E2D213049F018F0223091F0DB
:102E800020C06AEC73E00E9401171BC0452B29F09B
:102E90006EEA73E00E940117BFC066E973E00E940A
:102EA0000117B6C0402F50E0A114B10429F06BE720
:102EB00073E00E944212B0C064E673E00E944212C6
:102EC000A7C0153038F4412F50E063E573E0CE0120
:102ED0000E944212A114B10431F0A50167E473E02D
:102EE000CE010E94FA15E8818E2F90E08531910580
:102EF00008F096C0FC01EC5CFF4F0C94191C22E416
:102F000033E0A60165E373E077C020E333E0A60178
:102F100063E273E071C02EE133E0A60161E173E08A
:102F20006BC02CE033E0A6016FEF72E065C02AEFC2
:102F300032E0A6016DEE72E05FC028EE32E0A6013D
:102F40006BED72E059C026ED32E0A60169EC72E04B
:102F500053C024EC32E0A60167EB72E04DC022EBD7
:102F600032E0A60165EA72E047C020EA32E0A6013D
:102F700063E972E041C02EE832E0A60161E872E048
:102F80003BC02CE732E0A6016FE672E035C02AE6CE
:102F900032E0A6016DE572E02FC028E532E0A6011F
:102FA0006BE472E029C026E432E0A60169E372E036
:102FB00023C024E332E0A60167E272E01DC022E2F2
:102FC00032E0A60165E172E017C020E132E0A6011F
:102FD00063E072E011C02DEF31E0A60160EF71E017
:102FE0000BC02AEE31E0A6016DED71E005C027EDC2
:102FF00031E0A6016AEC71E0CE01DF91CF911F9123
:103000000F91EF90DF90CF90BF90AF900C943C1455
:10301000153008F068CF57CF153008F05ECF53CF8A
:1030200080E0DF91CF911F910F91EF90DF90CF90D3
:10303000BF90AF900895EF920F93EE24EA9400E0D2
:103040000E942E170F91EF900895BF92CF92DF92BA
:10305000EF92FF920F931F93CF93DF93EC016A01DE
:103060007B01B22E61E083E00E94800C5B9A61E0FC
:1030700082E00E94800C5A9861E081E00E94800CFE
:1030800061E081E00E94BC0C60E080E00E94800C66
:1030900061E080E00E94BC0C1EAA1FAA18AE19AE07
:1030A000FE01329680E3DF011D928A95E9F7CAAAF4
:1030B000DBAAECAAFDAAB701A601CE010E941E0D53
:1030C000CE010E94B80D5A9865E0CE010E94690DAC
:1030D0005A9A6BE0CE010E94690D14E00FEF6CE18B
:1030E0008EE693E00E94C3080E94920B6B017C0164
:1030F0000E94920BDC01CB018C199D09AE09BF091E
:10310000883C9105A105B10508F58EE693E00E9483
:103110004408892B69F38EE693E00E945E088535AA
:1031200039F765E58EE693E00E94C3086AE0CE01B8
:103130000E94690D6EE68EE693E00E94C3086AE085
:103140008EE693E00E94C30811E00EEF115039F6AD
:1031500064E1CE010E94690D13E0CE010E94840D4E
:1031600060E374E0CE010E94011781110DC062E29C
:1031700074E0CE010E94011766E174E0CE010E9466
:103180000117B88200E009C06AE0CE010E94690D13
:10319000115019F7CE010E94C90D802FDF91CF91F8
:1031A0001F910F91FF90EF90DF90CF90BF90089507
:1031B00022E040E855E260E070E00C942518CF92E0
:1031C000DF92EF92FF920F931F93CF93DF937C01D7
:1031D0006A018B01C0E0D0E0CC15DD0589F0D70194
:1031E000ED91FC91068CF78DE02DC70109958F3F7D
:1031F000BFEF9B0729F0F80181938F012196ECCF57
:10320000CE01DF91CF911F910F91FF90EF90DF9052
:10321000CF9008950F931F93CF93DF93EC01E88134
:10322000F981048CF58DE02D09958C0101151105AE
:1032300051F0E881F981068CF78DE02DCE010995DA
:1032400001501109F3CFDF91CF911F910F91089594
:103250000F931F93CF93DF938C01DC01ED91FC91D1
:1032600006A0F7A1E02D0995EC01892B61F0D801AA
:10327000ED91FC9106A0F7A1E02D62E474E0C80195
:103280000995C80FD91FCE01DF91CF911F910F91E2
:10329000089521E0FC0184818F3F09F420E0822F12
:1032A00008950F931F93CF93DF9300D01F92CDB754
:1032B000DEB7FC0184818B831A8219828F3F71F003
:1032C00000E010E020E030E0AE014F5F5F4FBE0154
:1032D0006D5F7F4F85E294E00E94421089819A8160
:1032E0000F900F900F90DF91CF911F910F91089544
:1032F000EF92FF920F931F93CF93DF9300D000D0F4
:10330000CDB7DEB7FC0124812B832F3FB9F07C01C0
:1033100001E010E09E012C5F3F4FAE014F5F5F4F19
:10332000BE016D5F7F4F85E294E00E9442100097DE
:1033300029F0019631F48FEFF70184838FEF9FEF2F
:1033400002C08C8190E00F900F900F900F90DF9152
:10335000CF911F910F91FF90EF9008951F93CF93FE
:10336000DF93FC0164816F3FB1F0EC0185E294E0F2
:103370000E94F50F182F882319F08FEF8C830BC054
:103380008E858A3050F06C8185E294E00E944E1266
:103390008FEF8C8303C010E001C011E0812FDF911B
:1033A000CF911F910895CF93DF93FC0124812F3F8C
:1033B00081F0EC010190F081E02D02A0F3A1E02D5D
:1033C00009956C8185E294E00E944E128FEF8C8308
:1033D0001E86DF91CF910895CF92DF92EF92FF92F8
:1033E0000F931F93CF93DF931F92CDB7DEB76983FF
:1033F000FC0164816F3F01F16C01FC01E184F28406
:103400008C010B5F1F4F21E030E0AE014F5F5F4F3B
:1034100085E294E00E942E15F601882381F08685CE
:103420008F5F86878A3040F0648185E294E00E9455
:103430004E128FEFF601848380E090E003C0168681
:1034400081E090E00F90DF91CF911F910F91FF905D
:10345000EF90DF90CF900895CF92DF92EF92FF929E
:103460000F931F93CF93DF93DC011496EC91EF3F02
:10347000F1F0C52ED42EAB01EC01E984FA848C0165
:103480000B5F1F4F2D2D3C2D6E2F85E294E00E9487
:103490002E15882379F08E858F5F8E878A3038F0DD
:1034A0006C8185E294E00E944E128FEF8C8380E065
:1034B00090E003C01E868D2D9C2DDF91CF911F9132
:1034C0000F91FF90EF90DF90CF900895EF92FF92D1
:1034D0000F931F93CF93DF93EC019C819F3FD1F01B
:1034E0007B0109851A859E012B5F3F4FAB01692F38
:1034F00085E294E00E94E515882379F08E858F5F40
:103500008E878A3038F06C8185E294E00E944E12FA
:103510008FEF8C8380E090E009C01E86F701019058
:103520000020E9F73197CF018E199F09DF91CF91E4
:103530001F910F91FF90EF900895EF92FF920F93DC
:103540001F93CF93DF937B01FC0164816F3F21F1D7
:10355000EC01018512859C012B5F3F4FA70185E29D
:1035600094E00E945914882369F08E858F5F8E87BE
:103570008A3090F06C8185E294E00E944E128FEFC9
:103580008C830AC01E86C701DF91CF911F910F91D6
:10359000FF90EF900C948D1D80E090E0DF91CF9133
:1035A0001F910F91FF90EF900895FC01DB011382B2
:1035B000128280E393E0918380838C9185831196BE
:1035C0008C911197868312968C911297878313960C
:1035D0008C918087528741878FEF8483089520E301
:1035E00033E0FC01318320830C94D319FF920F93B5
:1035F0001F93CF93DF93FC0124812F3F19F080E0CC
:1036000090E01BC0F62EEC010385148521853285E0
:10361000AC014B5F5F4F85E294E00115110519F095
:103620000E94621302C00E9407148C838C818F3F1A
:1036300031F3FD861E8681E090E0DF91CF911F91EE
:103640000F91FF90089560E00C94F61A61E00C94DD
:10365000F61A60E00C94F61A61E00C94F61AFC017C
:10366000DB018C91858311968C911197868312963C
:103670008C911297878313968C918087528741870C
:1036800060E0CF010C94F61AFC01DB018C9185837C
:1036900011968C911197868312968C91129787833D
:1036A00013968C9180875287418761E0CF010C94FB
:1036B000F61AFC01DB018C91858311968C91119790
:1036C000868312968C911297878313968C918087AC
:1036D000528741873487238760E0CF010C94F61A24
:1036E000FC01DB018C91858311968C911197868367
:1036F00012968C911297878313968C9180875287AC
:1037000041873487238761E0CF010C94F61A0F9329
:103710001F93CF93DF93EC018A01AC014B5F5F4FA6
:1037200085E294E00E94F91281110AC01A87098784
:1037300060E0CE01DF91CF911F910F910C94F61AAA
:1037400080E090E0DF91CF911F910F9108950F934A
:103750001F93CF93DF93EC018A01AC014B5F5F4F66
:1037600085E294E00E94F91281110AC01A87098744
:1037700061E0CE01DF91CF911F910F910C94F61A69
:1037800080E090E0DF91CF911F910F91089508950F
:10379000DB018F939F930E941F1CBF91AF91A29F4B
:1037A000800D911DA39F900DB29F900D112408953F
:1037B000A1E21A2EAA1BBB1BFD010DC0AA1FBB1F35
:1037C000EE1FFF1FA217B307E407F50720F0A21BA7
:1037D000B30BE40BF50B661F771F881F991F1A9414
:1037E00069F760957095809590959B01AC01BD013E
:1037F000CF010895052E97FB1EF400940E94111C22
:1038000057FD07D00E94D81B07FC03D04EF40C9440
:10381000111C50954095309521953F4F4F4F5F4F6C
:10382000089590958095709561957F4F8F4F9F4F2C
:103830000895EE0FFF1F0590F491E02D09940E946A
:103840002A1CA59F900DB49F900DA49F800D911DE3
:1038500011240895A29FB001B39FC001A39F700DD2
:10386000811D1124911DB29F700D811D1124911D88
:1038700008950F931F93CF93DF93869F8001879FB7
:10388000100D969F100D1124C8010E94551CEC01CB
:10389000009729F0A80160E070E00E94961DCE011B
:1038A000DF91CF911F910F910895CF93DF938230D5
:1038B000910510F482E090E0E0916F04F0917004C3
:1038C00020E030E0C0E0D0E0309711F1408151813C
:1038D00048175907C0F04817590761F4828193814E
:1038E000209719F09B838A832BC090937004809358
:1038F0006F0426C02115310519F04217530718F43B
:103900009A01BE01DF01EF010280F381E02DDCCFDF
:103910002115310509F1281B390B2430310590F4AC
:1039200012968D919C9113976115710521F0FB0101
:103930009383828304C09093700480936F04FD018D
:10394000329644C0FD01E20FF31F81939193225000
:1039500031092D933C933AC020916D0430916E044F
:10396000232B41F4209102013091030130936E0426
:1039700020936D0420910001309101012115310542
:1039800041F42DB73EB74091040150910501241B2D
:10399000350BE0916D04F0916E04E217F307A0F48B
:1039A0002E1B3F0B2817390778F0AC014E5F5F4F95
:1039B0002417350748F04E0F5F1F50936E04409355
:1039C0006D048193919302C0E0E0F0E0CF01DF91BC
:1039D000CF9108950F931F93CF93DF93009709F42E
:1039E0008CC0FC0132971382128200916F041091F7
:1039F00070040115110581F420813181820F931F1C
:103A000020916D0430916E042817390779F5F093F1
:103A10006E04E0936D0471C0D80140E050E0AE1731
:103A2000BF0750F412962D913C911397AD012115CB
:103A3000310509F1D901F3CF9D01DA0133832283E6
:103A400060817181860F971F8217930769F4EC01DB
:103A500028813981260F371F2E5F3F4F3183208306
:103A60008A819B8193838283452B29F4F093700490
:103A7000E0936F0442C01396FC93EE931297ED010E
:103A8000499159919E01240F351FE217F30771F4F4
:103A900080819181840F951F029611969C938E933D
:103AA0008281938113969C938E931297E0E0F0E0CD
:103AB000D80112968D919C911397009719F0F801F7
:103AC0008C01F6CF8D919C9198012E5F3F4F820F14
:103AD000931F20916D0430916E042817390769F403
:103AE000309729F41092700410926F0402C0138270
:103AF000128210936E0400936D04DF91CF911F9199
:103B00000F910895FB01DC010D900020E9F711975A
:103B100005900D920020E1F70895FC01059000202A
:103B2000E9F7809590958E0F9F1F0895DC0101C0E5
:103B30006D9341505040E0F70895FB01DC010D907A
:103B40000020E9F7119701900D920020E1F7089508
:103B5000FB0151915523A9F0BF01DC014D9145179F
:103B60004111E1F759F4CD010190002049F04D9148
:103B700040154111C9F3FB014111EFCF81E090E005
:103B800001970895BB274A3031F4992322F4BDE20E
:103B9000909581959F4F0C94CE1DBB27FB01552717
:103BA000AA27880F991FAA1FA41710F0A41B83959A
:103BB0005051B9F7A05DAA3308F0A95DA193009711
:103BC00079F7B111B1931192CB010C94F21FAEE0D1
:103BD000B0E0EDEEFDE10C94A6200D891E898EE08B
:103BE0008C831A8309838FEF9FE79E838D83AE01B9
:103BF000475E5F4F6F89788DCE0101960E940A1E45
:103C00002F813885F801E20FF31F10822E96E4E031
:103C10000C94C220ACE0B0E0E0E1FEE10C9498200E
:103C20007C016B018A01FC0117821682838181FF6E
:103C3000BDC1CE0101964C01F7019381F60193FDC0
:103C4000859193FF81916F01882309F4ABC185327F
:103C500039F493FD859193FF81916F01853229F4A9
:103C6000B70190E00E940220E7CF512C312C20E0D8
:103C70002032A0F48B3269F030F4803259F0833274
:103C800069F420612CC08D3239F0803339F4216021
:103C900026C02260246023C0286021C027FD27C0E1
:103CA00030ED380F3A3078F426FF06C0FAE05F9E18
:103CB000300D1124532E13C08AE0389E300D11248C
:103CC000332E20620CC08E3221F426FD6BC120649D
:103CD00006C08C3611F4206802C0883641F4F60123
:103CE00093FD859193FF81916F018111C1CF982F31
:103CF0009F7D9554933028F40C5F1F4FFFE3F983A9
:103D00000DC0833631F0833771F0833509F05BC025
:103D100022C0F801808189830E5F1F4F44244394A1
:103D2000512C540115C03801F2E06F0E711CF801DE
:103D3000A080B18026FF03C0652D70E002C06FEF48
:103D40007FEFC5012C870E94E71F2C0183012C8582
:103D50002F77222E17C03801F2E06F0E711CF80188
:103D6000A080B18026FF03C0652D70E002C06FEF18
:103D70007FEFC5012C870E94DC1F2C012C85206859
:103D8000222E830123FC1BC0832D90E04816590688
:103D9000B0F4B70180E290E00E9402203A94F4CFA0
:103DA000F50127FC859127FE81915F01B70190E025
:103DB0000E94022031103A94F1E04F1A5108411448
:103DC000510471F7E5C0843611F0893639F5F801F0
:103DD00027FF07C060817181828193810C5F1F4F33
:103DE00008C060817181072E000C880B990B0E5F53
:103DF0001F4F2F76722E97FF09C090958095709572
:103E000061957F4F8F4F9F4F2068722E2AE030E0E0
:103E1000A4010E943A20A82EA81844C0853729F48E
:103E20002F7EB22E2AE030E025C0F22FF97FBF2E80
:103E30008F36C1F018F4883579F0B4C0803719F0A6
:103E4000883721F0AFC02F2F2061B22EB4FE0DC0F5
:103E50008B2D8460B82E09C024FF0AC09F2F966066
:103E6000B92E06C028E030E005C020E130E002C0F5
:103E700020E132E0F801B7FE07C0608171818281E4
:103E800093810C5F1F4F06C06081718180E090E0DC
:103E90000E5F1F4FA4010E943A20A82EA818FB2DE8
:103EA000FF777F2E76FE0BC0372D3E7FA51450F492
:103EB00074FE0AC072FC08C0372D3E7E05C0BA2CC5
:103EC000372D03C0BA2C01C0B52C34FF0DC0FE0144
:103ED000EA0DF11D8081803311F4397E09C032FF73
:103EE00006C0B394B39404C0832F867809F0B394CA
:103EF00033FD13C030FF06C05A2CB31418F4530C12
:103F00005B18B32CB31468F4B70180E290E03C87EF
:103F10000E940220B3943C85F5CFB31410F43B18F3
:103F200001C0312C34FF12C0B70180E390E03C8720
:103F30000E9402203C8532FF17C031FD03C088E794
:103F400090E002C088E590E0B7010CC0832F86782E
:103F500059F031FF02C08BE201C080E237FD8DE2F3
:103F6000B70190E00E940220A51438F4B70180E365
:103F700090E00E9402205A94F7CFAA94F401EA0D2F
:103F8000F11D8081B70190E00E940220A110F5CFC1
:103F9000332009F451CEB70180E290E00E94022064
:103FA0003A94F6CFF7018681978102C08FEF9FEF99
:103FB0002C96E2E10C94B420FC0105906150704015
:103FC0000110D8F7809590958E0F9F1F0895FC01E2
:103FD0006150704001900110D8F7809590958E0F38
:103FE0009F1F0895DC01FC01672F71917723E1F792
:103FF000329704C07C916D9370836291AE17BF07B6
:10400000C8F308950F931F93CF93DF93FB01238190
:1040100021FD03C08FEF9FEF28C022FF16C046810D
:104020005781248135814217530744F4A081B1811F
:104030009D012F5F3F4F318320838C9326813781F1
:104040002F5F3F4F3783268310C0EB01092F182FB6
:104050000084F185E02D0995892BE1F68E819F8101
:1040600001969F838E83812F902FDF91CF911F9197
:104070000F910895FA01AA27283051F1203181F1DA
:10408000E8946F936E7F6E5F7F4F8F4F9F4FAF4F60
:10409000B1E03ED0B4E03CD0670F781F891F9A1F73
:1040A000A11D680F791F8A1F911DA11D6A0F711D27
:1040B000811D911DA11D20D009F468943F912AE033
:1040C000269F11243019305D3193DEF6CF0108951B
:1040D000462F4770405D4193B3E00FD0C9F7F6CF4C
:1040E000462F4F70405D4A3318F0495D31FD405214
:1040F000419302D0A9F7EACFB4E0A69597958795AA
:1041000077956795BA95C9F7009761057105089588
:104110009B01AC010A2E0694579547953795279534
:10412000BA95C9F7620F731F841F951FA01D0895CC
:104130002F923F924F925F926F927F928F929F92B7
:10414000AF92BF92CF92DF92EF92FF920F931F93A5
:10415000CF93DF93CDB7DEB7CA1BDB0B0FB6F89456
:10416000DEBF0FBECDBF09942A88398848885F8496
:104170006E847D848C849B84AA84B984C884DF8007
:10418000EE80FD800C811B81AA81B981CE0FD11DEB
:104190000FB6F894DEBF0FBECDBFED010895F894C1
:0241A000FFCF4F
:1041A20000007104800001000000A50236016801D0
:1041B2009001BA01E10180EE3600C0D40100A0BB3B
:1041C2000D00C0D4010040771B00C0D40100E803F9
:1041D20000000B000D0001FF000443757272656E52
:1041E20074204D656D6F7279003136303436343457
:1041F20034363234363830333600574C414E2D4B3C
:104202006162656C005769466920536869656C6430
:1042120020636F6E6E6563746564006661696C75B8
:10422200726500436F6E6E656374696F6E3A2063E8
:104232006C6F73650D0A0D0A0074656D70526574BA
:1042420075726E56616C7565007375636365737321
:1042520000696E697469617400726573657465647E
:1042620000474554202F76616C75656765742E7022
:10427200687000474554202F63616C6C5F696E69FA
:1042820074696174696F6E2E7068700047455420BE
:104292002F7761746572696E672E706870003F6E69
:1042A200616D653D0042616E616E650026747970D4
:1042B200653D0050726F7A656E74666575636874E9
:1042C20065002676616C75653D00266B65793D63F8
:1042D2003337383136333366316662316464636151
:1042E200373763393033386434393934333435004D
:1042F20020485454502F312E310D0A486F73743AAE
:1043020020003139322E3136382E3137382E3234C0
:1043120000757267656E746C7920647279007665D7
:104322007279206D6F69737400736572766572209D
:10433200756E617661696C61626C6500696E697443
:104342006961746500726573657400637572726584
:104352006E7450657263656E744D6F6973747572B5
:1043620065006C6173744D6F697374757265526523
:1043720073756C7450657263656E746167655661BE
:104382006C75650070657263656E744D6F697374E8
:1043920075726556616C7565546F53656E64546FC2
:1043A20057656273657276657254656D70000000C0
:1043B2000000C308FE0944085E085008A1086E61A7
:1043C2006E00696E66006F7666002E0000000000C7
:1043D200EC192C1A231B261B291B2C1B2F1B441BDD
:1043E200591B701B871BA71BAE19D31951197819BA
:0C43F200DF180A19661A9D1A28194919CB
:00000001FF
