:100000000C942D020C9455020C9455020C9455023C
:100010000C9455020C9455020C9455020C94550204
:100020000C9455020C9455020C9455020C945502F4
:100030000C9455020C9455020C9455020C945502E4
:100040000C94FA080C9455020C94D2070C940408F2
:100050000C9455020C9455020C9455020C945502C4
:100060000C9455020C94550215151B1521152715D6
:100070002D15331539153F1545154B1551155715C8
:100080005D15631569156F1575157B158115871538
:100090008D150000000800020100000304070000A5
:1000A000000000000000010204081020408001024E
:1000B00004081020010204081020040404040404AD
:1000C000040402020202020203030303030300000A
:1000D0000000250028002B0000000000240027005D
:1000E0002A0025750025692E25692E25692E25698A
:1000F0000041542B5253495F534E443D002C002C79
:1001000030002C002C30002C002C0041542B52537A
:10011000495F534E443D002C002C30002C002C3005
:10012000002C002C0041542B5253495F434C533D4B
:100130000041542B5253495F5544503D0041542BCC
:100140005253495F5443503D0041542B5253495F31
:10015000204D554C5449434153543D002C002C0034
:1001600041542B5253495F4950434F4E463D302C2A
:10017000002C002C3235352E3235352E3235352EC9
:1001800030002C003139322E3136382E302E3100ED
:1001900041542B5253495F444E5353455256455296
:1001A0003D0041542B5253495F4950434F4E463D09
:1001B000312C302C300041542B5253495F4950436D
:1001C0004F4E463D322C302C300041542B52534977
:1001D0005F4449534153534F430041542B525349B9
:1001E0005F4A4F494E3D002C31322C320041542B96
:1001F0005253495F4A4F494E3D002C31322C310059
:1002000041542B5253495F4A4F494E3D002C3132E5
:100210002C300041542B5253495F4A4F494E3D0008
:100220002C392C320041542B5253495F4A4F494ECE
:100230003D002C392C310041542B5253495F4A4F19
:10024000494E3D002C392C300041542B5253495F0C
:100250004A4F494E3D002C372C320041542B52530B
:10026000495F4A4F494E3D002C372C310041542BF9
:100270005253495F4A4F494E3D002C372C300041C4
:10028000542B5253495F4A4F494E3D002C342C3277
:100290000041542B5253495F4A4F494E3D002C3484
:1002A0002C310041542B5253495F4A4F494E3D0077
:1002B0002C342C300041542B5253495F4A4F494E45
:1002C0003D002C322C320041542B5253495F4A4F8F
:1002D000494E3D002C322C310041542B5253495F82
:1002E0004A4F494E3D002C322C300041542B525382
:1002F000495F4A4F494E3D002C312C320041542B6E
:100300005253495F4A4F494E3D002C312C31004138
:10031000542B5253495F4A4F494E3D002C312C30EB
:100320000041542B5253495F4A4F494E3D002C30F7
:100330002C320041542B5253495F4A4F494E3D00E5
:100340002C302C310041542B5253495F4A4F494EB7
:100350003D002C302C300041542B5253495F5053F8
:100360004B3D0041542B5253495F415554484D4F2A
:1003700044453D0041542B5253495F4E4554574F1D
:10038000524B3D494253532C312C0041542B525374
:10039000495F4E4554574F524B3D494253535F536B
:1003A00045432C312C0041542B5253495F4E455448
:1003B000574F524B3D494253532C302C300041543F
:1003C0002B5253495F4E4554574F524B3D49425370
:1003D000535F5345432C302C300041542B5253492A
:1003E0005F4E4554574F524B3D494E465241535430
:1003F000525543545552450041542B5253495F5373
:1004000043414E3D300041542B5253495F4E554DB0
:100410005343414E3D300041542B5253495F444EAB
:10042000534745543D0041542B5253495F494E496F
:10043000540041542B5253495F42414E443D3000D9
:1004400041542B5253495F465756455253494F4EDC
:100450003F000D0A00008706340811241FBECFEFAD
:10046000D8E0DEBFCDBF12E0A0E0B1E0EEEEFCE3ED
:1004700002C005900D92AE3AB107D9F723E0AEEA7B
:10048000B2E001C01D92A93BB207E1F712E0CDE254
:10049000D2E004C02197FE010E94BF19CB32D107E0
:1004A000C9F70E9478060C94751E0C9400000895FC
:1004B000CF93DF93EC018DE693E00E945F0BBE01CA
:1004C00086EB92E00E94A7088DE693E0DF91CF9142
:1004D0000C944E0B1F93CF93DF938DE693E00E9415
:1004E0007E16182FC3E3D0E0112369F0219709F499
:1004F00049C08DE693E00E947E16182F86E291E0B7
:100500000E945802F1CF8DE693E00E94B61420E0DD
:1005100048E351E069E471E08DE693E00E94B11593
:10052000182FC3E3D0E0112389F0219759F120E07F
:1005300048E351E069E471E08DE693E00E94B11573
:10054000182F84E591E00E945802EDCF8DE693E0EC
:100550000E948314182FC3E3D0E0112361F0219788
:1005600089F08DE693E00E948314182F86E691E0CF
:100570000E945802F2CF89E791E0DF91CF911F915D
:100580000C945802DF91CF911F9108954F925F9282
:100590006F927F928F929F92AF92BF92CF92DF9293
:1005A000EF92FF920F931F93CF93DF93CDB7DEB7F8
:1005B000C154D1400FB6F894DEBF0FBECDBF7C0151
:1005C0000E9444092B013C018FE891E00E945802EF
:1005D000C301B201812C912C00E010E09E012F5F3D
:1005E0003F4F690125E1A22EDC01CB018419950959
:1005F000A609B709813C944DA140B10508F04EC051
:100600008114910409F04AC0C7010E94F716892B92
:1006100091F0C7010E941E178F3F3FEF930759F0DB
:100620000B3221E01207A8F7F601E00FF11F8083DB
:100630000F5F1F4FEECF0115110529F0C7010E9472
:100640005417882319F00E944409CECFC7010E9495
:1006500079178DE693E00E94BB15F601E00FF11FBC
:100660001082EDEAF1E0DE01A35DBE4F8A2D01901C
:100670000D928A95E1F7BE01635D7E4FC6010E942F
:100680004E1B8C199D09B92EB094BB1CBB24BB1CFE
:1006900082E0882E912C00E010E0D5CF8DE991E02A
:1006A0000E945802C7010E94B0168B2DCF5BDE4F0F
:1006B0000FB6F894DEBF0FBECDBFDF91CF911F9173
:1006C0000F91FF90EF90DF90CF90BF90AF909F90F1
:1006D0008F907F906F905F904F900895CF92DF92B0
:1006E000EF92FF920F931F93CF93DF936B017C01E7
:1006F00061E070E085E090E00E94DF198C014AE043
:10070000BC01C6010E94681BF80101900020E9F7B6
:10071000CF01801B910B61E070E08F579F4F0E94CB
:10072000DF19EC0162EC71E00E94431B65ED71E0A2
:10073000CE010E94431B6CED71E0CE010E94431B71
:1007400063EE71E0CE010E94431B6AEE71E0CE01C0
:100750000E94431B69EF71E0CE010E94431BB80168
:10076000CE010E94431B61E072E0CE010E94431B58
:1007700067E272E0CE010E94431B69E372E0CE01A2
:100780000E94431B68E472E0CE010E94431BCE012D
:10079000DF91CF911F910F91FF90EF90DF90CF905D
:1007A0000895CF92DF92EF92FF920F931F93CF9312
:1007B000DF93CDB7DEB72F970FB6F894DEBF0FBE2D
:1007C000CDBF8A0169010E946E037C0140E550E0C3
:1007D000B601C8010E94D518892B69F1B701C8017B
:1007E0000E94A108F801828193819C838B8382E817
:1007F00092E09A83898384818D8385819681A78104
:10080000B0858E839F83A887B987818592859B87D2
:100810008A87838594859D878C8785858E87868545
:100820008F87CE0101960E94C602182FCE01019635
:100830000E94951807C08DE492E00E9458020E9421
:100840006A0210E0C7010E94901A812F2F960FB6FE
:10085000F894DEBF0FBECDBFDF91CF911F910F91F6
:10086000FF90EF90DF90CF9008958F929F92AF927C
:10087000BF92CF92DF92EF92FF921F93CF93DF93BD
:10088000CDB7DEB7A2970FB6F894DEBF0FBECDBFCF
:100890004B015C0180EC8F8F88EA88A382EB89A3EF
:1008A00088E18AA340E550E0BE01615E7F4FCE0142
:1008B00040960E947B18EE24E394F12C92E8C92E16
:1008C00092E0D92E8FEFE81AF80A8A899B899C83D7
:1008D0008B83DA82C9828C898D838D899E89AF89C9
:1008E000B88D8E839F83A887B987898D9A8D9B87C2
:1008F0008A878B8D9C8D9D878C878D8D8E878E8D25
:100900008F879E01215E3F4FAE014F5F5F4FC50154
:10091000B4010E94D103811105C011E085E0E81601
:10092000F1040CF010E0CE0101960E94951811110F
:10093000C9CFCE0140960E949518A2960FB6F894A2
:10094000DEBF0FBECDBFDF91CF911F91FF90EF9023
:10095000DF90CF90BF90AF909F908F90089526E04A
:1009600040E855E260E070E086EB92E00E946D079F
:1009700061E087E00E94320A61E085E00E94320A6D
:1009800061E08DE00E94320A61E08BE00E94320A51
:1009900061E087E00E946E0A60E971E080E090E02B
:1009A0000E94750960E087E00E946E0A0C946A025A
:1009B000CF92DF92EF92FF920E944409C090B20260
:1009C000D090B302E090B402F090B502DC01CB010C
:1009D0008C199D09AE09BF0921E0C0901A01D09081
:1009E0001B01E0901C01F0901D018C159D05AE05CA
:1009F000BF0508F420E0822FFF90EF90DF90CF90AA
:100A0000089540910C0150910D01FA01EE0FFF1F66
:100A1000E05FFE4F20813181281739074CF080912B
:100A20000A0190910B019093AF028093AE0208955A
:100A300020910E0130910F01F901EE0FFF1FE05FD1
:100A4000FE4F60817181681779072CF05093AF02D7
:100A50004093AE0208953093AF022093AE02089502
:100A60006F927F92AF92BF92CF92DF92EF92FF92FE
:100A70000F931F932091100130911101609012018A
:100A800070901301A0911401B0911501E09116012D
:100A9000F0911701409118015091190182179307A5
:100AA00034F08C01481759071CF48A0101C08901F0
:100AB000B801012E000C880B990B601671068CF0A2
:100AC0007301770C000B110B032E000C440B550B1C
:100AD0001F921F921F92E4E1EF93A12CB12C6501AC
:100AE00047C0A017B107B4F07D01BB0F000B110B7D
:100AF00093012F5F3F4F032E000C440B550B1F92A9
:100B00001F921F92E8E2EF93A5E1AA2EB12CC12C0F
:100B1000D12C2EC0E017F107B4F07F01FF0F000BBE
:100B2000110B9D012F5F3F4F032E000C440B550B03
:100B30001F921F921F92E0E5EF93F9E2AF2EB12CC6
:100B4000C12CD12C15C07A01550F000B110B9F0140
:100B50002F5F3F4F032E000C440B550B1F921F922B
:100B60001F92E4E6EF93E1E5AE2EB12CC12CD12C1F
:100B70000E94B9080F900F900F900F901F910F9146
:100B8000FF90EF90DF90CF90BF90AF907F906F90ED
:100B90000895CF92DF92EF92FF9261E08DE00E9484
:100BA0006E0A61E085E00E946E0A0E9444096B01B2
:100BB0007C01DC01CB018C199D09AE09BF09409174
:100BC0001E0150911F016091200170912101841735
:100BD0009507A607B70718F40E944409EACF84E0F6
:100BE0000E94EC099093B1028093B00260E085E02E
:100BF0000E946E0A60E08DE00E946E0A8091B00251
:100C00009091B102FF90EF90DF90CF900C9401058E
:100C1000882361F00E9444096093B2027093B3028A
:100C20008093B4029093B5020C94C905089502977D
:100C300010F461E001C060E087E00C946E0ACF928E
:100C4000DF92EF92FF920E9444096B017C01DC016C
:100C5000CB018C199D09AE09BF0980319742A105CE
:100C6000B105A0F42091AE023091AF0280910E0147
:100C700090910F012817390749F061E08BE00E943D
:100C80006E0A0E94C9050E944409E1CF60E08BE032
:100C9000FF90EF90DF90CF900C946E0A892B11F4A7
:100CA0000C941F0660E08BE00C946E0A882329F0F8
:100CB000CB010E9430050C9435040895CF930E9417
:100CC000D804C82F0E9408068091AE029091AF020E
:100CD0000E9417068091AE029091AF020E944E06CC
:100CE0006091B0027091B1028C2FCF910C94560696
:100CF0000E94B1090E9457020E94AF04C5EDD6E0E0
:100D00000E945E062097E1F30E94D506F9CF8091FC
:100D10001A0190911B01A0911C01B0911D01B09589
:100D2000A095909581959F4FAF4FBF4F8093B20292
:100D30009093B302A093B402B093B50280910E01D8
:100D400090910F019093AF028093AE020895FC0141
:100D5000918D228D892F90E0805C9F4F821B91099D
:100D60008F7399270895FC01918D828D981731F02A
:100D7000828DE80FF11D858D90E008958FEF9FEF34
:100D80000895FC01918D828D981761F0828DDF01AD
:100D9000A80FB11D5D968C91928D9F5F9F73928F6E
:100DA00090E008958FEF9FEF08958AE298E0892BF5
:100DB00049F080E090E0892B29F00E942A088111F7
:100DC0000C9400000895FC01848DDF01A80FB11D73
:100DD000A35ABF4F2C91848D90E001968F73992771
:100DE000848FA689B7892C93A089B1898C9180645E
:100DF0008C93938D848D981306C00288F389E02D1F
:100E000080818F7D80830895CF93DF93EC01888D5F
:100E10008823C9F0EA89FB89808185FD05C0A889FE
:100E2000B9898C9186FD0FC00FB607FCF5CF808184
:100E300085FFF2CFA889B9898C9185FFEDCFCE01CE
:100E40000E94E306E7CFDF91CF910895EF92FF92E2
:100E50000F931F93CF93DF93EC0181E0888F9B8DDD
:100E60008C8D981305C0E889F989808185FD24C09F
:100E7000F62E0B8D10E00F5F1F4F0F731127E02E22
:100E80008C8DE8120CC00FB607FCFACFE889F989FF
:100E9000808185FFF5CFCE010E94E306F1CF8B8DD7
:100EA000FE01E80FF11DE35AFF4FF0820B8FEA8934
:100EB000FB898081806207C0EE89FF896083E889B1
:100EC000F98980818064808381E090E0DF91CF9117
:100ED0001F910F91FF90EF900895CF92DF92EF92C4
:100EE000FF921F93CF93DF93EC016A017B01122FD6
:100EF000E889F98982E080834115514E61057105C9
:100F0000B1F060E079E08DE390E0A70196010E94E6
:100F10007E19DA01C9010197A109B109B695A79512
:100F200097958795AC01411580E15807A8F0E889AD
:100F3000F989108260E874E88EE190E0A7019601DB
:100F40000E947E19BA01A901415051096109710934
:100F50007695679557954795EC85FD855083EE8589
:100F6000FF854083188EEC89FD891083EA89FB890F
:100F7000808180618083EA89FB89808188608083A9
:100F8000EA89FB89808180688083EA89FB89808186
:100F90008F7D8083DF91CF911F91FF90EF90DF9045
:100FA000CF9008951F920F920FB60F9211242F9396
:100FB0008F939F93EF93FF93E091C602F091C70246
:100FC0008081E091CC02F091CD0282FD12C090812F
:100FD0008091CF028F5F8F732091D002821751F0E2
:100FE000E091CF02F0E0EA54FD4F958F8093CF025D
:100FF00001C08081FF91EF919F918F912F910F9070
:101000000FBE0F901F9018951F920F920FB60F9260
:1010100011242F933F934F935F936F937F938F93FD
:101020009F93AF93BF93EF93FF9386EB92E00E9461
:10103000E306FF91EF91BF91AF919F918F917F91C7
:101040006F915F914F913F912F910F900FBE0F9035
:101050001F90189586EB92E00E94A70621E0892B4D
:1010600009F420E0822F0895E6EBF2E01382128269
:1010700088EE93E0A0E0B0E084839583A683B783F5
:1010800084E692E09183808385EC90E09587848765
:1010900084EC90E09787868780EC90E0918B808B42
:1010A00081EC90E0938B828B82EC90E0958B848B2B
:1010B00086EC90E0978B868B118E128E138E148E99
:1010C0000895CF92DF92EF92FF920F931F93CF93E9
:1010D000DF936C017A018B01C0E0D0E0CE15DF0513
:1010E00089F0D8016D918D01D601ED91FC910190AF
:1010F000F081E02DC6010995892B11F47E0102C013
:101100002196ECCFC701DF91CF911F910F91FF90F6
:10111000EF90DF90CF9008956115710579F0FB0194
:1011200001900020E9F73197AF01461B570BDC0116
:10113000ED91FC910280F381E02D099480E090E034
:1011400008950C948C086AE472E00C948C080F9358
:101150001F93CF93DF93EC010E948C088C01CE018A
:101160000E94A308800F911FDF91CF911F910F91D3
:1011700008954F925F926F927F92AF92BF92CF92FB
:10118000DF92EF92FF920F931F93CF93DF93CDB730
:10119000DEB729013A019B01AC0124193509460942
:1011A000570989899A89AB89BC89BC01CD016A1923
:1011B0007B098C099D090E946E19A80197012419C9
:1011C0003509460957090E94A019CA01B9016A0DDB
:1011D0007B1D8C1D9D1DDF91CF911F910F91FF9065
:1011E000EF90DF90CF90BF90AF907F906F905F9027
:1011F0004F9008951F920F920FB60F9211242F93C4
:101200003F938F939F93AF93BF938091540390919B
:101210005503A0915603B09157033091530323E037
:10122000230F2D3720F40196A11DB11D05C026E81E
:10123000230F0296A11DB11D2093530380935403E5
:1012400090935503A0935603B0935703809158038E
:1012500090915903A0915A03B0915B030196A11D8F
:10126000B11D8093580390935903A0935A03B093F0
:101270005B03BF91AF919F918F913F912F910F9001
:101280000FBE0F901F9018952FB7F89460915403DC
:101290007091550380915603909157032FBF089585
:1012A0003FB7F8948091580390915903A0915A0345
:1012B000B0915B0326B5A89B05C02F3F19F001969E
:1012C000A11DB11D3FBFBA2FA92F982F8827820FCC
:1012D000911DA11DB11DBC01CD0142E0660F771F1C
:1012E000881F991F4A95D1F708958F929F92AF92C8
:1012F000BF92CF92DF92EF92FF926B017C010E942E
:1013000050094B015C01C114D104E104F10401F165
:101310000E946D190E945009DC01CB0188199909BE
:10132000AA09BB09883E9340A105B10560F321E0FD
:10133000C21AD108E108F10888EE880E83E0981EF1
:10134000A11CB11CC114D104E104F10419F7DBCFD5
:10135000FF90EF90DF90CF90BF90AF909F908F90D5
:101360000895789484B5826084BD84B5816084BD1D
:1013700085B5826085BD85B5816085BDEEE6F0E00E
:10138000808181608083E1E8F0E01082808182606A
:101390008083808181608083E0E8F0E080818160EB
:1013A0008083E1EBF0E0808184608083E0EBF0E01B
:1013B000808181608083EAE7F0E0808184608083BF
:1013C0008081826080838081816080838081806869
:1013D00080831092C10008958E3008F08E5087707F
:1013E0002091220190E4299F90011124822B809367
:1013F0007C0080917A00806480937A0080917A00EA
:1014000086FDFCCF809178002091790090E0922BAE
:101410000895833081F028F4813099F08230A1F072
:1014200008958730A9F08830B9F08430D1F48091E4
:1014300080008F7D03C0809180008F778093800033
:10144000089584B58F7702C084B58F7D84BD0895DB
:101450008091B0008F7703C08091B0008F7D809322
:10146000B0000895CF93DF9390E0FC01EA55FF4F61
:101470002491FC01E654FF4F8491882361F190E0B0
:10148000880F991FFC01E852FF4FC591D491FC01D0
:10149000E253FF4FA591B491611109C09FB7F89431
:1014A0008881209582238883EC912E230BC06230A3
:1014B00061F49FB7F8943881822F809583238883C5
:1014C000EC912E2B2C939FBF06C08FB7F894E88128
:1014D0002E2B28838FBFDF91CF9108951F93CF9339
:1014E000DF93282F30E0F901EE56FF4F8491F90188
:1014F000EA55FF4FD491F901E654FF4FC491CC2334
:10150000C9F0162F81110E94090AEC2FF0E0EE0FAE
:10151000FF1FE253FF4FA591B4918FB7F8941111BB
:1015200005C09C91ED2FE095E92302C0EC91ED2BD5
:10153000EC938FBFDF91CF911F910895DC01DA9674
:1015400020E030E04C91461307C0220F331FFC010E
:10155000E20FF31F83AD08952F5F3F4F12962730A0
:10156000310581F78FEF0895403885E2580761050E
:10157000710560F0413080E4580788E36807710521
:1015800048F040E050E468E370E004C040E855E211
:1015900060E070E026E086EB92E00E946D078091AB
:1015A000C20088608093C2000895CF93DF9300D07B
:1015B000CDB7DEB7FB0183811F928F9382811F928B
:1015C0008F9381811F928F9380811F928F9385EEDD
:1015D00090E09F938F935F934F9349835A830E9428
:1015E0008D1B0FB6F894DEBF0FBECDBF4981842F8F
:1015F0005A81952F0F900F90DF91CF910895662318
:1016000041F08FE39CE90197F1F700C000006150C1
:10161000F6CF089586EB92E00E94A706892BD1F3BE
:1016200086EB92E00E94C106089586EB92E00E944C
:10163000C1060895CF92DF92EF92FF92CF93DF938E
:10164000EC0186EB92E00E9404070E9444096B01C2
:101650007C018091C00087FF11C00E944409AB014A
:10166000BC014C195D096E097F09423351056105C2
:10167000710550F4CE010E94150BEBCF86EB92E082
:101680000E94A706892B49F761E0CE01DF91CF9137
:10169000FF90EF90DF90CF900C94FF0ACF93DF93F1
:1016A000EC010E941A0B4AA95BA96CA97DA9CE0185
:1016B0000E94B40A19825B98DF91CF910895CF936D
:1016C000DF93EC010E941A0B19825B9ADF91CF9194
:1016D0000895FC011182FB96AC01475B5F4F2FEF31
:1016E000DF0111972C9320833296E417F507C1F799
:1016F0000C941A0B0F931F93CF93DF938C0186EBFF
:1017000092E00E94040786EB92E00E94A706EC019B
:10171000209729F0C8010E94150B2197F9CFDF917E
:10172000CF911F910F9108952F923F924F925F9208
:101730006F927F928F929F92AF92BF92CF92DF92E1
:10174000EF92FF920F931F93CF93DF93CDB7DEB746
:1017500027970FB6F894DEBF0FBECDBF9F838E8351
:101760004B012A0159013801FA82E982FC01818189
:101770008230C9F4FB0180818F3F21F090912301D9
:1017800089130EC0C114D10471F480912301F401B6
:10179000808380916B0390916C03F201918380832D
:1017A00080E090E09FC100E010E02E813F81265C48
:1017B0003F4F3C832B8333243A9452E0252EEE8115
:1017C000FF8181818130E1F018F0823029F1DAC0A7
:1017D00021E0EE81FF8121833092230110926C037E
:1017E00010926B0310926A031092690310926803BF
:1017F00010926403109265031092660310926703BF
:1018000080916A03883068F586EB92E00E94A70613
:10181000892B09F02DC125C08E819F810E940A0B62
:10182000E981FA818083F1E0CF1AD1080F5F1F4F61
:1018300080916B0390916C03019790936C0380935C
:101840006B03892B09F09AC08E819F810E940A0B3D
:101850008E819F810E940A0BEE81FF81118221E01F
:1018600092C080916A03883008F48CC070915C0348
:1018700060915D0350915E0340915F03309160037E
:10188000209161039091620380916303723509F0A6
:1018900094C0633509F0DAC0593409F0D7C04F3528
:1018A00009F0D4C0323509F0D1C0253409F0CEC0DA
:1018B000913409F0CBC0843409F0C8C08E819F8177
:1018C0000E940A0B809323018E819F810E940A0B44
:1018D00090E090936C0380936B038E819F810E94B4
:1018E0000A0B20916B0330916C03A901582BCA019C
:1018F00050936C0340936B0360912301EE81FF8151
:101900006F3F09F44DC0892B09F44AC02182CF01F1
:101910000E949E0A813071F58E819F810E940A0B80
:10192000809364038E819F810E940A0B80936503DC
:101930008E819F810E940A0B809366038E819F8116
:101940000E940A0B809367038E819F810E940A0B7D
:1019500090E090936903809368038E819F810E9439
:101960000A0B2091680330916903382B3093690387
:1019700020936803F40180818F3FD1F421E0C114EA
:10198000D10409F020E086EB92E02D830E94A706A7
:101990002D81892B09F47CC0222309F410CF78C053
:1019A00011823092230110926C0310926B03EACFE4
:1019B00090912301891711F3F3CE733509F046C0D6
:1019C000693409F043C05F3509F040C04334F1F594
:1019D0003C34E1F52F34D1F59335C1F58534B1F5BB
:1019E0008E819F810E940A0B809323018E819F81AB
:1019F0000E940A0B8E819F810E940A0B10926C0339
:101A000010926B03EE81FF81118220912301EB8103
:101A1000FC8180E090E03081321310C0FC017D96A3
:101A2000EE0FFF1F2E813F81E20FF31F3082880FE0
:101A3000991FF901E80FF91F33AE05C001963296E0
:101A40008730910541F70FEF1FEF09CF77E07093D3
:101A50006A0360935C0350935D0340935E0330938D
:101A60005F032093600390936103809362038ACFA6
:101A7000E0906A0381E08E0D80936A03F12C86EB7F
:101A800092E00E94C106F701E45AFC4F8083B8CE71
:101A900080912301F401808380916B0390916C030A
:101AA000F20191838083A114B10479F080916403E1
:101AB000882359F0F50180838091650381838091AB
:101AC000660382838091670383836114710449F004
:101AD0008091680390916903009719F0F301918355
:101AE0008083C80127960FB6F894DEBF0FBECDBF26
:101AF000DF91CF911F910F91FF90EF90DF90CF90EA
:101B0000BF90AF909F908F907F906F905F904F901D
:101B10003F902F9008959F92AF92BF92CF92DF9205
:101B2000EF92FF920F931F93CF93DF9300D01F92FA
:101B3000CDB7DEB75C01962E86EB92E00E94A70639
:101B4000892BA9F08FEF8B831A821982C12CD12C9B
:101B5000E12CF12C00E010E020E030E0AE014F5F1E
:101B60005F4FBE016D5F7F4FC5010E94940B8FEFE9
:101B7000981661F0F501FA9688E4A80EB11C8081F0
:101B8000891531F03296EA15FB05C9F781E001C0ED
:101B900080E00F900F900F90DF91CF911F910F91E8
:101BA000FF90EF90DF90CF90BF90AF909F900895FF
:101BB000CF92DF92EF92FF920F931F93680179010A
:101BC00000E010E020E030E00E94940B1F910F91A4
:101BD000FF90EF90DF90CF9008952F923F924F9219
:101BE0005F926F927F928F929F92AF92BF92CF92AD
:101BF000DF92EF92FF920F931F93CF93DF93CDB7B6
:101C0000DEB72E970FB6F894DEBF0FBECDBF2C0106
:101C10003B014A873C872B871E870D8717014601AA
:101C2000FC018181823009F44CC186EB92E00E9474
:101C3000A706892BD1F08FEF89871A821982C12CD0
:101C4000D12CE12CF12C00E010E020E030E0AE01DE
:101C50004F5F5F4FBE01675F7F4FC2010E94940BD1
:101C600089819A81892B09F02CC1EB85FC856491CF
:101C70008F010F5F1F4F662339F086EB92E00E94C1
:101C80002607F8016491F5CF8D859E85892B39F45F
:101C90002114310441F181010F5F1F4F20C00D85D8
:101CA0001E85F80161918F01662391F386EB92E026
:101CB0000E942607F6CF6D3009F010C1F80184911B
:101CC0008A3009F00BC16BED86EB92E00E9426078B
:101CD0006CED86EB92E00E9426070E5F1F4FF1012C
:101CE00064916111F0C0A114B104F1F4C2010E9429
:101CF0007A0B6DE086EB92E00E9426076AE086EBA5
:101D000092E00E942607FA85F1117EC019821E8298
:101D10000E9444094B015C0130E1C32E37E2D32E0F
:101D2000E12CF12C10E040C0F40160816B3D81F4A6
:101D300086EB92E00E9426076DED86EB92E00E9412
:101D40002607FFEF8F1A9F0A81E0A81AB108CBCFB0
:101D50006D30C9F4F40181818A30A9F4F2E0AF1644
:101D6000B10488F06BED86EB92E00E9426076CEDE3
:101D700086EB92E00E94260782E0880E911C92E09A
:101D8000A91AB108B0CFEFEF8E1A9E0A86EB92E047
:101D90000E942607F1E0AF1AB108A5CF86EB92E0CA
:101DA0000E94A706892B71F40E944409DC01CB0133
:101DB00088199909AA09BB098C159D05AE05BF05AF
:101DC00068F36BC086EB92E00E94C106183080F485
:101DD00001E0010FE1E0F0E0EC0FFD1FE10FF11D6C
:101DE000808389818F3429F0853419F000E001C0A7
:101DF000012F0E9444094B015C0123E0C22ED12C2B
:101E0000E12CF12C102FD0CFF301108215820E940B
:101E100044096B017C0190E1892E97E2992EA12C57
:101E2000B12C10E00E944409DC01CB018C199D0902
:101E3000AE09BF0988159905AA05BB0538F586EBDB
:101E400092E00E94A706892B69F386EB92E00E943C
:101E5000C106FA851F1770F401E0010FF301E10FCD
:101E6000F11D8083F30180818F3429F0853419F0CE
:101E700000E001C0012F0E9444096B017C0183E056
:101E8000882E912CA12CB12C102FCCCFF301808166
:101E9000898381818A8385818E8389818F3439F416
:101EA00081E09A819B3409F480E081951FC08534DC
:101EB00041F48A81823529F48E81882311F08D3096
:101EC000A9F48FEF13C0C80101961C016B3D09F006
:101ED000F2CE86EB92E00E9426076DED86EB92E053
:101EE0000E942607F80164918101FBCE2E960FB661
:101EF000F894DEBF0FBECDBFDF91CF911F910F9140
:101F0000FF90EF90DF90CF90BF90AF909F908F9019
:101F10007F906F905F904F903F902F9008955F92C9
:101F20006F927F928F929F92AF92BF92CF92DF92E9
:101F3000EF92FF920F931F93CF93DF93CDB7DEB74E
:101F40002A970FB6F894DEBF0FBECDBF4C013B0100
:101F5000542EC8014AE0BE016F5F7F4F29873A8740
:101F60000E94681BA12CB12CC12CD12CE12CF12C8E
:101F70008E010F5F1F4F29853A85452DB301C4019E
:101F80000E94ED0D2A960FB6F894DEBF0FBECDBFAE
:101F9000DF91CF911F910F91FF90EF90DF90CF9045
:101FA000BF90AF909F908F907F906F905F900895BB
:101FB0000F931F939B018A0140E060E070E00E9454
:101FC0008F0F1F910F9108958F929F92AF92BF92A2
:101FD000CF92DF92EF92FF920F931F93CF93DF93F5
:101FE000CDB7DEB72B970FB6F894DEBF0FBECDBFCF
:101FF0005C01962E88248A9486EB92E00E94A706C4
:10200000892B81F18B861A861986C12CD12CE12C63
:10201000F12C00E010E020E030E0AE01475F5F4FC0
:10202000BE01655F7F4FC5010E94940B8B858911AE
:1020300019C089859A85892BF9F29B8628E0C22EE2
:10204000D12CCE0101967C0100E010E020E030E0D0
:10205000AE01475F5F4FBE01655F7F4FC5010E94C4
:10206000940BE7CF9FEF991202C080E02CC0F501DE
:10207000FA9620E030E0808189111EC0F9017D963A
:10208000EE0FFF1FEA0DFB1D8FEF8083220F331F22
:10209000F501E20FF31F83AF13E0892C912CA4010B
:1020A00065E271E0C5010E94D80F8823F1F28E3FEE
:1020B000E1F21150A1F707C02F5F3F4F3296273052
:1020C0003105C9F6D2CF2B960FB6F894DEBF0FBEFE
:1020D000CDBFDF91CF911F910F91FF90EF90DF90D7
:1020E000CF90BF90AF909F908F900895AF92BF9286
:1020F000CF92DF92EF92FF920F931F9357016801E7
:10210000E12CF12C00E010E00E94ED0D1F910F91E9
:10211000FF90EF90DF90CF90BF90AF9008956F92B7
:102120007F928F929F92AF92BF92CF92DF92EF9267
:10213000FF920F931F93CF93DF93EC016B014A0142
:1021400083E0782E5E0182E0A80EB11C90E3692E38
:10215000F501862D11928A95E9F7F601019000208C
:10216000E9F731977F01EC18FD08860127E134E09B
:1021700040E3B501CE010E94761081110EC09C8112
:10218000992359F08D819E81AF81B885F4018083B8
:102190009183A283B38380E003C07A947110D8CF77
:1021A000DF91CF911F910F91FF90EF90DF90CF9033
:1021B000BF90AF909F908F907F906F900895AF9257
:1021C000BF92CF92DF92EF92FF920F931F93A12CB9
:1021D000B12CC12CD12CE12CF12C0E94ED0D1F91C2
:1021E0000F91FF90EF90DF90CF90BF90AF90089548
:1021F0008F929F92AF92BF92DF92EF92FF920F93D6
:102200001F93CF93DF9300D0CDB7DEB74C01D62E0E
:10221000BA017C0182E0E80EF11CA701C401298308
:102220003A830E94D50A6EE571E0C7010E94281B1F
:10223000F70101900020E9F73197EE19FF093A8183
:102240003F9329812F9352EEA52E50E0B52EBF92D9
:10225000AF92FF273296E80DF91DFF93EF930E948E
:102260008D1B6CE571E0C7010E94281BF7010190EE
:102270000020E9F73197EE19FF091F930F93BF92E2
:10228000AF92FF273296E80DF91DFF93EF930E945E
:102290008D1B0FB6F894DEBF0FBECDBFF2E08701F5
:1022A000DF1203C029E431E004C0D1100CC02DE3DB
:1022B00031E048E0B701C4010E94DF1081112EC057
:1022C000F40184810DC021E331E048E0B701C4018D
:1022D0000E94DF10811122C0F4018481DD24D39497
:1022E0008F3FE9F0F401FA9620E030E090819F3FC3
:1022F00071F4F9017D96EE0FFF1FE80DF91D808343
:10230000220F331F280D391DF901D3AE08C02F5FEE
:102310003F4F32962730310549F701C08FEF0F90BC
:102320000F90DF91CF911F910F91FF90EF90DF9071
:10233000BF90AF909F908F9008950F931F93E0915F
:102340002401F09125013196E13078E0F70710F093
:10235000E0E0F4E0F0932501E093240100912401F2
:10236000109125010E94F8101F910F910895AF92CE
:10237000BF92CF92DF92EF92FF920F931F93A12C07
:10238000B12CC12CD12CE12CF12C00E010E00E94EA
:10239000ED0D1F910F91FF90EF90DF90CF90BF90C8
:1023A000AF900895AF92BF92CF92DF92EF92FF92DB
:1023B0000F931F93A12CB12CC12CD12C79018A0130
:1023C0009B0140E060E070E00E94ED0D1F910F91D5
:1023D000FF90EF90DF90CF90BF90AF9008955F9205
:1023E0006F927F928F929F92AF92BF92CF92DF9225
:1023F000EF92FF920F931F93CF93DF937C01762E82
:102400006A015901CA010E94331B682E592EE70147
:1024100022961F927F9282EE882E80E0982E9F92C5
:102420008F92DF93CF930E948D1B69E071E0CE0104
:102430000E94281BFE0101900020E9F73197EC1B58
:10244000FD0B5F926F929F928F92FF273296EE0D57
:10245000FF1DFF93EF930E948D1B8DB79EB70C96C7
:102460000FB6F8949EBF0FBE8DBFA114B10409F43E
:1024700063C0672DC7010E949E0A813009F05CC0CD
:1024800067E071E0CE010E94281BFE010190002050
:10249000E9F73197AF014C1B5D0B55274E5F5F4F3E
:1024A0004E0D5F1DB501C7010E94D50A011511052A
:1024B00009F448C0672DC7010E949E0A813009F0C7
:1024C00041C062E071E0CE010E94281BFE01019034
:1024D0000020E9F73197EC1BFD0B1F930F9382EE61
:1024E00090E09F938F93FF273296EE0DFF1DFF9391
:1024F000EF930E948D1B0F900F900F900F900F90F5
:102500000F906DEF70E0CE010E94281B9601AE0186
:1025100061EF70E0C701DF91CF911F910F91FF90A4
:10252000EF90DF90CF90BF90AF909F908F907F9073
:102530006F905F900C94D21164E071E0CE010E9424
:10254000281BB4CF6FEF70E0CE010E94281BD9CFBB
:10255000AF92BF92CF92DF92EF92FF920F931F93B1
:1025600058016901E12CF12C8A019B0140E060E0F7
:1025700070E00E94ED0D1F910F91FF90EF90DF90A2
:10258000CF90BF90AF9008955F926F927F928F929D
:102590009F92AF92BF92CF92DF92EF92FF920F93F2
:1025A0001F93CF93DF936C01762E4A01522E632E38
:1025B000EC0122961F926F9382EEA82E80E0B82E37
:1025C000BF92AF92DF93CF930E948D1B63E271E0C5
:1025D000CE010E94281BFE0101900020E9F73197EF
:1025E000EC1BFD0B6F925F92BF92AF92FF2732966A
:1025F000EC0DFD1DFF93EF930E948D1B8DB79EB7D1
:102600000C960FB6F8949EBF0FBE8DBF0115110535
:1026100039F0672DC6010E949E0A813009F44EC030
:102620006EE171E0CE010E94281BE114F10409F46F
:102630005CC0672DC6010E949E0A813009F055C01A
:102640006CE171E0CE010E94281BFE010190002088
:10265000E9F73197EC1BFD0BFF92EF9282EE90E0D1
:102660009F938F93FF273296EC0DFD1DFF93EF9301
:102670000E948D1B0F900F900F900F900F900F9056
:1026800067E171E0CE010E94281B052D162D9401F3
:10269000AE016BE071E0C6010E94A812DF91CF91FC
:1026A0001F910F91FF90EF90DF90CF90BF90AF9070
:1026B0009F908F907F906F905F90089561E271E09E
:1026C000CE010E94281BFE0101900020E9F73197FE
:1026D000AF014C1B5D0B55274E5F5F4F4C0D5D1DD1
:1026E000B801C6010E94D50AA0CF69E171E0CE0110
:1026F0000E94281BC5CFEF92FF920F931F93FA0100
:1027000001900020E9F73197E41BF50B780189016E
:102710009F010E94C4121F910F91FF90EF900895A6
:10272000AF92BF92CF92DF92EF92FF920F931F93DF
:102730009B01A12CB12CC12CD12CE12CF12C8A01B4
:1027400040E060E070E00E94ED0D1F910F91FF905E
:10275000EF90DF90CF90BF90AF9008956F927F92EF
:102760008F929F92AF92BF92CF92DF92EF92FF92A1
:102770000F931F93CF93DF931F92CDB7DEB73C012A
:102780005A01490169830E94690BF30116AA17AA2D
:1027900010AE11AE6301F2E0CF0ED11C80E3F60162
:1027A00011928A95E9F76981623051F426EB31E0A4
:1027B00040E3B601C3010E94B711811191C00BC063
:1027C000662399F022EA31E040E3B601C3010E949A
:1027D000B711811187C0F3014285538564857585E2
:1027E00046AB57AB60AF71AF7EC08114910459F016
:1027F000A601B401C3010E94D50AA60160E971E0F7
:10280000C3010E949013A114B10481F0A601B50187
:10281000C3010E94D50AF50180819181A281B38113
:10282000F30186AB97ABA0AFB1AF0DC064E871E028
:10283000C6010E94281B80ECF30186AB88EA87ABB7
:1028400010AE81E081AFE114F104B9F062E871E00B
:10285000C6010E94281BF60101900020E9F731977C
:10286000AF014C195D0955274E5F5F4F460D571D4F
:10287000B701C3010E94D50A05C063E771E0C60134
:102880000E94281B01151105B1F061E771E0C60136
:102890000E94281BF60101900020E9F73197AF0153
:1028A0004C195D0955274E5F5F4F460D571DB80106
:1028B000C3010E94D50AA60160E671E0C3010F9032
:1028C000DF91CF911F910F91FF90EF90DF90CF900C
:1028D000BF90AF909F908F907F906F900C949013CB
:1028E00082E001C081E00F90DF91CF911F910F91A5
:1028F000FF90EF90DF90CF90BF90AF909F908F9020
:102900007F906F900895EF92FF920F931F93E12CA9
:10291000F12C00E010E020E030E040E050E061E029
:102920000E94AE131F910F91FF90EF900895AF9208
:10293000BF92CF92DF92EF92FF920F931F939B0172
:10294000A12CB12CC12CD12CE12CF12C00E010E0F9
:1029500040E060E070E00E94ED0D1F910F91FF904C
:10296000EF90DF90CF90BF90AF900895CF93DF931B
:10297000EC0166E074E00E94971468EF73E0CE010A
:10298000DF91CF910C949714AF92BF92CF92DF92C8
:10299000EF920F931F93CF93DF93EC016B015A01DA
:1029A0001E2D213049F018F0223091F020C06AED40
:1029B00073E00E9497141BC0452B29F06EEB73E067
:1029C0000E949714BFC066EA73E00E949714B6C0D5
:1029D000402F50E0A114B10429F06BE873E00E948D
:1029E000D80FB0C064E773E00E94D80FA7C01530BD
:1029F00038F4412F50E063E673E0CE010E94D80F17
:102A0000A114B10431F0A50167E573E0CE010E9485
:102A10009013E8818E2F90E08531910508F096C0E3
:102A2000FC01EC5CFF4F0C94BF1922E533E0A601DA
:102A300065E473E077C020E433E0A60163E373E06C
:102A400071C02EE233E0A60161E273E06BC02CE1BD
:102A500033E0A6016FE073E065C02AE033E0A60131
:102A60006DEF72E05FC028EF32E0A6016BEE72E01E
:102A700059C026EE32E0A60169ED72E053C024EDA4
:102A800032E0A60167EC72E04DC022EC32E0A60114
:102A900065EB72E047C020EB32E0A60163EA72E02A
:102AA00041C02EE932E0A60161E972E03BC02CE8AA
:102AB00032E0A6016FE772E035C02AE732E0A601F6
:102AC0006DE672E02FC028E632E0A6016BE572E009
:102AD00029C026E532E0A60169E472E023C024E4BF
:102AE00032E0A60167E372E01DC022E332E0A601F6
:102AF00065E272E017C020E232E0A60163E172E015
:102B000011C02DE032E0A60160E072E00BC02AEFB8
:102B100031E0A6016DEE71E005C027EE31E0A601BF
:102B20006AED71E0CE01DF91CF911F910F91EF908F
:102B3000DF90CF90BF90AF900C94D211153008F079
:102B400068CF57CF153008F05ECF53CF80E0DF91CC
:102B5000CF911F910F91EF90DF90CF90BF90AF90EA
:102B60000895EF920F93EE24EA9400E00E94C414BB
:102B70000F91EF900895CF93DF93EC010E94690BC2
:102B80001EAA1FAA18AE19AE6AEC71E0CE01DF9141
:102B9000CF910C949714BF92CF92DF92EF92FF9255
:102BA0000F931F93CF93DF93EC016A017B01B22E49
:102BB00061E083E00E94320A5B9A61E082E00E9459
:102BC000320A5A9861E081E00E94320A61E081E0B5
:102BD0000E946E0A60E080E00E94320A61E080E0BC
:102BE0000E946E0A1EAA1FAA18AE19AEFE013296E6
:102BF00080E3DF011D928A95E9F7CAAADBAAECAA55
:102C0000FDAAB701A601CE010E94B40ACE010E941E
:102C10004E0B5A9865E0CE010E94FF0A5A9A6BE06B
:102C2000CE010E94FF0A14E00FEF6CE186EB92E008
:102C30000E9426070E9444096B017C010E944409FE
:102C4000DC01CB018C199D09AE09BF09883C9105B7
:102C5000A105B10508F586EB92E00E94A706892B35
:102C600069F386EB92E00E94C106853539F765E588
:102C700086EB92E00E9426076AE0CE010E94FF0ADE
:102C80006EE686EB92E00E9426076AE086EB92E011
:102C90000E94260711E00EEF115039F664E1CE01D3
:102CA0000E94FF0A13E0CE010E941A0B60E474E058
:102CB000CE010E94971481110DC062E374E0CE0131
:102CC0000E94971466E274E0CE010E949714B882C5
:102CD00000E009C06AE0CE010E94FF0A115019F716
:102CE000CE010E945F0B802FDF91CF911F910F913A
:102CF000FF90EF90DF90CF90BF90089522E040E8E2
:102D000055E260E070E00C94CB15CF92DF92EF9229
:102D1000FF920F931F93CF93DF937C016A018B0186
:102D2000C0E0D0E0CC15DD0589F0D701ED91FC9134
:102D3000068CF78DE02DC70109958F3FBFEF9B07EC
:102D400029F0F80181938F012196ECCFCE01DF911C
:102D5000CF911F910F91FF90EF90DF90CF9008954A
:102D60000F931F93CF93DF93EC01E881F981048CDB
:102D7000F58DE02D09958C010115110551F0E881C3
:102D8000F981068CF78DE02DCE01099501501109CE
:102D9000F3CFDF91CF911F910F9108950F931F9360
:102DA000CF93DF938C01DC01ED91FC9106A0F7A19C
:102DB000E02D0995EC01892B61F0D801ED91FC9192
:102DC00006A0F7A1E02D62E574E0C8010995C80FDF
:102DD000D91FCE01DF91CF911F910F91089521E06E
:102DE000FC0184818F3F09F420E0822F08950F9326
:102DF0001F93CF93DF9300D01F92CDB7DEB7FC01B6
:102E000084818B831A8219828F3F71F000E010E079
:102E100020E030E0AE014F5F5F4FBE016D5F7F4F3E
:102E20008DE693E00E94D80D89819A810F900F90D2
:102E30000F90DF91CF911F910F910895EF92FF9224
:102E40000F931F93CF93DF9300D000D0CDB7DEB7A1
:102E5000FC0124812B832F3FB9F07C0101E010E0BD
:102E60009E012C5F3F4FAE014F5F5F4FBE016D5F14
:102E70007F4F8DE693E00E94D80D009729F00196D0
:102E800031F48FEFF70184838FEF9FEF02C08C81C5
:102E900090E00F900F900F900F90DF91CF911F91C6
:102EA0000F91FF90EF9008951F93CF93DF93FC0154
:102EB00064816F3FB1F0EC018DE693E00E948B0DD1
:102EC000182F882319F08FEF8C830BC08E858A30E2
:102ED00050F06C818DE693E00E94E40F8FEF8C83BD
:102EE00003C010E001C011E0812FDF91CF911F914D
:102EF0000895CF93DF93FC0124812F3F81F0EC01F3
:102F00000190F081E02D02A0F3A1E02D09956C81E4
:102F10008DE693E00E94E40F8FEF8C831E86DF9195
:102F2000CF910895CF92DF92EF92FF920F931F936C
:102F3000CF93DF931F92CDB7DEB76983FC01648125
:102F40006F3F01F16C01FC01E184F2848C010B5FA5
:102F50001F4F21E030E0AE014F5F5F4F8DE693E001
:102F60000E94C412F601882381F086858F5F8687D0
:102F70008A3040F064818DE693E00E94E40F8FEF89
:102F8000F601848380E090E003C0168681E090E043
:102F90000F90DF91CF911F910F91FF90EF90DF90F5
:102FA000CF900895CF92DF92EF92FF920F931F93ED
:102FB000CF93DF93DC011496EC91EF3FF1F0C52E37
:102FC000D42EAB01EC01E984FA848C010B5F1F4F16
:102FD0002D2D3C2D6E2F8DE693E00E94C412882388
:102FE00079F08E858F5F8E878A3038F06C818DE620
:102FF00093E00E94E40F8FEF8C8380E090E003C0A9
:103000001E868D2D9C2DDF91CF911F910F91FF90EA
:10301000EF90DF90CF900895EF92FF920F931F9360
:10302000CF93DF93EC019C819F3FD1F07B01098519
:103030001A859E012B5F3F4FAB01692F8DE693E010
:103040000E947B13882379F08E858F5F8E878A306C
:1030500038F06C818DE693E00E94E40F8FEF8C8353
:1030600080E090E009C01E86F70101900020E9F79A
:103070003197CF018E199F09DF91CF911F910F9149
:10308000FF90EF900895EF92FF920F931F93CF93CD
:10309000DF937B01FC0164816F3F21F1EC0101852D
:1030A00012859C012B5F3F4FA7018DE693E00E94A4
:1030B000EF11882369F08E858F5F8E878A3090F0BC
:1030C0006C818DE693E00E94E40F8FEF8C830AC041
:1030D0001E86C701DF91CF911F910F91FF90EF9056
:1030E0000C94331B80E090E0DF91CF911F910F9102
:1030F000FF90EF900895FC01DB011382128282E8B9
:1031000092E0918380838C91858311968C911197A5
:10311000868312968C911297878313968C91808761
:10312000528741878FEF8483089522E832E0FC01C3
:10313000318320830C947917FF920F931F93CF93C1
:10314000DF93FC0124812F3F19F080E090E01BC049
:10315000F62EEC010385148521853285AC014B5F89
:103160005F4F8DE693E00115110519F00E94F810EC
:1031700002C00E949D118C838C818F3F31F3FD86AC
:103180001E8681E090E0DF91CF911F910F91FF901B
:10319000089560E00C949C1861E00C949C1860E029
:1031A0000C949C1861E00C949C18FC01DB018C9140
:1031B000858311968C911197868312968C91129724
:1031C000878313968C9180875287418760E0CF0177
:1031D0000C949C18FC01DB018C91858311968C91D9
:1031E0001197868312968C911297878313968C91F0
:1031F00080875287418761E0CF010C949C18FC01C5
:10320000DB018C91858311968C91119786831296A0
:103210008C911297878313968C9180875287418770
:103220003487238760E0CF010C949C18FC01DB01FC
:103230008C91858311968C911197868312968C912F
:103240001297878313968C918087528741873487A2
:10325000238761E0CF010C949C180F931F93CF93A9
:10326000DF93EC018A01AC014B5F5F4F8DE693E089
:103270000E948F1081110AC01A87098760E0CE0171
:10328000DF91CF911F910F910C949C1880E090E0FA
:10329000DF91CF911F910F9108950F931F93CF93BB
:1032A000DF93EC018A01AC014B5F5F4F8DE693E049
:1032B0000E948F1081110AC01A87098761E0CE0130
:1032C000DF91CF911F910F910C949C1880E090E0BA
:1032D000DF91CF911F910F9108950895DB018F9396
:1032E0009F930E94C519BF91AF91A29F800D911D20
:1032F000A39F900DB29F900D11240895A1E21A2E64
:10330000AA1BBB1BFD010DC0AA1FBB1FEE1FFF1F89
:10331000A217B307E407F50720F0A21BB30BE40BD9
:10332000F50B661F771F881F991F1A9469F7609520
:103330007095809590959B01AC01BD01CF010895DA
:10334000052E97FB1EF400940E94B71957FD07D075
:103350000E947E1907FC03D04EF40C94B7195095C7
:103360004095309521953F4F4F4F5F4F0895909571
:103370008095709561957F4F8F4F9F4F0895EE0F09
:10338000FF1F0590F491E02D09940E94D019A59F8C
:10339000900DB49F900DA49F800D911D1124089550
:1033A000A29FB001B39FC001A39F700D811D112486
:1033B000911DB29F700D811D1124911D08950F93D1
:1033C0001F93CF93DF93869F8001879F100D969F59
:1033D000100D1124C8010E94FB19EC01009729F07F
:1033E000A80160E070E00E943C1BCE01DF91CF910C
:1033F0001F910F910895CF93DF938230910510F4C0
:1034000082E090E0E091B703F091B80320E030E073
:10341000C0E0D0E0309711F1408151814817590741
:10342000C0F04817590761F482819381209719F001
:103430009B838A832BC09093B8038093B70326C0E5
:103440002115310519F04217530718F49A01BE01EE
:10345000DF01EF010280F381E02DDCCF2115310582
:1034600009F1281B390B2430310590F412968D9107
:103470009C9113976115710521F0FB019383828361
:1034800004C09093B8038093B703FD01329644C003
:10349000FD01E20FF31F81939193225031092D9387
:1034A0003C933AC02091B5033091B603232B41F4ED
:1034B00020910201309103013093B6032093B503AC
:1034C00020910001309101012115310541F42DB702
:1034D0003EB74091040150910501241B350BE0914A
:1034E000B503F091B603E217F307A0F42E1B3F0BD0
:1034F0002817390778F0AC014E5F5F4F2417350766
:1035000048F04E0F5F1F5093B6034093B50381936D
:10351000919302C0E0E0F0E0CF01DF91CF910895F8
:103520000F931F93CF93DF93009709F48CC0FC0196
:103530003297138212820091B7031091B8030115DC
:10354000110581F420813181820F931F2091B503F1
:103550003091B6032817390779F5F093B603E09355
:10356000B50371C0D80140E050E0AE17BF0750F47A
:1035700012962D913C911397AD012115310509F15A
:10358000D901F3CF9D01DA013383228360817181F8
:10359000860F971F8217930769F4EC012881398100
:1035A000260F371F2E5F3F4F318320838A819B81F7
:1035B00093838283452B29F4F093B803E093B703F8
:1035C00042C01396FC93EE931297ED0149915991E5
:1035D0009E01240F351FE217F30771F4808191815A
:1035E000840F951F029611969C938E9382819381EE
:1035F00013969C938E931297E0E0F0E0D801129618
:103600008D919C911397009719F0F8018C01F6CFDA
:103610008D919C9198012E5F3F4F820F931F2091B7
:10362000B5033091B6032817390769F4309729F4A8
:103630001092B8031092B70302C013821282109343
:10364000B6030093B503DF91CF911F910F910895B9
:10365000FB01DC010D900020E9F7119705900D9218
:103660000020E1F70895FC0105900020E9F780951E
:1036700090958E0F9F1F0895DC0101C06D934150FE
:103680005040E0F70895FB01DC010D900020E9F7C0
:10369000119701900D920020E1F70895FB015191DF
:1036A0005523A9F0BF01DC014D9145174111E1F708
:1036B00059F4CD010190002049F04D914015411180
:1036C000C9F3FB014111EFCF81E090E0019708952C
:1036D000BB274A3031F4992322F4BDE290958195BD
:1036E0009F4F0C94741BBB27FB015527AA27880FFB
:1036F000991FAA1FA41710F0A41B83955051B9F766
:10370000A05DAA3308F0A95DA193009779F7B111E4
:10371000B1931192CB010C94981DAEE0B0E0E3E9B7
:10372000FBE10C944C1E0D891E898EE08C831A835C
:1037300009838FEF9FE79E838D83AE01475E5F4FC6
:103740006F89788DCE0101960E94B01B2F8138853C
:10375000F801E20FF31F10822E96E4E00C94681E2D
:10376000ACE0B0E0E6EBFBE10C943E1E7C016B01AB
:103770008A01FC0117821682838181FFBDC1CE01BF
:1037800001964C01F7019381F60193FD859193FF1A
:1037900081916F01882309F4ABC1853239F493FD1F
:1037A000859193FF81916F01853229F4B70190E0F3
:1037B0000E94A81DE7CF512C312C20E02032A0F42C
:1037C0008B3269F030F4803259F0833269F4206131
:1037D0002CC08D3239F0803339F4216026C022604C
:1037E000246023C0286021C027FD27C030ED380F9A
:1037F0003A3078F426FF06C0FAE05F9E300D1124BF
:10380000532E13C08AE0389E300D1124332E2062CF
:103810000CC08E3221F426FD6BC1206406C08C36AC
:1038200011F4206802C0883641F4F60193FD8591B9
:1038300093FF81916F018111C1CF982F9F7D955486
:10384000933028F40C5F1F4FFFE3F9830DC08336DC
:1038500031F0833771F0833509F05BC022C0F80185
:10386000808189830E5F1F4F44244394512C54015F
:1038700015C03801F2E06F0E711CF801A080B18014
:1038800026FF03C0652D70E002C06FEF7FEFC5011A
:103890002C870E948D1D2C0183012C852F77222ED1
:1038A00017C03801F2E06F0E711CF801A080B180E2
:1038B00026FF03C0652D70E002C06FEF7FEFC501EA
:1038C0002C870E94821D2C012C852068222E8301CA
:1038D00023FC1BC0832D90E048165906B0F4B701B5
:1038E00080E290E00E94A81D3A94F4CFF50127FCF5
:1038F000859127FE81915F01B70190E00E94A81D8C
:1039000031103A94F1E04F1A51084114510471F703
:10391000E5C0843611F0893639F5F80127FF07C074
:1039200060817181828193810C5F1F4F08C060812B
:103930007181072E000C880B990B0E5F1F4F2F769D
:10394000722E97FF09C090958095709561957F4F75
:103950008F4F9F4F2068722E2AE030E0A4010E9412
:10396000E01DA82EA81844C0853729F42F7EB22E5A
:103970002AE030E025C0F22FF97FBF2E8F36C1F04C
:1039800018F4883579F0B4C0803719F0883721F001
:10399000AFC02F2F2061B22EB4FE0DC08B2D8460DE
:1039A000B82E09C024FF0AC09F2F9660B92E06C00A
:1039B00028E030E005C020E130E002C020E132E044
:1039C000F801B7FE07C060817181828193810C5F2D
:1039D0001F4F06C06081718180E090E00E5F1F4F35
:1039E000A4010E94E01DA82EA818FB2DFF777F2EB2
:1039F00076FE0BC0372D3E7FA51450F474FE0AC02E
:103A000072FC08C0372D3E7E05C0BA2C372D03C08E
:103A1000BA2C01C0B52C34FF0DC0FE01EA0DF11D1A
:103A20008081803311F4397E09C032FF06C0B3941F
:103A3000B39404C0832F867809F0B39433FD13C088
:103A400030FF06C05A2CB31418F4530C5B18B32C77
:103A5000B31468F4B70180E290E03C870E94A81D8F
:103A6000B3943C85F5CFB31410F43B1801C0312C4E
:103A700034FF12C0B70180E390E03C870E94A81D8C
:103A80003C8532FF17C031FD03C088E790E002C0DB
:103A900088E590E0B7010CC0832F867859F031FF9C
:103AA00002C08BE201C080E237FD8DE2B70190E0F9
:103AB0000E94A81DA51438F4B70180E390E00E948D
:103AC000A81D5A94F7CFAA94F401EA0DF11D808144
:103AD000B70190E00E94A81DA110F5CF332009F492
:103AE00051CEB70180E290E00E94A81D3A94F6CF33
:103AF000F7018681978102C08FEF9FEF2C96E2E15C
:103B00000C945A1EFC010590615070400110D8F7CA
:103B1000809590958E0F9F1F0895FC016150704015
:103B200001900110D8F7809590958E0F9F1F0895F2
:103B3000DC01FC01672F71917723E1F7329704C014
:103B40007C916D9370836291AE17BF07C8F308959F
:103B50000F931F93CF93DF93FB01238121FD03C0BC
:103B60008FEF9FEF28C022FF16C046815781248126
:103B700035814217530744F4A081B1819D012F5F25
:103B80003F4F318320838C93268137812F5F3F4FB6
:103B90003783268310C0EB01092F182F0084F1858D
:103BA000E02D0995892BE1F68E819F8101969F83F7
:103BB0008E83812F902FDF91CF911F910F910895C8
:103BC000FA01AA27283051F1203181F1E8946F934E
:103BD0006E7F6E5F7F4F8F4F9F4FAF4FB1E03ED0F4
:103BE000B4E03CD0670F781F891F9A1FA11D680F92
:103BF000791F8A1F911DA11D6A0F711D811D911DC5
:103C0000A11D20D009F468943F912AE0269F112439
:103C10003019305D3193DEF6CF010895462F47709D
:103C2000405D4193B3E00FD0C9F7F6CF462F4F70F8
:103C3000405D4A3318F0495D31FD4052419302D056
:103C4000A9F7EACFB4E0A6959795879577956795FC
:103C5000BA95C9F700976105710508959B01AC01FC
:103C60000A2E06945795479537952795BA95C9F723
:103C7000620F731F841F951FA01D08952F923F92FE
:103C80004F925F926F927F928F929F92AF92BF926C
:103C9000CF92DF92EF92FF920F931F93CF93DF9318
:103CA000CDB7DEB7CA1BDB0B0FB6F894DEBF0FBE75
:103CB000CDBF09942A88398848885F846E847D84C2
:103CC0008C849B84AA84B984C884DF80EE80FD80C4
:103CD0000C811B81AA81B981CE0FD11D0FB6F8943A
:0E3CE000DEBF0FBECDBFED010895F894FFCFFB
:103CEE000000B90380000100000000000100020086
:103CFE00360168019001BA01E10140771B00E8032B
:103D0E00000001FF0004526564466C792E696E69ED
:103D1E0074204552524F52003136303436343434DA
:103D2E00363234363830333600574C414E2D4B61D7
:103D3E0062656C00526564466C792E6A6F696E20FE
:103D4E004552524F5200526564466C792E62656739
:103D5E00696E204552524F5200576946692053688A
:103D6E0069656C6420636F6E6E6563746564007361
:103D7E00746172742077616974696E670073746F11
:103D8E00707065642077616974696E670074726122
:103D9E006E736D697373696F6E207375636365738C
:103DAE007300504F5354202F76616C7565676574A0
:103DBE002E706870003F6E616D653D0042616E61F0
:103DCE006E650026747970653D0050726F7A656E6F
:103DDE007466657563687465002676616C75653DFD
:103DEE0000266B65793D63333738313633336631B0
:103DFE0066623164646361373763393033386434F3
:103E0E003939343334350020485454502F312E3143
:103E1E000D0A486F73743A20003139322E3136381C
:103E2E002E3137382E3234000D0A0D0A00736572AA
:103E3E0076657220756E617661696C61626C650083
:103E4E000000000026076108A706C106B306040796
:103E5E006E616E00696E66006F7666002E00000061
:103E6E0000009217D217C918CC18CF18D218D5182F
:103E7E00EA18FF1816192D194D1954177917F71638
:0E3E8E001E178516B0160C184318CE16EF1628
:00000001FF
