:100000000C942D020C9455020C9455020C9455023C
:100010000C9455020C9455020C9455020C94550204
:100020000C9455020C9455020C9455020C945502F4
:100030000C9455020C9455020C9455020C945502E4
:100040000C949B0A0C9455020C94C2080C94F4086E
:100050000C9455020C9455020C9455020C945502C4
:100060000C9455020C945502D216D816DE16E416DE
:10007000EA16F016F616FC16021708170E171417D4
:100080001A17201726172C17321738173E17441740
:100090004A170000000800020100000304070000E6
:1000A000000000000000010204081020408001024E
:1000B00004081020010204081020040404040404AD
:1000C000040402020202020203030303030300000A
:1000D0000000250028002B0000000000240027005D
:1000E0002A0025750025692E25692E25692E25698A
:1000F0000041542B5253495F534E443D002C002C79
:1001000030002C002C30002C002C0041542B52537A
:10011000495F534E443D002C002C30002C002C3005
:10012000002C002C0041542B5253495F434C533D4B
:100130000041542B5253495F5544503D0041542BCC
:100140005253495F5443503D0041542B5253495F31
:10015000204D554C5449434153543D002C002C0034
:1001600041542B5253495F4950434F4E463D302C2A
:10017000002C002C3235352E3235352E3235352EC9
:1001800030002C003139322E3136382E302E3100ED
:1001900041542B5253495F444E5353455256455296
:1001A0003D0041542B5253495F4950434F4E463D09
:1001B000312C302C300041542B5253495F4950436D
:1001C0004F4E463D322C302C300041542B52534977
:1001D0005F4449534153534F430041542B525349B9
:1001E0005F4A4F494E3D002C31322C320041542B96
:1001F0005253495F4A4F494E3D002C31322C310059
:1002000041542B5253495F4A4F494E3D002C3132E5
:100210002C300041542B5253495F4A4F494E3D0008
:100220002C392C320041542B5253495F4A4F494ECE
:100230003D002C392C310041542B5253495F4A4F19
:10024000494E3D002C392C300041542B5253495F0C
:100250004A4F494E3D002C372C320041542B52530B
:10026000495F4A4F494E3D002C372C310041542BF9
:100270005253495F4A4F494E3D002C372C300041C4
:10028000542B5253495F4A4F494E3D002C342C3277
:100290000041542B5253495F4A4F494E3D002C3484
:1002A0002C310041542B5253495F4A4F494E3D0077
:1002B0002C342C300041542B5253495F4A4F494E45
:1002C0003D002C322C320041542B5253495F4A4F8F
:1002D000494E3D002C322C310041542B5253495F82
:1002E0004A4F494E3D002C322C300041542B525382
:1002F000495F4A4F494E3D002C312C320041542B6E
:100300005253495F4A4F494E3D002C312C31004138
:10031000542B5253495F4A4F494E3D002C312C30EB
:100320000041542B5253495F4A4F494E3D002C30F7
:100330002C320041542B5253495F4A4F494E3D00E5
:100340002C302C310041542B5253495F4A4F494EB7
:100350003D002C302C300041542B5253495F5053F8
:100360004B3D0041542B5253495F415554484D4F2A
:1003700044453D0041542B5253495F4E4554574F1D
:10038000524B3D494253532C312C0041542B525374
:10039000495F4E4554574F524B3D494253535F536B
:1003A00045432C312C0041542B5253495F4E455448
:1003B000574F524B3D494253532C302C300041543F
:1003C0002B5253495F4E4554574F524B3D49425370
:1003D000535F5345432C302C300041542B5253492A
:1003E0005F4E4554574F524B3D494E465241535430
:1003F000525543545552450041542B5253495F5373
:1004000043414E3D300041542B5253495F4E554DB0
:100410005343414E3D300041542B5253495F444EAB
:10042000534745543D0041542B5253495F494E496F
:10043000540041542B5253495F42414E443D3000D9
:1004400041542B5253495F465756455253494F4EDC
:100450003F000D0A00006807240911241FBECFEFDA
:10046000D8E0DEBFCDBF13E0A0E0B1E0E8E6F0E405
:1004700002C005900D92AE35B107D9F724E0AEE584
:10048000B3E001C01D92AD36B207E1F712E0CDE254
:10049000D2E004C02197FE010E947C1BCB32D10721
:1004A000C9F70E9459070C9432200C94000008955B
:1004B000CF93DF93EC0181E294E00E941C0DBE011A
:1004C0008AE693E00E94910981E294E0DF91CF9166
:1004D0000C940B0DCF93DF93EC0181E294E00E942A
:1004E0001C0DBE018AE693E00E949E0981E294E021
:1004F000DF91CF910C940B0D0F931F93CF93DF934C
:100500008C01EB0181E294E00E941C0DB8018AE6A7
:1005100093E00E94910963E772E08AE693E00E940B
:100520009109BE018AE693E00E949E0981E294E06F
:10053000DF91CF911F910F910C940B0DCF93DF930F
:100540000E943F0CEC0181E294E00E941C0D6CE2E1
:1005500071E08AE693E00E94910963E772E08AE61F
:1005600093E00E9491094AE050E0BE018AE693E0E0
:100570000E94430A81E294E0DF91CF910C940B0D2D
:100580001F93CF93DF93C3E3D0E0112369F021974A
:1005900009F449C081E294E00E943B18182F8BE3D4
:1005A00091E00E946A02F1CF81E294E00E9473160A
:1005B00020E04DE451E06EE571E081E294E00E94BC
:1005C0006E17182FC3E3D0E0112389F0219759F15A
:1005D00020E04DE451E06EE571E081E294E00E949C
:1005E0006E17182F89E691E00E946A02EDCF81E232
:1005F00094E00E944016182FC3E3D0E0112361F06D
:10060000219789F081E294E00E944016182F8BE731
:1006100091E00E946A02F2CF8EE891E0DF91CF91E3
:100620001F910C946A02DF91CF911F9108953F9220
:100630004F925F926F927F928F929F92AF92BF92F2
:10064000CF92DF92EF92FF920F931F93CF93DF939E
:10065000CDB7DEB7CC52D1400FB6F894DEBF0FBE97
:10066000CDBF4C017B010E94E50A2B013C0164EAED
:1006700071E0C7010E949109C301B201A12CB12C04
:1006800000E010E09E012F5F3F4F6901DC01CB01CC
:1006900084199509A609B70981369A4EA105B105B5
:1006A00008F057C0A114B10409F053C0C7010E945B
:1006B000B418892B91F0C7010E94DB188F3F3FEFE0
:1006C000930759F00B3221E01207A8F7F601E00F6B
:1006D000F11F80830F5F1F4FEECF0115110539F118
:1006E000C7010E941119811122C0C7010E94361949
:1006F00081E294E00E947817F601E00FF11F10826A
:10070000C6010E945802B401C6010E940B1D8C193B
:100710009D0997FD0FC0B4018AEB91E00E947C0215
:1007200092E0A92EB12C00E010E0332433940E9413
:10073000E50AACCF89EB91E00E946A0281ED91E07D
:100740000E946A0282E0A82EB12C00E010E0312C59
:10075000EECF89ED91E00E946A02C7010E946D18F8
:10076000832DC45DDE4F0FB6F894DEBF0FBECDBF44
:10077000DF91CF911F910F91FF90EF90DF90CF907D
:10078000BF90AF909F908F907F906F905F904F90B1
:100790003F9008958130910529F0029729F42BEFBD
:1007A00031E002C029EE31E0C90108958F929F9295
:1007B000AF92BF92EF92FF920F931F93CF93DF936D
:1007C0004B015C01CA010E94CA037C0161E070E038
:1007D00085E090E00E949C1B8C014AE0BC01C401B2
:1007E0000E94251DF70101900020E9F73197CF0104
:1007F0008E199F09F80101900020E9F73197E01B5D
:10080000F10B8E0F9F1F61E070E084599F4F0E9493
:100810009C1BEC01B7010E94001D64E172E0CE0157
:100820000E94001D6BE172E0CE010E94001D60E29B
:1008300072E0CE010E94001D67E272E0CE010E94CC
:10084000001D66E372E0CE010E94001DB801CE01DA
:100850000E94001D6EE372E0CE010E94001D64E65E
:1008600072E0CE010E94001D66E772E0CE010E9498
:10087000001D67EB71E0CE010E94001DCE01DF91EB
:10088000CF911F910F91FF90EF90BF90AF909F90ED
:100890008F9008958130910529F0029729F42AE973
:1008A00032E002C025E832E0C90108954F925F921C
:1008B0006F927F92AF92BF92CF92DF92EF92FF92B0
:1008C0000F931F93CF93DF93CDB7DEB72F970FB65C
:1008D000F894DEBF0FBECDBF2B013C015A01790158
:1008E00082EA92E00E946A02A501C301B2010E945D
:1008F000D6036C01C5010E944A045C0140E550E04A
:10090000B801C7010E94921A892B79F1B601C7017B
:100910000E949109F701828193819C838B8381E3FB
:1009200093E09A83898384818D8385819681A781D1
:10093000B0858E839F83A887B987818592859B87A1
:100940008A87838594859D878C8785858E87868514
:100950008F87BE016F5F7F4FC5010E941703F82E7E
:10096000CE0101960E94521A07C08AEB92E00E94C3
:100970006A020E94C002F12CC6010E944D1C8F2DFC
:100980002F960FB6F894DEBF0FBECDBFDF91CF918B
:100990001F910F91FF90EF90DF90CF90BF90AF909D
:1009A0007F906F905F904F9008954F925F926F92FB
:1009B0007F92AF92BF92CF92DF92EF92FF920F930E
:1009C0001F93CF93DF93CDB7DEB7A2970FB6F894FE
:1009D000DEBF0FBECDBF2B013C016A018DEC92E062
:1009E0000E946A020E949E0280EC8F8F88EA88A390
:1009F00082EB89A387E18AA340E550E0BE01615EF6
:100A00007F4FCE0140960E94381AEE24E394F12CD9
:100A100091E3A92E93E0B92E8FEFE81AF80A8A899C
:100A20009B899C838B83BA82A9828C898D838D89D3
:100A30009E89AF89B88D8E839F83A887B987898D5A
:100A40009A8D9B878A878B8D9C8D9D878C878D8DBA
:100A50008E878E8D8F878E01015E1F4F9E012F5FC7
:100A60003F4FA601C301B2010E945604811105C087
:100A700011E085E0E816F1040CF010E0CE010196DB
:100A80000E94521A1111C8CFCE0140960E94521AEC
:100A9000A2960FB6F894DEBF0FBECDBFDF91CF9107
:100AA0001F910F91FF90EF90DF90CF90BF90AF908C
:100AB0007F906F905F904F90089526E040E855E258
:100AC00060E070E08AE693E00E945D0861E087E004
:100AD0000E94D30B61E085E00E94D30B61E08DE0C2
:100AE0000E94D30B61E08BE00E94D30B61E087E0B2
:100AF0000E940F0C60E971E080E090E00E94160B0C
:100B000060E087E00E940F0C0C94C0028F929F92CD
:100B1000AF92BF92CF93DF9300D000D0CDB7DEB7B6
:100B20004B015C0129833A834B835C830E94E50A75
:100B3000DC01CB0188199909AA09BB0961E0298167
:100B40003A814B815C8182179307A407B50708F4AB
:100B500060E0862F0F900F900F900F90DF91CF9154
:100B6000BF90AF909F908F9008956F927F92AF92B9
:100B7000BF92CF92DF92EF92FF920F931F9320913B
:100B80000A0130910B0160900C0170900D01A09151
:100B90000E01B0910F01E0911001F091110140910F
:100BA0001201509113018217930734F08C014817FA
:100BB00059071CF48A0101C08901B801012E000CFB
:100BC000880B990B601671068CF07301770C000B83
:100BD000110B032E000C440B550B1F921F921F92FA
:100BE000E4E1EF93A12CB12C650147C0A017B10738
:100BF000B4F07D01BB0F000B110B93012F5F3F4F32
:100C0000032E000C440B550B1F921F921F92E8E21B
:100C1000EF93A5E1AA2EB12CC12CD12C2EC0E01748
:100C2000F107B4F07F01FF0F000B110B9D012F5F47
:100C30003F4F032E000C440B550B1F921F921F9227
:100C4000E0E5EF93F9E2AF2EB12CC12CD12C15C009
:100C50007A01550F000B110B9F012F5F3F4F032EA1
:100C6000000C440B550B1F921F921F92E4E6EF936A
:100C7000E1E5AE2EB12CC12CD12C0E945A0A0F9066
:100C80000F900F900F901F910F91FF90EF90DF90BA
:100C9000CF90BF90AF907F906F900895CF92DF92EA
:100CA000EF92FF9261E085E00E940F0C0E94E50A3E
:100CB0006B017C01DC01CB018C199D09AE09BF09D8
:100CC00040912401509125016091260170912701E6
:100CD00084179507A607B70718F40E94E50AEACF1C
:100CE00084E00E948D0B909361038093600360E029
:100CF00085E00E940F0C8091600390916103FF904A
:100D0000EF90DF90CF9008950E944E0620910C0145
:100D100030910D01281739078CF420910E01309184
:100D20000F01281739076CF420911001309111013F
:100D3000281739074CF483EF92E0089586EE92E08D
:100D400008958FEE92E0089588EF92E00895882349
:100D500081F00E94E50A60936603709367038093B5
:100D60006803909369030E94840690935F038093C5
:100D70005E03089522E0863E920739F08F5E92402E
:100D800021F060E087E00C940F0C0895CF92DF9281
:100D9000EF92FF920E94E50A6B017C01DC01CB011E
:100DA0008C199D09AE09BF0980329E44A105B10589
:100DB00078F060E08BE00E940F0C88EF92E0909357
:100DC0005F0380935E03FF90EF90DF90CF900895D4
:100DD0000E948406835F924061F361E08BE00E9491
:100DE0000F0C0E94E50ADACF865E924011F40C9453
:100DF000C60660E08BE00C940F0C882339F0CB0121
:100E00000E94B50541E050E00C94D5040895882374
:100E100061F08EEF92E00E946A0242E050E061E0F1
:100E200070E080E090E00C94D5040895CF93DF93B8
:100E30002091200130912101409122015091230104
:100E400060916603709167038091680390916903D4
:100E50000E948605C82F20911801309119014091F8
:100E60001A0150911B01609162037091630380919C
:100E70006403909165030E948605D82F8C2F0E94F1
:100E8000A70680915E0390915F030E94BA0680914D
:100E90005E0390915F030E94F4068D2F0E94070766
:100EA00060916003709161038C2FDF91CF910C945E
:100EB000FD060E94520B0E9457020E945D05C5EC80
:100EC000D7E00E9416072097E1F30E94C507F9CFEB
:100ED0008091200190912101A0912201B0912301E4
:100EE000B095A095909581959F4FAF4FBF4F809340
:100EF000660390936703A0936803B093690380919E
:100F0000180190911901A0911A01B0911B01B0959F
:100F1000A095909581959F4FAF4FBF4F80936203EF
:100F200090936303A0936403B09365030895FC0159
:100F3000918D228D892F90E0805C9F4F821B9109BB
:100F40008F7399270895FC01918D828D981731F048
:100F5000828DE80FF11D858D90E008958FEF9FEF52
:100F60000895FC01918D828D981761F0828DDF01CB
:100F7000A80FB11D5D968C91928D9F5F9F73928F8C
:100F800090E008958FEF9FEF08958AE199E0892B13
:100F900049F080E090E0892B29F00E941A09811124
:100FA0000C9400000895FC01848DDF01A80FB11D91
:100FB000A35ABF4F2C91848D90E001968F7399278F
:100FC000848FA689B7892C93A089B1898C9180647C
:100FD0008C93938D848D981306C00288F389E02D3D
:100FE00080818F7D80830895CF93DF93EC01888D7E
:100FF0008823C9F0EA89FB89808185FD05C0A8891D
:10100000B9898C9186FD0FC00FB607FCF5CF8081A2
:1010100085FFF2CFA889B9898C9185FFEDCFCE01EC
:101020000E94D307E7CFDF91CF910895EF92FF920F
:101030000F931F93CF93DF93EC0181E0888F9B8DFB
:101040008C8D981305C0E889F989808185FD24C0BD
:10105000F62E0B8D10E00F5F1F4F0F731127E02E40
:101060008C8DE8120CC00FB607FCFACFE889F9891D
:10107000808185FFF5CFCE010E94D307F1CF8B8D04
:10108000FE01E80FF11DE35AFF4FF0820B8FEA8952
:10109000FB898081806207C0EE89FF896083E889CF
:1010A000F98980818064808381E090E0DF91CF9135
:1010B0001F910F91FF90EF900895CF92DF92EF92E2
:1010C000FF921F93CF93DF93EC016A017B01122FF4
:1010D000E889F98982E080834115514E61057105E7
:1010E000B1F060E079E08DE390E0A70196010E9405
:1010F0003B1BDA01C9010197A109B109B695A79572
:1011000097958795AC01411580E15807A8F0E889CB
:10111000F989108260E874E88EE190E0A7019601F9
:101120000E943B1BBA01A901415051096109710993
:101130007695679557954795EC85FD855083EE85A7
:10114000FF854083188EEC89FD891083EA89FB892D
:10115000808180618083EA89FB89808188608083C7
:10116000EA89FB89808180688083EA89FB898081A4
:101170008F7D8083DF91CF911F91FF90EF90DF9063
:10118000CF9008951F920F920FB60F9211242F93B4
:101190008F939F93EF93FF93E0917A03F0917B03FA
:1011A0008081E0918003F091810382FD12C09081E3
:1011B000809183038F5F8F7320918403821751F096
:1011C000E0918303F0E0E659FC4F958F8093830311
:1011D00001C08081FF91EF919F918F912F910F908E
:1011E0000FBE0F901F9018951F920F920FB60F927F
:1011F00011242F933F934F935F936F937F938F931C
:101200009F93AF93BF93EF93FF938AE693E00E947F
:10121000D307FF91EF91BF91AF919F918F917F91F4
:101220006F915F914F913F912F910F900FBE0F9053
:101230001F9018958AE693E00E94970721E0892B7A
:1012400009F420E0822F0895EAE6F3E01382128287
:1012500088EE93E0A0E0B0E084839583A683B78313
:1012600083E193E09183808385EC90E09587848788
:1012700084EC90E09787868780EC90E0918B808B60
:1012800081EC90E0938B828B82EC90E0958B848B49
:1012900086EC90E0978B868B118E128E138E148EB7
:1012A0000895CF92DF92EF92FF920F931F93CF9307
:1012B000DF936C017A018B01C0E0D0E0CE15DF0531
:1012C00089F0D8016D918D01D601ED91FC910190CD
:1012D000F081E02DC6010995892B11F47E0102C031
:1012E0002196ECCFC701DF91CF911F910F91FF9015
:1012F000EF90DF90CF9008956115710579F0FB01B3
:1013000001900020E9F73197AF01461B570BDC0134
:10131000ED91FC910280F381E02D099480E090E052
:1013200008950C947C09DC01ED91FC910190F08111
:10133000E02D099467EB71E00C947C090F931F93E7
:10134000CF93DF93EC010E947C098C01CE010E94B7
:101350009A09800F911FDF91CF911F910F910895EE
:101360004F925F926F927F92EF92FF920F931F9333
:10137000CF93DF93CDB7DEB7A1970FB6F894DEBF5A
:101380000FBECDBF7C01FA01CB0119A2223008F4B7
:101390002AE08E010F5D1F4F422E512C612C712CC3
:1013A000BF01A30192010E943B1BF901CA01015038
:1013B00011096A3014F4605D01C0695CD8016C9356
:1013C000232B242B252B61F7B801C7010E947C0930
:1013D000A1960FB6F894DEBF0FBECDBFDF91CF91BF
:1013E0001F910F91FF90EF907F906F905F904F90C3
:1013F0000895CF92DF92EF92FF920F931F93CF93B6
:10140000DF93EC016A017B012115310579F4E88154
:10141000F9810190F081E02D642FDF91CF911F9130
:101420000F91FF90EF90DF90CF9009942A30310513
:10143000E9F477FF1AC06DE20E9493098C014427FA
:101440005527BA014C195D096E097F092AE0CE01C2
:101450000E94B009800F911FDF91CF911F910F91D2
:10146000FF90EF90DF90CF9008952AE0B701A6019A
:10147000CE01DF91CF911F910F91FF90EF90DF9000
:10148000CF900C94B0090F931F93CF93DF93EC018F
:101490009A01AB01770F660B770B0E94F9098C015B
:1014A000CE010E949A09800F911FDF91CF911F9169
:1014B0000F9108954F925F926F927F92AF92BF9279
:1014C000CF92DF92EF92FF920F931F93CF93DF9310
:1014D000CDB7DEB729013A019B01AC0124193509CA
:1014E0004609570989899A89AB89BC89BC01CD0114
:1014F0006A197B098C099D090E942B1BA801970181
:1015000024193509460957090E945D1BCA01B90112
:101510006A0D7B1D8C1D9D1DDF91CF911F910F9139
:10152000FF90EF90DF90CF90BF90AF907F906F9043
:101530005F904F9008951F920F920FB60F92112453
:101540002F933F938F939F93AF93BF938091080402
:1015500090910904A0910A04B0910B043091070402
:1015600023E0230F2D3720F40196A11DB11D05C0E6
:1015700026E8230F0296A11DB11D20930704809336
:10158000080490930904A0930A04B0930B0480917B
:101590000C0490910D04A0910E04B0910F040196DB
:1015A000A11DB11D80930C0490930D04A0930E0413
:1015B000B0930F04BF91AF919F918F913F912F9165
:1015C0000F900FBE0F901F9018952FB7F894609151
:1015D00008047091090480910A0490910B042FBFB4
:1015E00008953FB7F89480910C0490910D04A09158
:1015F0000E04B0910F0426B5A89B05C02F3F19F02B
:101600000196A11DB11D3FBFBA2FA92F982F882782
:10161000820F911DA11DB11DBC01CD0142E0660FDD
:10162000771F881F991F4A95D1F708958F929F922F
:10163000AF92BF92CF92DF92EF92FF926B017C014B
:101640000E94F10A4B015C01C114D104E104F104D0
:1016500001F10E942A1B0E94F10ADC01CB018819CA
:101660009909AA09BB09883E9340A105B10560F319
:1016700021E0C21AD108E108F10888EE880E83E063
:10168000981EA11CB11CC114D104E104F10419F786
:10169000DBCFFF90EF90DF90CF90BF90AF909F9007
:1016A0008F900895789484B5826084BD84B58160FC
:1016B00084BD85B5826085BD85B5816085BDEEE65A
:1016C000F0E0808181608083E1E8F0E01082808139
:1016D00082608083808181608083E0E8F0E08081A7
:1016E00081608083E1EBF0E0808184608083E0EBC7
:1016F000F0E0808181608083EAE7F0E080818460AF
:10170000808380818260808380818160808380810A
:10171000806880831092C10008958E3008F08E504A
:1017200087702091280190E4299F90011124822B39
:1017300080937C0080917A00806480937A0080910D
:101740007A0086FDFCCF809178002091790090E0AE
:10175000922B0895833081F028F4813099F0823003
:10176000A1F008958730A9F08830B9F08430D1F421
:10177000809180008F7D03C0809180008F7780935F
:101780008000089584B58F7702C084B58F7D84BDB5
:1017900008958091B0008F7703C08091B0008F7D55
:1017A0008093B0000895CF93DF9390E0FC01EA5559
:1017B000FF4F2491FC01E654FF4F8491882361F18F
:1017C00090E0880F991FFC01E852FF4FC591D4911A
:1017D000FC01E253FF4FA591B491611109C09FB77D
:1017E000F8948881209582238883EC912E230BC066
:1017F000623061F49FB7F8943881822F80958323FB
:101800008883EC912E2B2C939FBF06C08FB7F89442
:10181000E8812E2B28838FBFDF91CF9108951F93EE
:10182000CF93DF93282F30E0F901EE56FF4F8491DC
:10183000F901EA55FF4FD491F901E654FF4FC491E5
:10184000CC23C9F0162F81110E94AA0BEC2FF0E0D7
:10185000EE0FFF1FE253FF4FA591B4918FB7F8949D
:10186000111105C09C91ED2FE095E92302C0EC9188
:10187000ED2BEC938FBFDF91CF911F910895CF9304
:10188000DF9300D0CDB7DEB72091690430916A04B0
:10189000CE0101962115310519F48D56944002C0F0
:1018A000821B930B9A83898389819A810F900F9071
:1018B000DF91CF910895DC01DA9620E030E04C9181
:1018C000461307C0220F331FFC01E20FF31F83AD45
:1018D00008952F5F3F4F12962730310581F78FEF24
:1018E0000895403885E258076105710560F0413080
:1018F00080E4580788E36807710548F040E050E449
:1019000068E370E004C040E855E260E070E026E083
:101910008AE693E00E945D088091C200886080930F
:10192000C2000895CF93DF9300D0CDB7DEB7FB019F
:1019300083811F928F9382811F928F9381811F9247
:101940008F9380811F928F9385EE90E09F938F936A
:101950005F934F9349835A830E944A1D0FB6F894B0
:10196000DEBF0FBECDBF4981842F5A81952F0F90C6
:101970000F90DF91CF910895662341F08FE39CE9AA
:101980000197F1F700C000006150F6CF08958AE694
:1019900093E00E949707892BD1F38AE693E00E9497
:1019A000B10708958AE693E00E94B1070895CF92A7
:1019B000DF92EF92FF92CF93DF93EC018AE693E000
:1019C0000E94F4070E94E50A6B017C018091C0002F
:1019D00087FF11C00E94E50AAB01BC014C195D09EB
:1019E0006E097F09423351056105710550F4CE013E
:1019F0000E94D20CEBCF8AE693E00E949707892BD6
:101A000049F761E0CE01DF91CF91FF90EF90DF9039
:101A1000CF900C94BC0CCF93DF93EC010E94D70CB9
:101A20004AA95BA96CA97DA9CE010E94710C1982FB
:101A30005B98DF91CF910895CF93DF93EC010E94E3
:101A4000D70C19825B9ADF91CF910895FC01118226
:101A5000FB96AC01475B5F4F2FEFDF0111972C9393
:101A600020833296E417F507C1F70C94D70C0F9337
:101A70001F93CF93DF938C018AE693E00E94F407D3
:101A80008AE693E00E949707EC01209729F0C801AD
:101A90000E94D20C2197F9CFDF91CF911F910F9126
:101AA00008952F923F924F925F926F927F928F9202
:101AB0009F92AF92BF92CF92DF92EF92FF920F93DD
:101AC0001F93CF93DF93CDB7DEB727970FB6F89468
:101AD000DEBF0FBECDBF9F838E834B012A0159010C
:101AE0003801FA82E982FC0181818230C9F4FB016C
:101AF00080818F3F21F09091290189130EC0C1147C
:101B0000D10471F480912901F401808380911F0434
:101B100090912004F2019183808380E090E09FC146
:101B200000E010E02E813F81265C3F4F3C832B83F9
:101B300033243A9452E0252EEE81FF818181813059
:101B4000E1F018F0823029F1DAC021E0EE81FF8166
:101B50002183309229011092200410921F041092C8
:101B60001E0410921D0410921C041092180410926E
:101B7000190410921A0410921B0480911E048830DC
:101B800068F58AE693E00E949707892B09F02DC13A
:101B900025C08E819F810E94C70CE981FA818083D4
:101BA000F1E0CF1AD1080F5F1F4F80911F04909171
:101BB000200401979093200480931F04892B09F03F
:101BC0009AC08E819F810E94C70C8E819F810E9446
:101BD000C70CEE81FF81118221E092C080911E042A
:101BE000883008F48CC070911004609111045091F9
:101BF0001204409113043091140420911504909123
:101C0000160480911704723509F094C0633509F009
:101C1000DAC0593409F0D7C04F3509F0D4C0323595
:101C200009F0D1C0253409F0CEC0913409F0CBC001
:101C3000843409F0C8C08E819F810E94C70C8093B4
:101C400029018E819F810E94C70C90E0909320040F
:101C500080931F048E819F810E94C70C20911F04D6
:101C600030912004A901582BCA01509320044093BD
:101C70001F0460912901EE81FF816F3F09F44DC07F
:101C8000892B09F44AC02182CF010E945B0C81306C
:101C900071F58E819F810E94C70C809318048E81FC
:101CA0009F810E94C70C809319048E819F810E949E
:101CB000C70C80931A048E819F810E94C70C809369
:101CC0001B048E819F810E94C70C90E090931D049D
:101CD00080931C048E819F810E94C70C20911C045C
:101CE00030911D04382B30931D0420931C04F40103
:101CF00080818F3FD1F421E0C114D10409F020E0AC
:101D00008AE693E02D830E9497072D81892B09F4A1
:101D10007CC0222309F410CF78C0118230922901AF
:101D20001092200410921F04EACF90912901891784
:101D300011F3F3CE733509F046C0693409F043C09E
:101D40005F3509F040C04334F1F53C34E1F52F3400
:101D5000D1F59335C1F58534B1F58E819F810E940F
:101D6000C70C809329018E819F810E94C70C8E81B0
:101D70009F810E94C70C1092200410921F04EE81D4
:101D8000FF81118220912901EB81FC8180E090E0AC
:101D90003081321310C0FC017D96EE0FFF1F2E81A3
:101DA0003F81E20FF31F3082880F991FF901E80F7E
:101DB000F91F33AE05C0019632968730910541F781
:101DC0000FEF1FEF09CF77E070931E0460931004AC
:101DD000509311044093120430931304209314047D
:101DE00090931504809316048ACFE0901E0481E03E
:101DF0008E0D80931E04F12C8AE693E00E94B107B9
:101E0000F701E05FFB4F8083B8CE80912901F40198
:101E1000808380911F0490912004F201918380833C
:101E2000A114B10479F080911804882359F0F501C8
:101E3000808380911904818380911A048283809128
:101E40001B0483836114710449F080911C049091F8
:101E50001D04009719F0F30191838083C801279630
:101E60000FB6F894DEBF0FBECDBFDF91CF911F91AB
:101E70000F91FF90EF90DF90CF90BF90AF909F9029
:101E80008F907F906F905F904F903F902F9008952C
:101E90009F92AF92BF92CF92DF92EF92FF920F93F9
:101EA0001F93CF93DF9300D01F92CDB7DEB75C01B5
:101EB000962E8AE693E00E949707892BA9F08FEF70
:101EC0008B831A821982C12CD12CE12CF12C00E0D9
:101ED00010E020E030E0AE014F5F5F4FBE016D5F6C
:101EE0007F4FC5010E94510D8FEF981661F0F501EB
:101EF000FA9688E4A80EB11C8081891531F03296DB
:101F0000EA15FB05C9F781E001C080E00F900F9052
:101F10000F90DF91CF911F910F91FF90EF90DF9085
:101F2000CF90BF90AF909F900895CF92DF92EF92A5
:101F3000FF920F931F936801790100E010E020E009
:101F400030E00E94510D1F910F91FF90EF90DF90B4
:101F5000CF9008952F923F924F925F926F927F920F
:101F60008F929F92AF92BF92CF92DF92EF92FF92A9
:101F70000F931F93CF93DF93CDB7DEB72E970FB696
:101F8000F894DEBF0FBECDBF2C013B014A873C87D2
:101F90002B871E870D8717014601FC018181823046
:101FA00009F44CC18AE693E00E949707892BD1F08F
:101FB0008FEF89871A821982C12CD12CE12CF12C48
:101FC00000E010E020E030E0AE014F5F5F4FBE0167
:101FD000675F7F4FC2010E94510D89819A81892BD1
:101FE00009F02CC1EB85FC8564918F010F5F1F4FB9
:101FF000662339F08AE693E00E941608F80164919E
:10200000F5CF8D859E85892B39F42114310441F15A
:1020100081010F5F1F4F20C00D851E85F801619162
:102020008F01662391F38AE693E00E941608F6CFAB
:102030006D3009F010C1F80184918A3009F00BC1AC
:102040006BED8AE693E00E9416086CED8AE693E059
:102050000E9416080E5F1F4FF10164916111F0C0DC
:10206000A114B104F1F4C2010E94370D6DE08AE6BB
:1020700093E00E9416086AE08AE693E00E94160840
:10208000FA85F1117EC019821E820E94E50A4B0179
:102090005C0130E1C32E37E2D32EE12CF12C10E0AD
:1020A00040C0F40160816B3D81F48AE693E00E94B8
:1020B00016086DED8AE693E00E941608FFEF8F1A6E
:1020C0009F0A81E0A81AB108CBCF6D30C9F4F401A2
:1020D00081818A30A9F4F2E0AF16B10488F06BED8B
:1020E0008AE693E00E9416086CED8AE693E00E946F
:1020F000160882E0880E911C92E0A91AB108B0CFB0
:10210000EFEF8E1A9E0A8AE693E00E941608F1E02D
:10211000AF1AB108A5CF8AE693E00E949707892BF2
:1021200071F40E94E50ADC01CB0188199909AA091A
:10213000BB098C159D05AE05BF0568F36BC08AE62B
:1021400093E00E94B107183080F401E0010FE1E054
:10215000F0E0EC0FFD1FE10FF11D808389818F34CA
:1021600029F0853419F000E001C0012F0E94E50A32
:102170004B015C0123E0C22ED12CE12CF12C102F5D
:10218000D0CFF301108215820E94E50A6B017C0119
:1021900090E1892E97E2992EA12CB12C10E00E949B
:1021A000E50ADC01CB018C199D09AE09BF09881530
:1021B0009905AA05BB0538F58AE693E00E949707C2
:1021C000892B69F38AE693E00E94B107FA851F170D
:1021D00070F401E0010FF301E10FF11D8083F301C1
:1021E00080818F3429F0853419F000E001C0012F7F
:1021F0000E94E50A6B017C0183E0882E912CA12CC2
:10220000B12C102FCCCFF3018081898381818A8307
:1022100085818E8389818F3439F481E09A819B3462
:1022200009F480E081951FC0853441F48A818235AC
:1022300029F48E81882311F08D30A9F48FEF13C01B
:10224000C80101961C016B3D09F0F2CE8AE693E0CD
:102250000E9416086DED8AE693E00E941608F801C8
:1022600064918101FBCE2E960FB6F894DEBF0FBEAF
:10227000CDBFDF91CF911F910F91FF90EF90DF9035
:10228000CF90BF90AF909F908F907F906F905F9016
:102290004F903F902F9008955F926F927F928F9210
:1022A0009F92AF92BF92CF92DF92EF92FF920F93E5
:1022B0001F93CF93DF93CDB7DEB72A970FB6F8946D
:1022C000DEBF0FBECDBF4C013B01542EC8014AE01A
:1022D000BE016F5F7F4F29873A870E94251DA12C81
:1022E000B12CC12CD12CE12CF12C8E010F5F1F4F92
:1022F00029853A85452DB301C4010E94AA0F2A966B
:102300000FB6F894DEBF0FBECDBFDF91CF911F9106
:102310000F91FF90EF90DF90CF90BF90AF909F9084
:102320008F907F906F905F9008950F931F939B0104
:102330008A0140E060E070E00E944C111F910F9113
:1023400008958F929F92AF92BF92CF92DF92EF92B9
:10235000FF920F931F93CF93DF93CDB7DEB72B97E9
:102360000FB6F894DEBF0FBECDBF5C01962E882459
:102370008A948AE693E00E949707892B81F18B86E5
:102380001A861986C12CD12CE12CF12C00E010E02A
:1023900020E030E0AE01475F5F4FBE01655F7F4FD9
:1023A000C5010E94510D8B85891119C089859A85B7
:1023B000892BF9F29B8628E0C22ED12CCE01019602
:1023C0007C0100E010E020E030E0AE01475F5F4FAD
:1023D000BE01655F7F4FC5010E94510DE7CF9FEFA2
:1023E000991202C080E02CC0F501FA9620E030E09E
:1023F000808189111EC0F9017D96EE0FFF1FEA0D45
:10240000FB1D8FEF8083220F331FF501E20FF31FB7
:1024100083AF13E0892C912CA40165E271E0C50122
:102420000E9495118823F1F28E3FE1F21150A1F73D
:1024300007C02F5F3F4F329627303105C9F6D2CF04
:102440002B960FB6F894DEBF0FBECDBFDF91CF91B4
:102450001F910F91FF90EF90DF90CF90BF90AF90C2
:102460009F908F900895AF92BF92CF92DF92EF929C
:10247000FF920F931F9357016801E12CF12C00E0AC
:1024800010E00E94AA0F1F910F91FF90EF90DF9034
:10249000CF90BF90AF9008956F927F928F929F924E
:1024A000AF92BF92CF92DF92EF92FF920F931F9362
:1024B000CF93DF93EC016B014A0183E0782E5E013C
:1024C00082E0A80EB11C90E3692EF501862D1192D1
:1024D0008A95E9F7F60101900020E9F731977F012D
:1024E000EC18FD08860127E134E040E3B501CE0198
:1024F0000E94331281110EC09C81992359F08D8165
:102500009E81AF81B885F40180839183A283B383D8
:1025100080E003C07A947110D8CFDF91CF911F91E2
:102520000F91FF90EF90DF90CF90BF90AF909F9072
:102530008F907F906F900895AF92BF92CF92DF926D
:10254000EF92FF920F931F93A12CB12CC12CD12C91
:10255000E12CF12C0E94AA0F1F910F91FF90EF9098
:10256000DF90CF90BF90AF9008958F929F92AF92DF
:10257000BF92DF92EF92FF920F931F93CF93DF935F
:1025800000D0CDB7DEB74C01D62EBA017C0182E077
:10259000E80EF11CA701C40129833A830E94920C22
:1025A0006EE571E0C7010E94E51CF7010190002073
:1025B000E9F73197EE19FF093A813F9329812F936B
:1025C00052EEA52E50E0B52EBF92AF92FF27329665
:1025D000E80DF91DFF93EF930E944A1D6CE571E031
:1025E000C7010E94E51CF70101900020E9F731972F
:1025F000EE19FF091F930F93BF92AF92FF273296F8
:10260000E80DF91DFF93EF930E944A1D0FB6F89451
:10261000DEBF0FBECDBFF2E08701DF1203C029E4A9
:1026200031E004C0D1100CC02DE331E048E0B70127
:10263000C4010E949C1281112EC0F40184810DC03E
:1026400021E331E048E0B701C4010E949C128111EE
:1026500022C0F4018481DD24D3948F3FE9F0F4019A
:10266000FA9620E030E090819F3F71F4F9017D9669
:10267000EE0FFF1FE80DF91D8083220F331F280D79
:10268000391DF901D3AE08C02F5F3F4F3296273076
:10269000310549F701C08FEF0F900F90DF91CF9177
:1026A0001F910F91FF90EF90DF90BF90AF909F90A0
:1026B0008F9008950F931F93E0912A01F0912B01C1
:1026C0003196E13078E0F70710F0E0E0F4E0F093C5
:1026D0002B01E0932A0100912A0110912B010E9405
:1026E000B5121F910F910895AF92BF92CF92DF92D2
:1026F000EF92FF920F931F93A12CB12CC12CD12CE0
:10270000E12CF12C00E010E00E94AA0F1F910F9124
:10271000FF90EF90DF90CF90BF90AF900895AF9271
:10272000BF92CF92DF92EF92FF920F931F93A12C53
:10273000B12CC12CD12C79018A019B0140E060E0D1
:1027400070E00E94AA0F1F910F91FF90EF90DF9011
:10275000CF90BF90AF9008955F926F927F928F92CB
:102760009F92AF92BF92CF92DF92EF92FF920F9320
:102770001F93CF93DF937C01762E6A015901CA0122
:102780000E94F01C682E592EE70122961F927F921C
:1027900082EE882E80E0982E9F928F92DF93CF93C7
:1027A0000E944A1D69E071E0CE010E94E51CFE0115
:1027B00001900020E9F73197EC1BFD0B5F926F92BF
:1027C0009F928F92FF273296EE0DFF1DFF93EF939E
:1027D0000E944A1D8DB79EB70C960FB6F8949EBF07
:1027E0000FBE8DBFA114B10409F463C0672DC701EA
:1027F0000E945B0C813009F05CC067E071E0CE01A3
:102800000E94E51CFE0101900020E9F73197AF011D
:102810004C1B5D0B55274E5F5F4F4E0D5F1DB50185
:10282000C7010E94920C0115110509F448C0672DDB
:10283000C7010E945B0C813009F041C062E071E089
:10284000CE010E94E51CFE0101900020E9F73197BE
:10285000EC1BFD0B1F930F9382EE90E09F938F93E1
:10286000FF273296EE0DFF1DFF93EF930E944A1D46
:102870000F900F900F900F900F900F906DEF70E0F2
:10288000CE010E94E51C9601AE0161EF70E0C70128
:10289000DF91CF911F910F91FF90EF90DF90CF903C
:1028A000BF90AF909F908F907F906F905F900C94AF
:1028B0008F1364E071E0CE010E94E51CB4CF6FEF8E
:1028C00070E0CE010E94E51CD9CFAF92BF92CF92AB
:1028D000DF92EF92FF920F931F9358016901E12C51
:1028E000F12C8A019B0140E060E070E00E94AA0F99
:1028F0001F910F91FF90EF90DF90CF90BF90AF901E
:1029000008955F926F927F928F929F92AF92BF9243
:10291000CF92DF92EF92FF920F931F93CF93DF93AB
:102920006C01762E4A01522E632EEC0122961F92E4
:102930006F9382EEA82E80E0B82EBF92AF92DF9305
:10294000CF930E944A1D63E271E0CE010E94E51C14
:10295000FE0101900020E9F73197EC1BFD0B6F920F
:102960005F92BF92AF92FF273296EC0DFD1DFF9351
:10297000EF930E944A1D8DB79EB70C960FB6F89440
:102980009EBF0FBE8DBF0115110539F0672DC60121
:102990000E945B0C813009F44EC06EE171E0CE0103
:1029A0000E94E51CE114F10409F45CC0672DC60126
:1029B0000E945B0C813009F055C06CE171E0CE01E2
:1029C0000E94E51CFE0101900020E9F73197EC1B05
:1029D000FD0BFF92EF9282EE90E09F938F93FF2783
:1029E0003296EC0DFD1DFF93EF930E944A1D0F9050
:1029F0000F900F900F900F900F9067E171E0CE0154
:102A00000E94E51C052D162D9401AE016BE071E0CE
:102A1000C6010E946514DF91CF911F910F91FF9025
:102A2000EF90DF90CF90BF90AF909F908F907F906E
:102A30006F905F90089561E271E0CE010E94E51C05
:102A4000FE0101900020E9F73197AF014C1B5D0BAF
:102A500055274E5F5F4F4C0D5D1DB801C6010E94AA
:102A6000920CA0CF69E171E0CE010E94E51CC5CFB8
:102A7000EF92FF920F931F93FA0101900020E9F764
:102A80003197E41BF50B780189019F010E948114A5
:102A90001F910F91FF90EF900895AF92BF92CF9248
:102AA000DF92EF92FF920F931F939B01A12CB12C09
:102AB000C12CD12CE12CF12C8A0140E060E070E0C7
:102AC0000E94AA0F1F910F91FF90EF90DF90CF907F
:102AD000BF90AF9008956F927F928F929F92AF9226
:102AE000BF92CF92DF92EF92FF920F931F93CF93FB
:102AF000DF931F92CDB7DEB73C015A0149016983CC
:102B00000E94260DF30116AA17AA10AE11AE63019A
:102B1000F2E0CF0ED11C80E3F60111928A95E9F71D
:102B20006981623051F426EB31E040E3B601C30124
:102B30000E947413811191C00BC0662399F022EAA0
:102B400031E040E3B601C3010E947413811187C0D4
:102B5000F301428553856485758546AB57AB60AFFD
:102B600071AF7EC08114910459F0A601B401C30174
:102B70000E94920CA60160E971E0C3010E944D150C
:102B8000A114B10481F0A601B501C3010E94920C09
:102B9000F50180819181A281B381F30186AB97AB6E
:102BA000A0AFB1AF0DC064E871E0C6010E94E51CA2
:102BB00080ECF30186AB88EA87AB10AE81E081AF91
:102BC000E114F104B9F062E871E0C6010E94E51C6D
:102BD000F60101900020E9F73197AF014C195D092A
:102BE00055274E5F5F4F460D571DB701C3010E9429
:102BF000920C05C063E771E0C6010E94E51C011557
:102C00001105B1F061E771E0C6010E94E51CF60113
:102C100001900020E9F73197AF014C195D09552764
:102C20004E5F5F4F460D571DB801C3010E94920CC5
:102C3000A60160E671E0C3010F90DF91CF911F9173
:102C40000F91FF90EF90DF90CF90BF90AF909F904B
:102C50008F907F906F900C944D1582E001C081E0C1
:102C60000F90DF91CF911F910F91FF90EF90DF9028
:102C7000CF90BF90AF909F908F907F906F9008956E
:102C8000EF92FF920F931F93E12CF12C00E010E0E4
:102C900020E030E040E050E061E00E946B151F91C1
:102CA0000F91FF90EF900895AF92BF92CF92DF9275
:102CB000EF92FF920F931F939B01A12CB12CC12C7B
:102CC000D12CE12CF12C00E010E040E060E070E05D
:102CD0000E94AA0F1F910F91FF90EF90DF90CF906D
:102CE000BF90AF900895CF93DF93EC0166E074E05E
:102CF0000E94541668EF73E0CE01DF91CF910C94DF
:102D00005416AF92BF92CF92DF92EF920F931F9320
:102D1000CF93DF93EC016B015A011E2D213049F056
:102D200018F0223091F020C06AED73E00E94541632
:102D30001BC0452B29F06EEB73E00E945416BFC0F8
:102D400066EA73E00E945416B6C0402F50E0A1140A
:102D5000B10429F06BE873E00E949511B0C064E7FC
:102D600073E00E949511A7C0153038F4412F50E050
:102D700063E673E0CE010E949511A114B10431F015
:102D8000A50167E573E0CE010E944D15E8818E2F05
:102D900090E08531910508F096C0FC01EC5CFF4F96
:102DA0000C947C1B22E533E0A60165E473E077C058
:102DB00020E433E0A60163E373E071C02EE233E068
:102DC000A60161E273E06BC02CE133E0A6016FE085
:102DD00073E065C02AE033E0A6016DEF72E05FC0EA
:102DE00028EF32E0A6016BEE72E059C026EE32E029
:102DF000A60169ED72E053C024ED32E0A60167EC54
:102E000072E04DC022EC32E0A60165EB72E047C0F3
:102E100020EB32E0A60163EA72E041C02EE932E025
:102E2000A60161E972E03BC02CE832E0A6016FE741
:102E300072E035C02AE732E0A6016DE672E02FC0ED
:102E400028E632E0A6016BE572E029C026E532E013
:102E5000A60169E472E023C024E432E0A60167E33E
:102E600072E01DC022E332E0A60165E272E017C005
:102E700020E232E0A60163E172E011C02DE032E011
:102E8000A60160E072E00BC02AEF31E0A6016DEE12
:102E900071E005C027EE31E0A6016AED71E0CE01D8
:102EA000DF91CF911F910F91EF90DF90CF90BF9066
:102EB000AF900C948F13153008F068CF57CF1530B2
:102EC00008F05ECF53CF80E0DF91CF911F910F913B
:102ED000EF90DF90CF90BF90AF900895EF920F9357
:102EE000EE24EA9400E00E9481160F91EF9008957D
:102EF000CF93DF93EC010E94260D1EAA1FAA18AEE5
:102F000019AE6AEC71E0CE01DF91CF910C945416AA
:102F1000BF92CF92DF92EF92FF920F931F93CF93C6
:102F2000DF93EC016A017B01B22E61E083E00E9435
:102F3000D30B5B9A61E082E00E94D30B5A9861E068
:102F400081E00E94D30B61E081E00E940F0C60E001
:102F500080E00E94D30B61E080E00E940F0C1EAA6B
:102F60001FAA18AE19AEFE01329680E3DF011D9252
:102F70008A95E9F7CAAADBAAECAAFDAAB701A601BD
:102F8000CE010E94710CCE010E940B0D5A9865E093
:102F9000CE010E94BC0C5A9A6BE0CE010E94BC0C80
:102FA00014E00FEF6CE18AE693E00E9416080E949D
:102FB000E50A6B017C010E94E50ADC01CB018C195A
:102FC0009D09AE09BF09883C9105A105B10508F529
:102FD0008AE693E00E949707892B69F38AE693E0DB
:102FE0000E94B107853539F765E58AE693E00E94CE
:102FF00016086AE0CE010E94BC0C6EE68AE693E0F9
:103000000E9416086AE08AE693E00E94160811E022
:103010000EEF115039F664E1CE010E94BC0C13E0B2
:10302000CE010E94D70C60E474E0CE010E945416D9
:1030300081110DC062E374E0CE010E94541666E275
:1030400074E0CE010E945416B88200E009C06AE024
:10305000CE010E94BC0C115019F7CE010E941C0D2C
:10306000802FDF91CF911F910F91FF90EF90DF9014
:10307000CF90BF90089522E040E855E260E070E014
:103080000C948817CF92DF92EF92FF920F931F93C9
:10309000CF93DF937C016A018B01C0E0D0E0CC15B7
:1030A000DD0589F0D701ED91FC91068CF78DE02DBF
:1030B000C70109958F3FBFEF9B0729F0F801819366
:1030C0008F012196ECCFCE01DF91CF911F910F910F
:1030D000FF90EF90DF90CF9008950F931F93CF93C1
:1030E000DF93EC01E881F981048CF58DE02D0995E1
:1030F0008C010115110551F0E881F981068CF78DDD
:10310000E02DCE01099501501109F3CFDF91CF9148
:103110001F910F9108950F931F93CF93DF938C010D
:10312000DC01ED91FC9106A0F7A1E02D0995EC01E1
:10313000892B61F0D801ED91FC9106A0F7A1E02D5B
:1031400062E574E0C8010995C80FD91FCE01DF916F
:10315000CF911F910F91089521E0FC0184818F3F51
:1031600009F420E0822F08950F931F93CF93DF93EC
:1031700000D01F92CDB7DEB7FC0184818B831A8209
:1031800019828F3F71F000E010E020E030E0AE01E6
:103190004F5F5F4FBE016D5F7F4F81E294E00E9401
:1031A000950F89819A810F900F900F90DF91CF91A9
:1031B0001F910F910895EF92FF920F931F93CF935A
:1031C000DF9300D000D0CDB7DEB7FC0124812B8384
:1031D0002F3FB9F07C0101E010E09E012C5F3F4FD2
:1031E000AE014F5F5F4FBE016D5F7F4F81E294E0A4
:1031F0000E94950F009729F0019631F48FEFF701A7
:1032000084838FEF9FEF02C08C8190E00F900F902E
:103210000F900F90DF91CF911F910F91FF90EF9042
:1032200008951F93CF93DF93FC0164816F3FB1F04A
:10323000EC0181E294E00E94480F182F882319F0D6
:103240008FEF8C830BC08E858A3050F06C8181E2C9
:1032500094E00E94A1118FEF8C8303C010E001C0A5
:1032600011E0812FDF91CF911F910895CF93DF93CC
:10327000FC0124812F3F81F0EC010190F081E02DD1
:1032800002A0F3A1E02D09956C8181E294E00E94F7
:10329000A1118FEF8C831E86DF91CF910895CF927D
:1032A000DF92EF92FF920F931F93CF93DF931F92C2
:1032B000CDB7DEB76983FC0164816F3F01F16C011A
:1032C000FC01E184F2848C010B5F1F4F21E030E0B0
:1032D000AE014F5F5F4F81E294E00E948114F601DE
:1032E000882381F086858F5F86878A3040F06481ED
:1032F00081E294E00E94A1118FEFF601848380E0C7
:1033000090E003C0168681E090E00F90DF91CF91AE
:103310001F910F91FF90EF90DF90CF900895CF9283
:10332000DF92EF92FF920F931F93CF93DF93DC0115
:103330001496EC91EF3FF1F0C52ED42EAB01EC01C9
:10334000E984FA848C010B5F1F4F2D2D3C2D6E2FCD
:1033500081E294E00E948114882379F08E858F5F4A
:103360008E878A3038F06C8181E294E00E94A1114E
:103370008FEF8C8380E090E003C01E868D2D9C2D06
:10338000DF91CF911F910F91FF90EF90DF90CF9041
:103390000895EF92FF920F931F93CF93DF93EC0169
:1033A0009C819F3FD1F07B0109851A859E012B5F8F
:1033B0003F4FAB01692F81E294E00E9438158823CA
:1033C00079F08E858F5F8E878A3038F06C8181E24C
:1033D00094E00E94A1118FEF8C8380E090E009C0FF
:1033E0001E86F70101900020E9F73197CF018E1971
:1033F0009F09DF91CF911F910F91FF90EF9008955A
:10340000EF92FF920F931F93CF93DF937B01FC0109
:1034100064816F3F21F1EC01018512859C012B5FD6
:103420003F4FA70181E294E00E94AC13882369F02A
:103430008E858F5F8E878A3090F06C8181E294E078
:103440000E94A1118FEF8C830AC01E86C701DF91F5
:10345000CF911F910F91FF90EF900C94F01C80E0A2
:1034600090E0DF91CF911F910F91FF90EF90089521
:10347000FC01DB011382128281E393E0918380835C
:103480008C91858311968C911197868312968C91DD
:103490001297878313968C918087528741878FEF8D
:1034A0008483089521E333E0FC01318320830C946D
:1034B0003619FF920F931F93CF93DF93FC01248162
:1034C0002F3F19F080E090E01BC0F62EEC01038541
:1034D000148521853285AC014B5F5F4F81E294E01A
:1034E0000115110519F00E94B51202C00E945A136D
:1034F0008C838C818F3F31F3FD861E8681E090E0C6
:10350000DF91CF911F910F91FF90089560E00C948F
:10351000591A61E00C94591A60E00C94591A61E050
:103520000C94591AFC01DB018C91858311968C91C6
:103530001197868312968C911297878313968C919C
:1035400080875287418760E0CF010C94591AFC01B3
:10355000DB018C91858311968C911197868312964D
:103560008C911297878313968C918087528741871D
:1035700061E0CF010C94591AFC01DB018C91858329
:1035800011968C911197868312968C91129787834E
:1035900013968C918087528741873487238760E018
:1035A000CF010C94591AFC01DB018C918583119693
:1035B0008C911197868312968C911297878313961C
:1035C0008C918087528741873487238761E0CF01C0
:1035D0000C94591A0F931F93CF93DF93EC018A0138
:1035E000AC014B5F5F4F81E294E00E944C1281116D
:1035F0000AC01A87098760E0CE01DF91CF911F9141
:103600000F910C94591A80E090E0DF91CF911F91B7
:103610000F9108950F931F93CF93DF93EC018A01CD
:10362000AC014B5F5F4F81E294E00E944C1281112C
:103630000AC01A87098761E0CE01DF91CF911F91FF
:103640000F910C94591A80E090E0DF91CF911F9177
:103650000F9108950895DB018F939F930E94821B21
:10366000BF91AF91A29F800D911DA39F900DB29F1E
:10367000900D11240895A1E21A2EAA1BBB1BFD0177
:103680000DC0AA1FBB1FEE1FFF1FA217B307E40741
:10369000F50720F0A21BB30BE40BF50B661F771F99
:1036A000881F991F1A9469F7609570958095909579
:1036B0009B01AC01BD01CF010895052E97FB1EF4BF
:1036C00000940E94741B57FD07D00E943B1B07FC0F
:1036D00003D04EF40C94741B509540953095219571
:1036E0003F4F4F4F5F4F089590958095709561952E
:1036F0007F4F8F4F9F4F0895EE0FFF1F0590F4915E
:10370000E02D09940E948D1BA59F900DB49F900DF4
:10371000A49F800D911D11240895A29FB001B39F15
:10372000C001A39F700D811D1124911DB29F700DCA
:10373000811D1124911D08950F931F93CF93DF9343
:10374000869F8001879F100D969F100D1124C80140
:103750000E94B81BEC01009729F0A80160E070E01E
:103760000E94F91CCE01DF91CF911F910F91089516
:10377000CF93DF938230910510F482E090E0E091E6
:103780006B04F0916C0420E030E0C0E0D0E03097B2
:1037900011F14081518148175907C0F04817590766
:1037A00061F482819381209719F09B838A832BC0D7
:1037B00090936C0480936B0426C02115310519F099
:1037C0004217530718F49A01BE01DF01EF0102808E
:1037D000F381E02DDCCF2115310509F1281B390BD0
:1037E0002430310590F412968D919C9113976115B8
:1037F000710521F0FB019383828304C090936C04D4
:1038000080936B04FD01329644C0FD01E20FF31F6B
:1038100081939193225031092D933C933AC020918A
:10382000690430916A04232B41F420910201309104
:10383000030130936A0420936904209100013091C0
:1038400001012115310541F42DB73EB74091040126
:1038500050910501241B350BE0916904F0916A0435
:10386000E217F307A0F42E1B3F0B2817390778F057
:10387000AC014E5F5F4F2417350748F04E0F5F1FB6
:1038800050936A04409369048193919302C0E0E0ED
:10389000F0E0CF01DF91CF9108950F931F93CF9365
:1038A000DF93009709F48CC0FC01329713821282D7
:1038B00000916B0410916C040115110581F42081B5
:1038C0003181820F931F2091690430916A04281777
:1038D000390779F5F0936A04E093690471C0D8015F
:1038E00040E050E0AE17BF0750F412962D913C9186
:1038F0001397AD012115310509F1D901F3CF9D01D0
:10390000DA013383228360817181860F971F8217CA
:10391000930769F4EC0128813981260F371F2E5F48
:103920003F4F318320838A819B8193838283452B00
:1039300029F4F0936C04E0936B0442C01396FC935B
:10394000EE931297ED01499159919E01240F351F75
:10395000E217F30771F480819181840F951F02961D
:1039600011969C938E938281938113969C938E9350
:103970001297E0E0F0E0D80112968D919C91139798
:10398000009719F0F8018C01F6CF8D919C91980168
:103990002E5F3F4F820F931F2091690430916A047C
:1039A0002817390769F4309729F410926C041092A3
:1039B0006B0402C01382128210936A04009369049C
:1039C000DF91CF911F910F910895FB01DC010D90C4
:1039D0000020E9F7119705900D920020E1F7089576
:1039E000FC0105900020E9F7809590958E0F9F1FB0
:1039F0000895DC0101C06D9341505040E0F70895F7
:103A0000FB01DC010D900020E9F7119701900D9268
:103A10000020E1F70895FB0151915523A9F0BF0162
:103A2000DC014D9145174111E1F759F4CD010190A9
:103A3000002049F04D9140154111C9F3FB0141119E
:103A4000EFCF81E090E001970895BB274A3031F431
:103A5000992322F4BDE2909581959F4F0C94311DDE
:103A6000BB27FB015527AA27880F991FAA1FA41758
:103A700010F0A41B83955051B9F7A05DAA3308F04C
:103A8000A95DA193009779F7B111B1931192CB0180
:103A90000C94551FAEE0B0E0E0E5FDE10C94092088
:103AA0000D891E898EE08C831A8309838FEF9FE72F
:103AB0009E838D83AE01475E5F4F6F89788DCE0107
:103AC00001960E946D1D2F813885F801E20FF31FCA
:103AD00010822E96E4E00C942520ACE0B0E0E3E701
:103AE000FDE10C94FB1F7C016B018A01FC01178234
:103AF0001682838181FFBDC1CE0101964C01F70181
:103B00009381F60193FD859193FF81916F01882345
:103B100009F4ABC1853239F493FD859193FF81910E
:103B20006F01853229F4B70190E00E94651FE7CF4D
:103B3000512C312C20E02032A0F48B3269F030F48B
:103B4000803259F0833269F420612CC08D3239F013
:103B5000803339F4216026C02260246023C02860AD
:103B600021C027FD27C030ED380F3A3078F426FF0A
:103B700006C0FAE05F9E300D1124532E13C08AE078
:103B8000389E300D1124332E20620CC08E3221F469
:103B900026FD6BC1206406C08C3611F4206802C07B
:103BA000883641F4F60193FD859193FF81916F0171
:103BB0008111C1CF982F9F7D9554933028F40C5FCD
:103BC0001F4FFFE3F9830DC0833631F0833771F067
:103BD000833509F05BC022C0F801808189830E5FC4
:103BE0001F4F44244394512C540115C03801F2E076
:103BF0006F0E711CF801A080B18026FF03C0652DF7
:103C000070E002C06FEF7FEFC5012C870E944A1F52
:103C10002C0183012C852F77222E17C03801F2E06A
:103C20006F0E711CF801A080B18026FF03C0652DC6
:103C300070E002C06FEF7FEFC5012C870E943F1F2D
:103C40002C012C852068222E830123FC1BC0832D90
:103C500090E048165906B0F4B70180E290E00E9467
:103C6000651F3A94F4CFF50127FC859127FE8191D9
:103C70005F01B70190E00E94651F31103A94F1E0B6
:103C80004F1A51084114510471F7E5C0843611F000
:103C9000893639F5F80127FF07C06081718182817B
:103CA00093810C5F1F4F08C060817181072E000C4B
:103CB000880B990B0E5F1F4F2F76722E97FF09C04E
:103CC00090958095709561957F4F8F4F9F4F20689D
:103CD000722E2AE030E0A4010E949D1FA82EA81891
:103CE00044C0853729F42F7EB22E2AE030E025C06B
:103CF000F22FF97FBF2E8F36C1F018F4883579F096
:103D0000B4C0803719F0883721F0AFC02F2F206161
:103D1000B22EB4FE0DC08B2D8460B82E09C024FFD6
:103D20000AC09F2F9660B92E06C028E030E005C07B
:103D300020E130E002C020E132E0F801B7FE07C028
:103D400060817181828193810C5F1F4F06C0608109
:103D5000718180E090E00E5F1F4FA4010E949D1FC3
:103D6000A82EA818FB2DFF777F2E76FE0BC0372DCF
:103D70003E7FA51450F474FE0AC072FC08C0372DB3
:103D80003E7E05C0BA2C372D03C0BA2C01C0B52C1D
:103D900034FF0DC0FE01EA0DF11D8081803311F466
:103DA000397E09C032FF06C0B394B39404C0832F98
:103DB000867809F0B39433FD13C030FF06C05A2C47
:103DC000B31418F4530C5B18B32CB31468F4B70194
:103DD00080E290E03C870E94651FB3943C85F5CF5C
:103DE000B31410F43B1801C0312C34FF12C0B701DA
:103DF00080E390E03C870E94651F3C8532FF17C03E
:103E000031FD03C088E790E002C088E590E0B7018B
:103E10000CC0832F867859F031FF02C08BE201C0BD
:103E200080E237FD8DE2B70190E00E94651FA51486
:103E300038F4B70180E390E00E94651F5A94F7CFF1
:103E4000AA94F401EA0DF11D8081B70190E00E946F
:103E5000651FA110F5CF332009F451CEB70180E2E0
:103E600090E00E94651F3A94F6CFF7018681978112
:103E700002C08FEF9FEF2C96E2E10C941720FC011B
:103E80000590615070400110D8F7809590958E0F85
:103E90009F1F0895FC016150704001900110D8F7F8
:103EA000809590958E0F9F1F0895DC01FC01672F70
:103EB00071917723E1F7329704C07C916D93708301
:103EC0006291AE17BF07C8F308950F931F93CF9366
:103ED000DF93FB01238121FD03C08FEF9FEF28C0FB
:103EE00022FF16C04681578124813581421753072E
:103EF00044F4A081B1819D012F5F3F4F3183208326
:103F00008C93268137812F5F3F4F3783268310C0E4
:103F1000EB01092F182F0084F185E02D0995892BDD
:103F2000E1F68E819F8101969F838E83812F902F52
:103F3000DF91CF911F910F910895FA01AA272830A0
:103F400051F1203181F1E8946F936E7F6E5F7F4F66
:103F50008F4F9F4FAF4FB1E03ED0B4E03CD0670FE2
:103F6000781F891F9A1FA11D680F791F8A1F911D35
:103F7000A11D6A0F711D811D911DA11D20D009F485
:103F800068943F912AE0269F11243019305D3193C7
:103F9000DEF6CF010895462F4770405D4193B3E0B0
:103FA0000FD0C9F7F6CF462F4F70405D4A3318F057
:103FB000495D31FD4052419302D0A9F7EACFB4E008
:103FC000A6959795879577956795BA95C9F70097C0
:103FD0006105710508959B01AC010A2E0694579561
:103FE000479537952795BA95C9F7620F731F841FB8
:103FF000951FA01D08952F923F924F925F926F924E
:104000007F928F929F92AF92BF92CF92DF92EF9268
:10401000FF920F931F93CF93DF93CDB7DEB7CA1BE9
:10402000DB0B0FB6F894DEBF0FBECDBF09942A8814
:10403000398848885F846E847D848C849B84AA84BC
:10404000B984C884DF80EE80FD800C811B81AA8149
:10405000B981CE0FD11D0FB6F894DEBF0FBECDBF14
:08406000ED010895F894FFCF73
:1040680000006D0480000100000036016801900125
:10407800BA01E101A0BB0D00C0D4010040771B00CC
:10408800C0D40100E803000001FF00044375727208
:10409800656E74204D656D6F727900526564466C6B
:1040A800792E696E6974204552524F52003136306C
:1040B8003436343434363234363830333600574CAC
:1040C800414E2D4B6162656C00526564466C792ED9
:1040D8006A6F696E204552524F5200526564466CB1
:1040E800792E626567696E204552524F52005769B2
:1040F800466920536869656C6420636F6E6E6563FA
:1041080074656400436F6E6E656374696F6E3A2000
:10411800636C6F73650D0A0D0A00737563636573CD
:1041280073537472696E67576562736572766572E8
:10413800006661696C7572650073746F7070656490
:104148002077616974696E6700474554202F76614E
:104158006C75656765742E70687000474554202F2C
:1041680063616C6C5F696E6974696174696F6E2EE6
:10417800706870003F6E616D653D00546573740032
:1041880026747970653D0050726F7A656E74666545
:104198007563687465002676616C75653D00266BED
:1041A80065793D633337383136333366316662318A
:1041B8006464636137376339303338643439393488
:1041C8003334350020485454502F312E310D0A48CD
:1041D8006F73743A20003139322E3136382E313728
:1041E800382E3233007472616E736D697373696F40
:1041F8006E207375636365737300696E69746174A7
:104208006500526573756C744F6648747470506FAE
:10421800737452657175657374007365727665722F
:1042280020756E617661696C61626C650046756CBB
:104238006C48747470506F73745472616E736D69E6
:104248007373696F6E00757267656E746C7920643C
:1042580072790076657279206D6F6973740049739D
:1042680054696D65546F43616C6C446174610000FE
:10427800000000160851099707B107A307F4076E55
:10428800616E00696E66006F7666002E00000000A1
:10429800004F198F19861A891A8C1A8F1A921AA721
:1042A8001ABC1AD31AEA1A0A1B11193619B418DBE0
:0E42B8001842186D18C919001A8B18AC18009E
:00000001FF
