:100000000C942D020C9455020C9455020C9455023C
:100010000C9455020C9455020C9455020C94550204
:100020000C9455020C9455020C9455020C945502F4
:100030000C9455020C9455020C9455020C945502E4
:100040000C94E7090C9455020C944F080C94810809
:100050000C9455020C9455020C9455020C945502C4
:100060000C9455020C9455021E1624162A163016AE
:1000700036163C16421648164E1654165A16601678
:1000800066166C16721678167E1684168A169016E8
:10009000961600000008000201000003040700009B
:1000A000000000000000010204081020408001024E
:1000B00004081020010204081020040404040404AD
:1000C000040402020202020203030303030300000A
:1000D0000000250028002B0000000000240027005D
:1000E0002A0025750025692E25692E25692E25698A
:1000F0000041542B5253495F534E443D002C002C79
:1001000030002C002C30002C002C0041542B52537A
:10011000495F534E443D002C002C30002C002C3005
:10012000002C002C0041542B5253495F434C533D4B
:100130000041542B5253495F5544503D0041542BCC
:100140005253495F5443503D0041542B5253495F31
:10015000204D554C5449434153543D002C002C0034
:1001600041542B5253495F4950434F4E463D302C2A
:10017000002C002C3235352E3235352E3235352EC9
:1001800030002C003139322E3136382E302E3100ED
:1001900041542B5253495F444E5353455256455296
:1001A0003D0041542B5253495F4950434F4E463D09
:1001B000312C302C300041542B5253495F4950436D
:1001C0004F4E463D322C302C300041542B52534977
:1001D0005F4449534153534F430041542B525349B9
:1001E0005F4A4F494E3D002C31322C320041542B96
:1001F0005253495F4A4F494E3D002C31322C310059
:1002000041542B5253495F4A4F494E3D002C3132E5
:100210002C300041542B5253495F4A4F494E3D0008
:100220002C392C320041542B5253495F4A4F494ECE
:100230003D002C392C310041542B5253495F4A4F19
:10024000494E3D002C392C300041542B5253495F0C
:100250004A4F494E3D002C372C320041542B52530B
:10026000495F4A4F494E3D002C372C310041542BF9
:100270005253495F4A4F494E3D002C372C300041C4
:10028000542B5253495F4A4F494E3D002C342C3277
:100290000041542B5253495F4A4F494E3D002C3484
:1002A0002C310041542B5253495F4A4F494E3D0077
:1002B0002C342C300041542B5253495F4A4F494E45
:1002C0003D002C322C320041542B5253495F4A4F8F
:1002D000494E3D002C322C310041542B5253495F82
:1002E0004A4F494E3D002C322C300041542B525382
:1002F000495F4A4F494E3D002C312C320041542B6E
:100300005253495F4A4F494E3D002C312C31004138
:10031000542B5253495F4A4F494E3D002C312C30EB
:100320000041542B5253495F4A4F494E3D002C30F7
:100330002C320041542B5253495F4A4F494E3D00E5
:100340002C302C310041542B5253495F4A4F494EB7
:100350003D002C302C300041542B5253495F5053F8
:100360004B3D0041542B5253495F415554484D4F2A
:1003700044453D0041542B5253495F4E4554574F1D
:10038000524B3D494253532C312C0041542B525374
:10039000495F4E4554574F524B3D494253535F536B
:1003A00045432C312C0041542B5253495F4E455448
:1003B000574F524B3D494253532C302C300041543F
:1003C0002B5253495F4E4554574F524B3D49425370
:1003D000535F5345432C302C300041542B5253492A
:1003E0005F4E4554574F524B3D494E465241535430
:1003F000525543545552450041542B5253495F5373
:1004000043414E3D300041542B5253495F4E554DB0
:100410005343414E3D300041542B5253495F444EAB
:10042000534745543D0041542B5253495F494E496F
:10043000540041542B5253495F42414E443D3000D9
:1004400041542B5253495F465756455253494F4EDC
:100450003F000D0A0000F506B10811241FBECFEFC2
:10046000D8E0DEBFCDBF13E0A0E0B1E0EEE6FEE3F2
:1004700002C005900D92A037B107D9F724E0A0E79C
:10048000B3E001C01D92AF37B207E1F712E0CDE251
:10049000D2E004C02197FE010E94991ACB32D10705
:1004A000C9F70E94E6060C94351F0C9400000895CD
:1004B000CF93DF93EC0183E394E00E94680CBE01CC
:1004C0008CE793E00E941E0983E394E0DF91CF91D3
:1004D0000C94570CCF93DF93EC0183E394E00E94DC
:1004E000680CBE018CE793E00E942B0983E394E043
:1004F000DF91CF910C94570C0F931F93CF93DF9301
:100500008C01EB0183E394E00E94680CB8018CE756
:1005100093E00E941E096CE672E08CE793E00E9473
:100520001E09BE018CE793E00E942B0983E394E04F
:10053000DF91CF911F910F910C94570CCF93DF93C4
:100540000E948B0BEC0183E394E00E94680C6CE248
:1005500071E08CE793E00E941E096CE672E08CE784
:1005600093E00E941E094AE050E0BE018CE793E050
:100570000E94D00983E394E0DF91CF910C94570C53
:100580001F93CF93DF93C3E3D0E0112369F021974A
:1005900009F449C083E394E00E948717182F8BE386
:1005A00091E00E946A02F1CF83E394E00E94BF15BC
:1005B00020E04DE451E06EE571E083E394E00E94B9
:1005C000BA16182FC3E3D0E0112389F0219759F10F
:1005D00020E04DE451E06EE571E083E394E00E9499
:1005E000BA16182F89E691E00E946A02EDCF83E3E4
:1005F00094E00E948C15182FC3E3D0E0112361F022
:10060000219789F083E394E00E948C15182F8BE7E3
:1006100091E00E946A02F2CF8EE891E0DF91CF91E3
:100620001F910C946A02DF91CF911F9108953F9220
:100630004F925F926F927F928F929F92AF92BF92F2
:10064000CF92DF92EF92FF920F931F93CF93DF939E
:10065000CDB7DEB7CC52D1400FB6F894DEBF0FBE97
:10066000CDBF4C017B010E94310A2B013C0184EA81
:1006700091E00E946A02C301B201A12CB12C00E0FA
:1006800010E09E012F5F3F4F6901DC01CB0184190F
:100690009509A609B709813C944DA140B10508F020
:1006A00053C0A114B10409F04FC0C7010E94001843
:1006B000892B91F0C7010E9427188F3F3FEF9307C6
:1006C00059F00B3221E01207A8F7F601E00FF11FF5
:1006D00080830F5F1F4FEECF0115110539F1C70160
:1006E0000E945D18811122C0C7010E94821883E315
:1006F00094E00E94C416F601E00FF11F1082C601BB
:100700000E945802B401C6010E940E1C8C199D095A
:1007100097FD0FC0B40182EB91E00E947C0292E051
:10072000A92EB12C00E010E0332433940E94310A4A
:10073000ACCF89EC91E00E946A0282E0A82EB12C35
:1007400000E010E0312CF2CF81ED91E00E946A02CE
:10075000C7010E94B917832DC45DDE4F0FB6F89410
:10076000DEBF0FBECDBFDF91CF911F910F91FF90E4
:10077000EF90DF90CF90BF90AF909F908F907F9041
:100780006F905F904F903F9008958130910529F0D0
:10079000029729F423EF31E002C021EE31E0C901D4
:1007A00008958F929F92AF92BF92EF92FF920F9314
:1007B0001F93CF93DF934B015C017A01CA010E9422
:1007C000C5038C0181E0E816F10409F056C061E030
:1007D00070E085E090E00E949F1A7C014AE0BC0135
:1007E000C4010E94281CF80101900020E9F731970C
:1007F000CF01801B910BF70101900020E9F73197A1
:10080000EE19FF098E0F9F1F61E070E082599F4F24
:100810000E949F1AEC01B8010E94031C6DE072E077
:10082000CE010E94031C64E172E0CE010E94031C11
:1008300069E172E0CE010E94031C60E272E0CE0129
:100840000E94031C6FE272E0CE010E94031CB701FC
:10085000CE010E94031C67E372E0CE010E94031CDC
:100860006DE572E0CE010E94031C6FE672E0CE01DE
:100870000E94031C6EE772E030C082E0E816F104CB
:1008800079F561E070E085E090E00E949F1A4AE00F
:10089000BC01C4010E94281CF80101900020E9F766
:1008A000CF01801B910B61E070E083960E949F1A3C
:1008B000EC01B8010E94031C6DE572E0CE010E94BC
:1008C000031C6FE672E0CE010E94031C60E872E038
:1008D000CE010E94031C60E872E0CE010E94031C5E
:1008E000CE01DF91CF911F910F91FF90EF90BF90BC
:1008F000AF909F908F9008958130910529F00297D5
:1009000029F428E932E002C023E832E0C901089561
:100910004F925F926F927F92AF92BF92CF92DF928F
:10092000EF92FF920F931F93CF93DF93CDB7DEB774
:100930002F970FB6F894DEBF0FBECDBF2B013C0141
:100940005A01790180EA92E00E946A02A501C3017E
:10095000B2010E94D1036C01C5010E947C045C01BC
:1009600040E550E0B801C7010E94DE19892BA1F1D2
:10097000B601C7010E941E0968EB72E0C7010E9420
:100980002B09F701828193819C838B8383E493E01D
:100990009A83898384818D8385819681A781B0859F
:1009A0008E839F83A887B987818592859B878A8755
:1009B000838594859D878C8785858E8786858F879F
:1009C000BE016F5F7F4FC5010E941703F82ECE0155
:1009D00001960E949E1907C08CEC92E00E946A0268
:1009E0000E94C002F12CC6010E94501B8F2D2F9631
:1009F0000FB6F894DEBF0FBECDBFDF91CF911F9130
:100A00000F91FF90EF90DF90CF90BF90AF907F90CD
:100A10006F905F904F9008954F925F926F927F9288
:100A2000AF92BF92CF92DF92EF92FF920F931F93FC
:100A3000CF93DF93CDB7DEB7A2970FB6F894DEBFA2
:100A40000FBECDBF2B013C016A018FED92E00E94E9
:100A50006A020E949E0280EC8F8F88EA88A382EB54
:100A600089A387E18AA340E550E0BE01615E7F4F24
:100A7000CE0140960E948419EE24E394F12C93E475
:100A8000A92E93E0B92E8FEFE81AF80A8A899B897C
:100A90009C838B83BA82A9828C898D838D899E8960
:100AA000AF89B88D8E839F83A887B987898D9A8DEA
:100AB0009B878A878B8D9C8D9D878C878D8D8E875C
:100AC0008E8D8F878E01015E1F4F9E012F5F3F4FDE
:100AD000A601C301B2010E948804811105C011E082
:100AE00085E0E816F1040CF010E0CE0101960E94BA
:100AF0009E191111C8CFCE0140960E949E19A29650
:100B00000FB6F894DEBF0FBECDBFDF91CF911F911E
:100B10000F91FF90EF90DF90CF90BF90AF907F90BC
:100B20006F905F904F90089526E040E855E260E0B6
:100B300070E08CE793E00E94EA0761E087E00E94A2
:100B40001F0B61E085E00E941F0B61E08DE00E94B9
:100B50001F0B61E08BE00E941F0B61E087E00E94A9
:100B60005B0B60E971E080E090E00E94620A60E067
:100B700087E00E945B0B0C94C0028F929F92AF9211
:100B8000BF92CF93DF9300D000D0CDB7DEB74B013B
:100B90005C0129833A834B835C830E94310ADC0128
:100BA000CB0188199909AA09BB0961E029813A8119
:100BB0004B815C8182179307A407B50708F460E0B6
:100BC000862F0F900F900F900F90DF91CF91BF90D5
:100BD000AF909F908F900895CF92DF92EF92FF9207
:100BE00061E085E00E945B0B0E94310A6B017C0191
:100BF000DC01CB018C199D09AE09BF09409124018C
:100C00005091250160912601709127018417950765
:100C1000A607B70718F40E94310AEACF84E00E94C1
:100C2000D90A909373038093720360E085E00E9479
:100C30005B0B8091720390917303FF90EF90DF90B4
:100C4000CF9008950E94EC0520910C0130910D0188
:100C5000281739078CF420910E0130910F012817C5
:100C600039076CF4209110013091110128173907D0
:100C70004CF485E093E0089588EF92E0089581E0D8
:100C800093E008958AE093E00895882381F00E941C
:100C9000310A609378037093790380937A03909379
:100CA0007B030E9422069093710380937003089542
:100CB00022E0883F920739F08150934021F060E0B4
:100CC00087E00C945B0B0895CF92DF92EF92FF9236
:100CD0000E94310A6B017C01DC01CB018C199D095A
:100CE000AE09BF0980329E44A105B10578F060E0ED
:100CF0008BE00E945B0B8AE093E0909371038093FA
:100D00007003FF90EF90DF90CF9008950E9422062D
:100D10008550934061F361E08BE00E945B0B0E9481
:100D2000310ADACF885F924011F40C94640660E0D7
:100D30008BE00C945B0B882361F080E193E00E94D0
:100D40006A0242E050E061E070E080E090E00C94E4
:100D50000C050895CF93DF9320912001309121015C
:100D600040912201509123016091780370917903A1
:100D700080917A0390917B030E94BD05D82F20912A
:100D800018013091190140911A0150911B01609195
:100D900074037091750380917603909177030E949C
:100DA000BD05C82F8D2F0E9445068091700390913C
:100DB00071030E94580680917003909171030E9404
:100DC00092068C2FDF91CF910C949B060E949E0A75
:100DD0000E9457020E949405C2E5D7E00E94AA062D
:100DE0002097E1F30E945207F9CF80912001909162
:100DF0002101A0912201B0912301B095A095909579
:100E000081959F4FAF4FBF4F8093780390937903A5
:100E1000A0937A03B0937B038091180190911901FC
:100E2000A0911A01B0911B01B095A0959095819564
:100E30009F4FAF4FBF4F8093740390937503A09360
:100E40007603B09377030895FC01918D228D892F4D
:100E500090E0805C9F4F821B91098F7399270895C2
:100E6000FC01918D828D981731F0828DE80FF11D74
:100E7000858D90E008958FEF9FEF0895FC01918D8F
:100E8000828D981761F0828DDF01A80FB11D5D96EC
:100E90008C91928D9F5F9F73928F90E008958FEF5A
:100EA0009FEF089587EA98E0892B49F080E090E071
:100EB000892B29F00E94A70881110C940000089545
:100EC000FC01848DDF01A80FB11DA35ABF4F2C91E7
:100ED000848D90E001968F739927848FA689B789B6
:100EE0002C93A089B1898C9180648C93938D848D8F
:100EF000981306C00288F389E02D80818F7D80835E
:100F00000895CF93DF93EC01888D8823C9F0EA8997
:100F1000FB89808185FD05C0A889B9898C9186FDF2
:100F20000FC00FB607FCF5CF808185FFF2CFA889EF
:100F3000B9898C9185FFEDCFCE010E946007E7CF84
:100F4000DF91CF910895EF92FF920F931F93CF936C
:100F5000DF93EC0181E0888F9B8D8C8D981305C009
:100F6000E889F989808185FD24C0F62E0B8D10E07B
:100F70000F5F1F4F0F731127E02E8C8DE8120CC0EE
:100F80000FB607FCFACFE889F989808185FFF5CF94
:100F9000CE010E946007F1CF8B8DFE01E80FF11D9D
:100FA000E35AFF4FF0820B8FEA89FB8980818062D0
:100FB00007C0EE89FF896083E889F98980818064B0
:100FC000808381E090E0DF91CF911F910F91FF909E
:100FD000EF900895CF92DF92EF92FF921F93CF93FD
:100FE000DF93EC016A017B01122FE889F98982E025
:100FF00080834115514E61057105B1F060E079E0E3
:101000008DE390E0A70196010E94771ADA01C901E9
:101010000197A109B109B695A79597958795AC0158
:10102000411580E15807A8F0E889F989108260E845
:1010300074E88EE190E0A70196010E94771ABA0148
:10104000A901415051096109710976956795579534
:101050004795EC85FD855083EE85FF854083188E8E
:10106000EC89FD891083EA89FB8980818061808316
:10107000EA89FB89808188608083EA89FB89808195
:1010800080688083EA89FB8980818F7D8083DF91FE
:10109000CF911F91FF90EF90DF90CF9008951F9216
:1010A0000F920FB60F9211242F938F939F93EF936C
:1010B000FF93E0918C03F0918D038081E091920386
:1010C000F091930382FD12C09081809195038F5F10
:1010D0008F7320919603821751F0E0919503F0E011
:1010E000E458FC4F958F8093950301C08081FF9158
:1010F000EF919F918F912F910F900FBE0F901F90A6
:1011000018951F920F920FB60F9211242F933F93B1
:101110004F935F936F937F938F939F93AF93BF93FF
:10112000EF93FF938CE793E00E946007FF91EF91AC
:10113000BF91AF919F918F917F916F915F914F91EF
:101140003F912F910F900FBE0F901F9018958CE735
:1011500093E00E94240721E0892B09F420E0822FEC
:101160000895ECE7F3E01382128288EE93E0A0E0AA
:10117000B0E084839583A683B78385E293E091836F
:10118000808385EC90E09587848784EC90E0978756
:10119000868780EC90E0918B808B81EC90E0938B44
:1011A000828B82EC90E0958B848B86EC90E0978B21
:1011B000868B118E128E138E148E0895CF92DF922D
:1011C000EF92FF920F931F93CF93DF936C017A01FD
:1011D0008B01C0E0D0E0CE15DF0589F0D8016D911C
:1011E0008D01D601ED91FC910190F081E02DC601B9
:1011F0000995892B11F47E0102C02196ECCFC7011D
:10120000DF91CF911F910F91FF90EF90DF90CF90E2
:1012100008956115710579F0FB0101900020E9F74F
:101220003197AF01461B570BDC01ED91FC91028019
:10123000F381E02D099480E090E008950C94090971
:10124000DC01ED91FC910190F081E02D099460E8C2
:1012500072E00C9409090F931F93CF93DF93EC0175
:101260000E9409098C01CE010E942709800F911F5D
:10127000DF91CF911F910F9108954F925F926F92DE
:101280007F92EF92FF920F931F93CF93DF93CDB78F
:10129000DEB7A1970FB6F894DEBF0FBECDBF7C01BD
:1012A000FA01CB0119A2223008F42AE08E010F5D69
:1012B0001F4F422E512C612C712CBF01A3019201B2
:1012C0000E94771AF901CA01015011096A3014F419
:1012D000605D01C0695CD8016C93232B242B252B06
:1012E00061F7B801C7010E940909A1960FB6F894E9
:1012F000DEBF0FBECDBFDF91CF911F910F91FF9049
:10130000EF907F906F905F904F900895CF92DF9213
:10131000EF92FF920F931F93CF93DF93EC016A013B
:101320007B012115310579F4E881F9810190F08183
:10133000E02D642FDF91CF911F910F91FF90EF90DF
:10134000DF90CF9009942A303105E9F477FF1AC075
:101350006DE20E9420098C0144275527BA014C19DF
:101360005D096E097F092AE0CE010E943D09800FC8
:10137000911FDF91CF911F910F91FF90EF90DF9020
:10138000CF9008952AE0B701A601CE01DF91CF9159
:101390001F910F91FF90EF90DF90CF900C943D093B
:1013A0000F931F93CF93DF93EC019A01AB01770F5B
:1013B000660B770B0E9486098C01CE010E942709DB
:1013C000800F911FDF91CF911F910F9108951F9270
:1013D0000F920FB60F9211242F933F938F939F93E9
:1013E000AF93BF9380911A0490911B04A0911C04A9
:1013F000B0911D043091190423E0230F2D3720F400
:101400000196A11DB11D05C026E8230F0296A11D5E
:10141000B11D2093190480931A0490931B04A09388
:101420001C04B0931D0480911E0490911F04A09190
:101430002004B09121040196A11DB11D80931E04CA
:1014400090931F04A0932004B0932104BF91AF9107
:101450009F918F913F912F910F900FBE0F901F90F2
:1014600018952FB7F89460911A0470911B0480911D
:101470001C0490911D042FBF08953FB7F8948091EC
:101480001E0490911F04A0912004B091210426B560
:10149000A89B05C02F3F19F00196A11DB11D3FBFAC
:1014A000BA2FA92F982F8827820F911DA11DB11D3A
:1014B000BC01CD0142E0660F771F881F991F4A9536
:1014C000D1F708958F929F92AF92BF92CF92DF9201
:1014D000EF92FF926B017C010E943D0A4B015C017F
:1014E000C114D104E104F10401F10E94761A0E94B2
:1014F0003D0ADC01CB0188199909AA09BB09883E7C
:101500009340A105B10560F321E0C21AD108E108BA
:10151000F10888EE880E83E0981EA11CB11CC1144E
:10152000D104E104F10419F7DBCFFF90EF90DF90D5
:10153000CF90BF90AF909F908F900895789484B58E
:10154000826084BD84B5816084BD85B5826085BDBF
:1015500085B5816085BDEEE6F0E0808181608083A5
:10156000E1E8F0E010828081826080838081816088
:101570008083E0E8F0E0808181608083E1EBF0E04F
:10158000808184608083E0EBF0E0808181608083F3
:10159000EAE7F0E0808184608083808182608083DC
:1015A0008081816080838081806880831092C10007
:1015B00008958E3008F08E5087702091280190E4B5
:1015C000299F90011124822B80937C0080917A00C6
:1015D000806480937A0080917A0086FDFCCF8091B0
:1015E00078002091790090E0922B0895833081F06B
:1015F00028F4813099F08230A1F008958730A9F065
:101600008830B9F08430D1F4809180008F7D03C0A0
:10161000809180008F7780938000089584B58F77C4
:1016200002C084B58F7D84BD08958091B0008F770E
:1016300003C08091B0008F7D8093B0000895CF9358
:10164000DF9390E0FC01EA55FF4F2491FC01E65442
:10165000FF4F8491882361F190E0880F991FFC016E
:10166000E852FF4FC591D491FC01E253FF4FA59181
:10167000B491611109C09FB7F894888120958223A5
:101680008883EC912E230BC0623061F49FB7F894ED
:101690003881822F809583238883EC912E2B2C9385
:1016A0009FBF06C08FB7F894E8812E2B28838FBF89
:1016B000DF91CF9108951F93CF93DF93282F30E0D0
:1016C000F901EE56FF4F8491F901EA55FF4FD4918D
:1016D000F901E654FF4FC491CC23C9F0162F8111B4
:1016E0000E94F60AEC2FF0E0EE0FFF1FE253FF4FCF
:1016F000A591B4918FB7F894111105C09C91ED2F6D
:10170000E095E92302C0EC91ED2BEC938FBFDF91C4
:10171000CF911F910895CF93DF9300D0CDB7DEB75F
:1017200020917B0430917C04CE0101962115310576
:1017300019F48F57944002C0821B930B9A838983BC
:1017400089819A810F900F90DF91CF910895DC01EC
:10175000DA9620E030E04C91461307C0220F331F89
:10176000FC01E20FF31F83AD08952F5F3F4F1296E8
:101770002730310581F78FEF0895403885E258070B
:101780006105710560F0413080E4580788E368071F
:10179000710548F040E050E468E370E004C040E8C0
:1017A00055E260E070E026E08CE793E00E94EA07F3
:1017B0008091C20088608093C2000895CF93DF9328
:1017C00000D0CDB7DEB7FB0183811F928F9382815A
:1017D0001F928F9381811F928F9380811F928F938D
:1017E00085EE90E09F938F935F934F9349835A8345
:1017F0000E944D1C0FB6F894DEBF0FBECDBF4981CD
:10180000842F5A81952F0F900F90DF91CF910895DB
:10181000662341F08FE39CE90197F1F700C00000D7
:101820006150F6CF08958CE793E00E942407892B3E
:10183000D1F38CE793E00E943E0708958CE793E094
:101840000E943E070895CF92DF92EF92FF92CF93CE
:10185000DF93EC018CE793E00E9481070E94310A3C
:101860006B017C018091C00087FF11C00E94310A8A
:10187000AB01BC014C195D096E097F09423351056A
:101880006105710550F4CE010E941E0CEBCF8CE770
:1018900093E00E942407892B49F761E0CE01DF9194
:1018A000CF91FF90EF90DF90CF900C94080CCF93E6
:1018B000DF93EC010E94230C4AA95BA96CA97DA9C6
:1018C000CE010E94BD0B19825B98DF91CF910895E4
:1018D000CF93DF93EC010E94230C19825B9ADF9176
:1018E000CF910895FC011182FB96AC01475B5F4FDD
:1018F0002FEFDF0111972C9320833296E417F50721
:10190000C1F70C94230C0F931F93CF93DF938C019B
:101910008CE793E00E9481078CE793E00E94240704
:10192000EC01209729F0C8010E941E0C2197F9CFE5
:10193000DF91CF911F910F9108952F923F924F9277
:101940005F926F927F928F929F92AF92BF92CF924F
:10195000DF92EF92FF920F931F93CF93DF93CDB758
:10196000DEB727970FB6F894DEBF0FBECDBF9F83BB
:101970008E834B012A0159013801FA82E982FC0168
:1019800081818230C9F4FB0180818F3F21F09091E9
:10199000290189130EC0C114D10471F48091290169
:1019A000F40180838091310490913204F20191839B
:1019B000808380E090E09FC100E010E02E813F81B5
:1019C000265C3F4F3C832B8333243A9452E0252EF0
:1019D000EE81FF8181818130E1F018F0823029F1C0
:1019E000DAC021E0EE81FF8121833092290110923B
:1019F0003204109231041092300410922F0410928D
:101A00002E0410922A0410922B0410922C0410928F
:101A10002D0480913004883068F58CE793E00E94B3
:101A20002407892B09F02DC125C08E819F810E943A
:101A3000130CE981FA818083F1E0CF1AD1080F5F9E
:101A40001F4F80913104909132040197909332049A
:101A500080933104892B09F09AC08E819F810E9466
:101A6000130C8E819F810E94130CEE81FF811182E5
:101A700021E092C080913004883008F48CC07091CD
:101A80002204609123045091240440912504309154
:101A9000260420912704909128048091290472350E
:101AA00009F094C0633509F0DAC0593409F0D7C0A1
:101AB0004F3509F0D4C0323509F0D1C0253409F0D2
:101AC000CEC0913409F0CBC0843409F0C8C08E81F7
:101AD0009F810E94130C809329018E819F810E9417
:101AE000130C90E090933204809331048E819F8197
:101AF0000E94130C2091310430913204A901582B1B
:101B0000CA01509332044093310460912901EE815F
:101B1000FF816F3F09F44DC0892B09F44AC021822F
:101B2000CF010E94A70B813071F58E819F810E94A9
:101B3000130C80932A048E819F810E94130C809342
:101B40002B048E819F810E94130C80932C048E8124
:101B50009F810E94130C80932D048E819F810E948F
:101B6000130C90E090932F0480932E048E819F811C
:101B70000E94130C20912E0430912F04382B3093A7
:101B80002F0420932E04F40180818F3FD1F421E0B3
:101B9000C114D10409F020E08CE793E02D830E946A
:101BA00024072D81892B09F47CC0222309F410CF4E
:101BB00078C01182309229011092320410923104BF
:101BC000EACF90912901891711F3F3CE733509F00B
:101BD00046C0693409F043C05F3509F040C0433462
:101BE000F1F53C34E1F52F34D1F59335C1F5853469
:101BF000B1F58E819F810E94130C809329018E8103
:101C00009F810E94130C8E819F810E94130C109261
:101C1000320410923104EE81FF811182209129015A
:101C2000EB81FC8180E090E03081321310C0FC0138
:101C30007D96EE0FFF1F2E813F81E20FF31F308252
:101C4000880F991FF901E80FF91F33AE05C00196FF
:101C500032968730910541F70FEF1FEF09CF77E0FC
:101C6000709330046093220450932304409324041F
:101C7000309325042093260490932704809328040E
:101C80008ACFE090300481E08E0D80933004F12CF7
:101C90008CE793E00E943E07F701EE5DFB4F8083E7
:101CA000B8CE80912901F401808380913104909114
:101CB0003204F20191838083A114B10479F0809100
:101CC0002A04882359F0F501808380912B048183B5
:101CD00080912C04828380912D048383611471048C
:101CE00049F080912E0490912F04009719F0F30190
:101CF00091838083C80127960FB6F894DEBF0FBE8C
:101D0000CDBFDF91CF911F910F91FF90EF90DF90AA
:101D1000CF90BF90AF909F908F907F906F905F908B
:101D20004F903F902F9008959F92AF92BF92CF9285
:101D3000DF92EF92FF920F931F93CF93DF9300D028
:101D40001F92CDB7DEB75C01962E8CE793E00E9420
:101D50002407892BA9F08FEF8B831A821982C12C5B
:101D6000D12CE12CF12C00E010E020E030E0AE01BD
:101D70004F5F5F4FBE016D5F7F4FC5010E949D0C9D
:101D80008FEF981661F0F501FA9688E4A80EB11C61
:101D90008081891531F03296EA15FB05C9F781E09B
:101DA00001C080E00F900F900F90DF91CF911F91B5
:101DB0000F91FF90EF90DF90CF90BF90AF909F90EA
:101DC0000895CF92DF92EF92FF920F931F936801D5
:101DD000790100E010E020E030E00E949D0C1F91AE
:101DE0000F91FF90EF90DF90CF9008952F923F9248
:101DF0004F925F926F927F928F929F92AF92BF921B
:101E0000CF92DF92EF92FF920F931F93CF93DF93C6
:101E1000CDB7DEB72E970FB6F894DEBF0FBECDBF9D
:101E20002C013B014A873C872B871E870D871701B2
:101E30004601FC018181823009F44CC18CE793E0BA
:101E40000E942407892BD1F08FEF89871A8219828B
:101E5000C12CD12CE12CF12C00E010E020E030E08E
:101E6000AE014F5F5F4FBE01675F7F4FC2010E94AF
:101E70009D0C89819A81892B09F02CC1EB85FC8509
:101E800064918F010F5F1F4F662339F08CE793E059
:101E90000E94A307F8016491F5CF8D859E85892B5B
:101EA00039F42114310441F181010F5F1F4F20C02B
:101EB0000D851E85F80161918F01662391F38CE7F2
:101EC00093E00E94A307F6CF6D3009F010C1F8012E
:101ED00084918A3009F00BC16BED8CE793E00E948E
:101EE000A3076CED8CE793E00E94A3070E5F1F4FE2
:101EF000F10164916111F0C0A114B104F1F4C201C7
:101F00000E94830C6DE08CE793E00E94A3076AE0D7
:101F10008CE793E00E94A307FA85F1117EC0198235
:101F20001E820E94310A4B015C0130E1C32E37E270
:101F3000D32EE12CF12C10E040C0F40160816B3D08
:101F400081F48CE793E00E94A3076DED8CE793E0AA
:101F50000E94A307FFEF8F1A9F0A81E0A81AB10819
:101F6000CBCF6D30C9F4F40181818A30A9F4F2E05D
:101F7000AF16B10488F06BED8CE793E00E94A307E5
:101F80006CED8CE793E00E94A30782E0880E911C21
:101F900092E0A91AB108B0CFEFEF8E1A9E0A8CE733
:101FA00093E00E94A307F1E0AF1AB108A5CF8CE738
:101FB00093E00E942407892B71F40E94310ADC010E
:101FC000CB0188199909AA09BB098C159D05AE0595
:101FD000BF0568F36BC08CE793E00E943E071830A2
:101FE00080F401E0010FE1E0F0E0EC0FFD1FE10FF4
:101FF000F11D808389818F3429F0853419F000E048
:1020000001C0012F0E94310A4B015C0123E0C22E66
:10201000D12CE12CF12C102FD0CFF301108215829E
:102020000E94310A6B017C0190E1892E97E2992E82
:10203000A12CB12C10E00E94310ADC01CB018C19DB
:102040009D09AE09BF0988159905AA05BB0538F594
:102050008CE793E00E942407892B69F38CE793E0D7
:102060000E943E07FA851F1770F401E0010FF3018B
:10207000E10FF11D8083F30180818F3429F08534D5
:1020800019F000E001C0012F0E94310A6B017C01B0
:1020900083E0882E912CA12CB12C102FCCCFF301F2
:1020A0008081898381818A8385818E8389818F3430
:1020B00039F481E09A819B3409F480E081951FC056
:1020C000853441F48A81823529F48E81882311F088
:1020D0008D30A9F48FEF13C0C80101961C016B3D30
:1020E00009F0F2CE8CE793E00E94A3076DED8CE738
:1020F00093E00E94A307F80164918101FBCE2E9624
:102100000FB6F894DEBF0FBECDBFDF91CF911F9108
:102110000F91FF90EF90DF90CF90BF90AF909F9086
:102120008F907F906F905F904F903F902F90089589
:102130005F926F927F928F929F92AF92BF92CF9257
:10214000DF92EF92FF920F931F93CF93DF93CDB760
:10215000DEB72A970FB6F894DEBF0FBECDBF4C0195
:102160003B01542EC8014AE0BE016F5F7F4F2987B3
:102170003A870E94281CA12CB12CC12CD12CE12C17
:10218000F12C8E010F5F1F4F29853A85452DB30134
:10219000C4010E94F60E2A960FB6F894DEBF0FBE59
:1021A000CDBFDF91CF911F910F91FF90EF90DF9006
:1021B000CF90BF90AF909F908F907F906F905F90E7
:1021C00008950F931F939B018A0140E060E070E047
:1021D0000E9498101F910F9108958F929F92AF9235
:1021E000BF92CF92DF92EF92FF920F931F93CF9304
:1021F000DF93CDB7DEB72B970FB6F894DEBF0FBED7
:10220000CDBF5C01962E88248A948CE793E00E94CF
:102210002407892B81F18B861A861986C12CD12C33
:10222000E12CF12C00E010E020E030E0AE01475F4F
:102230005F4FBE01655F7F4FC5010E949D0C8B857E
:10224000891119C089859A85892BF9F29B8628E026
:10225000C22ED12CCE0101967C0100E010E020E0DE
:1022600030E0AE01475F5F4FBE01655F7F4FC50144
:102270000E949D0CE7CF9FEF991202C080E02CC016
:10228000F501FA9620E030E0808189111EC0F90145
:102290007D96EE0FFF1FEA0DFB1D8FEF8083220F4F
:1022A000331FF501E20FF31F83AF13E0892C912C4C
:1022B000A40165E271E0C5010E94E1108823F1F2FA
:1022C0008E3FE1F21150A1F707C02F5F3F4F3296CA
:1022D00027303105C9F6D2CF2B960FB6F894DEBF62
:1022E0000FBECDBFDF91CF911F910F91FF90EF9067
:1022F000DF90CF90BF90AF909F908F900895AF9256
:10230000BF92CF92DF92EF92FF920F931F935701EC
:102310006801E12CF12C00E010E00E94F60E1F9104
:102320000F91FF90EF90DF90CF90BF90AF90089506
:102330006F927F928F929F92AF92BF92CF92DF92D5
:10234000EF92FF920F931F93CF93DF93EC016B01FA
:102350004A0183E0782E5E0182E0A80EB11C90E372
:10236000692EF501862D11928A95E9F7F601019003
:102370000020E9F731977F01EC18FD08860127E17D
:1023800034E040E3B501CE010E947F1181110EC0FF
:102390009C81992359F08D819E81AF81B885F4018C
:1023A00080839183A283B38380E003C07A94711009
:1023B000D8CFDF91CF911F910F91FF90EF90DF90D9
:1023C000CF90BF90AF909F908F907F906F90089527
:1023D000AF92BF92CF92DF92EF92FF920F931F9333
:1023E000A12CB12CC12CD12CE12CF12C0E94F60E89
:1023F0001F910F91FF90EF90DF90CF90BF90AF9023
:1024000008958F929F92AF92BF92DF92EF92FF92C8
:102410000F931F93CF93DF9300D0CDB7DEB74C015E
:10242000D62EBA017C0182E0E80EF11CA701C4019E
:1024300029833A830E94DE0B6EE571E0C7010E949A
:10244000E81BF70101900020E9F73197EE19FF0929
:102450003A813F9329812F9352EEA52E50E0B52E5D
:10246000BF92AF92FF273296E80DF91DFF93EF93CD
:102470000E944D1C6CE571E0C7010E94E81BF7014A
:1024800001900020E9F73197EE19FF091F930F9390
:10249000BF92AF92FF273296E80DF91DFF93EF939D
:1024A0000E944D1C0FB6F894DEBF0FBECDBFF2E008
:1024B0008701DF1203C029E431E004C0D1100CC051
:1024C0002DE331E048E0B701C4010E94E811811119
:1024D0002EC0F40184810DC021E331E048E0B70152
:1024E000C4010E94E811811122C0F4018481DD241D
:1024F000D3948F3FE9F0F401FA9620E030E0908128
:102500009F3F71F4F9017D96EE0FFF1FE80DF91D55
:102510008083220F331F280D391DF901D3AE08C067
:102520002F5F3F4F32962730310549F701C08FEFBB
:102530000F900F90DF91CF911F910F91FF90EF902F
:10254000DF90BF90AF909F908F9008950F931F934F
:10255000E0912A01F0912B013196E13078E0F70704
:1025600010F0E0E0F4E0F0932B01E0932A010091F9
:102570002A0110912B010E9401121F910F910895C1
:10258000AF92BF92CF92DF92EF92FF920F931F9381
:10259000A12CB12CC12CD12CE12CF12C00E010E0AD
:1025A0000E94F60E1F910F91FF90EF90DF90CF9059
:1025B000BF90AF900895AF92BF92CF92DF92EF920B
:1025C000FF920F931F93A12CB12CC12CD12C790118
:1025D0008A019B0140E060E070E00E94F60E1F91CE
:1025E0000F91FF90EF90DF90CF90BF90AF90089544
:1025F0005F926F927F928F929F92AF92BF92CF9293
:10260000DF92EF92FF920F931F93CF93DF937C01A2
:10261000762E6A015901CA010E94F31B682E592EB9
:10262000E70122961F927F9282EE882E80E0982EFC
:102630009F928F92DF93CF930E944D1C69E071E0CF
:10264000CE010E94E81BFE0101900020E9F73197BE
:10265000EC1BFD0B5F926F929F928F92FF27329639
:10266000EE0DFF1DFF93EF930E944D1C8DB79EB79B
:102670000C960FB6F8949EBF0FBE8DBFA114B10487
:1026800009F463C0672DC7010E94A70B813009F0D0
:102690005CC067E071E0CE010E94E81BFE01019082
:1026A0000020E9F73197AF014C1B5D0B55274E5FBA
:1026B0005F4F4E0D5F1DB501C7010E94DE0B011576
:1026C000110509F448C0672DC7010E94A70B81308E
:1026D00009F041C062E071E0CE010E94E81BFE01FA
:1026E00001900020E9F73197EC1BFD0B1F930F932E
:1026F00082EE90E09F938F93FF273296EE0DFF1DA1
:10270000FF93EF930E944D1C0F900F900F900F902E
:102710000F900F906DEF70E0CE010E94E81B9601C4
:10272000AE0161EF70E0C701DF91CF911F910F9172
:10273000FF90EF90DF90CF90BF90AF909F908F90E1
:102740007F906F905F900C94DB1264E071E0CE019B
:102750000E94E81BB4CF6FEF70E0CE010E94E81B2F
:10276000D9CFAF92BF92CF92DF92EF92FF920F93A9
:102770001F9358016901E12CF12C8A019B0140E073
:1027800060E070E00E94F60E1F910F91FF90EF90B5
:10279000DF90CF90BF90AF9008955F926F927F923D
:1027A0008F929F92AF92BF92CF92DF92EF92FF9261
:1027B0000F931F93CF93DF936C01762E4A01522E15
:1027C000632EEC0122961F926F9382EEA82E80E07A
:1027D000B82EBF92AF92DF93CF930E944D1C63E25D
:1027E00071E0CE010E94E81BFE0101900020E9F794
:1027F0003197EC1BFD0B6F925F92BF92AF92FF2758
:102800003296EC0DFD1DFF93EF930E944D1C8DB78A
:102810009EB70C960FB6F8949EBF0FBE8DBF0115E4
:10282000110539F0672DC6010E94A70B813009F40C
:102830004EC06EE171E0CE010E94E81BE114F1048C
:1028400009F45CC0672DC6010E94A70B813009F016
:1028500055C06CE171E0CE010E94E81BFE010190C1
:102860000020E9F73197EC1BFD0BFF92EF9282EE0F
:1028700090E09F938F93FF273296EC0DFD1DFF9301
:10288000EF930E944D1C0F900F900F900F900F90A0
:102890000F9067E171E0CE010E94E81B052D162D17
:1028A0009401AE016BE071E0C6010E94B113DF91AB
:1028B000CF911F910F91FF90EF90DF90CF90BF903D
:1028C000AF909F908F907F906F905F90089561E29E
:1028D00071E0CE010E94E81BFE0101900020E9F7A3
:1028E0003197AF014C1B5D0B55274E5F5F4F4C0D71
:1028F0005D1DB801C6010E94DE0BA0CF69E171E049
:10290000CE010E94E81BC5CFEF92FF920F931F9359
:10291000FA0101900020E9F73197E41BF50B7801EB
:1029200089019F010E94CD131F910F91FF90EF909D
:102930000895AF92BF92CF92DF92EF92FF920F93E2
:102940001F939B01A12CB12CC12CD12CE12CF12C7B
:102950008A0140E060E070E00E94F60E1F910F9146
:10296000FF90EF90DF90CF90BF90AF9008956F925F
:102970007F928F929F92AF92BF92CF92DF92EF920F
:10298000FF920F931F93CF93DF931F92CDB7DEB7C4
:102990003C015A01490169830E94720CF30116AA95
:1029A00017AA10AE11AE6301F2E0CF0ED11C80E386
:1029B000F60111928A95E9F76981623051F426EBAC
:1029C00031E040E3B601C3010E94C012811191C001
:1029D0000BC0662399F022EA31E040E3B601C3015F
:1029E0000E94C012811187C0F3014285538564851E
:1029F000758546AB57AB60AF71AF7EC08114910453
:102A000059F0A601B401C3010E94DE0BA60160E9E2
:102A100071E0C3010E949914A114B10481F0A601D0
:102A2000B501C3010E94DE0BF50180819181A28175
:102A3000B381F30186AB97ABA0AFB1AF0DC064E833
:102A400071E0C6010E94E81B80ECF30186AB88EAC6
:102A500087AB10AE81E081AFE114F104B9F062E818
:102A600071E0C6010E94E81BF60101900020E9F721
:102A70003197AF014C195D0955274E5F5F4F460DE9
:102A8000571DB701C3010E94DE0B05C063E771E06B
:102A9000C6010E94E81B01151105B1F061E771E064
:102AA000C6010E94E81BF60101900020E9F731976A
:102AB000AF014C195D0955274E5F5F4F460D571DFD
:102AC000B801C3010E94DE0BA60160E671E0C301FC
:102AD0000F90DF91CF911F910F91FF90EF90DF90BA
:102AE000CF90BF90AF909F908F907F906F900C94FD
:102AF000991482E001C081E00F90DF91CF911F9186
:102B00000F91FF90EF90DF90CF90BF90AF909F908C
:102B10008F907F906F900895EF92FF920F931F9385
:102B2000E12CF12C00E010E020E030E040E050E04B
:102B300061E00E94B7141F910F91FF90EF900895EC
:102B4000AF92BF92CF92DF92EF92FF920F931F93BB
:102B50009B01A12CB12CC12CD12CE12CF12C00E03B
:102B600010E040E060E070E00E94F60E1F910F91CF
:102B7000FF90EF90DF90CF90BF90AF900895CF93EC
:102B8000DF93EC0166E074E00E94A01568EF73E04B
:102B9000CE01DF91CF910C94A015AF92BF92CF924E
:102BA000DF92EF920F931F93CF93DF93EC016B01B2
:102BB0005A011E2D213049F018F0223091F020C02A
:102BC0006AED73E00E94A0151BC0452B29F06EEB47
:102BD00073E00E94A015BFC066EA73E00E94A015D2
:102BE000B6C0402F50E0A114B10429F06BE873E0A7
:102BF0000E94E110B0C064E773E00E94E110A7C03A
:102C0000153038F4412F50E063E673E0CE010E94A6
:102C1000E110A114B10431F0A50167E573E0CE0124
:102C20000E949914E8818E2F90E08531910508F07B
:102C300096C0FC01EC5CFF4F0C94991A22E533E03E
:102C4000A60165E473E077C020E433E0A60163E306
:102C500073E071C02EE233E0A60161E273E06BC065
:102C60002CE133E0A6016FE073E065C02AE033E0B9
:102C7000A6016DEF72E05FC028EF32E0A6016BEEB7
:102C800072E059C026EE32E0A60169ED72E053C051
:102C900024ED32E0A60167EC72E04DC022EC32E098
:102CA000A60165EB72E047C020EB32E0A60163EAC3
:102CB00072E041C02EE932E0A60161E972E03BC05A
:102CC0002CE832E0A6016FE772E035C02AE732E077
:102CD000A6016DE672E02FC028E632E0A6016BE5A2
:102CE00072E029C026E532E0A60169E472E023C063
:102CF00024E432E0A60167E372E01DC022E332E083
:102D0000A60165E272E017C020E232E0A60163E1AD
:102D100072E011C02DE032E0A60160E072E00BC06D
:102D20002AEF31E0A6016DEE71E005C027EE31E03B
:102D3000A6016AED71E0CE01DF91CF911F910F9155
:102D4000EF90DF90CF90BF90AF900C94DB121530D6
:102D500008F068CF57CF153008F05ECF53CF80E032
:102D6000DF91CF911F910F91EF90DF90CF90BF90A7
:102D7000AF900895EF920F93EE24EA9400E00E9442
:102D8000CD150F91EF900895CF93DF93EC010E9442
:102D9000720C1EAA1FAA18AE19AE6AEC71E0CE0121
:102DA000DF91CF910C94A015BF92CF92DF92EF925A
:102DB000FF920F931F93CF93DF93EC016A017B0186
:102DC000B22E61E083E00E941F0B5B9A61E082E01B
:102DD0000E941F0B5A9861E081E00E941F0B61E086
:102DE00081E00E945B0B60E080E00E941F0B61E0CD
:102DF00080E00E945B0B1EAA1FAA18AE19AEFE014E
:102E0000329680E3DF011D928A95E9F7CAAADBAA10
:102E1000ECAAFDAAB701A601CE010E94BD0BCE010E
:102E20000E94570C5A9865E0CE010E94080C5A9AED
:102E30006BE0CE010E94080C14E00FEF6CE18CE710
:102E400093E00E94A3070E94310A6B017C010E945B
:102E5000310ADC01CB018C199D09AE09BF09883C00
:102E60009105A105B10508F58CE793E00E942407C0
:102E7000892B69F38CE793E00E943E07853539F78B
:102E800065E58CE793E00E94A3076AE0CE010E940B
:102E9000080C6EE68CE793E00E94A3076AE08CE7DB
:102EA00093E00E94A30711E00EEF115039F664E1A0
:102EB000CE010E94080C13E0CE010E94230C60E4B6
:102EC00074E0CE010E94A01581110DC062E374E090
:102ED000CE010E94A01566E274E0CE010E94A0150A
:102EE000B88200E009C06AE0CE010E94080C1150CF
:102EF00019F7CE010E94680C802FDF91CF911F91AE
:102F00000F91FF90EF90DF90CF90BF90089522E057
:102F100040E855E260E070E00C94D416CF92DF9266
:102F2000EF92FF920F931F93CF93DF937C016A017F
:102F30008B01C0E0D0E0CC15DD0589F0D701ED9123
:102F4000FC91068CF78DE02DC70109958F3FBFEFEF
:102F50009B0729F0F80181938F012196ECCFCE01D8
:102F6000DF91CF911F910F91FF90EF90DF90CF9065
:102F700008950F931F93CF93DF93EC01E881F981BC
:102F8000048CF58DE02D09958C010115110551F08A
:102F9000E881F981068CF78DE02DCE01099501506D
:102FA0001109F3CFDF91CF911F910F9108950F93E6
:102FB0001F93CF93DF938C01DC01ED91FC9106A070
:102FC000F7A1E02D0995EC01892B61F0D801ED9175
:102FD000FC9106A0F7A1E02D62E574E0C801099517
:102FE000C80FD91FCE01DF91CF911F910F91089586
:102FF00021E0FC0184818F3F09F420E0822F0895B5
:103000000F931F93CF93DF9300D01F92CDB7DEB7FE
:10301000FC0184818B831A8219828F3F71F000E05A
:1030200010E020E030E0AE014F5F5F4FBE016D5F0A
:103030007F4F83E394E00E94E10E89819A810F9093
:103040000F900F90DF91CF911F910F910895EF9204
:10305000FF920F931F93CF93DF9300D000D0CDB793
:10306000DEB7FC0124812B832F3FB9F07C0101E006
:1030700010E09E012C5F3F4FAE014F5F5F4FBE01DE
:103080006D5F7F4F83E394E00E94E10E009729F08B
:10309000019631F48FEFF70184838FEF9FEF02C029
:1030A0008C8190E00F900F900F900F90DF91CF9157
:1030B0001F910F91FF90EF9008951F93CF93DF938F
:1030C000FC0164816F3FB1F0EC0183E394E00E9466
:1030D000940E182F882319F08FEF8C830BC08E85E8
:1030E0008A3050F06C8183E394E00E94ED108FEF02
:1030F0008C8303C010E001C011E0812FDF91CF91DC
:103100001F910895CF93DF93FC0124812F3F81F01D
:10311000EC010190F081E02D02A0F3A1E02D0995D2
:103120006C8183E394E00E94ED108FEF8C831E8608
:10313000DF91CF910895CF92DF92EF92FF920F939C
:103140001F93CF93DF931F92CDB7DEB76983FC0146
:1031500064816F3F01F16C01FC01E184F2848C0118
:103160000B5F1F4F21E030E0AE014F5F5F4F83E305
:1031700094E00E94CD13F601882381F086858F5F4D
:1031800086878A3040F0648183E394E00E94ED10EA
:103190008FEFF601848380E090E003C0168681E023
:1031A00090E00F90DF91CF911F910F91FF90EF90E2
:1031B000DF90CF900895CF92DF92EF92FF920F931E
:1031C0001F93CF93DF93DC011496EC91EF3FF1F066
:1031D000C52ED42EAB01EC01E984FA848C010B5F7F
:1031E0001F4F2D2D3C2D6E2F83E394E00E94CD13B5
:1031F000882379F08E858F5F8E878A3038F06C81D6
:1032000083E394E00E94ED108FEF8C8380E090E0E8
:1032100003C01E868D2D9C2DDF91CF911F910F91A4
:10322000FF90EF90DF90CF900895EF92FF920F9371
:103230001F93CF93DF93EC019C819F3FD1F07B01E3
:1032400009851A859E012B5F3F4FAB01692F83E3F0
:1032500094E00E948414882379F08E858F5F8E8796
:103260008A3038F06C8183E394E00E94ED108FEF98
:103270008C8380E090E009C01E86F7010190002059
:10328000E9F73197CF018E199F09DF91CF911F91F7
:103290000F91FF90EF900895EF92FF920F931F937D
:1032A000CF93DF937B01FC0164816F3F21F1EC013F
:1032B000018512859C012B5F3F4FA70183E394E0BA
:1032C0000E94F812882369F08E858F5F8E878A307E
:1032D00090F06C8183E394E00E94ED108FEF8C837B
:1032E0000AC01E86C701DF91CF911F910F91FF90F9
:1032F000EF900C94F31B80E090E0DF91CF911F9151
:103300000F91FF90EF900895FC01DB011382128270
:1033100083E493E0918380838C91858311968C91D3
:103320001197868312968C911297878313968C91AE
:103330008087528741878FEF8483089523E433E0A9
:10334000FC01318320830C948218FF920F931F930A
:10335000CF93DF93FC0124812F3F19F080E090E0B0
:103360001BC0F62EEC010385148521853285AC0146
:103370004B5F5F4F83E394E00115110519F00E9444
:10338000011202C00E94A6128C838C818F3F31F300
:10339000FD861E8681E090E0DF91CF911F910F9115
:1033A000FF90089560E00C94A51961E00C94A519B4
:1033B00060E00C94A51961E00C94A519FC01DB01F7
:1033C0008C91858311968C911197868312968C919E
:1033D0001297878313968C9180875287418760E08C
:1033E000CF010C94A519FC01DB018C91858311960A
:1033F0008C911197868312968C91129787831396DE
:103400008C9180875287418761E0CF010C94A51988
:10341000FC01DB018C91858311968C911197868339
:1034200012968C911297878313968C91808752877E
:1034300041873487238760E0CF010C94A519FC01F4
:10344000DB018C91858311968C911197868312965E
:103450008C911297878313968C918087528741872E
:103460003487238761E0CF010C94A5190F931F9334
:10347000CF93DF93EC018A01AC014B5F5F4F83E395
:1034800094E00E94981181110AC01A87098760E0B0
:10349000CE01DF91CF911F910F910C94A51980E07F
:1034A00090E0DF91CF911F910F9108950F931F939B
:1034B000CF93DF93EC018A01AC014B5F5F4F83E355
:1034C00094E00E94981181110AC01A87098761E06F
:1034D000CE01DF91CF911F910F910C94A51980E03F
:1034E00090E0DF91CF911F910F9108950895A1E28F
:1034F0001A2EAA1BBB1BFD010DC0AA1FBB1FEE1F6E
:10350000FF1FA217B307E407F50720F0A21BB30BB8
:10351000E40BF50B661F771F881F991F1A9469F734
:1035200060957095809590959B01AC01BD01CF0190
:103530000895EE0FFF1F0590F491E02D09940F936D
:103540001F93CF93DF93869F8001879F100D969FD7
:10355000100D1124C8010E94BB1AEC01009729F03C
:10356000A80160E070E00E94FC1BCE01DF91CF91CA
:103570001F910F910895CF93DF938230910510F43E
:1035800082E090E0E0917D04F0917E0420E030E064
:10359000C0E0D0E0309711F14081518148175907C0
:1035A000C0F04817590761F482819381209719F080
:1035B0009B838A832BC090937E0480937D0426C0D6
:1035C0002115310519F04217530718F49A01BE016D
:1035D000DF01EF010280F381E02DDCCF2115310501
:1035E00009F1281B390B2430310590F412968D9186
:1035F0009C9113976115710521F0FB0193838283E0
:1036000004C090937E0480937D04FD01329644C0F3
:10361000FD01E20FF31F81939193225031092D9305
:103620003C933AC020917B0430917C04232B41F4DD
:10363000209102013091030130937C0420937B049C
:1036400020910001309101012115310541F42DB780
:103650003EB74091040150910501241B350BE091C8
:103660007B04F0917C04E217F307A0F42E1B3F0BC0
:103670002817390778F0AC014E5F5F4F24173507E4
:1036800048F04E0F5F1F50937C0440937B0481935E
:10369000919302C0E0E0F0E0CF01DF91CF91089577
:1036A0000F931F93CF93DF93009709F48CC0FC0115
:1036B00032971382128200917D0410917E040115CD
:1036C000110581F420813181820F931F20917B04A9
:1036D00030917C042817390779F5F0937C04E09346
:1036E0007B0471C0D80140E050E0AE17BF0750F432
:1036F00012962D913C911397AD012115310509F1D9
:10370000D901F3CF9D01DA01338322836081718176
:10371000860F971F8217930769F4EC01288139817E
:10372000260F371F2E5F3F4F318320838A819B8175
:1037300093838283452B29F4F0937E04E0937D04E8
:1037400042C01396FC93EE931297ED014991599163
:103750009E01240F351FE217F30771F480819181D8
:10376000840F951F029611969C938E93828193816C
:1037700013969C938E931297E0E0F0E0D801129696
:103780008D919C911397009719F0F8018C01F6CF59
:103790008D919C9198012E5F3F4F820F931F209136
:1037A0007B0430917C042817390769F4309729F499
:1037B00010927E0410927D0402C013821282109334
:1037C0007C0400937B04DF91CF911F910F910895AA
:1037D000FB01DC010D900020E9F7119705900D9297
:1037E0000020E1F70895FC0105900020E9F780959D
:1037F00090958E0F9F1F0895DC0101C06D9341507D
:103800005040E0F70895FB01DC010D900020E9F73E
:10381000119701900D920020E1F70895FB0151915D
:103820005523A9F0BF01DC014D9145174111E1F786
:1038300059F4CD010190002049F04D9140154111FE
:10384000C9F3FB014111EFCF81E090E001970895AA
:10385000BB274A3031F4992322F4BDE2909581953B
:103860009F4F0C94341CBB27FB015527AA27880FB8
:10387000991FAA1FA41710F0A41B83955051B9F7E4
:10388000A05DAA3308F0A95DA193009779F7B11163
:10389000B1931192CB010C94581EAEE0B0E0E3E579
:1038A000FCE10C940C1F0D891E898EE08C831A8319
:1038B00009838FEF9FE79E838D83AE01475E5F4F45
:1038C0006F89788DCE0101960E94701C2F813885FA
:1038D000F801E20FF31F10822E96E4E00C94281FEB
:1038E000ACE0B0E0E6E7FCE10C94FE1E7C016B016D
:1038F0008A01FC0117821682838181FFBDC1CE013E
:1039000001964C01F7019381F60193FD859193FF98
:1039100081916F01882309F4ABC1853239F493FD9D
:10392000859193FF81916F01853229F4B70190E071
:103930000E94681EE7CF512C312C20E02032A0F4E9
:103940008B3269F030F4803259F0833269F42061AF
:103950002CC08D3239F0803339F4216026C02260CA
:10396000246023C0286021C027FD27C030ED380F18
:103970003A3078F426FF06C0FAE05F9E300D11243D
:10398000532E13C08AE0389E300D1124332E20624E
:103990000CC08E3221F426FD6BC1206406C08C362B
:1039A00011F4206802C0883641F4F60193FD859138
:1039B00093FF81916F018111C1CF982F9F7D955405
:1039C000933028F40C5F1F4FFFE3F9830DC083365B
:1039D00031F0833771F0833509F05BC022C0F80104
:1039E000808189830E5F1F4F44244394512C5401DE
:1039F00015C03801F2E06F0E711CF801A080B18093
:103A000026FF03C0652D70E002C06FEF7FEFC50198
:103A10002C870E944D1E2C0183012C852F77222E8E
:103A200017C03801F2E06F0E711CF801A080B18060
:103A300026FF03C0652D70E002C06FEF7FEFC50168
:103A40002C870E94421E2C012C852068222E830187
:103A500023FC1BC0832D90E048165906B0F4B70133
:103A600080E290E00E94681E3A94F4CFF50127FCB2
:103A7000859127FE81915F01B70190E00E94681E49
:103A800031103A94F1E04F1A51084114510471F782
:103A9000E5C0843611F0893639F5F80127FF07C0F3
:103AA00060817181828193810C5F1F4F08C06081AA
:103AB0007181072E000C880B990B0E5F1F4F2F761C
:103AC000722E97FF09C090958095709561957F4FF4
:103AD0008F4F9F4F2068722E2AE030E0A4010E9491
:103AE000A01EA82EA81844C0853729F42F7EB22E18
:103AF0002AE030E025C0F22FF97FBF2E8F36C1F0CB
:103B000018F4883579F0B4C0803719F0883721F07F
:103B1000AFC02F2F2061B22EB4FE0DC08B2D84605C
:103B2000B82E09C024FF0AC09F2F9660B92E06C088
:103B300028E030E005C020E130E002C020E132E0C2
:103B4000F801B7FE07C060817181828193810C5FAB
:103B50001F4F06C06081718180E090E00E5F1F4FB3
:103B6000A4010E94A01EA82EA818FB2DFF777F2E6F
:103B700076FE0BC0372D3E7FA51450F474FE0AC0AC
:103B800072FC08C0372D3E7E05C0BA2C372D03C00D
:103B9000BA2C01C0B52C34FF0DC0FE01EA0DF11D99
:103BA0008081803311F4397E09C032FF06C0B3949E
:103BB000B39404C0832F867809F0B39433FD13C007
:103BC00030FF06C05A2CB31418F4530C5B18B32CF6
:103BD000B31468F4B70180E290E03C870E94681E4D
:103BE000B3943C85F5CFB31410F43B1801C0312CCD
:103BF00034FF12C0B70180E390E03C870E94681E4A
:103C00003C8532FF17C031FD03C088E790E002C059
:103C100088E590E0B7010CC0832F867859F031FF1A
:103C200002C08BE201C080E237FD8DE2B70190E077
:103C30000E94681EA51438F4B70180E390E00E944A
:103C4000681E5A94F7CFAA94F401EA0DF11D808101
:103C5000B70190E00E94681EA110F5CF332009F44F
:103C600051CEB70180E290E00E94681E3A94F6CFF0
:103C7000F7018681978102C08FEF9FEF2C96E2E1DA
:103C80000C941A1FFC010590615070400110D8F788
:103C9000809590958E0F9F1F0895FC016150704094
:103CA00001900110D8F7809590958E0F9F1F089571
:103CB000DC01FC01672F71917723E1F7329704C093
:103CC0007C916D9370836291AE17BF07C8F308951E
:103CD0000F931F93CF93DF93FB01238121FD03C03B
:103CE0008FEF9FEF28C022FF16C0468157812481A5
:103CF00035814217530744F4A081B1819D012F5FA4
:103D00003F4F318320838C93268137812F5F3F4F34
:103D10003783268310C0EB01092F182F0084F1850B
:103D2000E02D0995892BE1F68E819F8101969F8375
:103D30008E83812F902FDF91CF911F910F91089546
:103D4000FA01AA27283051F1203181F1E8946F93CC
:103D50006E7F6E5F7F4F8F4F9F4FAF4FB1E03ED072
:103D6000B4E03CD0670F781F891F9A1FA11D680F10
:103D7000791F8A1F911DA11D6A0F711D811D911D43
:103D8000A11D20D009F468943F912AE0269F1124B8
:103D90003019305D3193DEF6CF010895462F47701C
:103DA000405D4193B3E00FD0C9F7F6CF462F4F7077
:103DB000405D4A3318F0495D31FD4052419302D0D5
:103DC000A9F7EACFB4E0A69597958795779567957B
:103DD000BA95C9F700976105710508959B01AC017B
:103DE0000A2E06945795479537952795BA95C9F7A2
:103DF000620F731F841F951FA01D08952F923F927D
:103E00004F925F926F927F928F929F92AF92BF92EA
:103E1000CF92DF92EF92FF920F931F93CF93DF9396
:103E2000CDB7DEB7CA1BDB0B0FB6F894DEBF0FBEF3
:103E3000CDBF09942A88398848885F846E847D8440
:103E40008C849B84AA84B984C884DF80EE80FD8042
:103E50000C811B81AA81B981CE0FD11D0FB6F894B8
:0E3E6000DEBF0FBECDBFED010895F894FFCF79
:103E6E0000007F048000010000003601680190010F
:103E7E00BA01E101A0BB0D00C0D4010040771B00C8
:103E8E00C0D40100E803000001FF00044375727204
:103E9E00656E74204D656D6F727900526564466C67
:103EAE00792E696E6974204552524F520031363068
:103EBE003436343434363234363830333600574CA8
:103ECE00414E2D4B6162656C00526564466C792ED5
:103EDE006A6F696E204552524F5200526564466CAD
:103EEE00792E626567696E204552524F52005769AE
:103EFE00466920536869656C6420636F6E6E6563F6
:103F0E007465640073746172742077616974696E8C
:103F1E00670073756363657373537472696E675765
:103F2E006562736572766572006661696C7572653D
:103F3E000073746F707065642077616974696E6761
:103F4E0000474554202F76616C75656765742E7039
:103F5E00687000504F5354202F63616C6C5F696E14
:103F6E006974696174696F6E2E706870003F6E615E
:103F7E006D653D00546573740026747970653D005F
:103F8E0050726F7A656E7466657563687465002627
:103F9E0076616C75653D00266B65793D6333373808
:103FAE003136333366316662316464636137376349
:103FBE003930333864343939343334350020485489
:103FCE0054502F312E310D0A486F73743A20003140
:103FDE0039322E3136382E3137382E3233000D0A23
:103FEE000D0A007472616E736D697373696F6E2062
:103FFE007375636365737300696E697461746500CC
:10400E00526573756C744F6648747470506F737428
:10401E005265717565737400436F6E6E6563746976
:10402E006F6E3A20636C6F73650D0A00736572765E
:10403E00657220756E617661696C61626C650046B1
:10404E00756C6C48747470506F73745472616E73C7
:10405E006D697373696F6E00757267656E746C79D6
:10406E00206472790076657279206D6F69737400C1
:10407E00497354696D65546F43616C6C446174612E
:10408E000000000000A307DE0824073E073007816A
:10409E00076E616E00696E66006F7666002E000018
:1040AE000000009B18DB18D219D519D819DB19DEC0
:1040BE0019F319081A1F1A361A561A5D18821800A3
:1040CE001827188E17B91715194C19D717F8170086
:00000001FF
