:100000000C942D020C9455020C9455020C9455023C
:100010000C9455020C9455020C9455020C94550204
:100020000C9455020C9455020C9455020C945502F4
:100030000C9455020C9455020C9455020C945502E4
:100040000C946C0A0C9455020C9474080C94A60839
:100050000C9455020C9455020C9455020C945502C4
:100060000C9455020C94550287168D16931699160A
:100070009F16A516AB16B116B716BD16C316C91630
:10008000CF16D516DB16E116E716ED16F316F916A0
:10009000FF16000000080002010000030407000032
:1000A000000000000000010204081020408001024E
:1000B00004081020010204081020040404040404AD
:1000C000040402020202020203030303030300000A
:1000D0000000250028002B0000000000240027005D
:1000E0002A0025750025692E25692E25692E25698A
:1000F0000041542B5253495F534E443D002C002C79
:1001000030002C002C30002C002C0041542B52537A
:10011000495F534E443D002C002C30002C002C3005
:10012000002C002C0041542B5253495F434C533D4B
:100130000041542B5253495F5544503D0041542BCC
:100140005253495F5443503D0041542B5253495F31
:10015000204D554C5449434153543D002C002C0034
:1001600041542B5253495F4950434F4E463D302C2A
:10017000002C002C3235352E3235352E3235352EC9
:1001800030002C003139322E3136382E302E3100ED
:1001900041542B5253495F444E5353455256455296
:1001A0003D0041542B5253495F4950434F4E463D09
:1001B000312C302C300041542B5253495F4950436D
:1001C0004F4E463D322C302C300041542B52534977
:1001D0005F4449534153534F430041542B525349B9
:1001E0005F4A4F494E3D002C31322C320041542B96
:1001F0005253495F4A4F494E3D002C31322C310059
:1002000041542B5253495F4A4F494E3D002C3132E5
:100210002C300041542B5253495F4A4F494E3D0008
:100220002C392C320041542B5253495F4A4F494ECE
:100230003D002C392C310041542B5253495F4A4F19
:10024000494E3D002C392C300041542B5253495F0C
:100250004A4F494E3D002C372C320041542B52530B
:10026000495F4A4F494E3D002C372C310041542BF9
:100270005253495F4A4F494E3D002C372C300041C4
:10028000542B5253495F4A4F494E3D002C342C3277
:100290000041542B5253495F4A4F494E3D002C3484
:1002A0002C310041542B5253495F4A4F494E3D0077
:1002B0002C342C300041542B5253495F4A4F494E45
:1002C0003D002C322C320041542B5253495F4A4F8F
:1002D000494E3D002C322C310041542B5253495F82
:1002E0004A4F494E3D002C322C300041542B525382
:1002F000495F4A4F494E3D002C312C320041542B6E
:100300005253495F4A4F494E3D002C312C31004138
:10031000542B5253495F4A4F494E3D002C312C30EB
:100320000041542B5253495F4A4F494E3D002C30F7
:100330002C320041542B5253495F4A4F494E3D00E5
:100340002C302C310041542B5253495F4A4F494EB7
:100350003D002C302C300041542B5253495F5053F8
:100360004B3D0041542B5253495F415554484D4F2A
:1003700044453D0041542B5253495F4E4554574F1D
:10038000524B3D494253532C312C0041542B525374
:10039000495F4E4554574F524B3D494253535F536B
:1003A00045432C312C0041542B5253495F4E455448
:1003B000574F524B3D494253532C302C300041543F
:1003C0002B5253495F4E4554574F524B3D49425370
:1003D000535F5345432C302C300041542B5253492A
:1003E0005F4E4554574F524B3D494E465241535430
:1003F000525543545552450041542B5253495F5373
:1004000043414E3D300041542B5253495F4E554DB0
:100410005343414E3D300041542B5253495F444EAB
:10042000534745543D0041542B5253495F494E496F
:10043000540041542B5253495F42414E443D3000D9
:1004400041542B5253495F465756455253494F4EDC
:100450003F000D0A00002907D60811241FBECFEF68
:10046000D8E0DEBFCDBF14E0A0E0B1E0E4ECFFE3F4
:1004700002C005900D92A432B107D9F725E0A4E29D
:10048000B4E001C01D92AF32B207E1F712E0CDE255
:10049000D2E004C02197FE010E942A1BCB32D10773
:1004A000C9F70E941A070C94E01F0C9400000895ED
:1004B000CF93DF93EC0183EE94E00E94D10CBE0158
:1004C0008CE294E00E94500983EE94E0DF91CF919A
:1004D0000C94C00CCF92DF92EF92FF92CF93DF93F8
:1004E000EC016A017B0183EE94E00E94D10CBE0115
:1004F0008CE294E00E94430964E372E08CE294E0B1
:100500000E9443092AE030E0B701A6018CE294E0A2
:100510000E94190A83EE94E0DF91CF91FF90EF9053
:10052000DF90CF900C94C00C0F931F93CF93DF9369
:100530008C01EB0183EE94E00E94D10CB8018CE2B7
:1005400094E00E94430964E372E08CE294E00E942C
:1005500043094AE050E0BE018CE294E00E94F509B4
:1005600083EE94E0DF91CF911F910F910C94C00C1A
:100570001F93CF93DF93C3E3D0E0112391F0219732
:1005800009F44EC020E040E855E260E070E083EE00
:1005900094E00E943D17182F86E291E00E945802D5
:1005A000ECCF83EE94E00E94281620E048E351E06F
:1005B00069E471E083EE94E00E942317182FC3E3EF
:1005C000D0E0112389F0219759F120E048E351E070
:1005D00069E471E083EE94E00E942317182F84E50C
:1005E00091E00E945802EDCF83EE94E00E94F51551
:1005F000182FC3E3D0E0112361F0219789F083EE37
:1006000094E00E94F515182F86E691E00E945802AA
:10061000F2CF89E791E0DF91CF911F910C945802BE
:10062000DF91CF911F9108954F925F926F927F92C9
:100630008F929F92AF92BF92CF92DF92EF92FF92F2
:100640000F931F93CF93DF93CDB7DEB7C154D14043
:100650000FB6F894DEBF0FBECDBF7C010E94B60A74
:100660002B013C018FE891E00E945802C301B201C6
:10067000812C912C00E010E09E012F5F3F4F69011B
:1006800025E1A22EDC01CB0184199509A609B70941
:10069000813C944DA140B10508F04EC081149104F5
:1006A00009F04AC0C7010E946218892B91F0C70166
:1006B0000E9489188F3F3FEF930759F00B3221E0DA
:1006C0001207A8F7F601E00FF11F80830F5F1F4F9D
:1006D000EECF0115110529F0C7010E94BF1888232C
:1006E00019F00E94B60ACECFC7010E94E41883EE2B
:1006F00094E00E942D17F601E00FF11F1082EDEA41
:10070000F1E0DE01A35DBE4F8A2D01900D928A9526
:10071000E1F7BE01635D7E4FC6010E94B91C8C19D2
:100720009D09B92EB094BB1CBB24BB1C82E0882E53
:10073000912C00E010E0D5CF8DE991E00E945802A5
:10074000C7010E941B188B2DCF5BDE4F0FB6F894AC
:10075000DEBF0FBECDBFDF91CF911F910F91FF90F4
:10076000EF90DF90CF90BF90AF909F908F907F9051
:100770006F905F904F900895CF92DF92EF92FF922B
:100780000F931F93CF93DF936B017C0161E070E0C7
:1007900085E090E00E944A1B8C014AE0BC01C60142
:1007A0000E94D31CF80101900020E9F7CF01801BC3
:1007B000910B61E070E081589F4F0E944A1BEC0151
:1007C00062EC71E00E94AE1C65ED71E0CE010E940A
:1007D000AE1C6CED71E0CE010E94AE1C61EE71E0CA
:1007E000CE010E94AE1C68EE71E0CE010E94AE1CEC
:1007F00067EF71E0CE010E94AE1CB801CE010E94ED
:10080000AE1C6FEF71E0CE010E94AE1C65E272E09B
:10081000CE010E94AE1C67E372E0CE010E94AE1CC6
:1008200066E472E0CE010E94AE1CCE01DF91CF9152
:100830001F910F91FF90EF90DF90CF900895CF928E
:10084000DF92EF92FF920F931F93CF93DF93CDB779
:10085000DEB72F970FB6F894DEBF0FBECDBF8A016B
:1008600069010E94BC037C0140E550E0B601C8016B
:100870000E94401A892B69F1B701C8010E944309FF
:10088000F801828193819C838B8387EF93E09A8325
:10089000898384818D8385819681A781B0858E83AC
:1008A0009F83A887B987818592859B878A8783855F
:1008B00094859D878C8785858E8786858F87CE01D9
:1008C00001960E941403182FCE0101960E94001A6F
:1008D00007C08BE492E00E9458020E94B80210E028
:1008E000C7010E94FB1B812F2F960FB6F894DEBF25
:1008F0000FBECDBFDF91CF911F910F91FF90EF9071
:10090000DF90CF9008958F929F92AF92BF92CF9237
:10091000DF92EF92FF921F93CF93DF93CDB7DEB7B5
:10092000A2970FB6F894DEBF0FBECDBF4B015C019E
:1009300080EC8F8F88EA88A382EB89A388E18AA361
:1009400040E550E0BE01615E7F4FCE0140960E94BF
:10095000E619EE24E394F12C97EFC92E93E0D92EFB
:100960008FEFE81AF80A8A899B899C838B83DA8245
:10097000C9828C898D838D899E89AF89B88D8E833C
:100980009F83A887B987898D9A8D9B878A878B8D4E
:100990009C8D9D878C878D8D8E878E8D8F879E01F8
:1009A000215E3F4FAE014F5F5F4FC501B4010E9412
:1009B0001F04811105C011E085E0E816F1040CF078
:1009C00010E0CE0101960E94001A1111C9CFCE018C
:1009D00040960E94001AA2960FB6F894DEBF0FBE92
:1009E000CDBFDF91CF911F91FF90EF90DF90CF901F
:1009F000BF90AF909F908F90089526E040E855E219
:100A000060E070E08CE294E00E940F0861E087E013
:100A10000E94A40B61E085E00E94A40B61E08DE0E0
:100A20000E94A40B61E08BE00E94A40B61E087E0D0
:100A30000E94E00B60E971E080E090E00E94E70A2C
:100A400060E087E00E94E00B0C94B8020F931F93C4
:100A50000E94B60A009128041091290420912A04CA
:100A600030912B04DC01CB01801B910BA20BB30B4B
:100A700000911A0110911B0120911C0130911D0160
:100A800080179107A207B30730F48EE592E00E9429
:100A9000580280E005C083E892E00E94580281E09D
:100AA0001F910F910895CF93DF93EC0187EA92E0B5
:100AB0000E94580240910C0150910D01FA01EE0F75
:100AC000FF1FE05FFE4F808191818C179D074CF0E6
:100AD00080910A0190910B01909325048093240446
:100AE00017C020910E0130910F01F901EE0FFF1F89
:100AF000E05FFE4F808191818C179D072CF0509311
:100B000025044093240404C0309325042093240436
:100B1000DF91CF9108956F927F92AF92BF92CF9263
:100B2000DF92EF92FF920F931F932091100130916B
:100B300011016090120170901301A0911401B09105
:100B40001501E0911601F0911701409118015091A3
:100B500019018217930734F08C01481759071CF4C8
:100B60008A0101C08901B801012E000C880B990B84
:100B7000601671068CF07301770C000B110B032EBD
:100B8000000C440B550B1F921F921F92E4E1EF9350
:100B9000A12CB12C650147C0A017B107B4F07D01AD
:100BA000BB0F000B110B93012F5F3F4F032E000C67
:100BB000440B550B1F921F921F92E8E2EF93A5E1A1
:100BC000AA2EB12CC12CD12C2EC0E017F107B4F005
:100BD0007F01FF0F000B110B9D012F5F3F4F032E75
:100BE000000C440B550B1F921F921F92E0E5EF93F0
:100BF000F9E2AF2EB12CC12CD12C15C07A01550FC2
:100C0000000B110B9F012F5F3F4F032E000C440B75
:100C1000550B1F921F921F92E4E6EF93E1E5AE2E73
:100C2000B12CC12CD12C0E942B0A0F900F900F9049
:100C30000F901F910F91FF90EF90DF90CF90BF909A
:100C4000AF907F906F900895CF92DF92EF92FF92D6
:100C500082ED92E00E94580261E085E00E94E00B84
:100C60000E94B60A6B017C01DC01CB018C199D0945
:100C7000AE09BF0940911E0150911F0160912001F2
:100C80007091210184179507A607B70718F40E94F1
:100C9000B60AEACF84E00E945E0B9093270480930B
:100CA000260460E085E00E94E00B8091260490918C
:100CB0002704FF90EF90DF90CF900C945305CF93D3
:100CC000C82F89ED92E00E945802CC2389F08FEE64
:100CD00092E00E9458020E94B60A60932804709322
:100CE000290480932A0490932B04CF910C9424061A
:100CF00084E193E0CF910C945802CF93DF93EC0101
:100D00008AE393E00E945802229730F060E087E087
:100D1000DF91CF910C94E00BDF91CF910895CF92AA
:100D2000DF92EF92FF928DE593E00E9458020E94BD
:100D3000B60A6B017C01AB01BC0181E793E00E9424
:100D40006A02B701A601DB01CA018C199D09AE092F
:100D5000BF0980319742A105B10510F52091240407
:100D60003091250480910E0190910F0128173907C9
:100D7000B9F085E893E00E946A02609124047091C2
:100D8000250483E993E00E94940261E08BE00E94D5
:100D9000E00B0E9424060E94B60AAB01BC01D3CF2F
:100DA00085EA93E00E94580260E08BE00E94E00B2D
:100DB00080910E0190910F0190932504809324045B
:100DC000FF90EF90DF90CF900895CF93DF93EC01E9
:100DD00089EB93E00E945802CD2B21F4DF91CF9153
:100DE0000C948F0660E08BE0DF91CF910C94E00BC8
:100DF000882329F0CB010E948B050C94830408956D
:100E0000CF930E942605C82F0E945F06809124047C
:100E1000909125040E947D068091240490912504E0
:100E20000E94E50660912604709127048C2FCF91D3
:100E30000C94F8060E94230B0E9457020E94FD04A6
:100E4000C7E7D7E00E9400072097E1F30E947707E9
:100E5000F9CF80911A0190911B01A0911C01B091D2
:100E60001D01B095A095909581959F4FAF4FBF4FB5
:100E70008093280490932904A0932A04B0932B0410
:100E800080910E0190910F0190932504809324048A
:100E90000895FC01918D228D892F90E0805C9F4FF9
:100EA000821B91098F7399270895FC01918D828D82
:100EB000981731F0828DE80FF11D858D90E008952F
:100EC0008FEF9FEF0895FC01918D828D981761F04F
:100ED000828DDF01A80FB11D5D968C91928D9F5F71
:100EE0009F73928F90E008958FEF9FEF08958CECA1
:100EF00098E0892B49F080E090E0892B29F00E944E
:100F0000CC0881110C9400000895FC01848DDF0150
:100F1000A80FB11DA35ABF4F2C91848D90E001966C
:100F20008F739927848FA689B7892C93A089B1895B
:100F30008C9180648C93938D848D981306C0028865
:100F4000F389E02D80818F7D80830895CF93DF9397
:100F5000EC01888D8823C9F0EA89FB89808185FDB1
:100F600005C0A889B9898C9186FD0FC00FB607FC12
:100F7000F5CF808185FFF2CFA889B9898C9185FF53
:100F8000EDCFCE010E948507E7CFDF91CF91089585
:100F9000EF92FF920F931F93CF93DF93EC0181E0C9
:100FA000888F9B8D8C8D981305C0E889F989808185
:100FB00085FD24C0F62E0B8D10E00F5F1F4F0F73C1
:100FC0001127E02E8C8DE8120CC00FB607FCFACF6B
:100FD000E889F989808185FFF5CFCE010E948507D8
:100FE000F1CF8B8DFE01E80FF11DE35AFF4FF08228
:100FF0000B8FEA89FB898081806207C0EE89FF89B7
:101000006083E889F98980818064808381E090E051
:10101000DF91CF911F910F91FF90EF900895CF92A4
:10102000DF92EF92FF921F93CF93DF93EC016A015F
:101030007B01122FE889F98982E080834115514EA6
:1010400061057105B1F060E079E08DE390E0A70102
:1010500096010E94E91ADA01C9010197A109B109B3
:10106000B695A79597958795AC01411580E15807EE
:10107000A8F0E889F989108260E874E88EE190E0D0
:10108000A70196010E94E91ABA01A901415051092C
:10109000610971097695679557954795EC85FD85AA
:1010A0005083EE85FF854083188EEC89FD8910837F
:1010B000EA89FB89808180618083EA89FB8980815C
:1010C00088608083EA89FB89808180688083EA89DF
:1010D000FB8980818F7D8083DF91CF911F91FF906D
:1010E000EF90DF90CF9008951F920F920FB60F925E
:1010F00011242F938F939F93EF93FF93E0913C04E0
:10110000F0913D048081E0914204F091430482FD1E
:1011100012C09081809145048F5F8F7320914604A7
:10112000821751F0E0914504F0E0E45DFB4F958FAC
:101130008093450401C08081FF91EF919F918F9131
:101140002F910F900FBE0F901F9018951F920F9226
:101150000FB60F9211242F933F934F935F936F938A
:101160007F938F939F93AF93BF93EF93FF938CE203
:1011700094E00E948507FF91EF91BF91AF919F91FD
:101180008F917F916F915F914F913F912F910F9030
:101190000FBE0F901F9018958CE294E00E944907B3
:1011A00021E0892B09F420E0822F0895ECE2F4E09D
:1011B0001382128288EE93E0A0E0B0E084839583EE
:1011C000A683B78389ED93E09183808385EC90E0DB
:1011D0009587848784EC90E09787868780EC90E001
:1011E000918B808B81EC90E0938B828B82EC90E0F2
:1011F000958B848B86EC90E0978B868B118E128E6C
:10120000138E148E0895CF92DF92EF92FF920F9378
:101210001F93CF93DF936C017A018B01C0E0D0E084
:10122000CE15DF0589F0D8016D918D01D601ED91C4
:10123000FC910190F081E02DC6010995892B11F4F4
:101240007E0102C02196ECCFC701DF91CF911F91A3
:101250000F91FF90EF90DF90CF9008956115710589
:1012600079F0FB0101900020E9F73197AF01461BAF
:10127000570BDC01ED91FC910280F381E02D099484
:1012800080E090E008950C942E09DC01ED91FC9132
:101290000190F081E02D099468E472E00C942E092D
:1012A0000F931F93CF93DF93EC010E942E098C01C3
:1012B000CE010E944C09800F911FDF91CF911F91A9
:1012C0000F9108954F925F926F927F92EF92FF92EB
:1012D0000F931F93CF93DF93CDB7DEB7A1970FB6D0
:1012E000F894DEBF0FBECDBF7C01FA01CB0119A27D
:1012F000223008F42AE08E010F5D1F4F422E512C40
:10130000612C712CBF01A30192010E94E91AF9011D
:10131000CA01015011096A3014F4605D01C0695CB2
:10132000D8016C93232B242B252B61F7B801C7011F
:101330000E942E09A1960FB6F894DEBF0FBECDBF56
:10134000DF91CF911F910F91FF90EF907F906F9061
:101350005F904F900895CF92DF92EF92FF920F939C
:101360001F93CF93DF93EC016A017B0121153105B7
:1013700079F4E881F9810190F081E02D642FDF910B
:10138000CF911F910F91FF90EF90DF90CF90099434
:101390002A303105E9F477FF1AC06DE20E94450951
:1013A0008C0144275527BA014C195D096E097F0944
:1013B0002AE0CE010E946209800F911FDF91CF9138
:1013C0001F910F91FF90EF90DF90CF9008952AE04A
:1013D000B701A601CE01DF91CF911F910F91FF9030
:1013E000EF90DF90CF900C9462090F931F93CF93EF
:1013F000DF93EC019A01AB01770F660B770B0E942C
:10140000AB098C01CE010E944C09800F911FDF9126
:10141000CF911F910F9108952115310541F4DC0101
:10142000ED91FC910190F081E02D642F09940C94D2
:1014300062090F931F93CF93DF93EC010E940C0A74
:101440008C01CE010E944C09800F911FDF91CF913A
:101450001F910F9108954F925F926F927F92AF927A
:10146000BF92CF92DF92EF92FF920F931F93CF9391
:10147000DF93CDB7DEB729013A019B01AC012419F6
:1014800035094609570989899A89AB89BC89BC0104
:10149000CD016A197B098C099D090E94D91AA801FE
:1014A000970124193509460957090E940B1BCA01E7
:1014B000B9016A0D7B1D8C1D9D1DDF91CF911F9180
:1014C0000F91FF90EF90DF90CF90BF90AF907F9003
:1014D0006F905F904F9008951F920F920FB60F92EA
:1014E00011242F933F938F939F93AF93BF9380913A
:1014F000CA049091CB04A091CC04B091CD0430915A
:10150000C90423E0230F2D3720F40196A11DB11D3E
:1015100005C026E8230F0296A11DB11D2093C90422
:101520008093CA049093CB04A093CC04B093CD04D1
:101530008091CE049091CF04A091D004B091D104B9
:101540000196A11DB11D8093CE049093CF04A0936A
:10155000D004B093D104BF91AF919F918F913F91EF
:101560002F910F900FBE0F901F9018952FB7F894E2
:101570006091CA047091CB048091CC049091CD0409
:101580002FBF08953FB7F8948091CE049091CF0477
:10159000A091D004B091D10426B5A89B05C02F3FDF
:1015A00019F00196A11DB11D3FBFBA2FA92F982F89
:1015B0008827820F911DA11DB11DBC01CD0142E004
:1015C000660F771F881F991F4A95D1F708958F924C
:1015D0009F92AF92BF92CF92DF92EF92FF926B01F8
:1015E0007C010E94C20A4B015C01C114D104E104D8
:1015F000F10401F10E94D81A0E94C20ADC01CB0159
:1016000088199909AA09BB09883E9340A105B1052B
:1016100060F321E0C21AD108E108F10888EE880ED3
:1016200083E0981EA11CB11CC114D104E104F10493
:1016300019F7DBCFFF90EF90DF90CF90BF90AF9086
:101640009F908F900895789484B5826084BD84B50E
:10165000816084BD85B5826085BD85B5816085BDAD
:10166000EEE6F0E0808181608083E1E8F0E01082C6
:10167000808182608083808181608083E0E8F0E007
:10168000808181608083E1EBF0E0808184608083F1
:10169000E0EBF0E0808181608083EAE7F0E0808128
:1016A0008460808380818260808380818160808388
:1016B0008081806880831092C10008958E3008F088
:1016C0008E5087702091220190E4299F900111246F
:1016D000822B80937C0080917A00806480937A00D2
:1016E00080917A0086FDFCCF80917800209179006E
:1016F00090E0922B0895833081F028F4813099F0A6
:101700008230A1F008958730A9F08830B9F0843094
:10171000D1F4809180008F7D03C0809180008F770D
:1017200080938000089584B58F7702C084B58F7D43
:1017300084BD08958091B0008F7703C08091B00080
:101740008F7D8093B0000895CF93DF9390E0FC01EC
:10175000EA55FF4F2491FC01E654FF4F8491882302
:1017600061F190E0880F991FFC01E852FF4FC5918D
:10177000D491FC01E253FF4FA591B491611109C0CE
:101780009FB7F8948881209582238883EC912E233B
:101790000BC0623061F49FB7F8943881822F809536
:1017A00083238883EC912E2B2C939FBF06C08FB789
:1017B000F894E8812E2B28838FBFDF91CF91089575
:1017C0001F93CF93DF93282F30E0F901EE56FF4FA0
:1017D0008491F901EA55FF4FD491F901E654FF4F86
:1017E000C491CC23C9F0162F81110E947B0BEC2FE2
:1017F000F0E0EE0FFF1FE253FF4FA591B4918FB7BA
:10180000F894111105C09C91ED2FE095E92302C0D9
:10181000EC91ED2BEC938FBFDF91CF911F91089549
:10182000DC01DA9620E030E04C91461307C0220F2D
:10183000331FFC01E20FF31F83AD08952F5F3F4F6D
:1018400012962730310581F78FEF0895403885E2F1
:1018500058076105710560F0413080E4580788E35E
:101860006807710548F040E050E468E370E004C0A8
:1018700040E855E260E070E026E08CE294E00E94EF
:101880000F088091C20088608093C2000895CF93B2
:10189000DF9300D0CDB7DEB7FB0183811F928F931A
:1018A00082811F928F9381811F928F9380811F92DB
:1018B0008F9385EE90E09F938F935F934F9349832F
:1018C0005A830E94F81C0FB6F894DEBF0FBECDBF3E
:1018D0004981842F5A81952F0F900F90DF91CF91DE
:1018E0000895662341F08FE39CE90197F1F700C06A
:1018F00000006150F6CF08958CE294E00E94490701
:10190000892BD1F38CE294E00E94630708958CE266
:1019100094E00E9463070895CF92DF92EF92FF92C6
:10192000CF93DF93EC018CE294E00E94A6070E9423
:10193000B60A6B017C018091C00087FF11C00E9434
:10194000B60AAB01BC014C195D096E097F0942332F
:1019500051056105710550F4CE010E94870CEBCF53
:101960008CE294E00E944907892B49F761E0CE019F
:10197000DF91CF91FF90EF90DF90CF900C94710C9E
:10198000CF93DF93EC010E948C0C4AA95BA96CA950
:101990007DA9CE010E94260C19825B98DF91CF9120
:1019A0000895CF93DF93EC010E948C0C19825B9A0F
:1019B000DF91CF910895FC011182FB96AC01475B4A
:1019C0005F4F2FEFDF0111972C9320833296E4179E
:1019D000F507C1F70C948C0C0F931F93CF93DF93F3
:1019E0008C018CE294E00E94A6078CE294E00E94B5
:1019F0004907EC01209729F0C8010E94870C219724
:101A0000F9CFDF91CF911F910F9108952F923F92BF
:101A10004F925F926F927F928F929F92AF92BF92FE
:101A2000CF92DF92EF92FF920F931F93CF93DF93AA
:101A3000CDB7DEB727970FB6F894DEBF0FBECDBF88
:101A40009F838E834B012A0159013801FA82E98272
:101A5000FC0181818230C9F4FB0180818F3F21F03C
:101A60009091230189130EC0C114D10471F48091A7
:101A70002301F40180838091E1049091E204F2015A
:101A80009183808380E090E09FC100E010E02E8190
:101A90003F81265C3F4F3C832B8333243A9452E0B2
:101AA000252EEE81FF8181818130E1F018F08230B6
:101AB00029F1DAC021E0EE81FF81218330922301F8
:101AC0001092E2041092E1041092E0041092DF04FC
:101AD0001092DE041092DA041092DB041092DC04FF
:101AE0001092DD048091E004883068F58CE294E087
:101AF0000E944907892B09F02DC125C08E819F8145
:101B00000E947C0CE981FA818083F1E0CF1AD10830
:101B10000F5F1F4F8091E1049091E2040197909331
:101B2000E2048093E104892B09F09AC08E819F81A1
:101B30000E947C0C8E819F810E947C0CEE81FF8133
:101B4000118221E092C08091E004883008F48CC0BA
:101B50007091D2046091D3045091D4044091D50483
:101B60003091D6042091D7049091D8048091D90463
:101B7000723509F094C0633509F0DAC0593409F0C0
:101B8000D7C04F3509F0D4C0323509F0D1C0253463
:101B900009F0CEC0913409F0CBC0843409F0C8C03C
:101BA0008E819F810E947C0C809323018E819F8176
:101BB0000E947C0C90E09093E2048093E1048E817B
:101BC0009F810E947C0C2091E1043091E204A901E4
:101BD000582BCA015093E2044093E1046091230121
:101BE000EE81FF816F3F09F44DC0892B09F44AC093
:101BF0002182CF010E94100C813071F58E819F816E
:101C00000E947C0C8093DA048E819F810E947C0C60
:101C10008093DB048E819F810E947C0C8093DC0486
:101C20008E819F810E947C0C8093DD048E819F8138
:101C30000E947C0C90E09093DF048093DE048E8100
:101C40009F810E947C0C2091DE043091DF04382BB0
:101C50003093DF042093DE04F40180818F3FD1F4C0
:101C600021E0C114D10409F020E08CE294E02D833E
:101C70000E9449072D81892B09F47CC0222309F495
:101C800010CF78C01182309223011092E20410929A
:101C9000E104EACF90912301891711F3F3CE733554
:101CA00009F046C0693409F043C05F3509F040C00F
:101CB0004334F1F53C34E1F52F34D1F59335C1F5DA
:101CC0008534B1F58E819F810E947C0C8093230125
:101CD0008E819F810E947C0C8E819F810E947C0C52
:101CE0001092E2041092E104EE81FF8111822091B2
:101CF0002301EB81FC8180E090E03081321310C041
:101D0000FC017D96EE0FFF1F2E813F81E20FF31F36
:101D10003082880F991FF901E80FF91F33AE05C013
:101D2000019632968730910541F70FEF1FEF09CFEB
:101D300077E07093E0046093D2045093D30440930F
:101D4000D4043093D5042093D6049093D704809381
:101D5000D8048ACFE090E00481E08E0D8093E00407
:101D6000F12C8CE294E00E946307F701EE52FB4FE6
:101D70008083B8CE80912301F40180838091E104B7
:101D80009091E204F20191838083A114B10479F06F
:101D90008091DA04882359F0F50180838091DB0477
:101DA00081838091DC0482838091DD0483836114CC
:101DB000710449F08091DE049091DF04009719F0DE
:101DC000F30191838083C80127960FB6F894DEBF94
:101DD0000FBECDBFDF91CF911F910F91FF90EF907C
:101DE000DF90CF90BF90AF909F908F907F906F903B
:101DF0005F904F903F902F9008959F92AF92BF9227
:101E0000CF92DF92EF92FF920F931F93CF93DF93C6
:101E100000D01F92CDB7DEB75C01962E8CE294E025
:101E20000E944907892BA9F08FEF8B831A821982B0
:101E3000C12CD12CE12CF12C00E010E020E030E0AE
:101E4000AE014F5F5F4FBE016D5F7F4FC5010E94C6
:101E5000060D8FEF981661F0F501FA9688E4A80E4A
:101E6000B11C8081891531F03296EA15FB05C9F75E
:101E700081E001C080E00F900F900F90DF91CF9133
:101E80001F910F91FF90EF90DF90CF90BF90AF9098
:101E90009F900895CF92DF92EF92FF920F931F933E
:101EA0006801790100E010E020E030E00E94060DBA
:101EB0001F910F91FF90EF90DF90CF9008952F9298
:101EC0003F924F925F926F927F928F929F92AF92CA
:101ED000BF92CF92DF92EF92FF920F931F93CF9317
:101EE000DF93CDB7DEB72E970FB6F894DEBF0FBEE7
:101EF000CDBF2C013B014A873C872B871E870D876E
:101F000017014601FC018181823009F44CC18CE249
:101F100094E00E944907892BD1F08FEF89871A82BC
:101F20001982C12CD12CE12CF12C00E010E020E032
:101F300030E0AE014F5F5F4FBE01675F7F4FC20170
:101F40000E94060D89819A81892B09F02CC1EB85AD
:101F5000FC8564918F010F5F1F4F662339F08CE27F
:101F600094E00E94C807F8016491F5CF8D859E85A5
:101F7000892B39F42114310441F181010F5F1F4F86
:101F800020C00D851E85F80161918F01662391F3B4
:101F90008CE294E00E94C807F6CF6D3009F010C1C2
:101FA000F80184918A3009F00BC16BED8CE294E06A
:101FB0000E94C8076CED8CE294E00E94C8070E5F97
:101FC0001F4FF10164916111F0C0A114B104F1F44B
:101FD000C2010E94EC0C6DE08CE294E00E94C80704
:101FE0006AE08CE294E00E94C807FA85F1117EC095
:101FF00019821E820E94B60A4B015C0130E1C32E99
:1020000037E2D32EE12CF12C10E040C0F4016081C6
:102010006B3D81F48CE294E00E94C8076DED8CE288
:1020200094E00E94C807FFEF8F1A9F0A81E0A81A68
:10203000B108CBCF6D30C9F4F40181818A30A9F4A5
:10204000F2E0AF16B10488F06BED8CE294E00E94F0
:10205000C8076CED8CE294E00E94C80782E0880E0D
:10206000911C92E0A91AB108B0CFEFEF8E1A9E0A28
:102070008CE294E00E94C807F1E0AF1AB108A5CF46
:102080008CE294E00E944907892B71F40E94B60A01
:10209000DC01CB0188199909AA09BB098C159D059A
:1020A000AE05BF0568F36BC08CE294E00E94630745
:1020B000183080F401E0010FE1E0F0E0EC0FFD1FCB
:1020C000E10FF11D808389818F3429F0853419F067
:1020D00000E001C0012F0E94B60A4B015C0123E021
:1020E000C22ED12CE12CF12C102FD0CFF301108275
:1020F00015820E94B60A6B017C0190E1892E97E25D
:10210000992EA12CB12C10E00E94B60ADC01CB0163
:102110008C199D09AE09BF0988159905AA05BB054B
:1021200038F58CE294E00E944907892B69F38CE230
:1021300094E00E946307FA851F1770F401E0010F15
:10214000F301E10FF11D8083F30180818F3429F0C9
:10215000853419F000E001C0012F0E94B60A6B011E
:102160007C0183E0882E912CA12CB12C102FCCCF98
:10217000F3018081898381818A8385818E8389812E
:102180008F3439F481E09A819B3409F480E08195A1
:102190001FC0853441F48A81823529F48E818823D9
:1021A00011F08D30A9F48FEF13C0C80101961C0106
:1021B0006B3D09F0F2CE8CE294E00E94C8076DED11
:1021C0008CE294E00E94C807F80164918101FBCE83
:1021D0002E960FB6F894DEBF0FBECDBFDF91CF9124
:1021E0001F910F91FF90EF90DF90CF90BF90AF9035
:1021F0009F908F907F906F905F904F903F902F9027
:1022000008955F926F927F928F929F92AF92BF924A
:10221000CF92DF92EF92FF920F931F93CF93DF93B2
:10222000CDB7DEB72A970FB6F894DEBF0FBECDBF8D
:102230004C013B01542EC8014AE0BE016F5F7F4F45
:1022400029873A870E94D31CA12CB12CC12CD12CF8
:10225000E12CF12C8E010F5F1F4F29853A85452D0A
:10226000B301C4010E945F0F2A960FB6F894DEBF37
:102270000FBECDBFDF91CF911F910F91FF90EF90D7
:10228000DF90CF90BF90AF909F908F907F906F9096
:102290005F9008950F931F939B018A0140E060E0D7
:1022A00070E00E9401111F910F9108958F929F92EB
:1022B000AF92BF92CF92DF92EF92FF920F931F9354
:1022C000CF93DF93CDB7DEB72B970FB6F894DEBF71
:1022D0000FBECDBF5C01962E88248A948CE294E0D8
:1022E0000E944907892B81F18B861A861986C12C99
:1022F000D12CE12CF12C00E010E020E030E0AE0128
:10230000475F5F4FBE01655F7F4FC5010E94060DAD
:102310008B85891119C089859A85892BF9F29B864D
:1023200028E0C22ED12CCE0101967C0100E010E005
:1023300020E030E0AE01475F5F4FBE01655F7F4F39
:10234000C5010E94060DE7CF9FEF991202C080E001
:102350002CC0F501FA9620E030E0808189111EC082
:10236000F9017D96EE0FFF1FEA0DFB1D8FEF8083B5
:10237000220F331FF501E20FF31F83AF13E0892C07
:10238000912CA40165E271E0C5010E944A118823E5
:10239000F1F28E3FE1F21150A1F707C02F5F3F4FDE
:1023A000329627303105C9F6D2CF2B960FB6F89466
:1023B000DEBF0FBECDBFDF91CF911F910F91FF9078
:1023C000EF90DF90CF90BF90AF909F908F90089547
:1023D000AF92BF92CF92DF92EF92FF920F931F9333
:1023E00057016801E12CF12C00E010E00E945F0F22
:1023F0001F910F91FF90EF90DF90CF90BF90AF9023
:1024000008956F927F928F929F92AF92BF92CF92D8
:10241000DF92EF92FF920F931F93CF93DF93EC0124
:102420006B014A0183E0782E5E0182E0A80EB11CA8
:1024300090E3692EF501862D11928A95E9F7F60150
:1024400001900020E9F731977F01EC18FD08860123
:1024500027E134E040E3B501CE010E94E81181118B
:102460000EC09C81992359F08D819E81AF81B885E2
:10247000F40180839183A283B38380E003C07A94C4
:102480007110D8CFDF91CF911F910F91FF90EF90F6
:10249000DF90CF90BF90AF909F908F907F906F9084
:1024A0000895AF92BF92CF92DF92EF92FF920F9377
:1024B0001F93A12CB12CC12CD12CE12CF12C0E940A
:1024C0005F0F1F910F91FF90EF90DF90CF90BF9023
:1024D000AF9008958F929F92AF92BF92DF92EF924A
:1024E000FF920F931F93CF93DF9300D0CDB7DEB74A
:1024F0004C01D62EBA017C0182E0E80EF11CA70146
:10250000C40129833A830E94470C6EE571E0C7013C
:102510000E94931CF70101900020E9F73197EE1912
:10252000FF093A813F9329812F9352EEA52E50E067
:10253000B52EBF92AF92FF273296E80DF91DFF939B
:10254000EF930E94F81C6CE571E0C7010E94931C98
:10255000F70101900020E9F73197EE19FF091F9369
:102560000F93BF92AF92FF273296E80DF91DFF93AC
:10257000EF930E94F81C0FB6F894DEBF0FBECDBFDC
:10258000F2E08701DF1203C029E431E004C0D1107A
:102590000CC02DE331E048E0B701C4010E945112A4
:1025A00081112EC0F40184810DC021E331E048E0A7
:1025B000B701C4010E945112811122C0F40184812B
:1025C000DD24D3948F3FE9F0F401FA9620E030E067
:1025D00090819F3F71F4F9017D96EE0FFF1FE80D8A
:1025E000F91D8083220F331F280D391DF901D3AE49
:1025F00008C02F5F3F4F32962730310549F701C0A1
:102600008FEF0F900F90DF91CF911F910F91FF905F
:10261000EF90DF90BF90AF909F908F9008950F93B1
:102620001F93E0912401F09125013196E13078E08B
:10263000F70710F0E0E0F4E0F0932501E0932401C7
:1026400000912401109125010E946A121F910F919F
:102650000895AF92BF92CF92DF92EF92FF920F93C5
:102660001F93A12CB12CC12CD12CE12CF12C00E01A
:1026700010E00E945F0F1F910F91FF90EF90DF908D
:10268000CF90BF90AF900895AF92BF92CF92DF925C
:10269000EF92FF920F931F93A12CB12CC12CD12C40
:1026A00079018A019B0140E060E070E00E945F0FC9
:1026B0001F910F91FF90EF90DF90CF90BF90AF9060
:1026C00008955F926F927F928F929F92AF92BF9286
:1026D000CF92DF92EF92FF920F931F93CF93DF93EE
:1026E0007C01762E6A015901CA010E949E1C682E47
:1026F000592EE70122961F927F9282EE882E80E06B
:10270000982E9F928F92DF93CF930E94F81C69E0DE
:1027100071E0CE010E94931CFE0101900020E9F7B8
:102720003197EC1BFD0B5F926F929F928F92FF2768
:102730003296EE0DFF1DFF93EF930E94F81C8DB7AC
:102740009EB70C960FB6F8949EBF0FBE8DBFA11416
:10275000B10409F463C0672DC7010E94100C8130D9
:1027600009F05CC067E071E0CE010E94931CFE019D
:1027700001900020E9F73197AF014C1B5D0B552705
:102780004E5F5F4F4E0D5F1DB501C7010E94470CA4
:102790000115110509F448C0672DC7010E94100CEE
:1027A000813009F041C062E071E0CE010E94931CCB
:1027B000FE0101900020E9F73197EC1BFD0B1F9300
:1027C0000F9382EE90E09F938F93FF273296EE0D4A
:1027D000FF1DFF93EF930E94F81C0F900F900F9036
:1027E0000F900F900F906DEF70E0CE010E94931C40
:1027F0009601AE0161EF70E0C701DF91CF911F91AB
:102800000F91FF90EF90DF90CF90BF90AF909F908F
:102810008F907F906F905F900C94441364E071E010
:10282000CE010E94931CB4CF6FEF70E0CE010E94E6
:10283000931CD9CFAF92BF92CF92DF92EF92FF92CB
:102840000F931F9358016901E12CF12C8A019B0120
:1028500040E060E070E00E945F0F1F910F91FF90D9
:10286000EF90DF90CF90BF90AF9008955F926F92FE
:102870007F928F929F92AF92BF92CF92DF92EF9210
:10288000FF920F931F93CF93DF936C01762E4A0133
:10289000522E632EEC0122961F926F9382EEA82E89
:1028A00080E0B82EBF92AF92DF93CF930E94F81CC6
:1028B00063E271E0CE010E94931CFE0101900020B2
:1028C000E9F73197EC1BFD0B6F925F92BF92AF92CD
:1028D000FF273296EC0DFD1DFF93EF930E94F81C2D
:1028E0008DB79EB70C960FB6F8949EBF0FBE8DBFE6
:1028F0000115110539F0672DC6010E94100C8130B9
:1029000009F44EC06EE171E0CE010E94931CE11407
:10291000F10409F45CC0672DC6010E94100C8130DF
:1029200009F055C06CE171E0CE010E94931CFE01DC
:1029300001900020E9F73197EC1BFD0BFF92EF921D
:1029400082EE90E09F938F93FF273296EC0DFD1D52
:10295000FF93EF930E94F81C0F900F900F900F9031
:102960000F900F9067E171E0CE010E94931C052D3E
:10297000162D9401AE016BE071E0C6010E941A149D
:10298000DF91CF911F910F91FF90EF90DF90CF904B
:10299000BF90AF909F908F907F906F905F900895C1
:1029A00061E271E0CE010E94931CFE0101900020C3
:1029B000E9F73197AF014C1B5D0B55274E5F5F4F19
:1029C0004C0D5D1DB801C6010E94470CA0CF69E106
:1029D00071E0CE010E94931CC5CFEF92FF920F933E
:1029E0001F93FA0101900020E9F73197E41BF50BE2
:1029F000780189019F010E9436141F910F91FF9069
:102A0000EF900895AF92BF92CF92DF92EF92FF9234
:102A10000F931F939B01A12CB12CC12CD12CE12C25
:102A2000F12C8A0140E060E070E00E945F0F1F918E
:102A30000F91FF90EF90DF90CF90BF90AF900895EF
:102A40006F927F928F929F92AF92BF92CF92DF92BE
:102A5000EF92FF920F931F93CF93DF931F92CDB707
:102A6000DEB73C015A01490169830E94DB0CF30186
:102A700016AA17AA10AE11AE6301F2E0CF0ED11C58
:102A800080E3F60111928A95E9F76981623051F489
:102A900026EB31E040E3B601C3010E942913811106
:102AA00091C00BC0662399F022EA31E040E3B60101
:102AB000C3010E942913811187C0F3014285538508
:102AC0006485758546AB57AB60AF71AF7EC081142E
:102AD000910459F0A601B401C3010E94470CA6015C
:102AE00060E971E0C3010E940215A114B10481F0F4
:102AF000A601B501C3010E94470CF50180819181B7
:102B0000A281B381F30186AB97ABA0AFB1AF0DC08B
:102B100064E871E0C6010E94931C80ECF30186AB6F
:102B200088EA87AB10AE81E081AFE114F104B9F01F
:102B300062E871E0C6010E94931CF601019000203A
:102B4000E9F73197AF014C195D0955274E5F5F4F8B
:102B5000460D571DB701C3010E94470C05C063E72E
:102B600071E0C6010E94931C01151105B1F061E7E7
:102B700071E0C6010E94931CF60101900020E9F764
:102B80003197AF014C195D0955274E5F5F4F460DD8
:102B9000571DB801C3010E94470CA60160E671E011
:102BA000C3010F90DF91CF911F910F91FF90EF9094
:102BB000DF90CF90BF90AF909F908F907F906F905D
:102BC0000C94021582E001C081E00F90DF91CF915B
:102BD0001F910F91FF90EF90DF90CF90BF90AF903B
:102BE0009F908F907F906F900895EF92FF920F9338
:102BF0001F93E12CF12C00E010E020E030E040E0F9
:102C000050E061E00E9420151F910F91FF90EF901E
:102C10000895AF92BF92CF92DF92EF92FF920F93FF
:102C20001F939B01A12CB12CC12CD12CE12CF12C98
:102C300000E010E040E060E070E00E945F0F1F9154
:102C40000F91FF90EF90DF90CF90BF90AF900895DD
:102C5000CF93DF93EC0166E074E00E94091668EF01
:102C600073E0CE01DF91CF910C940916AF92BF9221
:102C7000CF92DF92EF920F931F93CF93DF93EC01EC
:102C80006B015A011E2D213049F018F0223091F0CD
:102C900020C06AED73E00E9409161BC0452B29F085
:102CA0006EEB73E00E940916BFC066EA73E00E94F3
:102CB0000916B6C0402F50E0A114B10429F06BE80A
:102CC00073E00E944A11B0C064E773E00E944A11A9
:102CD000A7C0153038F4412F50E063E673E0CE0111
:102CE0000E944A11A114B10431F0A50167E573E017
:102CF000CE010E940215E8818E2F90E0853191056A
:102D000008F096C0FC01EC5CFF4F0C942A1B22E5F6
:102D100033E0A60165E473E077C020E433E0A60168
:102D200063E373E071C02EE233E0A60161E273E079
:102D30006BC02CE133E0A6016FE073E065C02AE0D0
:102D400033E0A6016DEF72E05FC028EF32E0A6012C
:102D50006BEE72E059C026EE32E0A60169ED72E03A
:102D600053C024ED32E0A60167EC72E04DC022ECC6
:102D700032E0A60165EB72E047C020EB32E0A6012D
:102D800063EA72E041C02EE932E0A60161E972E037
:102D90003BC02CE832E0A6016FE772E035C02AE7BD
:102DA00032E0A6016DE672E02FC028E632E0A6010F
:102DB0006BE572E029C026E532E0A60169E472E025
:102DC00023C024E432E0A60167E372E01DC022E3E1
:102DD00032E0A60165E272E017C020E232E0A6010F
:102DE00063E172E011C02DE032E0A60160E072E024
:102DF0000BC02AEF31E0A6016DEE71E005C027EEB1
:102E000031E0A6016AED71E0CE01DF91CF911F9113
:102E10000F91EF90DF90CF90BF90AF900C94441340
:102E2000153008F068CF57CF153008F05ECF53CF7C
:102E300080E0DF91CF911F910F91EF90DF90CF90C5
:102E4000BF90AF900895EF920F93EE24EA9400E0C4
:102E50000E9436160F91EF900895CF93DF93EC0107
:102E60000E94DB0C1EAA1FAA18AE19AE6AEC71E014
:102E7000CE01DF91CF910C940916BF92CF92DF92D1
:102E8000EF92FF920F931F93CF93DF93EC016A01B0
:102E90007B01B22E61E083E00E94A40B5B9A61E0AB
:102EA00082E00E94A40B5A9861E081E00E94A40B8A
:102EB00061E081E00E94E00B60E080E00E94A40BF2
:102EC00061E080E00E94E00B1EAA1FAA18AE19AEB6
:102ED000FE01329680E3DF011D928A95E9F7CAAAC6
:102EE000DBAAECAAFDAAB701A601CE010E94260C1E
:102EF000CE010E94C00C5A9865E0CE010E94710C70
:102F00005A9A6BE0CE010E94710C14E00FEF6CE155
:102F10008CE294E00E94C8070E94B60A6B017C0113
:102F20000E94B60ADC01CB018C199D09AE09BF09CC
:102F3000883C9105A105B10508F58CE294E00E945A
:102F40004907892B69F38CE294E00E946307853579
:102F500039F765E58CE294E00E94C8076AE0CE018B
:102F60000E94710C6EE68CE294E00E94C8076AE051
:102F70008CE294E00E94C80711E00EEF115039F680
:102F800064E1CE010E94710C13E0CE010E948C0C12
:102F900060E474E0CE010E94091681110DC062E365
:102FA00074E0CE010E94091666E274E0CE010E9430
:102FB0000916B88200E009C06AE0CE010E94710CD7
:102FC000115019F7CE010E94D10C802FDF91CF91C3
:102FD0001F910F91FF90EF90DF90CF90BF900895D9
:102FE000CF92DF92EF92FF920F931F93CF93DF93D5
:102FF0007C016A018B01C0E0D0E0CC15DD0589F0D1
:10300000D701ED91FC91068CF78DE02DC701099554
:103010008F3FBFEF9B0729F0F80181938F01219625
:10302000ECCFCE01DF91CF911F910F91FF90EF90E8
:10303000DF90CF9008950F931F93CF93DF93EC0110
:10304000E881F981048CF58DE02D09958C0101153D
:10305000110551F0E881F981068CF78DE02DCE0144
:10306000099501501109F3CFDF91CF911F910F9175
:1030700008950F931F93CF93DF938C01DC01ED91A3
:10308000FC9106A0F7A1E02D0995EC01892B61F0D8
:10309000D801ED91FC9106A0F7A1E02D62E574E066
:1030A000C8010995C80FD91FCE01DF91CF911F919B
:1030B0000F91089521E0FC0184818F3F09F420E005
:1030C000822F08950F931F93CF93DF9300D01F9209
:1030D000CDB7DEB7FC0184818B831A8219828F3FC2
:1030E00071F000E010E020E030E0AE014F5F5F4F94
:1030F000BE016D5F7F4F83EE94E00E944A0F89818D
:103100009A810F900F900F90DF91CF911F910F91A7
:103110000895EF92FF920F931F93CF93DF9300D008
:1031200000D0CDB7DEB7FC0124812B832F3FB9F04F
:103130007C0101E010E09E012C5F3F4FAE014F5F2C
:103140005F4FBE016D5F7F4F83EE94E00E944A0F98
:10315000009729F0019631F48FEFF70184838FEF08
:103160009FEF02C08C8190E00F900F900F900F9016
:10317000DF91CF911F910F91FF90EF9008951F93D2
:10318000CF93DF93FC0164816F3FB1F0EC0183EEDC
:1031900094E00E94FD0E182F882319F08FEF8C8386
:1031A0000BC08E858A3050F06C8183EE94E00E94D3
:1031B00056118FEF8C8303C010E001C011E0812F06
:1031C000DF91CF911F910895CF93DF93FC0124816C
:1031D0002F3F81F0EC010190F081E02D02A0F3A1DE
:1031E000E02D09956C8183EE94E00E9456118FEFDB
:1031F0008C831E86DF91CF910895CF92DF92EF925C
:10320000FF920F931F93CF93DF931F92CDB7DEB73B
:103210006983FC0164816F3F01F16C01FC01E18471
:10322000F2848C010B5F1F4F21E030E0AE014F5F55
:103230005F4F83EE94E00E943614F601882381F0FC
:1032400086858F5F86878A3040F0648183EE94E0C4
:103250000E9456118FEFF601848380E090E003C056
:10326000168681E090E00F90DF91CF911F910F9132
:10327000FF90EF90DF90CF900895CF92DF92EF9282
:10328000FF920F931F93CF93DF93DC011496EC9181
:10329000EF3FF1F0C52ED42EAB01EC01E984FA84A6
:1032A0008C010B5F1F4F2D2D3C2D6E2F83EE94E074
:1032B0000E943614882379F08E858F5F8E878A303E
:1032C00038F06C8183EE94E00E9456118FEF8C836E
:1032D00080E090E003C01E868D2D9C2DDF91CF9164
:1032E0001F910F91FF90EF90DF90CF900895EF9294
:1032F000FF920F931F93CF93DF93EC019C819F3F2D
:10330000D1F07B0109851A859E012B5F3F4FAB01F0
:10331000692F83EE94E00E94ED14882379F08E8566
:103320008F5F8E878A3038F06C8183EE94E00E9444
:1033300056118FEF8C8380E090E009C01E86F70164
:1033400001900020E9F73197CF018E199F09DF9195
:10335000CF911F910F91FF90EF900895EF92FF9200
:103360000F931F93CF93DF937B01FC0164816F3F29
:1033700021F1EC01018512859C012B5F3F4FA701D4
:1033800083EE94E00E946113882369F08E858F5F3D
:103390008E878A3090F06C8183EE94E00E94561103
:1033A0008FEF8C830AC01E86C701DF91CF911F91DA
:1033B0000F91FF90EF900C949E1C80E090E0DF91C5
:1033C000CF911F910F91FF90EF900895FC01DB01C9
:1033D0001382128287EF93E0918380838C9185839F
:1033E00011968C911197868312968C9112978783F0
:1033F00013968C918087528741878FEF848308953D
:1034000027EF33E0FC01318320830C94E418FF9212
:103410000F931F93CF93DF93FC0124812F3F19F06B
:1034200080E090E01BC0F62EEC0103851485218519
:103430003285AC014B5F5F4F83EE94E001151105BF
:1034400019F00E946A1202C00E940F138C838C81B3
:103450008F3F31F3FD861E8681E090E0DF91CF91B2
:103460001F910F91FF90089560E00C94071A61E09E
:103470000C94071A60E00C94071A61E00C94071A88
:10348000FC01DB018C91858311968C9111978683C9
:1034900012968C911297878313968C91808752870E
:1034A000418760E0CF010C94071AFC01DB018C918D
:1034B000858311968C911197868312968C91129721
:1034C000878313968C9180875287418761E0CF0173
:1034D0000C94071AFC01DB018C91858311968C9169
:1034E0001197868312968C911297878313968C91ED
:1034F0008087528741873487238760E0CF010C940F
:10350000071AFC01DB018C91858311968C91119730
:10351000868312968C911297878313968C9180875D
:10352000528741873487238761E0CF010C94071AC3
:103530000F931F93CF93DF93EC018A01AC014B5F94
:103540005F4F83EE94E00E94011281110AC01A8736
:10355000098760E0CE01DF91CF911F910F910C940C
:10356000071A80E090E0DF91CF911F910F910895AD
:103570000F931F93CF93DF93EC018A01AC014B5F54
:103580005F4F83EE94E00E94011281110AC01A87F6
:10359000098761E0CE01DF91CF911F910F910C94CB
:1035A000071A80E090E0DF91CF911F910F9108956D
:1035B0000895DB018F939F930E94301BBF91AF91C1
:1035C000A29F800D911DA39F900DB29F900D11247D
:1035D0000895A1E21A2EAA1BBB1BFD010DC0AA1F54
:1035E000BB1FEE1FFF1FA217B307E407F50720F06C
:1035F000A21BB30BE40BF50B661F771F881F991FE7
:103600001A9469F760957095809590959B01AC012F
:10361000BD01CF010895052E97FB1EF400940E9472
:10362000221B57FD07D00E94E91A07FC03D04EF475
:103630000C94221B50954095309521953F4F4F4F4C
:103640005F4F089590958095709561957F4F8F4F4E
:103650009F4F0895EE0FFF1F0590F491E02D099400
:103660000E943B1BA59F900DB49F900DA49F800DC1
:10367000911D11240895A29FB001B39FC001A39F83
:10368000700D811D1124911DB29F700D811D11249B
:10369000911D08950F931F93CF93DF93869F800111
:1036A000879F100D969F100D1124C8010E94661B64
:1036B000EC01009729F0A80160E070E00E94A71CCF
:1036C000CE01DF91CF911F910F910895CF93DF939A
:1036D0008230910510F482E090E0E0912D05F091A8
:1036E0002E0520E030E0C0E0D0E0309711F14081BD
:1036F000518148175907C0F04817590761F4828172
:103700009381209719F09B838A832BC090932E0579
:1037100080932D0526C02115310519F04217530756
:1037200018F49A01BE01DF01EF010280F381E02D60
:10373000DCCF2115310509F1281B390B2430310567
:1037400090F412968D919C9113976115710521F05B
:10375000FB019383828304C090932E0580932D05F3
:10376000FD01329644C0FD01E20FF31F8193919356
:10377000225031092D933C933AC020912B05309172
:103780002C05232B41F42091020130910301309349
:103790002C0520932B05209100013091010121156A
:1037A000310541F42DB73EB7409104015091050118
:1037B000241B350BE0912B05F0912C05E217F30744
:1037C000A0F42E1B3F0B2817390778F0AC014E5F91
:1037D0005F4F2417350748F04E0F5F1F50932C059D
:1037E00040932B058193919302C0E0E0F0E0CF017C
:1037F000DF91CF9108950F931F93CF93DF9300979D
:1038000009F48CC0FC0132971382128200912D05BD
:1038100010912E050115110581F420813181820F4F
:10382000931F20912B0530912C052817390779F526
:10383000F0932C05E0932B0571C0D80140E050E0D7
:10384000AE17BF0750F412962D913C911397AD011E
:103850002115310509F1D901F3CF9D01DA01338337
:10386000228360817181860F971F8217930769F405
:10387000EC0128813981260F371F2E5F3F4F31839E
:1038800020838A819B8193838283452B29F4F09343
:103890002E05E0932D0542C01396FC93EE931297EC
:1038A000ED01499159919E01240F351FE217F3074D
:1038B00071F480819181840F951F029611969C93DB
:1038C0008E938281938113969C938E931297E0E05E
:1038D000F0E0D80112968D919C911397009719F002
:1038E000F8018C01F6CF8D919C9198012E5F3F4F8E
:1038F000820F931F20912B0530912C052817390733
:1039000069F4309729F410922E0510922D0502C00B
:103910001382128210932C0500932B05DF91CF9117
:103920001F910F910895FB01DC010D900020E9F734
:10393000119705900D920020E1F70895FC01059084
:103940000020E9F7809590958E0F9F1F0895DC0168
:1039500001C06D9341505040E0F70895FB01DC0138
:103960000D900020E9F7119701900D920020E1F7EA
:103970000895FB0151915523A9F0BF01DC014D9140
:1039800045174111E1F759F4CD010190002049F0AC
:103990004D9140154111C9F3FB014111EFCF81E079
:1039A00090E001970895BB274A3031F4992322F41F
:1039B000BDE2909581959F4F0C94DF1CBB27FB01C6
:1039C0005527AA27880F991FAA1FA41710F0A41B18
:1039D00083955051B9F7A05DAA3308F0A95DA19372
:1039E000009779F7B111B1931192CB010C94031F99
:1039F000AEE0B0E0EEEFFCE10C94B71F0D891E893C
:103A00008EE08C831A8309838FEF9FE79E838D83DB
:103A1000AE01475E5F4F6F89788DCE0101960E949F
:103A20001B1D2F813885F801E20FF31F10822E969F
:103A3000E4E00C94D31FACE0B0E0E1E2FDE10C94D3
:103A4000A91F7C016B018A01FC0117821682838108
:103A500081FFBDC1CE0101964C01F7019381F601B2
:103A600093FD859193FF81916F01882309F4ABC188
:103A7000853239F493FD859193FF81916F018532F1
:103A800029F4B70190E00E94131FE7CF512C312C8D
:103A900020E02032A0F48B3269F030F4803259F00B
:103AA000833269F420612CC08D3239F0803339F4CF
:103AB000216026C02260246023C0286021C027FD29
:103AC00027C030ED380F3A3078F426FF06C0FAE010
:103AD0005F9E300D1124532E13C08AE0389E300DA6
:103AE0001124332E20620CC08E3221F426FD6BC1CE
:103AF000206406C08C3611F4206802C0883641F478
:103B0000F60193FD859193FF81916F018111C1CFE2
:103B1000982F9F7D9554933028F40C5F1F4FFFE33F
:103B2000F9830DC0833631F0833771F0833509F0A6
:103B30005BC022C0F801808189830E5F1F4F44243F
:103B40004394512C540115C03801F2E06F0E711CE2
:103B5000F801A080B18026FF03C0652D70E002C08F
:103B60006FEF7FEFC5012C870E94F81E2C018301A7
:103B70002C852F77222E17C03801F2E06F0E711CB2
:103B8000F801A080B18026FF03C0652D70E002C05F
:103B90006FEF7FEFC5012C870E94ED1E2C012C8555
:103BA0002068222E830123FC1BC0832D90E0481641
:103BB0005906B0F4B70180E290E00E94131F3A94D6
:103BC000F4CFF50127FC859127FE81915F01B701B4
:103BD00090E00E94131F31103A94F1E04F1A5108FF
:103BE0004114510471F7E5C0843611F0893639F576
:103BF000F80127FF07C060817181828193810C5F8A
:103C00001F4F08C060817181072E000C880B990B33
:103C10000E5F1F4F2F76722E97FF09C090958095EB
:103C2000709561957F4F8F4F9F4F2068722E2AE0CD
:103C300030E0A4010E944B1FA82EA81844C085376D
:103C400029F42F7EB22E2AE030E025C0F22FF97F32
:103C5000BF2E8F36C1F018F4883579F0B4C08037A4
:103C600019F0883721F0AFC02F2F2061B22EB4FE9B
:103C70000DC08B2D8460B82E09C024FF0AC09F2F71
:103C80009660B92E06C028E030E005C020E130E0A3
:103C900002C020E132E0F801B7FE07C06081718107
:103CA000828193810C5F1F4F06C06081718180E02B
:103CB00090E00E5F1F4FA4010E944B1FA82EA81872
:103CC000FB2DFF777F2E76FE0BC0372D3E7FA51490
:103CD00050F474FE0AC072FC08C0372D3E7E05C049
:103CE000BA2C372D03C0BA2C01C0B52C34FF0DC03F
:103CF000FE01EA0DF11D8081803311F4397E09C087
:103D000032FF06C0B394B39404C0832F867809F0C1
:103D1000B39433FD13C030FF06C05A2CB31418F40B
:103D2000530C5B18B32CB31468F4B70180E290E035
:103D30003C870E94131FB3943C85F5CFB31410F455
:103D40003B1801C0312C34FF12C0B70180E390E072
:103D50003C870E94131F3C8532FF17C031FD03C012
:103D600088E790E002C088E590E0B7010CC0832F9F
:103D7000867859F031FF02C08BE201C080E237FD46
:103D80008DE2B70190E00E94131FA51438F4B7012B
:103D900080E390E00E94131F5A94F7CFAA94F40195
:103DA000EA0DF11D8081B70190E00E94131FA11060
:103DB000F5CF332009F451CEB70180E290E00E94A4
:103DC000131F3A94F6CFF7018681978102C08FEFD7
:103DD0009FEF2C96E2E10C94C51FFC010590615009
:103DE00070400110D8F7809590958E0F9F1F089511
:103DF000FC016150704001900110D8F780959095BA
:103E00008E0F9F1F0895DC01FC01672F71917723AE
:103E1000E1F7329704C07C916D9370836291AE1785
:103E2000BF07C8F308950F931F93CF93DF93FB0150
:103E3000238121FD03C08FEF9FEF28C022FF16C012
:103E400046815781248135814217530744F4A0816C
:103E5000B1819D012F5F3F4F318320838C93268159
:103E600037812F5F3F4F3783268310C0EB01092F27
:103E7000182F0084F185E02D0995892BE1F68E81BC
:103E80009F8101969F838E83812F902FDF91CF9109
:103E90001F910F910895FA01AA27283051F120317E
:103EA00081F1E8946F936E7F6E5F7F4F8F4F9F4FCE
:103EB000AF4FB1E03ED0B4E03CD0670F781F891F10
:103EC0009A1FA11D680F791F8A1F911DA11D6A0FDE
:103ED000711D811D911DA11D20D009F468943F9191
:103EE0002AE0269F11243019305D3193DEF6CF0190
:103EF0000895462F4770405D4193B3E00FD0C9F756
:103F0000F6CF462F4F70405D4A3318F0495D31FDC2
:103F10004052419302D0A9F7EACFB4E0A695979515
:103F2000879577956795BA95C9F7009761057105EB
:103F300008959B01AC010A2E069457954795379535
:103F40002795BA95C9F7620F731F841F951FA01D8F
:103F500008952F923F924F925F926F927F928F922D
:103F60009F92AF92BF92CF92DF92EF92FF920F9308
:103F70001F93CF93DF93CDB7DEB7CA1BDB0B0FB612
:103F8000F894DEBF0FBECDBF09942A8839884888CF
:103F90005F846E847D848C849B84AA84B984C88465
:103FA000DF80EE80FD800C811B81AA81B981CE0F5C
:103FB000D11D0FB6F894DEBF0FBECDBFED01089541
:043FC000F894FFCFA3
:103FC40000002F0580000100000000000100020035
:103FD400360168019001BA01E10160EA0000E803DA
:103FE400000001FF0004526564466C792E696E6915
:103FF40074204552524F5200313630343634343402
:10400400363234363830333600574C414E2D4B61FE
:1040140062656C00526564466C792E6A6F696E2025
:104024004552524F5200526564466C792E62656760
:10403400696E204552524F520057694669205368B1
:1040440069656C6420636F6E6E6563746564007388
:10405400746172742077616974696E670073746F38
:10406400707065642077616974696E670074726149
:104074006E736D697373696F6E20737563636573B3
:104084007300504F5354202F76616C7565676574C7
:104094002E706870003F6E616D653D0054657374E9
:1040A4000026747970653D0050726F7A656E74668F
:1040B400657563687465002676616C75653D0026D8
:1040C4006B65793D63333738313633336631666235
:1040D4003164646361373763393033386434393970
:1040E400343334350020485454502F312E310D0AC6
:1040F400486F73743A20003139322E3136382E31FC
:1041040037382E3234000D0A0D0A00736572766555
:104114007220756E617661696C61626C65004973C9
:1041240054696D65466F724D6F6973747572654D30
:104134006561737572656D656E74203D2066616C92
:10414400736500497354696D65466F724D6F697389
:10415400747572654D6561737572656D656E7420F5
:104164003D207472756500496E7465727072657471
:10417400654D6F6973747572654D656173757265AC
:104184006D656E74416E616C6F67496E70757428ED
:104194002900506572666F726D4D6F697374757224
:1041A400654D6561737572656D656E742829004986
:1041B4007354696D65466F724D6F6973747572657A
:1041C4004D6561737572656D656E74203D3D207437
:1041D40072756500497354696D65466F724D6F69F8
:1041E40073747572654D6561737572656D656E7412
:1041F400203D3D2066616C736500446563697369A5
:104204006F6E546F537769746368536F696C44724B
:1042140079576172696E674C45442829005374616B
:104224007274546865576174657250756D7028298D
:104234000050756D70426567696E6E696E674D6991
:104244006C6C69730043757272656E744D696C6C45
:104254006973004D6F697374757265496E6469633F
:1042640061746F720073746F702074686520776175
:104274007465722070756D70004465636973696F4D
:104284006E546F53776974636857617465725075BF
:104294006D7028290000000000C80703094907635E
:1042A400075507A6076E616E00696E66006F766635
:1042B400002E0000000000FD183D19341A371A3A88
:1042C4001A3D1A401A551A6A1A811A981AB81ABF4E
:1042D40018E41862188918F0171B187719AE1939E1
:0442E400185A18004C
:00000001FF
