:100000000C942D020C9455020C9455020C9455023C
:100010000C9455020C9455020C9455020C94550204
:100020000C9455020C9455020C9455020C945502F4
:100030000C9455020C9455020C9455020C945502E4
:100040000C948F0A0C9455020C94B6080C94E80892
:100050000C9455020C9455020C9455020C945502C4
:100060000C9455020C945502C616CC16D216D8160E
:10007000DE16E416EA16F016F616FC160217081736
:100080000E1714171A17201726172C1732173817A0
:100090003E170000000800020100000304070000F2
:1000A000000000000000010204081020408001024E
:1000B00004081020010204081020040404040404AD
:1000C000040402020202020203030303030300000A
:1000D0000000250028002B0000000000240027005D
:1000E0002A0025750025692E25692E25692E25698A
:1000F0000041542B5253495F534E443D002C002C79
:1001000030002C002C30002C002C0041542B52537A
:10011000495F534E443D002C002C30002C002C3005
:10012000002C002C0041542B5253495F434C533D4B
:100130000041542B5253495F5544503D0041542BCC
:100140005253495F5443503D0041542B5253495F31
:10015000204D554C5449434153543D002C002C0034
:1001600041542B5253495F4950434F4E463D302C2A
:10017000002C002C3235352E3235352E3235352EC9
:1001800030002C003139322E3136382E302E3100ED
:1001900041542B5253495F444E5353455256455296
:1001A0003D0041542B5253495F4950434F4E463D09
:1001B000312C302C300041542B5253495F4950436D
:1001C0004F4E463D322C302C300041542B52534977
:1001D0005F4449534153534F430041542B525349B9
:1001E0005F4A4F494E3D002C31322C320041542B96
:1001F0005253495F4A4F494E3D002C31322C310059
:1002000041542B5253495F4A4F494E3D002C3132E5
:100210002C300041542B5253495F4A4F494E3D0008
:100220002C392C320041542B5253495F4A4F494ECE
:100230003D002C392C310041542B5253495F4A4F19
:10024000494E3D002C392C300041542B5253495F0C
:100250004A4F494E3D002C372C320041542B52530B
:10026000495F4A4F494E3D002C372C310041542BF9
:100270005253495F4A4F494E3D002C372C300041C4
:10028000542B5253495F4A4F494E3D002C342C3277
:100290000041542B5253495F4A4F494E3D002C3484
:1002A0002C310041542B5253495F4A4F494E3D0077
:1002B0002C342C300041542B5253495F4A4F494E45
:1002C0003D002C322C320041542B5253495F4A4F8F
:1002D000494E3D002C322C310041542B5253495F82
:1002E0004A4F494E3D002C322C300041542B525382
:1002F000495F4A4F494E3D002C312C320041542B6E
:100300005253495F4A4F494E3D002C312C31004138
:10031000542B5253495F4A4F494E3D002C312C30EB
:100320000041542B5253495F4A4F494E3D002C30F7
:100330002C320041542B5253495F4A4F494E3D00E5
:100340002C302C310041542B5253495F4A4F494EB7
:100350003D002C302C300041542B5253495F5053F8
:100360004B3D0041542B5253495F415554484D4F2A
:1003700044453D0041542B5253495F4E4554574F1D
:10038000524B3D494253532C312C0041542B525374
:10039000495F4E4554574F524B3D494253535F536B
:1003A00045432C312C0041542B5253495F4E455448
:1003B000574F524B3D494253532C302C300041543F
:1003C0002B5253495F4E4554574F524B3D49425370
:1003D000535F5345432C302C300041542B5253492A
:1003E0005F4E4554574F524B3D494E465241535430
:1003F000525543545552450041542B5253495F5373
:1004000043414E3D300041542B5253495F4E554DB0
:100410005343414E3D300041542B5253495F444EAB
:10042000534745543D0041542B5253495F494E496F
:10043000540041542B5253495F42414E443D3000D9
:1004400041542B5253495F465756455253494F4EDC
:100450003F000D0A00006B07180911241FBECFEFE3
:10046000D8E0DEBFCDBF13E0A0E0B1E0E0E5F0E40E
:1004700002C005900D92A638B107D9F724E0A6E88E
:10048000B3E001C01D92A539B207E1F712E0CDE259
:10049000D2E004C02197FE010E94701BCB32D1072D
:1004A000C9F70E945C070C9426200C940000089564
:1004B000CF93DF93EC0189E494E00E94100DBE011C
:1004C00082E993E00E94850989E494E0DF91CF916D
:1004D0000C94FF0CCF93DF93EC0189E494E00E942D
:1004E000100DBE0182E993E00E94920989E494E034
:1004F000DF91CF910C94FF0C0F931F93CF93DF9359
:100500008C01EB0189E494E00E94100DB80182E9AE
:1005100093E00E9485096EE672E082E993E00E9412
:100520008509BE0182E993E00E94920989E494E082
:10053000DF91CF911F910F910C94FF0CCF93DF931C
:100540000E94330CEC0189E494E00E94100D64E2F7
:1005500071E082E993E00E9485096EE672E082E92B
:1005600093E00E9485094AE050E0BE0182E993E0F1
:100570000E94370A89E494E0DF91CF910C94FF0C3C
:100580001F93CF93DF93C3E3D0E0112369F021974A
:1005900009F449C089E494E00E942F18182F83E3DE
:1005A00091E00E946A02F1CF89E494E00E9467160C
:1005B00020E045E451E066E571E089E494E00E94C2
:1005C0006217182FC3E3D0E0112389F0219759F166
:1005D00020E045E451E066E571E089E494E00E94A2
:1005E0006217182F81E691E00E946A02EDCF89E43C
:1005F00094E00E943416182FC3E3D0E0112361F079
:10060000219789F089E494E00E943416182F83E73B
:1006100091E00E946A02F2CF86E891E0DF91CF91EB
:100620001F910C946A02DF91CF911F9108953F9220
:100630004F925F926F927F928F929F92AF92BF92F2
:10064000CF92DF92EF92FF920F931F93CF93DF939E
:10065000CDB7DEB7CC52D1400FB6F894DEBF0FBE97
:10066000CDBF4C017B010E94D90A2B013C018CE9D2
:1006700091E00E946A02C301B201A12CB12C00E0FA
:1006800010E09E012F5F3F4F6901DC01CB0184190F
:100690009509A609B709813C944DA140B10508F020
:1006A00053C0A114B10409F04FC0C7010E94A8189B
:1006B000892B91F0C7010E94CF188F3F3FEF93071E
:1006C00059F00B3221E01207A8F7F601E00FF11FF5
:1006D00080830F5F1F4FEECF0115110539F1C70160
:1006E0000E940519811122C0C7010E942A1989E4BC
:1006F00094E00E946C17F601E00FF11F1082C60112
:100700000E945802B401C6010E94FF1C8C199D0969
:1007100097FD0FC0B4018AEA91E00E947C0292E04A
:10072000A92EB12C00E010E0332433940E94D90AA2
:10073000ACCF81EC91E00E946A0282E0A82EB12C3D
:1007400000E010E0312CF2CF89EC91E00E946A02C7
:10075000C7010E946118832DC45DDE4F0FB6F89467
:10076000DEBF0FBECDBFDF91CF911F910F91FF90E4
:10077000EF90DF90CF90BF90AF909F908F907F9041
:100780006F905F904F903F9008958130910529F0D0
:10079000029729F42CEE31E002C029ED31E0C901C5
:1007A00008958F929F92AF92BF92EF92FF920F9314
:1007B0001F93CF93DF934B015C01CA010E94C503D5
:1007C0007C0161E070E085E090E00E94901B8C016C
:1007D0004AE0BC01C4010E94191DF70101900020EC
:1007E000E9F73197CF018E199F09F8010190002098
:1007F000E9F73197E01BF10B8E0F9F1F61E070E06E
:1008000082599F4F0E94901BEC01B7010E94F41C7B
:100810006FE072E0CE010E94F41C66E172E0CE014E
:100820000E94F41C6BE172E0CE010E94F41C62E2B3
:1008300072E0CE010E94F41C61E372E0CE010E94DE
:10084000F41CB801CE010E94F41C69E372E0CE01F1
:100850000E94F41C6FE572E0CE010E94F41C61E777
:1008600072E0CE010E94F41C60E872E0CE010E94AA
:10087000F41CCE01DF91CF911F910F91FF90EF906B
:10088000BF90AF909F908F9008958130910529F08F
:10089000029729F42AE932E002C025E832E0C901D2
:1008A00008954F925F926F927F92AF92BF92CF92D4
:1008B000DF92EF92FF920F931F93CF93DF93CDB709
:1008C000DEB72F970FB6F894DEBF0FBECDBF2B015A
:1008D0003C015A0179018DEA92E00E946A02A50169
:1008E000C301B2010E94D1036C01C5010E944504FD
:1008F0005C0140E550E0B801C7010E94861A892BCF
:1009000079F1B601C7010E948509F70182819381BF
:100910009C838B838AE593E09A83898384818D838A
:1009200085819681A781B0858E839F83A887B987AB
:10093000818592859B878A87838594859D878C870F
:1009400085858E8786858F87BE016F5F7F4FC50146
:100950000E941703F82ECE0101960E94461A07C086
:1009600085EC92E00E946A020E94C002F12CC6014E
:100970000E94411C8F2D2F960FB6F894DEBF0FBE3C
:10098000CDBFDF91CF911F910F91FF90EF90DF903E
:10099000CF90BF90AF907F906F905F904F900895F1
:1009A0004F925F926F927F92AF92BF92CF92DF92FF
:1009B000EF92FF920F931F93CF93DF93CDB7DEB7E4
:1009C000A2970FB6F894DEBF0FBECDBF2B013C013E
:1009D0006A0188ED92E00E946A020E949E0280EC09
:1009E0008F8F88EA88A382EB89A388E18AA340E5F8
:1009F00050E0BE01615E7F4FCE0140960E942C1AEE
:100A0000EE24E394F12C9AE5A92E93E0B92E8FEF12
:100A1000E81AF80A8A899B899C838B83BA82A98207
:100A20008C898D838D899E89AF89B88D8E839F83B4
:100A3000A887B987898D9A8D9B878A878B8D9C8D96
:100A40009D878C878D8D8E878E8D8F878E01015E21
:100A50001F4F9E012F5F3F4FA601C301B2010E94AD
:100A60005104811105C011E085E0E816F1040CF095
:100A700010E0CE0101960E94461A1111C8CFCE0196
:100A800040960E94461AA2960FB6F894DEBF0FBE9B
:100A9000CDBFDF91CF911F910F91FF90EF90DF902D
:100AA000CF90BF90AF907F906F905F904F900895E0
:100AB00026E040E855E260E070E082E993E00E94C1
:100AC000510861E087E00E94C70B61E085E00E9469
:100AD000C70B61E08DE00E94C70B61E08BE00E94D4
:100AE000C70B61E087E00E94030C60E971E080E0E1
:100AF00090E00E940A0B60E087E00E94030C0C94D7
:100B0000C0028F929F92AF92BF92CF93DF9300D09B
:100B100000D0CDB7DEB74B015C0129833A834B830C
:100B20005C830E94D90ADC01CB0188199909AA09C2
:100B3000BB0961E029813A814B815C81821793076F
:100B4000A407B50708F460E0862F0F900F900F9070
:100B50000F90DF91CF91BF90AF909F908F900895AD
:100B60006F927F92AF92BF92CF92DF92EF92FF92FD
:100B70000F931F9320910A0130910B0160900C019B
:100B800070900D01A0910E01B0910F01E091100144
:100B9000F0911101409112015091130182179307B6
:100BA00034F08C01481759071CF48A0101C08901EF
:100BB000B801012E000C880B990B601671068CF0A1
:100BC0007301770C000B110B032E000C440B550B1B
:100BD0001F921F921F92E4E1EF93A12CB12C6501AB
:100BE00047C0A017B107B4F07D01BB0F000B110B7C
:100BF00093012F5F3F4F032E000C440B550B1F92A8
:100C00001F921F92E8E2EF93A5E1AA2EB12CC12C0E
:100C1000D12C2EC0E017F107B4F07F01FF0F000BBD
:100C2000110B9D012F5F3F4F032E000C440B550B02
:100C30001F921F921F92E0E5EF93F9E2AF2EB12CC5
:100C4000C12CD12C15C07A01550F000B110B9F013F
:100C50002F5F3F4F032E000C440B550B1F921F922A
:100C60001F92E4E6EF93E1E5AE2EB12CC12CD12C1E
:100C70000E944E0A0F900F900F900F901F910F91AE
:100C8000FF90EF90DF90CF90BF90AF907F906F90EC
:100C90000895CF92DF92EF92FF9261E085E00E948B
:100CA000030C0E94D90A6B017C01DC01CB018C1979
:100CB0009D09AE09BF0940911C0150911D01609131
:100CC0001E0170911F0184179507A607B70718F436
:100CD0000E94D90AEACF84E00E94810B9093890395
:100CE0008093880360E085E00E94030C8091880374
:100CF00090918903FF90EF90DF90CF9008950E942C
:100D0000490620910C0130910D01281739078CF408
:100D100020910E0130910F01281739076CF42091B2
:100D2000100130911101281739074CF48EEF92E031
:100D3000089581EF92E008958AEF92E0089583E0AC
:100D400093E00895882381F00E94D90A60938E036E
:100D500070938F0380939003909391030E947F067A
:100D60009093870380938603089522E0813F920742
:100D700039F08A5F924021F060E087E00C94030C28
:100D80000895CF92DF92EF92FF920E94D90A6B01F1
:100D90007C01DC01CB018C199D09AE09BF098032B1
:100DA0009E44A105B10578F060E08BE00E94030C41
:100DB00083E093E09093870380938603FF90EF9006
:100DC000DF90CF9008950E947F068E5F924061F37E
:100DD00061E08BE00E94030C0E94D90ADACF815FA8
:100DE000924011F40C94C10660E08BE00C94030C6B
:100DF000882339F0CB010E94B00541E050E00C940B
:100E0000D0040895CF93C82F89E093E00E946A022E
:100E1000CC2369F087E293E00E946A0242E050E04E
:100E200061E070E080E090E0CF910C94D004CF912D
:100E30000895CF93DF9320911801309119014091CB
:100E40001A0150911B0160918E0370918F03809164
:100E50009003909191030E948105C82F2091140165
:100E600030911501409116015091170160918A034C
:100E700070918B0380918C0390918D030E9481056A
:100E8000D82F8C2F0E94A206809186039091870311
:100E90000E94B50680918603909187030E94EF0619
:100EA00060918803709189038C2F0E94F8068D2F22
:100EB000DF91CF910C9402070E94460B0E945702CB
:100EC0000E945805C9EBD7E00E9419072097E1F36B
:100ED0000E94B907F9CF8091180190911901A09152
:100EE0001A01B0911B01B095A095909581959F4FE7
:100EF000AF4FBF4F80938E0390938F03A0939003C7
:100F0000B093910380938A0390938B03A0938C03F7
:100F1000B0938D030895FC01918D228D892F90E06F
:100F2000805C9F4F821B91098F7399270895FC0164
:100F3000918D828D981731F0828DE80FF11D858D8E
:100F400090E008958FEF9FEF0895FC01918D828DC1
:100F5000981761F0828DDF01A80FB11D5D968C910D
:100F6000928D9F5F9F73928F90E008958FEF9FEF18
:100F700008958EE099E0892B49F080E090E0892B7C
:100F800029F00E940E0981110C9400000895FC01C3
:100F9000848DDF01A80FB11DA35ABF4F2C91848D02
:100FA00090E001968F739927848FA689B7892C9337
:100FB000A089B1898C9180648C93938D848D9813D2
:100FC00006C00288F389E02D80818F7D808308959B
:100FD000CF93DF93EC01888D8823C9F0EA89FB89E0
:100FE000808185FD05C0A889B9898C9186FD0FC0D7
:100FF0000FB607FCF5CF808185FFF2CFA889B989AC
:101000008C9185FFEDCFCE010E94C707E7CFDF911E
:10101000CF910895EF92FF920F931F93CF93DF9399
:10102000EC0181E0888F9B8D8C8D981305C0E88939
:10103000F989808185FD24C0F62E0B8D10E00F5FAD
:101040001F4F0F731127E02E8C8DE8120CC00FB6C6
:1010500007FCFACFE889F989808185FFF5CFCE01B9
:101060000E94C707F1CF8B8DFE01E80FF11DE35AF7
:10107000FF4FF0820B8FEA89FB898081806207C075
:10108000EE89FF896083E889F989808180648083A3
:1010900081E090E0DF91CF911F910F91FF90EF9051
:1010A0000895CF92DF92EF92FF921F93CF93DF9339
:1010B000EC016A017B01122FE889F98982E08083C3
:1010C0004115514E61057105B1F060E079E08DE3A5
:1010D00090E0A70196010E942F1BDA01C901019738
:1010E000A109B109B695A79597958795AC014115CA
:1010F00080E15807A8F0E889F989108260E874E86F
:101100008EE190E0A70196010E942F1BBA01A90170
:101110004150510961097109769567955795479531
:10112000EC85FD855083EE85FF854083188EEC8924
:10113000FD891083EA89FB89808180618083EA8947
:10114000FB89808188608083EA89FB89808180684F
:101150008083EA89FB8980818F7D8083DF91CF91B5
:101160001F91FF90EF90DF90CF9008951F920F9204
:101170000FB60F9211242F938F939F93EF93FF93AA
:10118000E091A203F091A3038081E091A803F09184
:10119000A90382FD12C090818091AB038F5F8F7392
:1011A0002091AC03821751F0E091AB03F0E0EE56D2
:1011B000FC4F958F8093AB0301C08081FF91EF912D
:1011C0009F918F912F910F900FBE0F901F901895A8
:1011D0001F920F920FB60F9211242F933F934F93AC
:1011E0005F936F937F938F939F93AF93BF93EF938F
:1011F000FF9382E993E00E94C707FF91EF91BF91AF
:10120000AF919F918F917F916F915F914F913F919E
:101210002F910F900FBE0F901F90189582E993E0C9
:101220000E948B0721E0892B09F420E0822F08958A
:10123000E2E9F3E01382128288EE93E0A0E0B0E0EE
:1012400084839583A683B7838CE393E09183808323
:1012500085EC90E09587848784EC90E0978786877B
:1012600080EC90E0918B808B81EC90E0938B828B73
:1012700082EC90E0958B848B86EC90E0978B868B4C
:10128000118E128E138E148E0895CF92DF92EF92EC
:10129000FF920F931F93CF93DF936C017A018B0121
:1012A000C0E0D0E0CE15DF0589F0D8016D918D0149
:1012B000D601ED91FC910190F081E02DC6010995D8
:1012C000892B11F47E0102C02196ECCFC701DF917A
:1012D000CF911F910F91FF90EF90DF90CF900895E5
:1012E0006115710579F0FB0101900020E9F7319754
:1012F000AF01461B570BDC01ED91FC910280F3819D
:10130000E02D099480E090E008950C947009DC01D0
:10131000ED91FC910190F081E02D099462E872E07A
:101320000C9470090F931F93CF93DF93EC010E94ED
:1013300070098C01CE010E948E09800F911FDF91F0
:10134000CF911F910F9108954F925F926F927F926C
:10135000EF92FF920F931F93CF93DF93CDB7DEB73A
:10136000A1970FB6F894DEBF0FBECDBF7C01FA0186
:10137000CB0119A2223008F42AE08E010F5D1F4F25
:10138000422E512C612C712CBF01A30192010E94AD
:101390002F1BF901CA01015011096A3014F4605D74
:1013A00001C0695CD8016C93232B242B252B61F79A
:1013B000B801C7010E947009A1960FB6F894DEBF6C
:1013C0000FBECDBFDF91CF911F910F91FF90EF9096
:1013D0007F906F905F904F900895CF92DF92EF9241
:1013E000FF920F931F93CF93DF93EC016A017B0170
:1013F0002115310579F4E881F9810190F081E02D22
:10140000642FDF91CF911F910F91FF90EF90DF90AC
:10141000CF9009942A303105E9F477FF1AC06DE2C4
:101420000E9487098C0144275527BA014C195D0990
:101430006E097F092AE0CE010E94A409800F911F46
:10144000DF91CF911F910F91FF90EF90DF90CF90A0
:1014500008952AE0B701A601CE01DF91CF911F9137
:101460000F91FF90EF90DF90CF900C94A4090F9311
:101470001F93CF93DF93EC019A01AB01770F660BBB
:10148000770B0E94ED098C01CE010E948E09800F1E
:10149000911FDF91CF911F910F9108954F925F920D
:1014A0006F927F92AF92BF92CF92DF92EF92FF92B4
:1014B0000F931F93CF93DF93CDB7DEB729013A0186
:1014C0009B01AC01241935094609570989899A8974
:1014D000AB89BC89BC01CD016A197B098C099D09C6
:1014E0000E941F1BA80197012419350946095709B5
:1014F0000E94511BCA01B9016A0D7B1D8C1D9D1DE7
:10150000DF91CF911F910F91FF90EF90DF90CF90DF
:10151000BF90AF907F906F905F904F9008951F9213
:101520000F920FB60F9211242F933F938F939F9397
:10153000AF93BF938091300490913104A091320415
:10154000B091330430912F0423E0230F2D3720F482
:101550000196A11DB11D05C026E8230F0296A11D0D
:10156000B11D20932F048093300490933104A093F5
:101570003204B09333048091340490913504A091E7
:101580003604B09137040196A11DB11D8093340437
:1015900090933504A0933604B0933704BF91AF9174
:1015A0009F918F913F912F910F900FBE0F901F90A1
:1015B00018952FB7F89460913004709131048091A0
:1015C0003204909133042FBF08953FB7F89480916F
:1015D000340490913504A0913604B091370426B5B7
:1015E000A89B05C02F3F19F00196A11DB11D3FBF5B
:1015F000BA2FA92F982F8827820F911DA11DB11DE9
:10160000BC01CD0142E0660F771F881F991F4A95E4
:10161000D1F708958F929F92AF92BF92CF92DF92AF
:10162000EF92FF926B017C010E94E50A4B015C0185
:10163000C114D104E104F10401F10E941E1B0E94B7
:10164000E50ADC01CB0188199909AA09BB09883E82
:101650009340A105B10560F321E0C21AD108E10869
:10166000F10888EE880E83E0981EA11CB11CC114FD
:10167000D104E104F10419F7DBCFFF90EF90DF9084
:10168000CF90BF90AF909F908F900895789484B53D
:10169000826084BD84B5816084BD85B5826085BD6E
:1016A00085B5816085BDEEE6F0E080818160808354
:1016B000E1E8F0E010828081826080838081816037
:1016C0008083E0E8F0E0808181608083E1EBF0E0FE
:1016D000808184608083E0EBF0E0808181608083A2
:1016E000EAE7F0E08081846080838081826080838B
:1016F0008081816080838081806880831092C100B6
:1017000008958E3008F08E5087702091200190E46B
:10171000299F90011124822B80937C0080917A0074
:10172000806480937A0080917A0086FDFCCF80915E
:1017300078002091790090E0922B0895833081F019
:1017400028F4813099F08230A1F008958730A9F013
:101750008830B9F08430D1F4809180008F7D03C04F
:10176000809180008F7780938000089584B58F7773
:1017700002C084B58F7D84BD08958091B0008F77BD
:1017800003C08091B0008F7D8093B0000895CF9307
:10179000DF9390E0FC01EA55FF4F2491FC01E654F1
:1017A000FF4F8491882361F190E0880F991FFC011D
:1017B000E852FF4FC591D491FC01E253FF4FA59130
:1017C000B491611109C09FB7F89488812095822354
:1017D0008883EC912E230BC0623061F49FB7F8949C
:1017E0003881822F809583238883EC912E2B2C9334
:1017F0009FBF06C08FB7F894E8812E2B28838FBF38
:10180000DF91CF9108951F93CF93DF93282F30E07E
:10181000F901EE56FF4F8491F901EA55FF4FD4913B
:10182000F901E654FF4FC491CC23C9F0162F811162
:101830000E949E0BEC2FF0E0EE0FFF1FE253FF4FD4
:10184000A591B4918FB7F894111105C09C91ED2F1B
:10185000E095E92302C0EC91ED2BEC938FBFDF9173
:10186000CF911F910895CF93DF9300D0CDB7DEB70E
:101870002091910430919204CE01019621153105F9
:1018800019F48559944002C0821B930B9A83898373
:1018900089819A810F900F90DF91CF910895DC019B
:1018A000DA9620E030E04C91461307C0220F331F38
:1018B000FC01E20FF31F83AD08952F5F3F4F129697
:1018C0002730310581F78FEF0895403885E25807BA
:1018D0006105710560F0413080E4580788E36807CE
:1018E000710548F040E050E468E370E004C040E86F
:1018F00055E260E070E026E082E993E00E94510842
:101900008091C20088608093C2000895CF93DF93D6
:1019100000D0CDB7DEB7FB0183811F928F93828108
:101920001F928F9381811F928F9380811F928F933B
:1019300085EE90E09F938F935F934F9349835A83F3
:101940000E943E1D0FB6F894DEBF0FBECDBF498189
:10195000842F5A81952F0F900F90DF91CF9108958A
:10196000662341F08FE39CE90197F1F700C0000086
:101970006150F6CF089582E993E00E948B07892B8E
:10198000D1F382E993E00E94A507089582E993E0EC
:101990000E94A5070895CF92DF92EF92FF92CF9316
:1019A000DF93EC0182E993E00E94E8070E94D90AE4
:1019B0006B017C018091C00087FF11C00E94D90A91
:1019C000AB01BC014C195D096E097F094233510519
:1019D0006105710550F4CE010E94C60CEBCF82E97F
:1019E00093E00E948B07892B49F761E0CE01DF91DC
:1019F000CF91FF90EF90DF90CF900C94B00CCF93ED
:101A0000DF93EC010E94CB0C4AA95BA96CA97DA9CC
:101A1000CE010E94650C19825B98DF91CF910895E9
:101A2000CF93DF93EC010E94CB0C19825B9ADF917C
:101A3000CF910895FC011182FB96AC01475B5F4F8B
:101A40002FEFDF0111972C9320833296E417F507CF
:101A5000C1F70C94CB0C0F931F93CF93DF938C01A2
:101A600082E993E00E94E80782E993E00E948B07F5
:101A7000EC01209729F0C8010E94C60C2197F9CFEC
:101A8000DF91CF911F910F9108952F923F924F9226
:101A90005F926F927F928F929F92AF92BF92CF92FE
:101AA000DF92EF92FF920F931F93CF93DF93CDB707
:101AB000DEB727970FB6F894DEBF0FBECDBF9F836A
:101AC0008E834B012A0159013801FA82E982FC0117
:101AD00081818230C9F4FB0180818F3F21F0909198
:101AE000210189130EC0C114D10471F48091210128
:101AF000F40180838091470490914804F20191831E
:101B0000808380E090E09FC100E010E02E813F8163
:101B1000265C3F4F3C832B8333243A9452E0252E9E
:101B2000EE81FF8181818130E1F018F0823029F16E
:101B3000DAC021E0EE81FF812183309221011092F1
:101B400048041092470410924604109245041092E3
:101B500044041092400410924104109242041092E6
:101B6000430480914604883068F582E993E00E943E
:101B70008B07892B09F02DC125C08E819F810E9482
:101B8000BB0CE981FA818083F1E0CF1AD1080F5FA5
:101B90001F4F809147049091480401979093480407
:101BA00080934704892B09F09AC08E819F810E94FF
:101BB000BB0C8E819F810E94BB0CEE81FF81118244
:101BC00021E092C080914604883008F48CC0709166
:101BD00038046091390450913A0440913B043091AB
:101BE0003C0420913D0490913E0480913F04723565
:101BF00009F094C0633509F0DAC0593409F0D7C050
:101C00004F3509F0D4C0323509F0D1C0253409F080
:101C1000CEC0913409F0CBC0843409F0C8C08E81A5
:101C20009F810E94BB0C809321018E819F810E9425
:101C3000BB0C90E090934804809347048E819F8171
:101C40000E94BB0C2091470430914804A901582BF5
:101C5000CA01509348044093470460912101EE81EA
:101C6000FF816F3F09F44DC0892B09F44AC02182DE
:101C7000CF010E944F0C813071F58E819F810E94AF
:101C8000BB0C809340048E819F810E94BB0C80938B
:101C900041048E819F810E94BB0C809342048E81FF
:101CA0009F810E94BB0C809343048E819F810E9480
:101CB000BB0C90E090934504809344048E819F81F7
:101CC0000E94BB0C2091440430914504382B309382
:101CD000450420934404F40180818F3FD1F421E036
:101CE000C114D10409F020E082E993E02D830E9421
:101CF0008B072D81892B09F47CC0222309F410CF96
:101D000078C0118230922101109248041092470449
:101D1000EACF90912101891711F3F3CE733509F0C1
:101D200046C0693409F043C05F3509F040C0433410
:101D3000F1F53C34E1F52F34D1F59335C1F5853417
:101D4000B1F58E819F810E94BB0C809321018E8111
:101D50009F810E94BB0C8E819F810E94BB0C1092C0
:101D6000480410924704EE81FF81118220912101E5
:101D7000EB81FC8180E090E03081321310C0FC01E7
:101D80007D96EE0FFF1F2E813F81E20FF31F308201
:101D9000880F991FF901E80FF91F33AE05C00196AE
:101DA00032968730910541F70FEF1FEF09CF77E0AB
:101DB00070934604609338045093390440933A0476
:101DC00030933B0420933C0490933D0480933E0465
:101DD0008ACFE090460481E08E0D80934604F12C7A
:101DE00082E993E00E94A507F701E85CFB4F80833E
:101DF000B8CE80912101F4018083809147049091B5
:101E00004804F20191838083A114B10479F0809198
:101E10004004882359F0F501808380914104818337
:101E2000809142048283809143048383611471040E
:101E300049F08091440490914504009719F0F30112
:101E400091838083C80127960FB6F894DEBF0FBE3A
:101E5000CDBFDF91CF911F910F91FF90EF90DF9059
:101E6000CF90BF90AF909F908F907F906F905F903A
:101E70004F903F902F9008959F92AF92BF92CF9234
:101E8000DF92EF92FF920F931F93CF93DF9300D0D7
:101E90001F92CDB7DEB75C01962E82E993E00E94D7
:101EA0008B07892BA9F08FEF8B831A821982C12CA3
:101EB000D12CE12CF12C00E010E020E030E0AE016C
:101EC0004F5F5F4FBE016D5F7F4FC5010E94450DA3
:101ED0008FEF981661F0F501FA9688E4A80EB11C10
:101EE0008081891531F03296EA15FB05C9F781E04A
:101EF00001C080E00F900F900F90DF91CF911F9164
:101F00000F91FF90EF90DF90CF90BF90AF909F9098
:101F10000895CF92DF92EF92FF920F931F93680183
:101F2000790100E010E020E030E00E94450D1F91B3
:101F30000F91FF90EF90DF90CF9008952F923F92F6
:101F40004F925F926F927F928F929F92AF92BF92C9
:101F5000CF92DF92EF92FF920F931F93CF93DF9375
:101F6000CDB7DEB72E970FB6F894DEBF0FBECDBF4C
:101F70002C013B014A873C872B871E870D87170161
:101F80004601FC018181823009F44CC182E993E071
:101F90000E948B07892BD1F08FEF89871A821982D3
:101FA000C12CD12CE12CF12C00E010E020E030E03D
:101FB000AE014F5F5F4FBE01675F7F4FC2010E945E
:101FC000450D89819A81892B09F02CC1EB85FC850F
:101FD00064918F010F5F1F4F662339F082E993E010
:101FE0000E940A08F8016491F5CF8D859E85892BA2
:101FF00039F42114310441F181010F5F1F4F20C0DA
:102000000D851E85F80161918F01662391F382E9A8
:1020100093E00E940A08F6CF6D3009F010C1F80174
:1020200084918A3009F00BC16BED82E993E00E9444
:102030000A086CED82E993E00E940A080E5F1F4FC8
:10204000F10164916111F0C0A114B104F1F4C20175
:102050000E942B0D6DE082E993E00E940A086AE07D
:1020600082E993E00E940A08FA85F1117EC0198284
:102070001E820E94D90A4B015C0130E1C32E37E277
:10208000D32EE12CF12C10E040C0F40160816B3DB7
:1020900081F482E993E00E940A086DED82E993E001
:1020A0000E940A08FFEF8F1A9F0A81E0A81AB10860
:1020B000CBCF6D30C9F4F40181818A30A9F4F2E00C
:1020C000AF16B10488F06BED82E993E00E940A0834
:1020D0006CED82E993E00E940A0882E0880E911C70
:1020E00092E0A91AB108B0CFEFEF8E1A9E0A82E9EA
:1020F00093E00E940A08F1E0AF1AB108A5CF82E987
:1021000093E00E948B07892B71F40E94D90ADC01AD
:10211000CB0188199909AA09BB098C159D05AE0543
:10212000BF0568F36BC082E993E00E94A5071830F1
:1021300080F401E0010FE1E0F0E0EC0FFD1FE10FA2
:10214000F11D808389818F3429F0853419F000E0F6
:1021500001C0012F0E94D90A4B015C0123E0C22E6D
:10216000D12CE12CF12C102FD0CFF301108215824D
:102170000E94D90A6B017C0190E1892E97E2992E89
:10218000A12CB12C10E00E94D90ADC01CB018C19E2
:102190009D09AE09BF0988159905AA05BB0538F543
:1021A00082E993E00E948B07892B69F382E993E02F
:1021B0000E94A507FA851F1770F401E0010FF301D3
:1021C000E10FF11D8083F30180818F3429F0853484
:1021D00019F000E001C0012F0E94D90A6B017C01B7
:1021E00083E0882E912CA12CB12C102FCCCFF301A1
:1021F0008081898381818A8385818E8389818F34DF
:1022000039F481E09A819B3409F480E081951FC004
:10221000853441F48A81823529F48E81882311F036
:102220008D30A9F48FEF13C0C80101961C016B3DDE
:1022300009F0F2CE82E993E00E940A086DED82E98E
:1022400093E00E940A08F80164918101FBCE2E966A
:102250000FB6F894DEBF0FBECDBFDF91CF911F91B7
:102260000F91FF90EF90DF90CF90BF90AF909F9035
:102270008F907F906F905F904F903F902F90089538
:102280005F926F927F928F929F92AF92BF92CF9206
:10229000DF92EF92FF920F931F93CF93DF93CDB70F
:1022A000DEB72A970FB6F894DEBF0FBECDBF4C0144
:1022B0003B01542EC8014AE0BE016F5F7F4F298762
:1022C0003A870E94191DA12CB12CC12CD12CE12CD4
:1022D000F12C8E010F5F1F4F29853A85452DB301E3
:1022E000C4010E949E0F2A960FB6F894DEBF0FBE5F
:1022F000CDBFDF91CF911F910F91FF90EF90DF90B5
:10230000CF90BF90AF909F908F907F906F905F9095
:1023100008950F931F939B018A0140E060E070E0F5
:102320000E9440111F910F9108958F929F92AF923A
:10233000BF92CF92DF92EF92FF920F931F93CF93B2
:10234000DF93CDB7DEB72B970FB6F894DEBF0FBE85
:10235000CDBF5C01962E88248A9482E993E00E9486
:102360008B07892B81F18B861A861986C12CD12C7B
:10237000E12CF12C00E010E020E030E0AE01475FFE
:102380005F4FBE01655F7F4FC5010E94450D8B8584
:10239000891119C089859A85892BF9F29B8628E0D5
:1023A000C22ED12CCE0101967C0100E010E020E08D
:1023B00030E0AE01475F5F4FBE01655F7F4FC501F3
:1023C0000E94450DE7CF9FEF991202C080E02CC01C
:1023D000F501FA9620E030E0808189111EC0F901F4
:1023E0007D96EE0FFF1FEA0DFB1D8FEF8083220FFE
:1023F000331FF501E20FF31F83AF13E0892C912CFB
:10240000A40165E271E0C5010E9489118823F1F2FF
:102410008E3FE1F21150A1F707C02F5F3F4F329678
:1024200027303105C9F6D2CF2B960FB6F894DEBF10
:102430000FBECDBFDF91CF911F910F91FF90EF9015
:10244000DF90CF90BF90AF909F908F900895AF9204
:10245000BF92CF92DF92EF92FF920F931F9357019B
:102460006801E12CF12C00E010E00E949E0F1F910A
:102470000F91FF90EF90DF90CF90BF90AF900895B5
:102480006F927F928F929F92AF92BF92CF92DF9284
:10249000EF92FF920F931F93CF93DF93EC016B01A9
:1024A0004A0183E0782E5E0182E0A80EB11C90E321
:1024B000692EF501862D11928A95E9F7F6010190B2
:1024C0000020E9F731977F01EC18FD08860127E12C
:1024D00034E040E3B501CE010E94271281110EC005
:1024E0009C81992359F08D819E81AF81B885F4013B
:1024F00080839183A283B38380E003C07A947110B8
:10250000D8CFDF91CF911F910F91FF90EF90DF9087
:10251000CF90BF90AF909F908F907F906F900895D5
:10252000AF92BF92CF92DF92EF92FF920F931F93E1
:10253000A12CB12CC12CD12CE12CF12C0E949E0F8E
:102540001F910F91FF90EF90DF90CF90BF90AF90D1
:1025500008958F929F92AF92BF92DF92EF92FF9277
:102560000F931F93CF93DF9300D0CDB7DEB74C010D
:10257000D62EBA017C0182E0E80EF11CA701C4014D
:1025800029833A830E94860C6EE571E0C7010E94A0
:10259000D91CF70101900020E9F73197EE19FF09E6
:1025A0003A813F9329812F9352EEA52E50E0B52E0C
:1025B000BF92AF92FF273296E80DF91DFF93EF937C
:1025C0000E943E1D6CE571E0C7010E94D91CF70115
:1025D00001900020E9F73197EE19FF091F930F933F
:1025E000BF92AF92FF273296E80DF91DFF93EF934C
:1025F0000E943E1D0FB6F894DEBF0FBECDBFF2E0C5
:102600008701DF1203C029E431E004C0D1100CC0FF
:102610002DE331E048E0B701C4010E94901281111E
:102620002EC0F40184810DC021E331E048E0B70100
:10263000C4010E949012811122C0F4018481DD2422
:10264000D3948F3FE9F0F401FA9620E030E09081D6
:102650009F3F71F4F9017D96EE0FFF1FE80DF91D04
:102660008083220F331F280D391DF901D3AE08C016
:102670002F5F3F4F32962730310549F701C08FEF6A
:102680000F900F90DF91CF911F910F91FF90EF90DE
:10269000DF90BF90AF909F908F9008950F931F93FE
:1026A000E0912201F09123013196E13078E0F707C3
:1026B00010F0E0E0F4E0F0932301E09322010091B8
:1026C0002201109123010E94A9121F910F910895D8
:1026D000AF92BF92CF92DF92EF92FF920F931F9330
:1026E000A12CB12CC12CD12CE12CF12C00E010E05C
:1026F0000E949E0F1F910F91FF90EF90DF90CF905F
:10270000BF90AF900895AF92BF92CF92DF92EF92B9
:10271000FF920F931F93A12CB12CC12CD12C7901C6
:102720008A019B0140E060E070E00E949E0F1F91D3
:102730000F91FF90EF90DF90CF90BF90AF900895F2
:102740005F926F927F928F929F92AF92BF92CF9241
:10275000DF92EF92FF920F931F93CF93DF937C0151
:10276000762E6A015901CA010E94E41C682E592E76
:10277000E70122961F927F9282EE882E80E0982EAB
:102780009F928F92DF93CF930E943E1D69E071E08C
:10279000CE010E94D91CFE0101900020E9F731977B
:1027A000EC1BFD0B5F926F929F928F92FF273296E8
:1027B000EE0DFF1DFF93EF930E943E1D8DB79EB758
:1027C0000C960FB6F8949EBF0FBE8DBFA114B10436
:1027D00009F463C0672DC7010E944F0C813009F0D6
:1027E0005CC067E071E0CE010E94D91CFE0101903F
:1027F0000020E9F73197AF014C1B5D0B55274E5F69
:102800005F4F4E0D5F1DB501C7010E94860C01157B
:10281000110509F448C0672DC7010E944F0C813093
:1028200009F041C062E071E0CE010E94D91CFE01B6
:1028300001900020E9F73197EC1BFD0B1F930F93DC
:1028400082EE90E09F938F93FF273296EE0DFF1D4F
:10285000FF93EF930E943E1D0F900F900F900F90EB
:102860000F900F906DEF70E0CE010E94D91C960181
:10287000AE0161EF70E0C701DF91CF911F910F9121
:10288000FF90EF90DF90CF90BF90AF909F908F9090
:102890007F906F905F900C94831364E071E0CE01A1
:1028A0000E94D91CB4CF6FEF70E0CE010E94D91CFA
:1028B000D9CFAF92BF92CF92DF92EF92FF920F9358
:1028C0001F9358016901E12CF12C8A019B0140E022
:1028D00060E070E00E949E0F1F910F91FF90EF90BB
:1028E000DF90CF90BF90AF9008955F926F927F92EC
:1028F0008F929F92AF92BF92CF92DF92EF92FF9210
:102900000F931F93CF93DF936C01762E4A01522EC3
:10291000632EEC0122961F926F9382EEA82E80E028
:10292000B82EBF92AF92DF93CF930E943E1D63E219
:1029300071E0CE010E94D91CFE0101900020E9F750
:102940003197EC1BFD0B6F925F92BF92AF92FF2706
:102950003296EC0DFD1DFF93EF930E943E1D8DB747
:102960009EB70C960FB6F8949EBF0FBE8DBF011593
:10297000110539F0672DC6010E944F0C813009F412
:102980004EC06EE171E0CE010E94D91CE114F10449
:1029900009F45CC0672DC6010E944F0C813009F01C
:1029A00055C06CE171E0CE010E94D91CFE0101907E
:1029B0000020E9F73197EC1BFD0BFF92EF9282EEBE
:1029C00090E09F938F93FF273296EC0DFD1DFF93B0
:1029D000EF930E943E1D0F900F900F900F900F905D
:1029E0000F9067E171E0CE010E94D91C052D162DD4
:1029F0009401AE016BE071E0C6010E945914DF91B1
:102A0000CF911F910F91FF90EF90DF90CF90BF90EB
:102A1000AF909F908F907F906F905F90089561E24C
:102A200071E0CE010E94D91CFE0101900020E9F75F
:102A30003197AF014C1B5D0B55274E5F5F4F4C0D1F
:102A40005D1DB801C6010E94860CA0CF69E171E04E
:102A5000CE010E94D91CC5CFEF92FF920F931F9316
:102A6000FA0101900020E9F73197E41BF50B78019A
:102A700089019F010E9475141F910F91FF90EF90A3
:102A80000895AF92BF92CF92DF92EF92FF920F9391
:102A90001F939B01A12CB12CC12CD12CE12CF12C2A
:102AA0008A0140E060E070E00E949E0F1F910F914C
:102AB000FF90EF90DF90CF90BF90AF9008956F920E
:102AC0007F928F929F92AF92BF92CF92DF92EF92BE
:102AD000FF920F931F93CF93DF931F92CDB7DEB773
:102AE0003C015A01490169830E941A0DF30116AA9B
:102AF00017AA10AE11AE6301F2E0CF0ED11C80E335
:102B0000F60111928A95E9F76981623051F426EB5A
:102B100031E040E3B601C3010E946813811191C006
:102B20000BC0662399F022EA31E040E3B601C3010D
:102B30000E946813811187C0F30142855385648523
:102B4000758546AB57AB60AF71AF7EC08114910401
:102B500059F0A601B401C3010E94860CA60160E9E8
:102B600071E0C3010E944115A114B10481F0A601D6
:102B7000B501C3010E94860CF50180819181A2817B
:102B8000B381F30186AB97ABA0AFB1AF0DC064E8E2
:102B900071E0C6010E94D91C80ECF30186AB88EA83
:102BA00087AB10AE81E081AFE114F104B9F062E8C7
:102BB00071E0C6010E94D91CF60101900020E9F7DE
:102BC0003197AF014C195D0955274E5F5F4F460D98
:102BD000571DB701C3010E94860C05C063E771E071
:102BE000C6010E94D91C01151105B1F061E771E021
:102BF000C6010E94D91CF60101900020E9F7319727
:102C0000AF014C195D0955274E5F5F4F460D571DAB
:102C1000B801C3010E94860CA60160E671E0C30101
:102C20000F90DF91CF911F910F91FF90EF90DF9068
:102C3000CF90BF90AF909F908F907F906F900C94AB
:102C4000411582E001C081E00F90DF91CF911F918B
:102C50000F91FF90EF90DF90CF90BF90AF909F903B
:102C60008F907F906F900895EF92FF920F931F9334
:102C7000E12CF12C00E010E020E030E040E050E0FA
:102C800061E00E945F151F910F91FF90EF900895F2
:102C9000AF92BF92CF92DF92EF92FF920F931F936A
:102CA0009B01A12CB12CC12CD12CE12CF12C00E0EA
:102CB00010E040E060E070E00E949E0F1F910F91D5
:102CC000FF90EF90DF90CF90BF90AF900895CF939B
:102CD000DF93EC0166E074E00E94481668EF73E051
:102CE000CE01DF91CF910C944816AF92BF92CF9254
:102CF000DF92EF920F931F93CF93DF93EC016B0161
:102D00005A011E2D213049F018F0223091F020C0D8
:102D10006AED73E00E9448161BC0452B29F06EEB4C
:102D200073E00E944816BFC066EA73E00E9448162E
:102D3000B6C0402F50E0A114B10429F06BE873E055
:102D40000E948911B0C064E773E00E948911A7C096
:102D5000153038F4412F50E063E673E0CE010E9455
:102D60008911A114B10431F0A50167E573E0CE012A
:102D70000E944115E8818E2F90E08531910508F081
:102D800096C0FC01EC5CFF4F0C94701B22E533E015
:102D9000A60165E473E077C020E433E0A60163E3B5
:102DA00073E071C02EE233E0A60161E273E06BC014
:102DB0002CE133E0A6016FE073E065C02AE033E068
:102DC000A6016DEF72E05FC028EF32E0A6016BEE66
:102DD00072E059C026EE32E0A60169ED72E053C000
:102DE00024ED32E0A60167EC72E04DC022EC32E047
:102DF000A60165EB72E047C020EB32E0A60163EA72
:102E000072E041C02EE932E0A60161E972E03BC008
:102E10002CE832E0A6016FE772E035C02AE732E025
:102E2000A6016DE672E02FC028E632E0A6016BE550
:102E300072E029C026E532E0A60169E472E023C011
:102E400024E432E0A60167E372E01DC022E332E031
:102E5000A60165E272E017C020E232E0A60163E15C
:102E600072E011C02DE032E0A60160E072E00BC01C
:102E70002AEF31E0A6016DEE71E005C027EE31E0EA
:102E8000A6016AED71E0CE01DF91CF911F910F9104
:102E9000EF90DF90CF90BF90AF900C9483131530DC
:102EA00008F068CF57CF153008F05ECF53CF80E0E1
:102EB000DF91CF911F910F91EF90DF90CF90BF9056
:102EC000AF900895EF920F93EE24EA9400E00E94F1
:102ED00075160F91EF900895CF93DF93EC010E9448
:102EE0001A0D1EAA1FAA18AE19AE6AEC71E0CE0127
:102EF000DF91CF910C944816BF92CF92DF92EF9260
:102F0000FF920F931F93CF93DF93EC016A017B0134
:102F1000B22E61E083E00E94C70B5B9A61E082E021
:102F20000E94C70B5A9861E081E00E94C70B61E0E4
:102F300081E00E94030C60E080E00E94C70B61E02A
:102F400080E00E94030C1EAA1FAA18AE19AEFE0153
:102F5000329680E3DF011D928A95E9F7CAAADBAABF
:102F6000ECAAFDAAB701A601CE010E94650CCE0114
:102F70000E94FF0C5A9865E0CE010E94B00C5A9A4C
:102F80006BE0CE010E94B00C14E00FEF6CE182E91F
:102F900093E00E940A080E94D90A6B017C010E94FA
:102FA000D90ADC01CB018C199D09AE09BF09883C07
:102FB0009105A105B10508F582E993E00E948B0710
:102FC000892B69F382E993E00E94A507853539F7DB
:102FD00065E582E993E00E940A086AE0CE010E945A
:102FE000B00C6EE682E993E00E940A086AE082E98A
:102FF00093E00E940A0811E00EEF115039F664E1E7
:10300000CE010E94B00C13E0CE010E94CB0C60E414
:1030100074E0CE010E94481681110DC062E374E095
:10302000CE010E94481666E274E0CE010E94481666
:10303000B88200E009C06AE0CE010E94B00C1150D5
:1030400019F7CE010E94100D802FDF91CF911F91B3
:103050000F91FF90EF90DF90CF90BF90089522E006
:1030600040E855E260E070E00C947C17CF92DF926C
:10307000EF92FF920F931F93CF93DF937C016A012E
:103080008B01C0E0D0E0CC15DD0589F0D701ED91D2
:10309000FC91068CF78DE02DC70109958F3FBFEF9E
:1030A0009B0729F0F80181938F012196ECCFCE0187
:1030B000DF91CF911F910F91FF90EF90DF90CF9014
:1030C00008950F931F93CF93DF93EC01E881F9816B
:1030D000048CF58DE02D09958C010115110551F039
:1030E000E881F981068CF78DE02DCE01099501501C
:1030F0001109F3CFDF91CF911F910F9108950F9395
:103100001F93CF93DF938C01DC01ED91FC9106A01E
:10311000F7A1E02D0995EC01892B61F0D801ED9123
:10312000FC9106A0F7A1E02D62E574E0C8010995C5
:10313000C80FD91FCE01DF91CF911F910F91089534
:1031400021E0FC0184818F3F09F420E0822F089563
:103150000F931F93CF93DF9300D01F92CDB7DEB7AD
:10316000FC0184818B831A8219828F3F71F000E009
:1031700010E020E030E0AE014F5F5F4FBE016D5FB9
:103180007F4F89E494E00E94890F89819A810F9092
:103190000F900F90DF91CF911F910F910895EF92B3
:1031A000FF920F931F93CF93DF9300D000D0CDB742
:1031B000DEB7FC0124812B832F3FB9F07C0101E0B5
:1031C00010E09E012C5F3F4FAE014F5F5F4FBE018D
:1031D0006D5F7F4F89E494E00E94890F009729F08A
:1031E000019631F48FEFF70184838FEF9FEF02C0D8
:1031F0008C8190E00F900F900F900F90DF91CF9106
:103200001F910F91FF90EF9008951F93CF93DF933D
:10321000FC0164816F3FB1F0EC0189E494E00E940D
:103220003C0F182F882319F08FEF8C830BC08E85ED
:103230008A3050F06C8189E494E00E9495118FEF00
:103240008C8303C010E001C011E0812FDF91CF918A
:103250001F910895CF93DF93FC0124812F3F81F0CC
:10326000EC010190F081E02D02A0F3A1E02D099581
:103270006C8189E494E00E9495118FEF8C831E8607
:10328000DF91CF910895CF92DF92EF92FF920F934B
:103290001F93CF93DF931F92CDB7DEB76983FC01F5
:1032A00064816F3F01F16C01FC01E184F2848C01C7
:1032B0000B5F1F4F21E030E0AE014F5F5F4F89E4AD
:1032C00094E00E947514F601882381F086858F5F53
:1032D00086878A3040F0648189E494E00E949511E9
:1032E0008FEFF601848380E090E003C0168681E0D2
:1032F00090E00F90DF91CF911F910F91FF90EF9091
:10330000DF90CF900895CF92DF92EF92FF920F93CC
:103310001F93CF93DF93DC011496EC91EF3FF1F014
:10332000C52ED42EAB01EC01E984FA848C010B5F2D
:103330001F4F2D2D3C2D6E2F89E494E00E947514B3
:10334000882379F08E858F5F8E878A3038F06C8184
:1033500089E494E00E9495118FEF8C8380E090E0E7
:1033600003C01E868D2D9C2DDF91CF911F910F9153
:10337000FF90EF90DF90CF900895EF92FF920F9320
:103380001F93CF93DF93EC019C819F3FD1F07B0192
:1033900009851A859E012B5F3F4FAB01692F89E498
:1033A00094E00E942C15882379F08E858F5F8E879C
:1033B0008A3038F06C8189E494E00E9495118FEF97
:1033C0008C8380E090E009C01E86F7010190002008
:1033D000E9F73197CF018E199F09DF91CF911F91A6
:1033E0000F91FF90EF900895EF92FF920F931F932C
:1033F000CF93DF937B01FC0164816F3F21F1EC01EE
:10340000018512859C012B5F3F4FA70189E494E061
:103410000E94A013882369F08E858F5F8E878A3083
:1034200090F06C8189E494E00E9495118FEF8C8379
:103430000AC01E86C701DF91CF911F910F91FF90A7
:10344000EF900C94E41C80E090E0DF91CF911F910D
:103450000F91FF90EF900895FC01DB01138212821F
:103460008AE593E0918380838C91858311968C917A
:103470001197868312968C911297878313968C915D
:103480008087528741878FEF848308952AE533E050
:10349000FC01318320830C942A19FF920F931F9310
:1034A000CF93DF93FC0124812F3F19F080E090E05F
:1034B0001BC0F62EEC010385148521853285AC01F5
:1034C0004B5F5F4F89E494E00115110519F00E94EC
:1034D000A91202C00E944E138C838C818F3F31F35E
:1034E000FD861E8681E090E0DF91CF911F910F91C4
:1034F000FF90089560E00C944D1A61E00C944D1A11
:1035000060E00C944D1A61E00C944D1AFC01DB0153
:103510008C91858311968C911197868312968C914C
:103520001297878313968C9180875287418760E03A
:10353000CF010C944D1AFC01DB018C91858311960F
:103540008C911197868312968C911297878313968C
:103550008C9180875287418761E0CF010C944D1A8E
:10356000FC01DB018C91858311968C9111978683E8
:1035700012968C911297878313968C91808752872D
:1035800041873487238760E0CF010C944D1AFC01FA
:10359000DB018C91858311968C911197868312960D
:1035A0008C911297878313968C91808752874187DD
:1035B0003487238761E0CF010C944D1A0F931F933A
:1035C000CF93DF93EC018A01AC014B5F5F4F89E43D
:1035D00094E00E94401281110AC01A87098760E0B6
:1035E000CE01DF91CF911F910F910C944D1A80E085
:1035F00090E0DF91CF911F910F9108950F931F934A
:10360000CF93DF93EC018A01AC014B5F5F4F89E4FC
:1036100094E00E94401281110AC01A87098761E074
:10362000CE01DF91CF911F910F910C944D1A80E044
:1036300090E0DF91CF911F910F9108950895DB01E4
:103640008F939F930E94761BBF91AF91A29F800D95
:10365000911DA39F900DB29F900D11240895A1E29A
:103660001A2EAA1BBB1BFD010DC0AA1FBB1FEE1FFC
:10367000FF1FA217B307E407F50720F0A21BB30B47
:10368000E40BF50B661F771F881F991F1A9469F7C3
:1036900060957095809590959B01AC01BD01CF011F
:1036A0000895052E97FB1EF400940E94681B57FD99
:1036B00007D00E942F1B07FC03D04EF40C94681B0C
:1036C00050954095309521953F4F4F4F5F4F08954E
:1036D00090958095709561957F4F8F4F9F4F08957E
:1036E000EE0FFF1F0590F491E02D09940E94811BBD
:1036F000A59F900DB49F900DA49F800D911D112446
:103700000895A29FB001B39FC001A39F700D811DBA
:103710001124911DB29F700D811D1124911D0895DA
:103720000F931F93CF93DF93869F8001879F100D88
:10373000969F100D1124C8010E94AC1BEC0100974C
:1037400029F0A80160E070E00E94ED1CCE01DF913D
:10375000CF911F910F910895CF93DF938230910500
:1037600010F482E090E0E0919304F091940420E062
:1037700030E0C0E0D0E0309711F14081518148172E
:103780005907C0F04817590761F482819381209747
:1037900019F09B838A832BC09093940480939304A5
:1037A00026C02115310519F04217530718F49A0164
:1037B000BE01DF01EF010280F381E02DDCCF211596
:1037C000310509F1281B390B2430310590F412968C
:1037D0008D919C9113976115710521F0FB019383E5
:1037E000828304C09093940480939304FD013296E5
:1037F00044C0FD01E20FF31F8193919322503109E0
:103800002D933C933AC02091910430919204232B44
:1038100041F42091020130910301309392042093EE
:10382000910420910001309101012115310541F4ED
:103830002DB73EB74091040150910501241B350B73
:10384000E0919104F0919204E217F307A0F42E1B8B
:103850003F0B2817390778F0AC014E5F5F4F2417F4
:10386000350748F04E0F5F1F509392044093910428
:103870008193919302C0E0E0F0E0CF01DF91CF911E
:1038800008950F931F93CF93DF93009709F48CC093
:10389000FC013297138212820091930410919404D8
:1038A0000115110581F420813181820F931F209130
:1038B0009104309192042817390779F5F093920416
:1038C000E093910471C0D80140E050E0AE17BF070B
:1038D00050F412962D913C911397AD0121153105AD
:1038E00009F1D901F3CF9D01DA013383228360818D
:1038F0007181860F971F8217930769F4EC01288165
:103900003981260F371F2E5F3F4F318320838A81F5
:103910009B8193838283452B29F4F0939404E09355
:10392000930442C01396FC93EE931297ED014991D4
:1039300059919E01240F351FE217F30771F480811E
:103940009181840F951F029611969C938E9382818C
:10395000938113969C938E931297E0E0F0E0D80148
:1039600012968D919C911397009719F0F8018C0194
:10397000F6CF8D919C9198012E5F3F4F820F931F40
:1039800020919104309192042817390769F43097F7
:1039900029F4109294041092930402C013821282AC
:1039A0001093920400939104DF91CF911F910F9196
:1039B0000895FB01DC010D900020E9F711970590B7
:1039C0000D920020E1F70895FC0105900020E9F731
:1039D000809590958E0F9F1F0895DC0101C06D9317
:1039E00041505040E0F70895FB01DC010D900020AC
:1039F000E9F7119701900D920020E1F70895FB017E
:103A000051915523A9F0BF01DC014D91451741119A
:103A1000E1F759F4CD010190002049F04D91401596
:103A20004111C9F3FB014111EFCF81E090E0019713
:103A30000895BB274A3031F4992322F4BDE29095D2
:103A400081959F4F0C94251DBB27FB015527AA2765
:103A5000880F991FAA1FA41710F0A41B839550511B
:103A6000B9F7A05DAA3308F0A95DA193009779F793
:103A7000B111B1931192CB010C94491FAEE0B0E0AB
:103A8000E4E4FDE10C94FD1F0D891E898EE08C831A
:103A90001A8309838FEF9FE79E838D83AE01475E74
:103AA0005F4F6F89788DCE0101960E94611D2F8135
:103AB0003885F801E20FF31F10822E96E4E00C9493
:103AC0001920ACE0B0E0E7E6FDE10C94EF1F7C01CB
:103AD0006B018A01FC0117821682838181FFBDC1BF
:103AE000CE0101964C01F7019381F60193FD85917A
:103AF00093FF81916F01882309F4ABC1853239F4BA
:103B000093FD859193FF81916F01853229F4B7016F
:103B100090E00E94591FE7CF512C312C20E0203239
:103B2000A0F48B3269F030F4803259F0833269F4BA
:103B300020612CC08D3239F0803339F4216026C0E9
:103B40002260246023C0286021C027FD27C030EDFB
:103B5000380F3A3078F426FF06C0FAE05F9E300D49
:103B60001124532E13C08AE0389E300D1124332EB9
:103B700020620CC08E3221F426FD6BC1206406C089
:103B80008C3611F4206802C0883641F4F60193FDAA
:103B9000859193FF81916F018111C1CF982F9F7DF6
:103BA0009554933028F40C5F1F4FFFE3F9830DC049
:103BB000833631F0833771F0833509F05BC022C062
:103BC000F801808189830E5F1F4F44244394512C58
:103BD000540115C03801F2E06F0E711CF801A0808D
:103BE000B18026FF03C0652D70E002C06FEF7FEF4C
:103BF000C5012C870E943E1F2C0183012C852F7745
:103C0000222E17C03801F2E06F0E711CF801A0805F
:103C1000B18026FF03C0652D70E002C06FEF7FEF1B
:103C2000C5012C870E94331F2C012C852068222E71
:103C3000830123FC1BC0832D90E048165906B0F485
:103C4000B70180E290E00E94591F3A94F4CFF50149
:103C500027FC859127FE81915F01B70190E00E94CA
:103C6000591F31103A94F1E04F1A51084114510490
:103C700071F7E5C0843611F0893639F5F80127FF70
:103C800007C060817181828193810C5F1F4F08C0E2
:103C900060817181072E000C880B990B0E5F1F4FFE
:103CA0002F76722E97FF09C090958095709561953B
:103CB0007F4F8F4F9F4F2068722E2AE030E0A40183
:103CC0000E94911FA82EA81844C0853729F42F7E82
:103CD000B22E2AE030E025C0F22FF97FBF2E8F36BA
:103CE000C1F018F4883579F0B4C0803719F08837FE
:103CF00021F0AFC02F2F2061B22EB4FE0DC08B2D4E
:103D00008460B82E09C024FF0AC09F2F9660B92E88
:103D100006C028E030E005C020E130E002C020E12C
:103D200032E0F801B7FE07C0608171818281938122
:103D30000C5F1F4F06C06081718180E090E00E5FD4
:103D40001F4FA4010E94911FA82EA818FB2DFF77DA
:103D50007F2E76FE0BC0372D3E7FA51450F474FEE7
:103D60000AC072FC08C0372D3E7E05C0BA2C372D24
:103D700003C0BA2C01C0B52C34FF0DC0FE01EA0D02
:103D8000F11D8081803311F4397E09C032FF06C0F5
:103D9000B394B39404C0832F867809F0B39433FDB1
:103DA00013C030FF06C05A2CB31418F4530C5B1820
:103DB000B32CB31468F4B70180E290E03C870E9412
:103DC000591FB3943C85F5CFB31410F43B1801C0D0
:103DD000312C34FF12C0B70180E390E03C870E9491
:103DE000591F3C8532FF17C031FD03C088E790E0C2
:103DF00002C088E590E0B7010CC0832F867859F0A7
:103E000031FF02C08BE201C080E237FD8DE2B701D5
:103E100090E00E94591FA51438F4B70180E390E0A8
:103E20000E94591F5A94F7CFAA94F401EA0DF11D8C
:103E30008081B70190E00E94591FA110F5CF332077
:103E400009F451CEB70180E290E00E94591F3A94E4
:103E5000F6CFF7018681978102C08FEF9FEF2C96F6
:103E6000E2E10C940B20FC010590615070400110C0
:103E7000D8F7809590958E0F9F1F0895FC01615093
:103E8000704001900110D8F7809590958E0F9F1F7C
:103E90000895DC01FC01672F71917723E1F73297D8
:103EA00004C07C916D9370836291AE17BF07C8F315
:103EB00008950F931F93CF93DF93FB01238121FD7F
:103EC00003C08FEF9FEF28C022FF16C046815781A5
:103ED000248135814217530744F4A081B1819D01AB
:103EE0002F5F3F4F318320838C93268137812F5F53
:103EF0003F4F3783268310C0EB01092F182F008412
:103F0000F185E02D0995892BE1F68E819F8101963F
:103F10009F838E83812F902FDF91CF911F910F91DF
:103F20000895FA01AA27283051F1203181F1E8944F
:103F30006F936E7F6E5F7F4F8F4F9F4FAF4FB1E09C
:103F40003ED0B4E03CD0670F781F891F9A1FA11D97
:103F5000680F791F8A1F911DA11D6A0F711D811D98
:103F6000911DA11D20D009F468943F912AE0269F5D
:103F700011243019305D3193DEF6CF010895462FBC
:103F80004770405D4193B3E00FD0C9F7F6CF462F9D
:103F90004F70405D4A3318F0495D31FD4052419306
:103FA00002D0A9F7EACFB4E0A695979587957795C3
:103FB0006795BA95C9F700976105710508959B014A
:103FC000AC010A2E06945795479537952795BA95D3
:103FD000C9F7620F731F841F951FA01D08952F92AC
:103FE0003F924F925F926F927F928F929F92AF9289
:103FF000BF92CF92DF92EF92FF920F931F93CF93D6
:10400000DF93CDB7DEB7CA1BDB0B0FB6F894DEBF6C
:104010000FBECDBF09942A88398848885F846E8492
:104020007D848C849B84AA84B984C884DF80EE80DC
:10403000FD800C811B81AA81B981CE0FD11D0FB6E5
:10404000F894DEBF0FBECDBFED010895F894FFCF09
:104050000000950480000100000036016801900115
:10406000BA01E101A0BB0D0040771B00E80300008E
:1040700001FF000443757272656E74204D656D6FAB
:10408000727900526564466C792E696E69742045B8
:1040900052524F52003136303436343434363234A2
:1040A000363830333600574C414E2D4B6162656CCB
:1040B00000526564466C792E6A6F696E20455252D3
:1040C0004F5200526564466C792E626567696E20B6
:1040D0004552524F52005769466920536869656CD2
:1040E0006420636F6E6E65637465640073746172DF
:1040F000742077616974696E6700737563636573B3
:1041000073537472696E6757656273657276657210
:10411000006661696C7572650073746F70706564B8
:104120002077616974696E6700504F5354202F7671
:10413000616C75656765742E70687000504F5354DC
:10414000202F63616C6C5F7761746572696E675F65
:10415000696E6974696174696F6E2E706870003F72
:104160006E616D653D0054657374002674797065E9
:104170003D0050726F7A656E74666575636874652C
:10418000002676616C75653D00266B65793D63336D
:104190003738313633336631666231646463613790
:1041A00037633930333864343939343334350020A7
:1041B000485454502F312E310D0A486F73743A20F1
:1041C000003139322E3136382E3137382E32340024
:1041D0000D0A0D0A007472616E736D697373696FF5
:1041E0006E207375636365737300696E69746961CA
:1041F00074696F6E3A696E697461746500526573B3
:10420000756C744F6648747470506F737452657136
:10421000756573740073657276657220756E61766C
:1042200061696C61626C650046756C6C4874747091
:10423000506F73745472616E736D697373696F6ECE
:1042400000757267656E746C7920647279007665AA
:104250007279206D6F69737400436865636B576191
:10426000746572696E67496E6974696174696F6EAD
:1042700053746174757300497354696D65546F4369
:10428000616C6C4461746100000000000A0845091B
:104290008B07A5079707E8076E616E00696E6600D9
:1042A0006F7666002E0000000000431983197A1A09
:1042B0007D1A801A831A861A9B1AB01AC71ADE1A38
:1042C000FE1A05192A19A818CF1836186118BD1931
:0642D000F4197F18A0188C
:00000001FF
