:100000000C942D020C9455020C9455020C9455023C
:100010000C9455020C9455020C9455020C94550204
:100020000C9455020C9455020C9455020C945502F4
:100030000C9455020C9455020C9455020C945502E4
:100040000C94F8070C9455020C94D0060C940207FB
:100050000C9455020C9455020C9455020C945502C4
:100060000C9455020C94550224142A14301436149E
:100070003C14421448144E1454145A146014661458
:100080006C14721478147E1484148A1490149614C8
:100090009C14000000080002010000030407000097
:1000A000000000000000010204081020408001024E
:1000B00004081020010204081020040404040404AD
:1000C000040402020202020203030303030300000A
:1000D0000000250028002B0000000000240027005D
:1000E0002A0025750025692E25692E25692E25698A
:1000F0000041542B5253495F534E443D002C002C79
:1001000030002C002C30002C002C0041542B52537A
:10011000495F534E443D002C002C30002C002C3005
:10012000002C002C0041542B5253495F434C533D4B
:100130000041542B5253495F5544503D0041542BCC
:100140005253495F5443503D0041542B5253495F31
:10015000204D554C5449434153543D002C002C0034
:1001600041542B5253495F4950434F4E463D302C2A
:10017000002C002C3235352E3235352E3235352EC9
:1001800030002C003139322E3136382E302E3100ED
:1001900041542B5253495F444E5353455256455296
:1001A0003D0041542B5253495F4950434F4E463D09
:1001B000312C302C300041542B5253495F4950436D
:1001C0004F4E463D322C302C300041542B52534977
:1001D0005F4449534153534F430041542B525349B9
:1001E0005F4A4F494E3D002C31322C320041542B96
:1001F0005253495F4A4F494E3D002C31322C310059
:1002000041542B5253495F4A4F494E3D002C3132E5
:100210002C300041542B5253495F4A4F494E3D0008
:100220002C392C320041542B5253495F4A4F494ECE
:100230003D002C392C310041542B5253495F4A4F19
:10024000494E3D002C392C300041542B5253495F0C
:100250004A4F494E3D002C372C320041542B52530B
:10026000495F4A4F494E3D002C372C310041542BF9
:100270005253495F4A4F494E3D002C372C300041C4
:10028000542B5253495F4A4F494E3D002C342C3277
:100290000041542B5253495F4A4F494E3D002C3484
:1002A0002C310041542B5253495F4A4F494E3D0077
:1002B0002C342C300041542B5253495F4A4F494E45
:1002C0003D002C322C320041542B5253495F4A4F8F
:1002D000494E3D002C322C310041542B5253495F82
:1002E0004A4F494E3D002C322C300041542B525382
:1002F000495F4A4F494E3D002C312C320041542B6E
:100300005253495F4A4F494E3D002C312C31004138
:10031000542B5253495F4A4F494E3D002C312C30EB
:100320000041542B5253495F4A4F494E3D002C30F7
:100330002C320041542B5253495F4A4F494E3D00E5
:100340002C302C310041542B5253495F4A4F494EB7
:100350003D002C302C300041542B5253495F5053F8
:100360004B3D0041542B5253495F415554484D4F2A
:1003700044453D0041542B5253495F4E4554574F1D
:10038000524B3D494253532C312C0041542B525374
:10039000495F4E4554574F524B3D494253535F536B
:1003A00045432C312C0041542B5253495F4E455448
:1003B000574F524B3D494253532C302C300041543F
:1003C0002B5253495F4E4554574F524B3D49425370
:1003D000535F5345432C302C300041542B5253492A
:1003E0005F4E4554574F524B3D494E465241535430
:1003F000525543545552450041542B5253495F5373
:1004000043414E3D300041542B5253495F4E554DB0
:100410005343414E3D300041542B5253495F444EAB
:10042000534745543D0041542B5253495F494E496F
:10043000540041542B5253495F42414E443D3000D9
:1004400041542B5253495F465756455253494F4EDC
:100450003F000D0A00009604320711241FBECFEFA3
:10046000D8E0DEBFCDBF13E0A0E0B1E0E8EDFAE3F5
:1004700002C005900D92AE30B107D9F724E0AEE08E
:10048000B3E001C01D92A931B207E1F712E0CDE25D
:10049000D2E004C02197FE010E94CE18CB32D107D2
:1004A000C9F70E9496050C946A1D0C9400000895EB
:1004B000CF93DF93EC018DEC93E00E946E0ABE01B6
:1004C00086E193E00E94A5078DEC93E0DF91CF9148
:1004D0000C945D0AFF920F931F93CF93DF9300D08C
:1004E00000D0CDB7DEB786E291E00E9458028DECD5
:1004F00093E00E948D15F82E05E610E0FF2071F0C4
:100500000150110909F45DC08DEC93E00E948D1536
:10051000F82E80E591E00E945802F0CF8DEC93E038
:100520000E94C51320E042E651E063E771E08DECE4
:1005300093E00E94C014F82E05E610E0FF2099F029
:100540000150110909F43DC020E042E651E063E7A3
:1005500071E08DEC93E00E94C014F82E8EE791E0DC
:100560000E945802EBCF80EC898388EA8A8382EB71
:100570008B8382E28C838DEC93E00E949213F82EA1
:1005800005E610E0FF2091F00150110951F08DECCB
:1005900093E00E949213F82E80E991E00E945802A5
:1005A000F1CF8DEC93E00E94CA140BC0BE016F5FC7
:1005B0007F4F8DEC93E00E949C0983EA91E00E94BA
:1005C00058020F900F900F900F90DF91CF911F91D5
:1005D0000F91FF90089526E040E855E260E070E05A
:1005E00086E193E00E946B0689EB91E00E9458023D
:1005F00061E087E00E94300961E085E00E943009F7
:1006000061E08DE00E94300961E08BE00E943009DA
:1006100061E087E00E946C0960E971E080E090E0B1
:100620000E94730860E087E00E946C090C946A02E3
:10063000CF92DF92EF92FF920E944208C090120385
:10064000D0901303E0901403F0901503DC01CB016C
:100650008C199D09AE09BF0921E0C0901A01D09004
:100660001B01E0901C01F0901D018C159D05AE054D
:10067000BF0508F420E0822FFF90EF90DF90CF902D
:10068000089540910C0150910D01FA01EE0FFF1FEA
:10069000E05FFE4F20813181281739074CF08091AF
:1006A0000A0190910B0190930F0380930E0308951C
:1006B00020910E0130910F01F901EE0FFF1FE05F55
:1006C000FE4F60817181681779072CF050930F03FA
:1006D00040930E03089530930F0320930E03089563
:1006E0006F927F92AF92BF92CF92DF92EF92FF9282
:1006F0000F931F932091100130911101609012010E
:1007000070901301A0911401B0911501E0911601B0
:10071000F091170140911801509119018217930728
:1007200034F08C01481759071CF48A0101C0890173
:10073000B801012E000C880B990B601671068CF025
:100740007301770C000B110B032E000C440B550B9F
:100750001F921F921F92E4E1EF93A12CB12C65012F
:1007600047C0A017B107B4F07D01BB0F000B110B00
:1007700093012F5F3F4F032E000C440B550B1F922C
:100780001F921F92E8E2EF93A5E1AA2EB12CC12C93
:10079000D12C2EC0E017F107B4F07F01FF0F000B42
:1007A000110B9D012F5F3F4F032E000C440B550B87
:1007B0001F921F921F92E0E5EF93F9E2AF2EB12C4A
:1007C000C12CD12C15C07A01550F000B110B9F01C4
:1007D0002F5F3F4F032E000C440B550B1F921F92AF
:1007E0001F92E4E6EF93E1E5AE2EB12CC12CD12CA3
:1007F0000E94B7070F900F900F900F901F910F91CD
:10080000FF90EF90DF90CF90BF90AF907F906F9070
:100810000895CF92DF92EF92FF9261E08DE00E9407
:100820006C0961E085E00E946C090E9442086B013E
:100830007C01DC01CB018C199D09AE09BF094091F7
:100840001E0150911F0160912001709121018417B8
:100850009507A607B70718F40E944208EACF84E07C
:100860000E94EA08909311038093100360E085E0F2
:100870000E946C0960E08DE00E946C098091100379
:1008800090911103FF90EF90DF90CF900C94410373
:10089000882361F00E94420860931203709313034F
:1008A00080931403909315030C9409040895029700
:1008B00010F461E001C060E087E00C946C09CF9215
:1008C000DF92EF92FF920E9442086B017C01DC01F3
:1008D000CB018C199D09AE09BF0980319742A10552
:1008E000B105A0F420910E0330910F0380910E0109
:1008F00090910F012817390749F061E08BE00E94C1
:100900006C090E9409040E944208E1CF60E08BE07C
:10091000FF90EF90DF90CF900C946C09892B11F42D
:100920000C945F0460E08BE00C946C0980911A01D8
:1009300090911B01A0911C01B0911D01B095A09553
:10094000909581959F4FAF4FBF4F80931203909327
:100950001303A0931403B093150380910E0190919B
:100960000F0190930F0380930E030895EF92FF926F
:100970000F931F93CF93DF93CDB7DEB763970FB677
:10098000F894DEBF0FBECDBF8C0186EC91E00E94D3
:10099000580280EC888B88EA898B82EB8A8B88E10D
:1009A0008B8B40E550E0BE01605F7F4FCE0101962A
:1009B0000E948A1740E550E0BE01605F7F4FCE0184
:1009C00001960E94E417892B09F46BC08AED91E02F
:1009D0000E94580261E070E085E090E00E94EE180D
:1009E0007C014AE0BC01C8010E945D1AF701019038
:1009F0000020E9F7CF018E199F0961E070E080586F
:100A00009F4F0E94EE188C0164EE71E00E94521A12
:100A100066EF71E0C8010E94521A6DEF71E0C801E3
:100A20000E94521A64E072E0C8010E94521A6BE000
:100A300072E0C8010E94521A6AE172E0C8010E9485
:100A4000521AB701C8010E94521A62E272E0C8014C
:100A50000E94521A68E472E0C8010E94521A6AE5C4
:100A600072E0C8010E94521A69E672E0C8010E9451
:100A7000521AB801CE0101960E949F07C8010E9438
:100A80009F19C7010E949F19CE0101960E94BF15B0
:100A9000CE0101960E9488168EE692E00E945802CE
:100AA00006C083E892E00E9458020E946A02CE01CA
:100AB00001960E94A41763960FB6F894DEBF0FBE8E
:100AC000CDBFDF91CF911F910F91FF90EF900895CF
:100AD000CF93DF93882369F0EB018AE992E00E94CB
:100AE0005802CE010E947003CB01DF91CF910C948C
:100AF000B604DF91CF910895CF930E941803C82FB9
:100B00000E94480480910E0390910F030E945704A5
:100B100080910E0390910F030E948E046091100348
:100B2000709111038C2FCF910C9468050E94AF082F
:100B30000E9457020E94EB02C3EDD5E00E947C05A3
:100B40002097E1F30E94D305F9CFFC01918D228D0E
:100B5000892F90E0805C9F4F821B91098F739927AA
:100B60000895FC01918D828D981731F0828DE80FE8
:100B7000F11D858D90E008958FEF9FEF0895FC01A2
:100B8000918D828D981761F0828DDF01A80FB11DC4
:100B90005D968C91928D9F5F9F73928F90E00895E8
:100BA0008FEF9FEF089588E297E0892B49F080E06E
:100BB00090E0892B29F00E94280781110C940000F5
:100BC0000895FC01848DDF01A80FB11DA35ABF4F0A
:100BD0002C91848D90E001968F739927848FA6893C
:100BE000B7892C93A089B1898C9180648C93938D63
:100BF000848D981306C00288F389E02D80818F7D53
:100C000080830895CF93DF93EC01888D8823C9F00A
:100C1000EA89FB89808185FD05C0A889B9898C9105
:100C200086FD0FC00FB607FCF5CF808185FFF2CFA0
:100C3000A889B9898C9185FFEDCFCE010E94E1058D
:100C4000E7CFDF91CF910895EF92FF920F931F931B
:100C5000CF93DF93EC0181E0888F9B8D8C8D98136F
:100C600005C0E889F989808185FD24C0F62E0B8DA9
:100C700010E00F5F1F4F0F731127E02E8C8DE812CD
:100C80000CC00FB607FCFACFE889F989808185FF8F
:100C9000F5CFCE010E94E105F1CF8B8DFE01E80F6B
:100CA000F11DE35AFF4FF0820B8FEA89FB898081A7
:100CB000806207C0EE89FF896083E889F9898081B5
:100CC0008064808381E090E0DF91CF911F910F914C
:100CD000FF90EF900895CF92DF92EF92FF921F93D3
:100CE000CF93DF93EC016A017B01122FE889F98928
:100CF00082E080834115514E61057105B1F060E0DD
:100D000079E08DE390E0A70196010E948D18DA0149
:100D1000C9010197A109B109B695A795979587953E
:100D2000AC01411580E15807A8F0E889F9891082E3
:100D300060E874E88EE190E0A70196010E948D18AA
:100D4000BA01A90141505109610971097695679568
:100D500057954795EC85FD855083EE85FF8540834B
:100D6000188EEC89FD891083EA89FB898081806176
:100D70008083EA89FB89808188608083EA89FB8996
:100D8000808180688083EA89FB8980818F7D808370
:100D9000DF91CF911F91FF90EF90DF90CF9008955A
:100DA0001F920F920FB60F9211242F938F939F9340
:100DB000EF93FF93E0912603F09127038081E09168
:100DC0002C03F0912D0382FD12C0908180912F039E
:100DD0008F5F8F7320913003821751F0E0912F03C2
:100DE000F0E0EA5EFC4F958F80932F0301C0808175
:100DF000FF91EF919F918F912F910F900FBE0F90C8
:100E00001F9018951F920F920FB60F9211242F93D7
:100E10003F934F935F936F937F938F939F93AF9382
:100E2000BF93EF93FF9386E193E00E94E105FF916A
:100E3000EF91BF91AF919F918F917F916F915F9152
:100E40004F913F912F910F900FBE0F901F901895CB
:100E500086E193E00E94A50521E0892B09F420E0BA
:100E6000822F0895E6E1F3E01382128288EE93E088
:100E7000A0E0B0E084839583A683B78384EC92E0FE
:100E80009183808385EC90E09587848784EC90E063
:100E90009787868780EC90E0918B808B81EC90E047
:100EA000938B828B82EC90E0958B848B86EC90E028
:100EB000978B868B118E128E138E148E0895CF927F
:100EC000DF92EF92FF920F931F93CF93DF936C010A
:100ED0007A018B01C0E0D0E0CE15DF0589F0D801A2
:100EE0006D918D01D601ED91FC910190F081E02D85
:100EF000C6010995892B11F47E0102C02196ECCF21
:100F0000C701DF91CF911F910F91FF90EF90DF907C
:100F1000CF9008956115710579F0FB0101900020D3
:100F2000E9F73197AF01461B570BDC01ED91FC91BE
:100F30000280F381E02D099480E090E008950C9404
:100F40008A076BE672E00C948A070F931F93CF9386
:100F5000DF93EC010E948A078C01CE010E94A10759
:100F6000800F911FDF91CF911F910F9108954F92A4
:100F70005F926F927F92AF92BF92CF92DF92EF9289
:100F8000FF920F931F93CF93DF93CDB7DEB7290165
:100F90003A019B01AC012419350946095709898991
:100FA0009A89AB89BC89BC01CD016A197B098C097E
:100FB0009D090E947D18A801970124193509460949
:100FC00057090E94AF18CA01B9016A0D7B1D8C1D1B
:100FD0009D1DDF91CF911F910F91FF90EF90DF90BA
:100FE000CF90BF90AF907F906F905F904F9008959B
:100FF0001F920F920FB60F9211242F933F938F934E
:101000009F93AF93BF938091B4039091B503A09148
:10101000B603B091B7033091B30323E0230F2D370C
:1010200020F40196A11DB11D05C026E8230F0296EC
:10103000A11DB11D2093B3038093B4039093B50316
:10104000A093B603B093B7038091B8039091B9030E
:10105000A091BA03B091BB030196A11DB11D80936D
:10106000B8039093B903A093BA03B093BB03BF91A5
:10107000AF919F918F913F912F910F900FBE0F9045
:101080001F9018952FB7F8946091B4037091B50331
:101090008091B6039091B7032FBF08953FB7F8949E
:1010A0008091B8039091B903A091BA03B091BB03AA
:1010B00026B5A89B05C02F3F19F00196A11DB11DB3
:1010C0003FBFBA2FA92F982F8827820F911DA11DEE
:1010D000B11DBC01CD0142E0660F771F881F991F2B
:1010E0004A95D1F708958F929F92AF92BF92CF9277
:1010F000DF92EF92FF926B017C010E944E084B0140
:101100005C01C114D104E104F10401F10E947C18D6
:101110000E944E08DC01CB0188199909AA09BB0974
:10112000883E9340A105B10560F321E0C21AD108C1
:10113000E108F10888EE880E83E0981EA11CB11C1E
:10114000C114D104E104F10419F7DBCFFF90EF9053
:10115000DF90CF90BF90AF909F908F90089578943C
:1011600084B5826084BD84B5816084BD85B58260AC
:1011700085BD85B5816085BDEEE6F0E0808181604A
:101180008083E1E8F0E0108280818260808380814A
:1011900081608083E0E8F0E0808181608083E1EB22
:1011A000F0E0808184608083E0EBF0E0808181600A
:1011B0008083EAE7F0E080818460808380818260C0
:1011C00080838081816080838081806880831092A9
:1011D000C10008958E3008F08E5087702091220152
:1011E00090E4299F90011124822B80937C008091B0
:1011F0007A00806480937A0080917A0086FDFCCF2B
:10120000809178002091790090E0922B08958330AE
:1012100081F028F4813099F08230A1F00895873070
:10122000A9F08830B9F08430D1F4809180008F7DAE
:1012300003C0809180008F7780938000089584B5EB
:101240008F7702C084B58F7D84BD08958091B000F2
:101250008F7703C08091B0008F7D8093B000089598
:10126000CF93DF9390E0FC01EA55FF4F2491FC01FE
:10127000E654FF4F8491882361F190E0880F991F15
:10128000FC01E852FF4FC591D491FC01E253FF4F9E
:10129000A591B491611109C09FB7F89488812095F8
:1012A00082238883EC912E230BC0623061F49FB7B8
:1012B000F8943881822F809583238883EC912E2B9C
:1012C0002C939FBF06C08FB7F894E8812E2B2883FC
:1012D0008FBFDF91CF9108951F93CF93DF93282F76
:1012E00030E0F901EE56FF4F8491F901EA55FF4FC6
:1012F000D491F901E654FF4FC491CC23C9F0162FC5
:1013000081110E940709EC2FF0E0EE0FFF1FE2535E
:10131000FF4FA591B4918FB7F894111105C09C911E
:10132000ED2FE095E92302C0EC91ED2BEC938FBFFC
:10133000DF91CF911F910895FC0126A9222359F036
:1013400086A997A9A0ADB1ADFB0180839183A2834B
:10135000B38380E0089581E00895DC01DA9620E00F
:1013600030E04C91461307C0220F331FFC01E20FFF
:10137000F31F83AD08952F5F3F4F1296273031053D
:1013800081F78FEF0895403885E2580761057105B0
:1013900060F0413080E4580788E36807710548F041
:1013A00040E050E468E370E004C040E855E260E0EB
:1013B00070E026E086E193E00E946B068091C20017
:1013C00088608093C2000895CF93DF9300D0CDB79B
:1013D000DEB7FB0183811F928F9382811F928F93CF
:1013E00081811F928F9380811F928F9385EE90E071
:1013F0009F938F935F934F9349835A830E94821ADE
:101400000FB6F894DEBF0FBECDBF4981842F5A813D
:10141000952F0F900F90DF91CF910895662341F0A3
:101420008FE39CE90197F1F700C000006150F6CF0F
:10143000089586E193E00E94A505892BD1F386E10A
:1014400093E00E94BF05089586E193E00E94BF05E6
:101450000895CF92DF92EF92FF92CF93DF93EC014A
:1014600086E193E00E9402060E9442086B017C0123
:101470008091C00087FF11C00E944208AB01BC01EF
:101480004C195D096E097F094233510561057105EB
:1014900050F4CE010E94240AEBCF86E193E00E9433
:1014A000A505892B49F761E0CE01DF91CF91FF902F
:1014B000EF90DF90CF900C940E0ACF93DF93EC0166
:1014C0000E94290A4AA95BA96CA97DA9CE010E94A4
:1014D000C30919825B98DF91CF910895CF93DF9371
:1014E000EC010E94290A19825B9ADF91CF9108953D
:1014F000FC011182FB96AC01475B5F4F2FEFDF01D0
:1015000011972C9320833296E417F507C1F70C94BA
:10151000290A0F931F93CF93DF938C0186E193E009
:101520000E94020686E193E00E94A505EC01209747
:1015300029F0C8010E94240A2197F9CFDF91CF91A9
:101540001F910F9108952F923F924F925F926F9249
:101550007F928F929F92AF92BF92CF92DF92EF9243
:10156000FF920F931F93CF93DF93CDB7DEB72797EB
:101570000FB6F894DEBF0FBECDBF9F838E834B01A5
:101580002A0159013801FA82E982FC018181823005
:10159000C9F4FB0180818F3F21F0909123018913D1
:1015A0000EC0C114D10471F480912301F401808331
:1015B0008091CB039091CC03F2019183808380E0F2
:1015C00090E09FC100E010E02E813F81265C3F4FFC
:1015D0003C832B8333243A9452E0252EEE81FF8105
:1015E00081818130E1F018F0823029F1DAC021E008
:1015F000EE81FF812183309223011092CC0310925F
:10160000CB031092CA031092C9031092C803109220
:10161000C4031092C5031092C6031092C7038091B1
:10162000CA03883068F586E193E00E94A505892BFE
:1016300009F02DC125C08E819F810E94190AE98180
:10164000FA818083F1E0CF1AD1080F5F1F4F80919C
:10165000CB039091CC0301979093CC038093CB0361
:10166000892B09F09AC08E819F810E94190A8E8170
:101670009F810E94190AEE81FF81118221E092C0B0
:101680008091CA03883008F48CC07091BC036091CB
:10169000BD035091BE034091BF033091C003209120
:1016A000C1039091C2038091C303723509F094C0C5
:1016B000633509F0DAC0593409F0D7C04F3509F065
:1016C000D4C0323509F0D1C0253409F0CEC09134F0
:1016D00009F0CBC0843409F0C8C08E819F810E947C
:1016E000190A809323018E819F810E94190A90E03C
:1016F0009093CC038093CB038E819F810E94190A23
:101700002091CB033091CC03A901582BCA015093EF
:10171000CC034093CB0360912301EE81FF816F3FA7
:1017200009F44DC0892B09F44AC02182CF010E94DF
:10173000AD09813071F58E819F810E94190A8093D5
:10174000C4038E819F810E94190A8093C5038E81F4
:101750009F810E94190A8093C6038E819F810E94F7
:10176000190A8093C7038E819F810E94190A90E015
:101770009093C9038093C8038E819F810E94190AA8
:101780002091C8033091C903382B3093C9032093AB
:10179000C803F40180818F3FD1F421E0C114D1044A
:1017A00009F020E086E193E02D830E94A5052D81BC
:1017B000892B09F47CC0222309F410CF78C0118250
:1017C000309223011092CC031092CB03EACF909178
:1017D0002301891711F3F3CE733509F046C069343C
:1017E00009F043C05F3509F040C04334F1F53C34A3
:1017F000E1F52F34D1F59335C1F58534B1F58E81FE
:101800009F810E94190A809323018E819F810E94EB
:10181000190A8E819F810E94190A1092CC0310929E
:10182000CB03EE81FF81118220912301EB81FC81AA
:1018300080E090E03081321310C0FC017D96EE0F05
:10184000FF1F2E813F81E20FF31F3082880F991F07
:10185000F901E80FF91F33AE05C0019632968730C3
:10186000910541F70FEF1FEF09CF77E07093CA039F
:101870006093BC035093BD034093BE033093BF03FA
:101880002093C0039093C1038093C2038ACFE0905A
:10189000CA0381E08E0D8093CA03F12C86E193E0A8
:1018A0000E94BF05F701E454FC4F8083B8CE8091BD
:1018B0002301F40180838091CB039091CC03F2014A
:1018C00091838083A114B10479F08091C4038823AB
:1018D00059F0F50180838091C50381838091C6030F
:1018E00082838091C70383836114710449F08091DE
:1018F000C8039091C903009719F0F3019183808385
:10190000C80127960FB6F894DEBF0FBECDBFDF919A
:10191000CF911F910F91FF90EF90DF90CF90BF90EC
:10192000AF909F908F907F906F905F904F903F907F
:101930002F9008959F92AF92BF92CF92DF92EF9235
:10194000FF920F931F93CF93DF9300D01F92CDB7D9
:10195000DEB75C01962E86E193E00E94A505892BF7
:10196000A9F08FEF8B831A821982C12CD12CE12C24
:10197000F12C00E010E020E030E0AE014F5F5F4F5F
:10198000BE016D5F7F4FC5010E94A30A8FEF9816BD
:1019900061F0F501FA9688E4A80EB11C80818915E2
:1019A00031F03296EA15FB05C9F781E001C080E00D
:1019B0000F900F900F90DF91CF911F910F91FF909B
:1019C000EF90DF90CF90BF90AF909F900895CF920F
:1019D000DF92EF92FF920F931F936801790100E06D
:1019E00010E020E030E00E94A30A1F910F91FF90C9
:1019F000EF90DF90CF9008952F923F924F925F9299
:101A00006F927F928F929F92AF92BF92CF92DF920E
:101A1000EF92FF920F931F93CF93DF93CDB7DEB773
:101A20002E970FB6F894DEBF0FBECDBF2C013B0141
:101A30004A873C872B871E870D8717014601FC01CB
:101A40008181823009F44CC186E193E00E94A505B2
:101A5000892BD1F08FEF89871A821982C12CD12C62
:101A6000E12CF12C00E010E020E030E0AE014F5F0F
:101A70005F4FBE01675F7F4FC2010E94A30A898149
:101A80009A81892B09F02CC1EB85FC8564918F012B
:101A90000F5F1F4F662339F086E193E00E94240612
:101AA000F8016491F5CF8D859E85892B39F4211439
:101AB000310441F181010F5F1F4F20C00D851E854C
:101AC000F80161918F01662391F386E193E00E9412
:101AD0002406F6CF6D3009F010C1F80184918A30E8
:101AE00009F00BC16BED86E193E00E9424066CEDDA
:101AF00086E193E00E9424060E5F1F4FF10164917E
:101B00006111F0C0A114B104F1F4C2010E94890A6C
:101B10006DE086E193E00E9424066AE086E193E0AE
:101B20000E942406FA85F1117EC019821E820E944D
:101B300042084B015C0130E1C32E37E2D32EE12C89
:101B4000F12C10E040C0F40160816B3D81F486E12E
:101B500093E00E9424066DED86E193E00E94240646
:101B6000FFEF8F1A9F0A81E0A81AB108CBCF6D3022
:101B7000C9F4F40181818A30A9F4F2E0AF16B1040E
:101B800088F06BED86E193E00E9424066CED86E11F
:101B900093E00E94240682E0880E911C92E0A91A2C
:101BA000B108B0CFEFEF8E1A9E0A86E193E00E9453
:101BB0002406F1E0AF1AB108A5CF86E193E00E94B8
:101BC000A505892B71F40E944208DC01CB0188191C
:101BD0009909AA09BB098C159D05AE05BF0568F3D7
:101BE0006BC086E193E00E94BF05183080F401E0ED
:101BF000010FE1E0F0E0EC0FFD1FE10FF11D80832C
:101C000089818F3429F0853419F000E001C0012F5B
:101C10000E9442084B015C0123E0C22ED12CE12C32
:101C2000F12C102FD0CFF301108215820E944208B0
:101C30006B017C0190E1892E97E2992EA12CB12CA9
:101C400010E00E944208DC01CB018C199D09AE090D
:101C5000BF0988159905AA05BB0538F586E193E00B
:101C60000E94A505892B69F386E193E00E94BF05D8
:101C7000FA851F1770F401E0010FF301E10FF11D68
:101C80008083F30180818F3429F0853419F000E0DE
:101C900001C0012F0E9442086B017C0183E0882E65
:101CA000912CA12CB12C102FCCCFF30180818983F2
:101CB00081818A8385818E8389818F3439F481E0A3
:101CC0009A819B3409F480E081951FC0853441F4EA
:101CD0008A81823529F48E81882311F08D30A9F410
:101CE0008FEF13C0C80101961C016B3D09F0F2CEC5
:101CF00086E193E00E9424066DED86E193E00E9468
:101D00002406F80164918101FBCE2E960FB6F8945B
:101D1000DEBF0FBECDBFDF91CF911F910F91FF901E
:101D2000EF90DF90CF90BF90AF909F908F907F907B
:101D30006F905F904F903F902F9008955F926F92B9
:101D40007F928F929F92AF92BF92CF92DF92EF924B
:101D5000FF920F931F93CF93DF93CDB7DEB72A97F0
:101D60000FB6F894DEBF0FBECDBF4C013B01542E21
:101D7000C8014AE0BE016F5F7F4F29873A870E9402
:101D80005D1AA12CB12CC12CD12CE12CF12C8E018F
:101D90000F5F1F4F29853A85452DB301C4010E946D
:101DA000FC0C2A960FB6F894DEBF0FBECDBFDF91B4
:101DB000CF911F910F91FF90EF90DF90CF90BF9048
:101DC000AF909F908F907F906F905F9008950F934A
:101DD0001F939B018A0140E060E070E00E949E0E2C
:101DE0001F910F9108958F929F92AF92BF92CF92C1
:101DF000DF92EF92FF920F931F93CF93DF93CDB7B4
:101E0000DEB72B970FB6F894DEBF0FBECDBF5C01D7
:101E1000962E88248A9486E193E00E94A505892B5A
:101E200081F18B861A861986C12CD12CE12CF12CDC
:101E300000E010E020E030E0AE01475F5F4FBE0100
:101E4000655F7F4FC5010E94A30A8B85891119C068
:101E500089859A85892BF9F29B8628E0C22ED12CA0
:101E6000CE0101967C0100E010E020E030E0AE0100
:101E7000475F5F4FBE01655F7F4FC5010E94A30AA8
:101E8000E7CF9FEF991202C080E02CC0F501FA96CF
:101E900020E030E0808189111EC0F9017D96EE0FAF
:101EA000FF1FEA0DFB1D8FEF8083220F331FF5010B
:101EB000E20FF31F83AF13E0892C912CA40165E29C
:101EC00071E0C5010E94E70E8823F1F28E3FE1F236
:101ED0001150A1F707C02F5F3F4F329627303105D1
:101EE000C9F6D2CF2B960FB6F894DEBF0FBECDBF8A
:101EF000DF91CF911F910F91FF90EF90DF90CF90E6
:101F0000BF90AF909F908F900895AF92BF92CF9265
:101F1000DF92EF92FF920F931F9357016801E12C1C
:101F2000F12C00E010E00E94FC0C1F910F91FF903B
:101F3000EF90DF90CF90BF90AF9008956F927F9217
:101F40008F929F92AF92BF92CF92DF92EF92FF92C9
:101F50000F931F93CF93DF93EC016B014A0183E052
:101F6000782E5E0182E0A80EB11C90E3692EF50187
:101F7000862D11928A95E9F7F60101900020E9F784
:101F800031977F01EC18FD08860127E134E040E33A
:101F9000B501CE010E94850F81110EC09C8199234D
:101FA00059F08D819E81AF81B885F4018083918342
:101FB000A283B38380E003C07A947110D8CFDF91FD
:101FC000CF911F910F91FF90EF90DF90CF90BF9036
:101FD000AF909F908F907F906F900895AF92BF9237
:101FE000CF92DF92EF92FF920F931F93A12CB12C0F
:101FF000C12CD12CE12CF12C0E94FC0C1F910F91D3
:10200000FF90EF90DF90CF90BF90AF9008958F92A8
:102010009F92AF92BF92DF92EF92FF920F931F9326
:10202000CF93DF9300D0CDB7DEB74C01D62EBA01E7
:102030007C0182E0E80EF11CA701C40129833A83E8
:102040000E94E4096EE571E0C7010E94371AF701AA
:1020500001900020E9F73197EE19FF093A813F938B
:1020600029812F9352EEA52E50E0B52EBF92AF924C
:10207000FF273296E80DF91DFF93EF930E94821A15
:102080006CE571E0C7010E94371AF701019000204A
:10209000E9F73197EE19FF091F930F93BF92AF92A3
:1020A000FF273296E80DF91DFF93EF930E94821AE5
:1020B0000FB6F894DEBF0FBECDBFF2E08701DF128E
:1020C00003C029E431E004C0D1100CC02DE331E09D
:1020D00048E0B701C4010E94EE0F81112EC0F40147
:1020E00084810DC021E331E048E0B701C4010E94C2
:1020F000EE0F811122C0F4018481DD24D3948F3F3F
:10210000E9F0F401FA9620E030E090819F3F71F40D
:10211000F9017D96EE0FFF1FE80DF91D8083220F58
:10212000331F280D391DF901D3AE08C02F5F3F4F73
:1021300032962730310549F701C08FEF0F900F908D
:10214000DF91CF911F910F91FF90EF90DF90BF90A3
:10215000AF909F908F9008950F931F93E09124016B
:10216000F09125013196E13078E0F70710F0E0E0DA
:10217000F4E0F0932501E0932401009124011091F3
:1021800025010E9407101F910F910895AF92BF92F1
:10219000CF92DF92EF92FF920F931F93A12CB12C5D
:1021A000C12CD12CE12CF12C00E010E00E94FC0CA1
:1021B0001F910F91FF90EF90DF90CF90BF90AF9065
:1021C0000895AF92BF92CF92DF92EF92FF920F935A
:1021D0001F93A12CB12CC12CD12C79018A019B0118
:1021E00040E060E070E00E94FC0C1F910F91FF90B6
:1021F000EF90DF90CF90BF90AF9008955F926F9275
:102200007F928F929F92AF92BF92CF92DF92EF9286
:10221000FF920F931F93CF93DF937C01762E6A0179
:102220005901CA010E94421A682E592EE7012296CE
:102230001F927F9282EE882E80E0982E9F928F923E
:10224000DF93CF930E94821A69E071E0CE010E9471
:10225000371AFE0101900020E9F73197EC1BFD0BC6
:102260005F926F929F928F92FF273296EE0DFF1D25
:10227000FF93EF930E94821A8DB79EB70C960FB60C
:10228000F8949EBF0FBE8DBFA114B10409F463C0C2
:10229000672DC7010E94AD09813009F05CC067E07D
:1022A00071E0CE010E94371AFE0101900020E9F78B
:1022B0003197AF014C1B5D0B55274E5F5F4F4E0DA5
:1022C0005F1DB501C7010E94E4090115110509F45C
:1022D00048C0672DC7010E94AD09813009F041C097
:1022E00062E071E0CE010E94371AFE0101900020E9
:1022F000E9F73197EC1BFD0B1F930F9382EE90E0F3
:102300009F938F93FF273296EE0DFF1DFF93EF9360
:102310000E94821A0F900F900F900F900F900F90C5
:102320006DEF70E0CE010E94371A9601AE0161EFA9
:1023300070E0C701DF91CF911F910F91FF90EF9057
:10234000DF90CF90BF90AF909F908F907F906F90D5
:102350005F900C94E11064E071E0CE010E94371AA6
:10236000B4CF6FEF70E0CE010E94371AD9CFAF9291
:10237000BF92CF92DF92EF92FF920F931F9358017B
:102380006901E12CF12C8A019B0140E060E070E0E2
:102390000E94FC0C1F910F91FF90EF90DF90CF9067
:1023A000BF90AF9008955F926F927F928F929F92AD
:1023B000AF92BF92CF92DF92EF92FF920F931F9353
:1023C000CF93DF936C01762E4A01522E632EEC01DF
:1023D00022961F926F9382EEA82E80E0B82EBF92B5
:1023E000AF92DF93CF930E94821A63E271E0CE0135
:1023F0000E94371AFE0101900020E9F73197EC1B8B
:10240000FD0B6F925F92BF92AF92FF273296EC0D59
:10241000FD1DFF93EF930E94821A8DB79EB70C9615
:102420000FB6F8949EBF0FBE8DBF0115110539F090
:10243000672DC6010E94AD09813009F44EC06EE1DE
:1024400071E0CE010E94371AE114F10409F45CC076
:10245000672DC6010E94AD09813009F055C06CE1BD
:1024600071E0CE010E94371AFE0101900020E9F7C9
:102470003197EC1BFD0BFF92EF9282EE90E09F9361
:102480008F93FF273296EC0DFD1DFF93EF930E9473
:10249000821A0F900F900F900F900F900F9067E19E
:1024A00071E0CE010E94371A052D162D9401AE0160
:1024B0006BE071E0C6010E94B711DF91CF911F91CF
:1024C0000F91FF90EF90DF90CF90BF90AF909F90D3
:1024D0008F907F906F905F90089561E271E0CE01E0
:1024E0000E94371AFE0101900020E9F73197AF01F1
:1024F0004C1B5D0B55274E5F5F4F4C0D5D1DB801AA
:10250000C6010E94E409A0CF69E171E0CE010E94FA
:10251000371AC5CFEF92FF920F931F93FA010190E4
:102520000020E9F73197E41BF50B780189019F0141
:102530000E94D3111F910F91FF90EF900895AF92D9
:10254000BF92CF92DF92EF92FF920F931F939B0166
:10255000A12CB12CC12CD12CE12CF12C8A0140E012
:1025600060E070E00E94FC0C1F910F91FF90EF90D3
:10257000DF90CF90BF90AF9008956F927F928F922F
:102580009F92AF92BF92CF92DF92EF92FF920F9302
:102590001F93CF93DF931F92CDB7DEB73C015A0153
:1025A000490169830E94780AF30116AA17AA10AE9E
:1025B00011AE6301F2E0CF0ED11C80E3F60111925F
:1025C0008A95E9F76981623051F426EB31E040E306
:1025D000B601C3010E94C610811191C00BC06623D1
:1025E00099F022EA31E040E3B601C3010E94C6102F
:1025F000811187C0F301428553856485758546AB9B
:1026000057AB60AF71AF7EC08114910459F0A60141
:10261000B401C3010E94E409A60160E971E0C301AD
:102620000E949F12A114B10481F0A601B501C3015B
:102630000E94E409F50180819181A281B381F301B7
:1026400086AB97ABA0AFB1AF0DC064E871E0C60137
:102650000E94371A80ECF30186AB88EA87AB10AE94
:1026600081E081AFE114F104B9F062E871E0C601E4
:102670000E94371AF60101900020E9F73197AF0167
:102680004C195D0955274E5F5F4F460D571DB70129
:10269000C3010E94E40905C063E771E0C6010E941E
:1026A000371A01151105B1F061E771E0C6010E940A
:1026B000371AF60101900020E9F73197AF014C1964
:1026C0005D0955274E5F5F4F460D571DB801C30189
:1026D0000E94E409A60160E671E0C3010F90DF915A
:1026E000CF911F910F91FF90EF90DF90CF90BF900F
:1026F000AF909F908F907F906F900C949F1282E08C
:1027000001C081E00F90DF91CF911F910F91FF9059
:10271000EF90DF90CF90BF90AF909F908F907F9081
:102720006F900895EF92FF920F931F93E12CF12C7D
:1027300000E010E020E030E040E050E061E00E9486
:10274000BD121F910F91FF90EF900895AF92BF922D
:10275000CF92DF92EF92FF920F931F939B01A12CD8
:10276000B12CC12CD12CE12CF12C00E010E040E088
:1027700060E070E00E94FC0C1F910F91FF90EF90C1
:10278000DF90CF90BF90AF900895CF93DF93EC018F
:1027900066E074E00E94A61368EF73E0CE01DF915B
:1027A000CF910C94A613AF92BF92CF92DF92EF928B
:1027B0000F931F93CF93DF93EC016B015A011E2DF2
:1027C000213049F018F0223091F020C06AED73E01A
:1027D0000E94A6131BC0452B29F06EEB73E00E94EC
:1027E000A613BFC066EA73E00E94A613B6C0402FCE
:1027F00050E0A114B10429F06BE873E00E94E70EE9
:10280000B0C064E773E00E94E70EA7C0153038F44B
:10281000412F50E063E673E0CE010E94E70EA11461
:10282000B10431F0A50167E573E0CE010E949F126B
:10283000E8818E2F90E08531910508F096C0FC016B
:10284000EC5CFF4F0C94CE1822E533E0A60165E462
:1028500073E077C020E433E0A60163E373E071C066
:102860002EE233E0A60161E273E06BC02CE133E0BD
:10287000A6016FE073E065C02AE033E0A6016DEFCA
:1028800072E05FC028EF32E0A6016BEE72E059C043
:1028900026EE32E0A60169ED72E053C024ED32E08D
:1028A000A60167EC72E04DC022EC32E0A60165EBB8
:1028B00072E047C020EB32E0A60163EA72E041C05B
:1028C0002EE932E0A60161E972E03BC02CE832E07B
:1028D000A6016FE772E035C02AE732E0A6016DE697
:1028E00072E02FC028E632E0A6016BE572E029C055
:1028F00026E532E0A60169E472E023C024E432E078
:10290000A60167E372E01DC022E332E0A60165E2A2
:1029100072E017C020E232E0A60163E172E011C06C
:102920002DE032E0A60160E072E00BC02AEF31E05A
:10293000A6016DEE71E005C027EE31E0A6016AED5B
:1029400071E0CE01DF91CF911F910F91EF90DF9059
:10295000CF90BF90AF900C94E110153008F068CF85
:1029600057CF153008F05ECF53CF80E0DF91CF9185
:102970001F910F91EF90DF90CF90BF90AF9008958F
:10298000EF920F93EE24EA9400E00E94D3130F918C
:10299000EF900895CF93DF93EC010E94780A1EAA6E
:1029A0001FAA18AE19AE6AEC71E0CE01DF91CF918B
:1029B0000C94A613BF92CF92DF92EF92FF920F93E7
:1029C0001F93CF93DF93EC016A017B01B22E61E08C
:1029D00083E00E9430095B9A61E082E00E94300946
:1029E0005A9861E081E00E94300961E081E00E9434
:1029F0006C0960E080E00E94300961E080E00E94A4
:102A00006C091EAA1FAA18AE19AEFE01329680E309
:102A1000DF011D928A95E9F7CAAADBAAECAAFDAAF2
:102A2000B701A601CE010E94C309CE010E945D0A32
:102A30005A9865E0CE010E940E0A5A9A6BE0CE01C8
:102A40000E940E0A14E00FEF6CE186E193E00E9411
:102A500024060E9442086B017C010E944208DC01AE
:102A6000CB018C199D09AE09BF09883C9105A105D0
:102A7000B10508F586E193E00E94A505892B69F36D
:102A800086E193E00E94BF05853539F765E586E16B
:102A900093E00E9424066AE0CE010E940E0A6EE6D0
:102AA00086E193E00E9424066AE086E193E00E94BA
:102AB000240611E00EEF115039F664E1CE010E94B8
:102AC0000E0A13E0CE010E94290A60E474E0CE01F0
:102AD0000E94A61381110DC062E374E0CE010E9432
:102AE000A61366E274E0CE010E94A613B88200E04D
:102AF00009C06AE0CE010E940E0A115019F7CE01FA
:102B00000E946E0A802FDF91CF911F910F91FF904D
:102B1000EF90DF90CF90BF90089522E040E855E21B
:102B200060E070E00C94DA14CF92DF92EF92FF92A3
:102B30000F931F93CF93DF937C016A018B01C0E059
:102B4000D0E0CC15DD0589F0D701ED91FC91068C24
:102B5000F78DE02DC70109958F3FBFEF9B0729F047
:102B6000F80181938F012196ECCFCE01DF91CF91B7
:102B70001F910F91FF90EF90DF90CF9008950F93EA
:102B80001F93CF93DF93EC01E881F981048CF58DDD
:102B9000E02D09958C010115110551F0E881F981AD
:102BA000068CF78DE02DCE01099501501109F3CF68
:102BB000DF91CF911F910F9108950F931F93CF93A2
:102BC000DF938C01DC01ED91FC9106A0F7A1E02DD3
:102BD0000995EC01892B61F0D801ED91FC9106A0DB
:102BE000F7A1E02D62E574E0C8010995C80FD91F6F
:102BF000CE01DF91CF911F910F91089521E0FC014B
:102C000084818F3F09F420E0822F08950F931F9352
:102C1000CF93DF9300D01F92CDB7DEB7FC01848144
:102C20008B831A8219828F3F71F000E010E020E060
:102C300030E0AE014F5F5F4FBE016D5F7F4F8DECA7
:102C400093E00E94E70C89819A810F900F900F907A
:102C5000DF91CF911F910F910895EF92FF920F9303
:102C60001F93CF93DF9300D000D0CDB7DEB7FC0128
:102C700024812B832F3FB9F07C0101E010E09E01FD
:102C80002C5F3F4FAE014F5F5F4FBE016D5F7F4FC7
:102C90008DEC93E00E94E70C009729F0019631F447
:102CA0008FEFF70184838FEF9FEF02C08C8190E05C
:102CB0000F900F900F900F90DF91CF911F910F9178
:102CC000FF90EF9008951F93CF93DF93FC016481F1
:102CD0006F3FB1F0EC018DEC93E00E949A0C182F3D
:102CE000882319F08FEF8C830BC08E858A3050F0CB
:102CF0006C818DEC93E00E94F30E8FEF8C8303C008
:102D000010E001C011E0812FDF91CF911F91089554
:102D1000CF93DF93FC0124812F3F81F0EC010190E0
:102D2000F081E02D02A0F3A1E02D09956C818DECDE
:102D300093E00E94F30E8FEF8C831E86DF91CF917C
:102D40000895CF92DF92EF92FF920F931F93CF934C
:102D5000DF931F92CDB7DEB76983FC0164816F3FBB
:102D600001F16C01FC01E184F2848C010B5F1F4FC7
:102D700021E030E0AE014F5F5F4F8DEC93E00E94A9
:102D8000D311F601882381F086858F5F86878A308C
:102D900040F064818DEC93E00E94F30E8FEFF6011A
:102DA000848380E090E003C0168681E090E00F907D
:102DB000DF91CF911F910F91FF90EF90DF90CF9017
:102DC0000895CF92DF92EF92FF920F931F93CF93CC
:102DD000DF93DC011496EC91EF3FF1F0C52ED42E79
:102DE000AB01EC01E984FA848C010B5F1F4F2D2DA0
:102DF0003C2D6E2F8DEC93E00E94D311882379F047
:102E00008E858F5F8E878A3038F06C818DEC93E0F1
:102E10000E94F30E8FEF8C8380E090E003C01E864B
:102E20008D2D9C2DDF91CF911F910F91FF90EF90F1
:102E3000DF90CF900895EF92FF920F931F93CF935F
:102E4000DF93EC019C819F3FD1F07B0109851A85BE
:102E50009E012B5F3F4FAB01692F8DEC93E00E94E9
:102E60008A12882379F08E858F5F8E878A3038F0BA
:102E70006C818DEC93E00E94F30E8FEF8C8380E0E9
:102E800090E009C01E86F70101900020E9F7319714
:102E9000CF018E199F09DF91CF911F910F91FF9064
:102EA000EF900895EF92FF920F931F93CF93DF93CC
:102EB0007B01FC0164816F3F21F1EC0101851285EA
:102EC0009C012B5F3F4FA7018DEC93E00E94FE1009
:102ED000882369F08E858F5F8E878A3090F06C81B1
:102EE0008DEC93E00E94F30E8FEF8C830AC01E8658
:102EF000C701DF91CF911F910F91FF90EF900C943C
:102F0000421A80E090E0DF91CF911F910F91FF90E6
:102F1000EF900895FC01DB011382128282EE92E0B1
:102F2000918380838C91858311968C9111978683F0
:102F300012968C911297878313968C918087528773
:102F400041878FEF8483089522EE32E0FC013183C4
:102F500020830C948816FF920F931F93CF93DF93D7
:102F6000FC0124812F3F19F080E090E01BC0F62E79
:102F7000EC010385148521853285AC014B5F5F4FE1
:102F80008DEC93E00115110519F00E94071002C0A5
:102F90000E94AC108C838C818F3F31F3FD861E869E
:102FA00081E090E0DF91CF911F910F91FF90089504
:102FB00060E00C94AB1761E00C94AB1760E00C94EC
:102FC000AB1761E00C94AB17FC01DB018C9185839E
:102FD00011968C911197868312968C911297878304
:102FE00013968C9180875287418760E0CF010C94C3
:102FF000AB17FC01DB018C91858311968C911197A5
:10300000868312968C911297878313968C91808772
:103010005287418761E0CF010C94AB17FC01DB01C3
:103020008C91858311968C911197868312968C9141
:103030001297878313968C918087528741873487B4
:10304000238760E0CF010C94AB17FC01DB018C916E
:10305000858311968C911197868312968C91129785
:10306000878313968C918087528741873487238783
:1030700061E0CF010C94AB170F931F93CF93DF93B5
:10308000EC018A01AC014B5F5F4F8DEC93E00E9435
:103090009E0F81110AC01A87098760E0CE01DF9177
:1030A000CF911F910F910C94AB1780E090E0DF91CE
:1030B000CF911F910F9108950F931F93CF93DF939B
:1030C000EC018A01AC014B5F5F4F8DEC93E00E94F5
:1030D0009E0F81110AC01A87098761E0CE01DF9136
:1030E000CF911F910F910C94AB1780E090E0DF918E
:1030F000CF911F910F9108950895DB018F939F93B6
:103100000E94D418BF91AF91A29F800D911DA39FE3
:10311000900DB29F900D11240895A1E21A2EAA1BC2
:10312000BB1BFD010DC0AA1FBB1FEE1FFF1FA21777
:10313000B307E407F50720F0A21BB30BE40BF50B74
:10314000661F771F881F991F1A9469F760957095FD
:10315000809590959B01AC01BD01CF010895052E8E
:1031600097FB1EF400940E94C61857FD07D00E94DA
:103170008D1807FC03D04EF40C94C618509540955A
:10318000309521953F4F4F4F5F4F08959095809513
:10319000709561957F4F8F4F9F4F0895EE0FFF1FE2
:1031A0000590F491E02D09940E94DF18A59F900DE1
:1031B000B49F900DA49F800D911D11240895A29F8E
:1031C000B001B39FC001A39F700D811D1124911DFB
:1031D000B29F700D811D1124911D08950F931F93AF
:1031E000CF93DF93869F8001879F100D969F100DD0
:1031F0001124C8010E940A19EC01009729F0A801C6
:1032000060E070E00E944B1ACE01DF91CF911F91D8
:103210000F910895CF93DF938230910510F482E0EF
:1032200090E0E0911704F091180420E030E0C0E055
:10323000D0E0309711F14081518148175907C0F013
:103240004817590761F482819381209719F09B8375
:103250008A832BC0909318048093170426C02115ED
:10326000310519F04217530718F49A01BE01DF0126
:10327000EF010280F381E02DDCCF2115310509F14A
:10328000281B390B2430310590F412968D919C91B6
:1032900013976115710521F0FB019383828304C0AC
:1032A0009093180480931704FD01329644C0FD01E9
:1032B000E20FF31F81939193225031092D933C9398
:1032C0003AC02091150430911604232B41F420912B
:1032D00002013091030130931604209315042091CC
:1032E0000001309101012115310541F42DB73EB7A0
:1032F0004091040150910501241B350BE091150408
:10330000F0911604E217F307A0F42E1B3F0B2817C9
:10331000390778F0AC014E5F5F4F2417350748F04E
:103320004E0F5F1F509316044093150481939193A1
:1033300002C0E0E0F0E0CF01DF91CF9108950F935C
:103340001F93CF93DF93009709F48CC0FC01329751
:1033500013821282009117041091180401151105AF
:1033600081F420813181820F931F209115043091C7
:1033700016042817390779F5F0931604E09315041D
:1033800071C0D80140E050E0AE17BF0750F412966C
:103390002D913C911397AD012115310509F1D9010A
:1033A000F3CF9D01DA013383228360817181860F1F
:1033B000971F8217930769F4EC0128813981260F42
:1033C000371F2E5F3F4F318320838A819B819383F8
:1033D0008283452B29F4F0931804E093170442C02C
:1033E0001396FC93EE931297ED01499159919E012A
:1033F000240F351FE217F30771F480819181840F48
:10340000951F029611969C938E93828193811396B9
:103410009C938E931297E0E0F0E0D80112968D9184
:103420009C911397009719F0F8018C01F6CF8D91BC
:103430009C9198012E5F3F4F820F931F209115049E
:10344000309116042817390769F4309729F410923F
:1034500018041092170402C01382128210931604EB
:1034600000931504DF91CF911F910F910895FB01F7
:10347000DC010D900020E9F7119705900D920020D6
:10348000E1F70895FC0105900020E9F780959095FB
:103490008E0F9F1F0895DC0101C06D934150504075
:1034A000E0F70895FB01DC010D900020E9F711978A
:1034B00001900D920020E1F70895BB274A3031F4C6
:1034C000992322F4BDE2909581959F4F0C94691A3F
:1034D000BB27FB015527AA27880F991FAA1FA417EE
:1034E00010F0A41B83955051B9F7A05DAA3308F0E2
:1034F000A95DA193009779F7B111B1931192CB0116
:103500000C948D1CAEE0B0E0E8E8FAE10C94411DAB
:103510000D891E898EE08C831A8309838FEF9FE7C4
:103520009E838D83AE01475E5F4F6F89788DCE019C
:1035300001960E94A51A2F813885F801E20FF31F2A
:1035400010822E96E4E00C945D1DACE0B0E0EBEA56
:10355000FAE10C94331D7C016B018A01FC01178296
:103560001682838181FFBDC1CE0101964C01F70116
:103570009381F60193FD859193FF81916F018823DB
:1035800009F4ABC1853239F493FD859193FF8191A4
:103590006F01853229F4B70190E00E949D1CE7CFAE
:1035A000512C312C20E02032A0F48B3269F030F421
:1035B000803259F0833269F420612CC08D3239F0A9
:1035C000803339F4216026C02260246023C0286043
:1035D00021C027FD27C030ED380F3A3078F426FFA0
:1035E00006C0FAE05F9E300D1124532E13C08AE00E
:1035F000389E300D1124332E20620CC08E3221F4FF
:1036000026FD6BC1206406C08C3611F4206802C010
:10361000883641F4F60193FD859193FF81916F0106
:103620008111C1CF982F9F7D9554933028F40C5F62
:103630001F4FFFE3F9830DC0833631F0833771F0FC
:10364000833509F05BC022C0F801808189830E5F59
:103650001F4F44244394512C540115C03801F2E00B
:103660006F0E711CF801A080B18026FF03C0652D8C
:1036700070E002C06FEF7FEFC5012C870E94821CB3
:103680002C0183012C852F77222E17C03801F2E000
:103690006F0E711CF801A080B18026FF03C0652D5C
:1036A00070E002C06FEF7FEFC5012C870E94771C8E
:1036B0002C012C852068222E830123FC1BC0832D26
:1036C00090E048165906B0F4B70180E290E00E94FD
:1036D0009D1C3A94F4CFF50127FC859127FE81913A
:1036E0005F01B70190E00E949D1C31103A94F1E017
:1036F0004F1A51084114510471F7E5C0843611F096
:10370000893639F5F80127FF07C060817181828110
:1037100093810C5F1F4F08C060817181072E000CE0
:10372000880B990B0E5F1F4F2F76722E97FF09C0E3
:1037300090958095709561957F4F8F4F9F4F206832
:10374000722E2AE030E0A4010E94D51CA82EA818F1
:1037500044C0853729F42F7EB22E2AE030E025C000
:10376000F22FF97FBF2E8F36C1F018F4883579F02B
:10377000B4C0803719F0883721F0AFC02F2F2061F7
:10378000B22EB4FE0DC08B2D8460B82E09C024FF6C
:103790000AC09F2F9660B92E06C028E030E005C011
:1037A00020E130E002C020E132E0F801B7FE07C0BE
:1037B00060817181828193810C5F1F4F06C060819F
:1037C000718180E090E00E5F1F4FA4010E94D51C24
:1037D000A82EA818FB2DFF777F2E76FE0BC0372D65
:1037E0003E7FA51450F474FE0AC072FC08C0372D49
:1037F0003E7E05C0BA2C372D03C0BA2C01C0B52CB3
:1038000034FF0DC0FE01EA0DF11D8081803311F4FB
:10381000397E09C032FF06C0B394B39404C0832F2D
:10382000867809F0B39433FD13C030FF06C05A2CDC
:10383000B31418F4530C5B18B32CB31468F4B70129
:1038400080E290E03C870E949D1CB3943C85F5CFBC
:10385000B31410F43B1801C0312C34FF12C0B7016F
:1038600080E390E03C870E949D1C3C8532FF17C09E
:1038700031FD03C088E790E002C088E590E0B70121
:103880000CC0832F867859F031FF02C08BE201C053
:1038900080E237FD8DE2B70190E00E949D1CA514E7
:1038A00038F4B70180E390E00E949D1C5A94F7CF52
:1038B000AA94F401EA0DF11D8081B70190E00E9405
:1038C0009D1CA110F5CF332009F451CEB70180E241
:1038D00090E00E949D1C3A94F6CFF7018681978173
:1038E00002C08FEF9FEF2C96E2E10C944F1DFC017C
:1038F0000590615070400110D8F7809590958E0F1B
:103900009F1F0895FC016150704001900110D8F78D
:10391000809590958E0F9F1F0895DC01FC01672F05
:1039200071917723E1F7329704C07C916D93708396
:103930006291AE17BF07C8F308950F931F93CF93FB
:10394000DF93FB01238121FD03C08FEF9FEF28C090
:1039500022FF16C0468157812481358142175307C3
:1039600044F4A081B1819D012F5F3F4F31832083BB
:103970008C93268137812F5F3F4F3783268310C07A
:10398000EB01092F182F0084F185E02D0995892B73
:10399000E1F68E819F8101969F838E83812F902FE8
:1039A000DF91CF911F910F910895FA01AA27283036
:1039B00051F1203181F1E8946F936E7F6E5F7F4FFC
:1039C0008F4F9F4FAF4FB1E03ED0B4E03CD0670F78
:1039D000781F891F9A1FA11D680F791F8A1F911DCB
:1039E000A11D6A0F711D811D911DA11D20D009F41B
:1039F00068943F912AE0269F11243019305D31935D
:103A0000DEF6CF010895462F4770405D4193B3E045
:103A10000FD0C9F7F6CF462F4F70405D4A3318F0EC
:103A2000495D31FD4052419302D0A9F7EACFB4E09D
:103A3000A6959795879577956795BA95C9F7009755
:103A40006105710508959B01AC010A2E06945795F6
:103A5000479537952795BA95C9F7620F731F841F4D
:103A6000951FA01D08952F923F924F925F926F92E3
:103A70007F928F929F92AF92BF92CF92DF92EF92FE
:103A8000FF920F931F93CF93DF93CDB7DEB7CA1B7F
:103A9000DB0B0FB6F894DEBF0FBECDBF09942A88AA
:103AA000398848885F846E847D848C849B84AA8452
:103AB000B984C884DF80EE80FD800C811B81AA81DF
:103AC000B981CE0FD11D0FB6F894DEBF0FBECDBFAA
:083AD000ED010895F894FFCF09
:103AD800000019048000010000000000010002003D
:103AE800CD0004015401BA01E10140771B00E8034D
:103AF800000001FF000445737461626C69736857C4
:103B0800694669436F6E6E656374696F6E57697451
:103B180068526564466C79536869656C6428290045
:103B2800526564466C792E696E6974204552524F0D
:103B38005200313630343634343436323436383054
:103B4800333600574C414E2D4B6162656C0052650F
:103B580064466C792E6A6F696E204552524F520046
:103B6800526564466C792E626567696E20455252CB
:103B78004F52005769466920536869656C64206331
:103B88006F6E6E656374656400766F696420736533
:103B98007475702829004874747044617461547293
:103BA800616E736D6974696F6E0048747470205328
:103BB800656E6400474554202F76616C75656765AE
:103BC800742E706870003F6E616D653D0042616ED5
:103BD800616E650026747970653D0050726F7A6574
:103BE8006E7466657563687465002676616C7565C4
:103BF8003D00266B65793D6333373831363333669C
:103C080031666231646463613737633930333864ED
:103C1800343939343334350020485454502F312E38
:103C2800310D0A486F73743A20003139322E31361B
:103C3800382E3137382E3234000D0A0D0A005472EE
:103C4800616E736D697373696F6E207375636365F5
:103C58007373005048502053657276657220756EF4
:103C6800617661696C61626C650053656E644D6F65
:103C780069737475726550657263656E74616765A2
:103C880056616C7565546F44617461626173650057
:103C98000000000024065F07A505BF05B105020660
:103CA8006E616E00696E66006F7666002E00000019
:103CB8000000A116E116D817DB17DE17E117E41785
:103CC800F9170E1825183C185C186316881606167E
:0E3CD8002D169415BF151B175217DD15FE157E
:00000001FF
