:100000000C942D020C9455020C9455020C9455023C
:100010000C9455020C9455020C9455020C94550204
:100020000C9455020C9455020C9455020C945502F4
:100030000C9455020C9455020C9455020C945502E4
:100040000C942B090C9455020C9403080C9435085D
:100050000C9455020C9455020C9455020C945502C4
:100060000C9455020C94550246154C155215581512
:100070005E1564156A15701576157C158215881540
:100080008E1594159A15A015A615AC15B215B815B0
:10009000BE15000000080002010000030407000074
:1000A000000000000000010204081020408001024E
:1000B00004081020010204081020040404040404AD
:1000C000040402020202020203030303030300000A
:1000D0000000250028002B0000000000240027005D
:1000E0002A0025750025692E25692E25692E25698A
:1000F0000041542B5253495F534E443D002C002C79
:1001000030002C002C30002C002C0041542B52537A
:10011000495F534E443D002C002C30002C002C3005
:10012000002C002C0041542B5253495F434C533D4B
:100130000041542B5253495F5544503D0041542BCC
:100140005253495F5443503D0041542B5253495F31
:10015000204D554C5449434153543D002C002C0034
:1001600041542B5253495F4950434F4E463D302C2A
:10017000002C002C3235352E3235352E3235352EC9
:1001800030002C003139322E3136382E302E3100ED
:1001900041542B5253495F444E5353455256455296
:1001A0003D0041542B5253495F4950434F4E463D09
:1001B000312C302C300041542B5253495F4950436D
:1001C0004F4E463D322C302C300041542B52534977
:1001D0005F4449534153534F430041542B525349B9
:1001E0005F4A4F494E3D002C31322C320041542B96
:1001F0005253495F4A4F494E3D002C31322C310059
:1002000041542B5253495F4A4F494E3D002C3132E5
:100210002C300041542B5253495F4A4F494E3D0008
:100220002C392C320041542B5253495F4A4F494ECE
:100230003D002C392C310041542B5253495F4A4F19
:10024000494E3D002C392C300041542B5253495F0C
:100250004A4F494E3D002C372C320041542B52530B
:10026000495F4A4F494E3D002C372C310041542BF9
:100270005253495F4A4F494E3D002C372C300041C4
:10028000542B5253495F4A4F494E3D002C342C3277
:100290000041542B5253495F4A4F494E3D002C3484
:1002A0002C310041542B5253495F4A4F494E3D0077
:1002B0002C342C300041542B5253495F4A4F494E45
:1002C0003D002C322C320041542B5253495F4A4F8F
:1002D000494E3D002C322C310041542B5253495F82
:1002E0004A4F494E3D002C322C300041542B525382
:1002F000495F4A4F494E3D002C312C320041542B6E
:100300005253495F4A4F494E3D002C312C31004138
:10031000542B5253495F4A4F494E3D002C312C30EB
:100320000041542B5253495F4A4F494E3D002C30F7
:100330002C320041542B5253495F4A4F494E3D00E5
:100340002C302C310041542B5253495F4A4F494EB7
:100350003D002C302C300041542B5253495F5053F8
:100360004B3D0041542B5253495F415554484D4F2A
:1003700044453D0041542B5253495F4E4554574F1D
:10038000524B3D494253532C312C0041542B525374
:10039000495F4E4554574F524B3D494253535F536B
:1003A00045432C312C0041542B5253495F4E455448
:1003B000574F524B3D494253532C302C300041543F
:1003C0002B5253495F4E4554574F524B3D49425370
:1003D000535F5345432C302C300041542B5253492A
:1003E0005F4E4554574F524B3D494E465241535430
:1003F000525543545552450041542B5253495F5373
:1004000043414E3D300041542B5253495F4E554DB0
:100410005343414E3D300041542B5253495F444EAB
:10042000534745543D0041542B5253495F494E496F
:10043000540041542B5253495F42414E443D3000D9
:1004400041542B5253495F465756455253494F4EDC
:100450003F000D0A0000B806650811241FBECFEF4B
:10046000D8E0DEBFCDBF13E0A0E0B1E0E0E5FDE302
:1004700002C005900D92A035B107D9F724E0A0E5A0
:10048000B3E001C01D92AB35B207E1F712E0CDE257
:10049000D2E004C02197FE010E94F019CB32D107AF
:1004A000C9F70E94A9060C94A61E0C94000008959A
:1004B000CF93DF93EC018FE094E00E94900BBE019C
:1004C00088E593E00E94D2088FE094E0DF91CF911D
:1004D0000C947F0BCF93DF93EC018FE094E00E94AC
:1004E000900BBE0188E593E00E94D8088FE094E06D
:1004F000DF91CF910C947F0B1F93CF93DF9386E214
:1005000091E00E946A028FE094E00E94AF16182FDB
:10051000C3E3D0E0112369F0219709F449C08FE0CB
:1005200094E00E94AF16182F80E591E00E946A02C5
:10053000F1CF8FE094E00E94E71420E042E651E022
:1005400063E771E08FE094E00E94E215182FC3E3A7
:10055000D0E0112389F0219759F120E042E651E0E3
:1005600063E771E08FE094E00E94E215182F8EE7B8
:1005700091E00E946A02EDCF8FE094E00E94B414F3
:10058000182FC3E3D0E0112361F0219789F08FE0A9
:1005900094E00E94B414182F80E991E00E946A024E
:1005A000F2CF83EA91E0DF91CF911F910C946A0220
:1005B000DF91CF911F9108954F925F926F927F923A
:1005C0008F929F92AF92BF92CF92DF92EF92FF9263
:1005D0000F931F93CF93DF93CDB7DEB7C154D140B4
:1005E0000FB6F894DEBF0FBECDBF7C010E94750927
:1005F0002B013C0189EB91E00E946A02C301B20128
:10060000812C912C00E010E09E012F5F3F4F69018B
:1006100025E1A22EDC01CB0184199509A609B709B1
:10062000813C944DA140B10508F05AC08114910459
:1006300009F056C0C7010E942817892B91F0C70105
:100640000E944F178F3F3FEF930759F00B3221E085
:100650001207A8F7F601E00FF11F80830F5F1F4F0D
:10066000EECF0115110599F1C7010E94851781117F
:100670002EC0C7010E94AA178FE094E00E94EC15DB
:10068000F601E00FF11F1082C6010E945802EBEE46
:10069000F1E0DE01A35DBE4F8A2D01900D928A9597
:1006A000E1F7BE01635D7E4FC6010E947F1B8C197E
:1006B0009D0997FD0FC0CE01835D9E4F0E946A0287
:1006C000BB24B39482E0882E912C00E010E00E94BD
:1006D0007509A0CF87EC91E00E946A02B12CF2CF9D
:1006E0008BED91E00E946A02C7010E94E1168B2DFA
:1006F000CF5BDE4F0FB6F894DEBF0FBECDBFDF91EC
:10070000CF911F910F91FF90EF90DF90CF90BF900E
:10071000AF909F908F907F906F905F904F900895D3
:100720000F931F93CF93DF93EC0161E070E085E0BE
:1007300090E00E94101A8C014AE0BC01CE010E9498
:10074000991BF80101900020E9F7CF01801B910B64
:1007500061E070E082589F4F0E94101AEC0160E047
:1007600072E00E94741B63E172E0CE010E94741B70
:100770006AE172E0CE010E94741B6FE172E0CE016B
:100780000E94741B66E272E0CE010E94741B65E356
:1007900072E0CE010E94741BB801CE010E94741B4E
:1007A0006DE372E0CE010E94741B62E672E0CE013E
:1007B0000E94741B64E772E0CE010E94741B63E820
:1007C00072E0CE010E94741BCE01DF91CF911F9188
:1007D0000F910895CF92DF92EF92FF920F931F93A4
:1007E000CF93DF93CDB7DEB72F970FB6F894DEBF68
:1007F0000FBECDBF7C018B016A0188E892E00E94A8
:100800006A02C7010E9490037C0140E550E0B601F6
:10081000C8010E940619892B89F188E992E00E949B
:100820006A02B701C8010E94D208F801828193814F
:100830009C838B8383E293E09A83898384818D8375
:1008400085819681A781B0858E839F83A887B9878C
:10085000818592859B878A87838594859D878C87F0
:1008600085858E8786858F87CE0101960E94DC0262
:10087000182FCE0101960E94C61807C082EA92E0A6
:100880000E946A020E947C0210E0C7010E94C11A05
:10089000812F2F960FB6F894DEBF0FBECDBFDF912C
:1008A000CF911F910F91FF90EF90DF90CF9008951F
:1008B000AF92BF92CF92DF92EF92FF921F93CF93AE
:1008C000DF93CDB7DEB7A2970FB6F894DEBF0FBEA9
:1008D000CDBF6C0180EC8F8F88EA88A382EB89A35F
:1008E00088E18AA340E550E0BE01615E7F4FCE0102
:1008F00040960E94AC18EE24E394F12C93E2A92ECA
:1009000093E0B92E85EB92E00E946A028FEFE81A1D
:10091000F80A8A899B899C838B83BA82A9828C89F5
:100920008D838D899E89AF89B88D8E839F83A8879B
:10093000B987898D9A8D9B878A878B8D9C8D9D87A2
:100940008C878D8D8E878E8D8F87AE01415E5F4F38
:10095000BE016F5F7F4FC6010E94EA03811105C08F
:1009600011E084E0E816F1040CF010E0CE010196ED
:100970000E94C6181111C6CFCE0140960E94C6181B
:10098000A2960FB6F894DEBF0FBECDBFDF91CF9118
:100990001F91FF90EF90DF90CF90BF90AF900895A0
:1009A00026E040E855E260E070E088E593E00E94D0
:1009B0009E078EEC92E00E946A0261E087E00E944E
:1009C000630A61E085E00E94630A61E08DE00E94B5
:1009D000630A61E08BE00E94630A61E087E00E94A5
:1009E0009F0A60E971E080E090E00E94A60960E063
:1009F00087E00E949F0A0C947C02CF92DF92EF92D4
:100A0000FF920E947509C0905403D0905503E09066
:100A10005603F0905703DC01CB018C199D09AE09F8
:100A2000BF0921E0C0901A01D0901B01E0901C0189
:100A3000F0901D018C159D05AE05BF0508F420E062
:100A4000822FFF90EF90DF90CF90089540910C019E
:100A500050910D01FA01EE0FFF1FE05FFE4F208164
:100A60003181281739074CF080910A0190910B01D0
:100A70009093510380935003089520910E0130917B
:100A80000F01F901EE0FFF1FE05FFE4F60817181E2
:100A9000681779072CF05093510340935003089541
:100AA000309351032093500308956F927F92AF9239
:100AB000BF92CF92DF92EF92FF920F931F932091FC
:100AC0001001309111016090120170901301A091FA
:100AD0001401B0911501E0911601F09117014091B8
:100AE0001801509119018217930734F08C014817AF
:100AF00059071CF48A0101C08901B801012E000CBC
:100B0000880B990B601671068CF07301770C000B43
:100B1000110B032E000C440B550B1F921F921F92BA
:100B2000E4E1EF93A12CB12C650147C0A017B107F8
:100B3000B4F07D01BB0F000B110B93012F5F3F4FF2
:100B4000032E000C440B550B1F921F921F92E8E2DC
:100B5000EF93A5E1AA2EB12CC12CD12C2EC0E01709
:100B6000F107B4F07F01FF0F000B110B9D012F5F08
:100B70003F4F032E000C440B550B1F921F921F92E8
:100B8000E0E5EF93F9E2AF2EB12CC12CD12C15C0CA
:100B90007A01550F000B110B9F012F5F3F4F032E62
:100BA000000C440B550B1F921F921F92E4E6EF932B
:100BB000E1E5AE2EB12CC12CD12C0E94EA080F9099
:100BC0000F900F900F901F910F91FF90EF90DF907B
:100BD000CF90BF90AF907F906F900895CF92DF92AB
:100BE000EF92FF9261E08DE00E949F0A61E085E054
:100BF0000E949F0A0E9475096B017C01DC01CB01F8
:100C00008C199D09AE09BF0940911E0150911F0129
:100C1000609120017091210184179507A607B707FD
:100C200018F40E947509EACF84E00E941D0A90938F
:100C300053038093520360E085E00E949F0A60E0C6
:100C40008DE00E949F0A8091520390915303FF9080
:100C5000EF90DF90CF900C942605882361F00E94DE
:100C600075096093540370935503809356039093D2
:100C700057030C94EE050895029710F461E001C04B
:100C800060E087E00C949F0ACF92DF92EF92FF9290
:100C90000E9475096B017C01DC01CB018C199D0957
:100CA000AE09BF0980319742A105B105A0F420919A
:100CB00050033091510380910E0190910F0128173C
:100CC000390749F061E08BE00E949F0A0E94EE051F
:100CD0000E947509E1CF60E08BE0FF90EF90DF901C
:100CE000CF900C949F0A892B11F40C94440660E079
:100CF0008BE00C949F0ACF93DF93882369F0EB017C
:100D00008BED92E00E946A02CE010E945505CB0154
:100D1000DF91CF910C945804DF91CF910895CF9338
:100D20000E94FD04C82F0E942D06809150039091CF
:100D300051030E943C0680915003909151030E9400
:100D4000730660915203709153038C2FCF910C94D2
:100D50007B060E94E2090E9457020E94D004C6E06E
:100D6000D7E00E948F062097E1F30E940607F9CF93
:100D700080911A0190911B01A0911C01B0911D015D
:100D8000B095A095909581959F4FAF4FBF4F8093A1
:100D9000540390935503A0935603B0935703809147
:100DA0000E0190910F019093510380935003089589
:100DB000FC01918D228D892F90E0805C9F4F821BDA
:100DC00091098F7399270895FC01918D828D981751
:100DD00031F0828DE80FF11D858D90E008958FEF41
:100DE0009FEF0895FC01918D828D981761F0828D9F
:100DF000DF01A80FB11D5D968C91928D9F5F9F734F
:100E0000928F90E008958FEF9FEF08958BE598E023
:100E1000892B49F080E090E0892B29F00E945B0843
:100E200081110C9400000895FC01848DDF01A80F4E
:100E3000B11DA35ABF4F2C91848D90E001968F7302
:100E40009927848FA689B7892C93A089B1898C9121
:100E500080648C93938D848D981306C00288F389E7
:100E6000E02D80818F7D80830895CF93DF93EC0107
:100E7000888D8823C9F0EA89FB89808185FD05C0BA
:100E8000A889B9898C9186FD0FC00FB607FCF5CFF4
:100E9000808185FFF2CFA889B9898C9185FFEDCF3C
:100EA000CE010E941407E7CFDF91CF910895EF9212
:100EB000FF920F931F93CF93DF93EC0181E0888F14
:100EC0009B8D8C8D981305C0E889F989808185FDFB
:100ED00024C0F62E0B8D10E00F5F1F4F0F731127EC
:100EE000E02E8C8DE8120CC00FB607FCFACFE88913
:100EF000F989808185FFF5CFCE010E941407F1CFDB
:100F00008B8DFE01E80FF11DE35AFF4FF0820B8F2E
:100F1000EA89FB898081806207C0EE89FF8960834E
:100F2000E889F98980818064808381E090E0DF91A5
:100F3000CF911F910F91FF90EF900895CF92DF9284
:100F4000EF92FF921F93CF93DF93EC016A017B0135
:100F5000122FE889F98982E080834115514E61059D
:100F60007105B1F060E079E08DE390E0A7019601B2
:100F70000E94AF19DA01C9010197A109B109B6951B
:100F8000A79597958795AC01411580E15807A8F082
:100F9000E889F989108260E874E88EE190E0A701A1
:100FA00096010E94AF19BA01A90141505109610986
:100FB00071097695679557954795EC85FD85508322
:100FC000EE85FF854083188EEC89FD891083EA89C0
:100FD000FB89808180618083EA89FB8980818860C8
:100FE0008083EA89FB89808180688083EA89FB8924
:100FF00080818F7D8083DF91CF911F91FF90EF9053
:10100000DF90CF9008951F920F920FB60F92112488
:101010002F938F939F93EF93FF93E0916803F09149
:1010200069038081E0916E03F0916F0382FD12C02D
:101030009081809171038F5F8F732091720382176B
:1010400051F0E0917103F0E0E85AFC4F958F8093E6
:10105000710301C08081FF91EF919F918F912F913A
:101060000F900FBE0F901F9018951F920F920FB602
:101070000F9211242F933F934F935F936F937F931E
:101080008F939F93AF93BF93EF93FF9388E593E084
:101090000E941407FF91EF91BF91AF919F918F91A3
:1010A0007F916F915F914F913F912F910F900FBE64
:1010B0000F901F90189588E593E00E94D80621E0D4
:1010C000892B09F420E0822F0895E8E5F3E01382EC
:1010D000128288EE93E0A0E0B0E084839583A6833B
:1010E000B78385E093E09183808385EC90E09587DA
:1010F000848784EC90E09787868780EC90E0918BE2
:10110000808B81EC90E0938B828B82EC90E0958BCE
:10111000848B86EC90E0978B868B118E128E138ECB
:10112000148E0895CF92DF92EF92FF920F931F9348
:10113000CF93DF936C017A018B01C0E0D0E0CE1534
:10114000DF0589F0D8016D918D01D601ED91FC91FB
:101150000190F081E02DC6010995892B11F47E01E3
:1011600002C02196ECCFC701DF91CF911F910F9163
:10117000FF90EF90DF90CF9008956115710579F0A1
:10118000FB0101900020E9F73197AF01461B570B97
:10119000DC01ED91FC910280F381E02D099480E067
:1011A00090E008950C94BD0865E872E00C94BD08C9
:1011B0000F931F93CF93DF93EC010E94BD088C0126
:1011C000CE010E94D408800F911FDF91CF911F9113
:1011D0000F9108954F925F926F927F92AF92BF925C
:1011E000CF92DF92EF92FF920F931F93CF93DF93F3
:1011F000CDB7DEB729013A019B01AC0124193509AD
:101200004609570989899A89AB89BC89BC01CD01F6
:101210006A197B098C099D090E949F19A8019701F1
:1012200024193509460957090E94D119CA01B90183
:101230006A0D7B1D8C1D9D1DDF91CF911F910F911C
:10124000FF90EF90DF90CF90BF90AF907F906F9026
:101250005F904F9008951F920F920FB60F92112436
:101260002F933F938F939F93AF93BF938091F603F8
:101270009091F703A091F803B091F9033091F50331
:1012800023E0230F2D3720F40196A11DB11D05C0C9
:1012900026E8230F0296A11DB11D2093F50380932C
:1012A000F6039093F703A093F803B093F9038091AA
:1012B000FA039091FB03A091FC03B091FD0301960A
:1012C000A11DB11D8093FA039093FB03A093FC032F
:1012D000B093FD03BF91AF919F918F913F912F915B
:1012E0000F900FBE0F901F9018952FB7F894609134
:1012F000F6037091F7038091F8039091F9032FBFE3
:1013000008953FB7F8948091FA039091FB03A09160
:10131000FC03B091FD0326B5A89B05C02F3F19F033
:101320000196A11DB11D3FBFBA2FA92F982F882765
:10133000820F911DA11DB11DBC01CD0142E0660FC0
:10134000771F881F991F4A95D1F708958F929F9212
:10135000AF92BF92CF92DF92EF92FF926B017C012E
:101360000E9481094B015C01C114D104E104F10424
:1013700001F10E949E190E948109DC01CB018819AC
:101380009909AA09BB09883E9340A105B10560F3FC
:1013900021E0C21AD108E108F10888EE880E83E046
:1013A000981EA11CB11CC114D104E104F10419F769
:1013B000DBCFFF90EF90DF90CF90BF90AF909F90EA
:1013C0008F900895789484B5826084BD84B58160DF
:1013D00084BD85B5826085BD85B5816085BDEEE63D
:1013E000F0E0808181608083E1E8F0E0108280811C
:1013F00082608083808181608083E0E8F0E080818A
:1014000081608083E1EBF0E0808184608083E0EBA9
:10141000F0E0808181608083EAE7F0E08081846091
:1014200080838081826080838081816080838081ED
:10143000806880831092C10008958E3008F08E502D
:1014400087702091220190E4299F90011124822B22
:1014500080937C0080917A00806480937A008091F0
:101460007A0086FDFCCF809178002091790090E091
:10147000922B0895833081F028F4813099F08230E6
:10148000A1F008958730A9F08830B9F08430D1F404
:10149000809180008F7D03C0809180008F77809342
:1014A0008000089584B58F7702C084B58F7D84BD98
:1014B00008958091B0008F7703C08091B0008F7D38
:1014C0008093B0000895CF93DF9390E0FC01EA553C
:1014D000FF4F2491FC01E654FF4F8491882361F172
:1014E00090E0880F991FFC01E852FF4FC591D491FD
:1014F000FC01E253FF4FA591B491611109C09FB760
:10150000F8948881209582238883EC912E230BC048
:10151000623061F49FB7F8943881822F80958323DD
:101520008883EC912E2B2C939FBF06C08FB7F89425
:10153000E8812E2B28838FBFDF91CF9108951F93D1
:10154000CF93DF93282F30E0F901EE56FF4F8491BF
:10155000F901EA55FF4FD491F901E654FF4FC491C8
:10156000CC23C9F0162F81110E943A0AEC2FF0E02B
:10157000EE0FFF1FE253FF4FA591B4918FB7F89480
:10158000111105C09C91ED2FE095E92302C0EC916B
:10159000ED2BEC938FBFDF91CF911F910895DC016C
:1015A000DA9620E030E04C91461307C0220F331F3B
:1015B000FC01E20FF31F83AD08952F5F3F4F12969A
:1015C0002730310581F78FEF0895403885E25807BD
:1015D0006105710560F0413080E4580788E36807D1
:1015E000710548F040E050E468E370E004C040E872
:1015F00055E260E070E026E088E593E00E949E07F7
:101600008091C20088608093C2000895CF93DF93D9
:1016100000D0CDB7DEB7FB0183811F928F9382810B
:101620001F928F9381811F928F9380811F928F933E
:1016300085EE90E09F938F935F934F9349835A83F6
:101640000E94BE1B0FB6F894DEBF0FBECDBF49810E
:10165000842F5A81952F0F900F90DF91CF9108958D
:10166000662341F08FE39CE90197F1F700C0000089
:101670006150F6CF089588E593E00E94D806892B43
:10168000D1F388E593E00E94F206089588E593E09F
:101690000E94F2060895CF92DF92EF92FF92CF93CD
:1016A000DF93EC0188E593E00E9435070E947509FD
:1016B0006B017C018091C00087FF11C00E947509F9
:1016C000AB01BC014C195D096E097F09423351051C
:1016D0006105710550F4CE010E94460BEBCF88E501
:1016E00093E00E94D806892B49F761E0CE01DF9193
:1016F000CF91FF90EF90DF90CF900C94300BCF9371
:10170000DF93EC010E944B0B4AA95BA96CA97DA950
:10171000CE010E94E50A19825B98DF91CF9108956E
:10172000CF93DF93EC010E944B0B19825B9ADF9100
:10173000CF910895FC011182FB96AC01475B5F4F8E
:101740002FEFDF0111972C9320833296E417F507D2
:10175000C1F70C944B0B0F931F93CF93DF938C0126
:1017600088E593E00E94350788E593E00E94D8065B
:10177000EC01209729F0C8010E94460B2197F9CF70
:10178000DF91CF911F910F9108952F923F924F9229
:101790005F926F927F928F929F92AF92BF92CF9201
:1017A000DF92EF92FF920F931F93CF93DF93CDB70A
:1017B000DEB727970FB6F894DEBF0FBECDBF9F836D
:1017C0008E834B012A0159013801FA82E982FC011A
:1017D00081818230C9F4FB0180818F3F21F090919B
:1017E000230189130EC0C114D10471F48091230127
:1017F000F401808380910D0490910E04F201918395
:10180000808380E090E09FC100E010E02E813F8166
:10181000265C3F4F3C832B8333243A9452E0252EA1
:10182000EE81FF8181818130E1F018F0823029F171
:10183000DAC021E0EE81FF812183309223011092F2
:101840000E0410920D0410920C0410920B041092CE
:101850000A041092060410920704109208041092D1
:10186000090480910C04883068F588E593E00E94B3
:10187000D806892B09F02DC125C08E819F810E9439
:101880003B0BE981FA818083F1E0CF1AD1080F5F29
:101890001F4F80910D0490910E04019790930E04B8
:1018A00080930D04892B09F09AC08E819F810E943C
:1018B0003B0B8E819F810E943B0BEE81FF81118249
:1018C00021E092C080910C04883008F48CC07091A3
:1018D000FE036091FF035091000440910104309198
:1018E0000204209103049091040480910504723550
:1018F00009F094C0633509F0DAC0593409F0D7C053
:101900004F3509F0D4C0323509F0D1C0253409F083
:10191000CEC0913409F0CBC0843409F0C8C08E81A8
:101920009F810E943B0B809323018E819F810E94A7
:101930003B0B90E090930E0480930D048E819F8169
:101940000E943B0B20910D0430910E04A901582BED
:10195000CA0150930E0440930D0460912301EE815F
:10196000FF816F3F09F44DC0892B09F44AC02182E1
:10197000CF010E94CF0A813071F58E819F810E9434
:101980003B0B809306048E819F810E943B0B8093CA
:1019900007048E819F810E943B0B809308048E81F7
:1019A0009F810E943B0B809309048E819F810E943E
:1019B0003B0B90E090930B0480930A048E819F81EF
:1019C0000E943B0B20910A0430910B04382B30937A
:1019D0000B0420930A04F40180818F3FD1F421E0AD
:1019E000C114D10409F020E088E593E02D830E9422
:1019F000D8062D81892B09F47CC0222309F410CF4D
:101A000078C011823092230110920E0410920D04BE
:101A1000EACF90912301891711F3F3CE733509F0C2
:101A200046C0693409F043C05F3509F040C0433413
:101A3000F1F53C34E1F52F34D1F59335C1F585341A
:101A4000B1F58E819F810E943B0B809323018E8193
:101A50009F810E943B0B8E819F810E943B0B1092C5
:101A60000E0410920D04EE81FF811182209123015A
:101A7000EB81FC8180E090E03081321310C0FC01EA
:101A80007D96EE0FFF1F2E813F81E20FF31F308204
:101A9000880F991FF901E80FF91F33AE05C00196B1
:101AA00032968730910541F70FEF1FEF09CF77E0AE
:101AB00070930C046093FE035093FF034093000463
:101AC0003093010420930204909303048093040450
:101AD0008ACFE0900C0481E08E0D80930C04F12CF1
:101AE00088E593E00E94F206F701E250FC4F808304
:101AF000B8CE80912301F401808380910D049091F0
:101B00000E04F20191838083A114B10479F08091D5
:101B10000604882359F0F5018083809107048183AE
:101B20008091080482838091090483836114710485
:101B300049F080910A0490910B04009719F0F30189
:101B400091838083C80127960FB6F894DEBF0FBE3D
:101B5000CDBFDF91CF911F910F91FF90EF90DF905C
:101B6000CF90BF90AF909F908F907F906F905F903D
:101B70004F903F902F9008959F92AF92BF92CF9237
:101B8000DF92EF92FF920F931F93CF93DF9300D0DA
:101B90001F92CDB7DEB75C01962E88E593E00E94D8
:101BA000D806892BA9F08FEF8B831A821982C12C5A
:101BB000D12CE12CF12C00E010E020E030E0AE016F
:101BC0004F5F5F4FBE016D5F7F4FC5010E94C50B28
:101BD0008FEF981661F0F501FA9688E4A80EB11C13
:101BE0008081891531F03296EA15FB05C9F781E04D
:101BF00001C080E00F900F900F90DF91CF911F9167
:101C00000F91FF90EF90DF90CF90BF90AF909F909B
:101C10000895CF92DF92EF92FF920F931F93680186
:101C2000790100E010E020E030E00E94C50B1F9138
:101C30000F91FF90EF90DF90CF9008952F923F92F9
:101C40004F925F926F927F928F929F92AF92BF92CC
:101C5000CF92DF92EF92FF920F931F93CF93DF9378
:101C6000CDB7DEB72E970FB6F894DEBF0FBECDBF4F
:101C70002C013B014A873C872B871E870D87170164
:101C80004601FC018181823009F44CC188E593E072
:101C90000E94D806892BD1F08FEF89871A8219828A
:101CA000C12CD12CE12CF12C00E010E020E030E040
:101CB000AE014F5F5F4FBE01675F7F4FC2010E9461
:101CC000C50B89819A81892B09F02CC1EB85FC8594
:101CD00064918F010F5F1F4F662339F088E593E011
:101CE0000E945707F8016491F5CF8D859E85892B59
:101CF00039F42114310441F181010F5F1F4F20C0DD
:101D00000D851E85F80161918F01662391F388E5A9
:101D100093E00E945707F6CF6D3009F010C1F8012B
:101D200084918A3009F00BC16BED88E593E00E9445
:101D300057076CED88E593E00E9457070E5F1F4F31
:101D4000F10164916111F0C0A114B104F1F4C20178
:101D50000E94AB0B6DE088E593E00E9457076AE0B4
:101D600088E593E00E945707FA85F1117EC0198239
:101D70001E820E9475094B015C0130E1C32E37E2DF
:101D8000D32EE12CF12C10E040C0F40160816B3DBA
:101D900081F488E593E00E9457076DED88E593E0B4
:101DA0000E945707FFEF8F1A9F0A81E0A81AB10817
:101DB000CBCF6D30C9F4F40181818A30A9F4F2E00F
:101DC000AF16B10488F06BED88E593E00E945707E9
:101DD0006CED88E593E00E94570782E0880E911C25
:101DE00092E0A91AB108B0CFEFEF8E1A9E0A88E5EB
:101DF00093E00E945707F1E0AF1AB108A5CF88E53C
:101E000093E00E94D806892B71F40E947509DC01C9
:101E1000CB0188199909AA09BB098C159D05AE0546
:101E2000BF0568F36BC088E593E00E94F2061830A6
:101E300080F401E0010FE1E0F0E0EC0FFD1FE10FA5
:101E4000F11D808389818F3429F0853419F000E0F9
:101E500001C0012F0E9475094B015C0123E0C22ED5
:101E6000D12CE12CF12C102FD0CFF3011082158250
:101E70000E9475096B017C0190E1892E97E2992EF1
:101E8000A12CB12C10E00E947509DC01CB018C194A
:101E90009D09AE09BF0988159905AA05BB0538F546
:101EA00088E593E00E94D806892B69F388E593E0E2
:101EB0000E94F206FA851F1770F401E0010FF3018A
:101EC000E10FF11D8083F30180818F3429F0853487
:101ED00019F000E001C0012F0E9475096B017C011F
:101EE00083E0882E912CA12CB12C102FCCCFF301A4
:101EF0008081898381818A8385818E8389818F34E2
:101F000039F481E09A819B3409F480E081951FC007
:101F1000853441F48A81823529F48E81882311F039
:101F20008D30A9F48FEF13C0C80101961C016B3DE1
:101F300009F0F2CE88E593E00E9457076DED88E541
:101F400093E00E945707F80164918101FBCE2E9621
:101F50000FB6F894DEBF0FBECDBFDF91CF911F91BA
:101F60000F91FF90EF90DF90CF90BF90AF909F9038
:101F70008F907F906F905F904F903F902F9008953B
:101F80005F926F927F928F929F92AF92BF92CF9209
:101F9000DF92EF92FF920F931F93CF93DF93CDB712
:101FA000DEB72A970FB6F894DEBF0FBECDBF4C0147
:101FB0003B01542EC8014AE0BE016F5F7F4F298765
:101FC0003A870E94991BA12CB12CC12CD12CE12C59
:101FD000F12C8E010F5F1F4F29853A85452DB301E6
:101FE000C4010E941E0E2A960FB6F894DEBF0FBEE3
:101FF000CDBFDF91CF911F910F91FF90EF90DF90B8
:10200000CF90BF90AF909F908F907F906F905F9098
:1020100008950F931F939B018A0140E060E070E0F8
:102020000E94C00F1F910F9108958F929F92AF92BF
:10203000BF92CF92DF92EF92FF920F931F93CF93B5
:10204000DF93CDB7DEB72B970FB6F894DEBF0FBE88
:10205000CDBF5C01962E88248A9488E593E00E9487
:10206000D806892B81F18B861A861986C12CD12C32
:10207000E12CF12C00E010E020E030E0AE01475F01
:102080005F4FBE01655F7F4FC5010E94C50B8B8509
:10209000891119C089859A85892BF9F29B8628E0D8
:1020A000C22ED12CCE0101967C0100E010E020E090
:1020B00030E0AE01475F5F4FBE01655F7F4FC501F6
:1020C0000E94C50BE7CF9FEF991202C080E02CC0A1
:1020D000F501FA9620E030E0808189111EC0F901F7
:1020E0007D96EE0FFF1FEA0DFB1D8FEF8083220F01
:1020F000331FF501E20FF31F83AF13E0892C912CFE
:10210000A40165E271E0C5010E9409108823F1F283
:102110008E3FE1F21150A1F707C02F5F3F4F32967B
:1021200027303105C9F6D2CF2B960FB6F894DEBF13
:102130000FBECDBFDF91CF911F910F91FF90EF9018
:10214000DF90CF90BF90AF909F908F900895AF9207
:10215000BF92CF92DF92EF92FF920F931F9357019E
:102160006801E12CF12C00E010E00E941E0E1F918E
:102170000F91FF90EF90DF90CF90BF90AF900895B8
:102180006F927F928F929F92AF92BF92CF92DF9287
:10219000EF92FF920F931F93CF93DF93EC016B01AC
:1021A0004A0183E0782E5E0182E0A80EB11C90E324
:1021B000692EF501862D11928A95E9F7F6010190B5
:1021C0000020E9F731977F01EC18FD08860127E12F
:1021D00034E040E3B501CE010E94A71081110EC08A
:1021E0009C81992359F08D819E81AF81B885F4013E
:1021F00080839183A283B38380E003C07A947110BB
:10220000D8CFDF91CF911F910F91FF90EF90DF908A
:10221000CF90BF90AF909F908F907F906F900895D8
:10222000AF92BF92CF92DF92EF92FF920F931F93E4
:10223000A12CB12CC12CD12CE12CF12C0E941E0E12
:102240001F910F91FF90EF90DF90CF90BF90AF90D4
:1022500008958F929F92AF92BF92DF92EF92FF927A
:102260000F931F93CF93DF9300D0CDB7DEB74C0110
:10227000D62EBA017C0182E0E80EF11CA701C40150
:1022800029833A830E94060B6EE571E0C7010E9424
:10229000591BF70101900020E9F73197EE19FF096A
:1022A0003A813F9329812F9352EEA52E50E0B52E0F
:1022B000BF92AF92FF273296E80DF91DFF93EF937F
:1022C0000E94BE1B6CE571E0C7010E94591BF7011B
:1022D00001900020E9F73197EE19FF091F930F9342
:1022E000BF92AF92FF273296E80DF91DFF93EF934F
:1022F0000E94BE1B0FB6F894DEBF0FBECDBFF2E04A
:102300008701DF1203C029E431E004C0D1100CC002
:102310002DE331E048E0B701C4010E9410118111A2
:102320002EC0F40184810DC021E331E048E0B70103
:10233000C4010E941011811122C0F4018481DD24A6
:10234000D3948F3FE9F0F401FA9620E030E09081D9
:102350009F3F71F4F9017D96EE0FFF1FE80DF91D07
:102360008083220F331F280D391DF901D3AE08C019
:102370002F5F3F4F32962730310549F701C08FEF6D
:102380000F900F90DF91CF911F910F91FF90EF90E1
:10239000DF90BF90AF909F908F9008950F931F9301
:1023A000E0912401F09125013196E13078E0F707C2
:1023B00010F0E0E0F4E0F0932501E09324010091B7
:1023C0002401109125010E9429111F910F91089558
:1023D000AF92BF92CF92DF92EF92FF920F931F9333
:1023E000A12CB12CC12CD12CE12CF12C00E010E05F
:1023F0000E941E0E1F910F91FF90EF90DF90CF90E3
:10240000BF90AF900895AF92BF92CF92DF92EF92BC
:10241000FF920F931F93A12CB12CC12CD12C7901C9
:102420008A019B0140E060E070E00E941E0E1F9157
:102430000F91FF90EF90DF90CF90BF90AF900895F5
:102440005F926F927F928F929F92AF92BF92CF9244
:10245000DF92EF92FF920F931F93CF93DF937C0154
:10246000762E6A015901CA010E94641B682E592EFA
:10247000E70122961F927F9282EE882E80E0982EAE
:102480009F928F92DF93CF930E94BE1B69E071E011
:10249000CE010E94591BFE0101900020E9F73197FF
:1024A000EC1BFD0B5F926F929F928F92FF273296EB
:1024B000EE0DFF1DFF93EF930E94BE1B8DB79EB7DD
:1024C0000C960FB6F8949EBF0FBE8DBFA114B10439
:1024D00009F463C0672DC7010E94CF0A813009F05B
:1024E0005CC067E071E0CE010E94591BFE010190C3
:1024F0000020E9F73197AF014C1B5D0B55274E5F6C
:102500005F4F4E0D5F1DB501C7010E94060B0115FF
:10251000110509F448C0672DC7010E94CF0A813018
:1025200009F041C062E071E0CE010E94591BFE013A
:1025300001900020E9F73197EC1BFD0B1F930F93DF
:1025400082EE90E09F938F93FF273296EE0DFF1D52
:10255000FF93EF930E94BE1B0F900F900F900F9070
:102560000F900F906DEF70E0CE010E94591B960105
:10257000AE0161EF70E0C701DF91CF911F910F9124
:10258000FF90EF90DF90CF90BF90AF909F908F9093
:102590007F906F905F900C94031264E071E0CE0125
:1025A0000E94591BB4CF6FEF70E0CE010E94591BFF
:1025B000D9CFAF92BF92CF92DF92EF92FF920F935B
:1025C0001F9358016901E12CF12C8A019B0140E025
:1025D00060E070E00E941E0E1F910F91FF90EF903F
:1025E000DF90CF90BF90AF9008955F926F927F92EF
:1025F0008F929F92AF92BF92CF92DF92EF92FF9213
:102600000F931F93CF93DF936C01762E4A01522EC6
:10261000632EEC0122961F926F9382EEA82E80E02B
:10262000B82EBF92AF92DF93CF930E94BE1B63E29E
:1026300071E0CE010E94591BFE0101900020E9F7D4
:102640003197EC1BFD0B6F925F92BF92AF92FF2709
:102650003296EC0DFD1DFF93EF930E94BE1B8DB7CC
:102660009EB70C960FB6F8949EBF0FBE8DBF011596
:10267000110539F0672DC6010E94CF0A813009F497
:102680004EC06EE171E0CE010E94591BE114F104CD
:1026900009F45CC0672DC6010E94CF0A813009F0A1
:1026A00055C06CE171E0CE010E94591BFE01019002
:1026B0000020E9F73197EC1BFD0BFF92EF9282EEC1
:1026C00090E09F938F93FF273296EC0DFD1DFF93B3
:1026D000EF930E94BE1B0F900F900F900F900F90E2
:1026E0000F9067E171E0CE010E94591B052D162D58
:1026F0009401AE016BE071E0C6010E94D912DF9136
:10270000CF911F910F91FF90EF90DF90CF90BF90EE
:10271000AF909F908F907F906F905F90089561E24F
:1027200071E0CE010E94591BFE0101900020E9F7E3
:102730003197AF014C1B5D0B55274E5F5F4F4C0D22
:102740005D1DB801C6010E94060BA0CF69E171E0D2
:10275000CE010E94591BC5CFEF92FF920F931F939A
:10276000FA0101900020E9F73197E41BF50B78019D
:1027700089019F010E94F5121F910F91FF90EF9028
:102780000895AF92BF92CF92DF92EF92FF920F9394
:102790001F939B01A12CB12CC12CD12CE12CF12C2D
:1027A0008A0140E060E070E00E941E0E1F910F91D0
:1027B000FF90EF90DF90CF90BF90AF9008956F9211
:1027C0007F928F929F92AF92BF92CF92DF92EF92C1
:1027D000FF920F931F93CF93DF931F92CDB7DEB776
:1027E0003C015A01490169830E949A0BF30116AA20
:1027F00017AA10AE11AE6301F2E0CF0ED11C80E338
:10280000F60111928A95E9F76981623051F426EB5D
:1028100031E040E3B601C3010E94E811811191C08B
:102820000BC0662399F022EA31E040E3B601C30110
:102830000E94E811811187C0F301428553856485A8
:10284000758546AB57AB60AF71AF7EC08114910404
:1028500059F0A601B401C3010E94060BA60160E96C
:1028600071E0C3010E94C113A114B10481F0A6015B
:10287000B501C3010E94060BF50180819181A281FF
:10288000B381F30186AB97ABA0AFB1AF0DC064E8E5
:1028900071E0C6010E94591B80ECF30186AB88EA07
:1028A00087AB10AE81E081AFE114F104B9F062E8CA
:1028B00071E0C6010E94591BF60101900020E9F762
:1028C0003197AF014C195D0955274E5F5F4F460D9B
:1028D000571DB701C3010E94060B05C063E771E0F5
:1028E000C6010E94591B01151105B1F061E771E0A5
:1028F000C6010E94591BF60101900020E9F73197AB
:10290000AF014C195D0955274E5F5F4F460D571DAE
:10291000B801C3010E94060BA60160E671E0C30185
:102920000F90DF91CF911F910F91FF90EF90DF906B
:10293000CF90BF90AF909F908F907F906F900C94AE
:10294000C11382E001C081E00F90DF91CF911F9110
:102950000F91FF90EF90DF90CF90BF90AF909F903E
:102960008F907F906F900895EF92FF920F931F9337
:10297000E12CF12C00E010E020E030E040E050E0FD
:1029800061E00E94DF131F910F91FF90EF90089577
:10299000AF92BF92CF92DF92EF92FF920F931F936D
:1029A0009B01A12CB12CC12CD12CE12CF12C00E0ED
:1029B00010E040E060E070E00E941E0E1F910F9159
:1029C000FF90EF90DF90CF90BF90AF900895CF939E
:1029D000DF93EC0166E074E00E94C81468EF73E0D6
:1029E000CE01DF91CF910C94C814AF92BF92CF92D9
:1029F000DF92EF920F931F93CF93DF93EC016B0164
:102A00005A011E2D213049F018F0223091F020C0DB
:102A10006AED73E00E94C8141BC0452B29F06EEBD1
:102A200073E00E94C814BFC066EA73E00E94C81435
:102A3000B6C0402F50E0A114B10429F06BE873E058
:102A40000E940910B0C064E773E00E940910A7C09B
:102A5000153038F4412F50E063E673E0CE010E9458
:102A60000910A114B10431F0A50167E573E0CE01AE
:102A70000E94C113E8818E2F90E08531910508F006
:102A800096C0FC01EC5CFF4F0C94F01922E533E09A
:102A9000A60165E473E077C020E433E0A60163E3B8
:102AA00073E071C02EE233E0A60161E273E06BC017
:102AB0002CE133E0A6016FE073E065C02AE033E06B
:102AC000A6016DEF72E05FC028EF32E0A6016BEE69
:102AD00072E059C026EE32E0A60169ED72E053C003
:102AE00024ED32E0A60167EC72E04DC022EC32E04A
:102AF000A60165EB72E047C020EB32E0A60163EA75
:102B000072E041C02EE932E0A60161E972E03BC00B
:102B10002CE832E0A6016FE772E035C02AE732E028
:102B2000A6016DE672E02FC028E632E0A6016BE553
:102B300072E029C026E532E0A60169E472E023C014
:102B400024E432E0A60167E372E01DC022E332E034
:102B5000A60165E272E017C020E232E0A60163E15F
:102B600072E011C02DE032E0A60160E072E00BC01F
:102B70002AEF31E0A6016DEE71E005C027EE31E0ED
:102B8000A6016AED71E0CE01DF91CF911F910F9107
:102B9000EF90DF90CF90BF90AF900C940312153060
:102BA00008F068CF57CF153008F05ECF53CF80E0E4
:102BB000DF91CF911F910F91EF90DF90CF90BF9059
:102BC000AF900895EF920F93EE24EA9400E00E94F4
:102BD000F5140F91EF900895CF93DF93EC010E94CD
:102BE0009A0B1EAA1FAA18AE19AE6AEC71E0CE01AC
:102BF000DF91CF910C94C814BF92CF92DF92EF92E5
:102C0000FF920F931F93CF93DF93EC016A017B0137
:102C1000B22E61E083E00E94630A5B9A61E082E089
:102C20000E94630A5A9861E081E00E94630A61E0B1
:102C300081E00E949F0A60E080E00E94630A61E0F8
:102C400080E00E949F0A1EAA1FAA18AE19AEFE01BC
:102C5000329680E3DF011D928A95E9F7CAAADBAAC2
:102C6000ECAAFDAAB701A601CE010E94E50ACE0199
:102C70000E947F0B5A9865E0CE010E94300B5A9A51
:102C80006BE0CE010E94300B14E00FEF6CE188E5A1
:102C900093E00E9457070E9475096B017C010E9416
:102CA0007509DC01CB018C199D09AE09BF09883C6F
:102CB0009105A105B10508F588E593E00E94D806C5
:102CC000892B69F388E593E00E94F206853539F790
:102CD00065E588E593E00E9457076AE0CE010E940F
:102CE000300B6EE688E593E00E9457076AE088E5BE
:102CF00093E00E94570711E00EEF115039F664E19E
:102D0000CE010E94300B13E0CE010E944B0B60E419
:102D100074E0CE010E94C81481110DC062E374E01A
:102D2000CE010E94C81466E274E0CE010E94C8146D
:102D3000B88200E009C06AE0CE010E94300B115059
:102D400019F7CE010E94900B802FDF91CF911F9138
:102D50000F91FF90EF90DF90CF90BF90089522E009
:102D600040E855E260E070E00C94FC15CF92DF92F1
:102D7000EF92FF920F931F93CF93DF937C016A0131
:102D80008B01C0E0D0E0CC15DD0589F0D701ED91D5
:102D9000FC91068CF78DE02DC70109958F3FBFEFA1
:102DA0009B0729F0F80181938F012196ECCFCE018A
:102DB000DF91CF911F910F91FF90EF90DF90CF9017
:102DC00008950F931F93CF93DF93EC01E881F9816E
:102DD000048CF58DE02D09958C010115110551F03C
:102DE000E881F981068CF78DE02DCE01099501501F
:102DF0001109F3CFDF91CF911F910F9108950F9398
:102E00001F93CF93DF938C01DC01ED91FC9106A021
:102E1000F7A1E02D0995EC01892B61F0D801ED9126
:102E2000FC9106A0F7A1E02D62E574E0C8010995C8
:102E3000C80FD91FCE01DF91CF911F910F91089537
:102E400021E0FC0184818F3F09F420E0822F089566
:102E50000F931F93CF93DF9300D01F92CDB7DEB7B0
:102E6000FC0184818B831A8219828F3F71F000E00C
:102E700010E020E030E0AE014F5F5F4FBE016D5FBC
:102E80007F4F8FE094E00E94090E89819A810F9014
:102E90000F900F90DF91CF911F910F910895EF92B6
:102EA000FF920F931F93CF93DF9300D000D0CDB745
:102EB000DEB7FC0124812B832F3FB9F07C0101E0B8
:102EC00010E09E012C5F3F4FAE014F5F5F4FBE0190
:102ED0006D5F7F4F8FE094E00E94090E009729F00C
:102EE000019631F48FEFF70184838FEF9FEF02C0DB
:102EF0008C8190E00F900F900F900F90DF91CF9109
:102F00001F910F91FF90EF9008951F93CF93DF9340
:102F1000FC0164816F3FB1F0EC018FE094E00E940E
:102F2000BC0D182F882319F08FEF8C830BC08E8572
:102F30008A3050F06C818FE094E00E9415108FEF82
:102F40008C8303C010E001C011E0812FDF91CF918D
:102F50001F910895CF93DF93FC0124812F3F81F0CF
:102F6000EC010190F081E02D02A0F3A1E02D099584
:102F70006C818FE094E00E9415108FEF8C831E8689
:102F8000DF91CF910895CF92DF92EF92FF920F934E
:102F90001F93CF93DF931F92CDB7DEB76983FC01F8
:102FA00064816F3F01F16C01FC01E184F2848C01CA
:102FB0000B5F1F4F21E030E0AE014F5F5F4F8FE0AE
:102FC00094E00E94F512F601882381F086858F5FD8
:102FD00086878A3040F064818FE094E00E9415106B
:102FE0008FEFF601848380E090E003C0168681E0D5
:102FF00090E00F90DF91CF911F910F91FF90EF9094
:10300000DF90CF900895CF92DF92EF92FF920F93CF
:103010001F93CF93DF93DC011496EC91EF3FF1F017
:10302000C52ED42EAB01EC01E984FA848C010B5F30
:103030001F4F2D2D3C2D6E2F8FE094E00E94F51236
:10304000882379F08E858F5F8E878A3038F06C8187
:103050008FE094E00E9415108FEF8C8380E090E069
:1030600003C01E868D2D9C2DDF91CF911F910F9156
:10307000FF90EF90DF90CF900895EF92FF920F9323
:103080001F93CF93DF93EC019C819F3FD1F07B0195
:1030900009851A859E012B5F3F4FAB01692F8FE099
:1030A00094E00E94AC13882379F08E858F5F8E8721
:1030B0008A3038F06C818FE094E00E9415108FEF19
:1030C0008C8380E090E009C01E86F701019000200B
:1030D000E9F73197CF018E199F09DF91CF911F91A9
:1030E0000F91FF90EF900895EF92FF920F931F932F
:1030F000CF93DF937B01FC0164816F3F21F1EC01F1
:10310000018512859C012B5F3F4FA7018FE094E062
:103110000E942012882369F08E858F5F8E878A3007
:1031200090F06C818FE094E00E9415108FEF8C83FB
:103130000AC01E86C701DF91CF911F910F91FF90AA
:10314000EF900C94641B80E090E0DF91CF911F9191
:103150000F91FF90EF900895FC01DB011382128222
:1031600083E293E0918380838C91858311968C9187
:103170001197868312968C911297878313968C9160
:103180008087528741878FEF8483089523E233E05D
:10319000FC01318320830C94AA17FF920F931F9395
:1031A000CF93DF93FC0124812F3F19F080E090E062
:1031B0001BC0F62EEC010385148521853285AC01F8
:1031C0004B5F5F4F8FE094E00115110519F00E94ED
:1031D000291102C00E94CE118C838C818F3F31F364
:1031E000FD861E8681E090E0DF91CF911F910F91C7
:1031F000FF90089560E00C94CD1861E00C94CD1818
:1032000060E00C94CD1861E00C94CD18FC01DB015A
:103210008C91858311968C911197868312968C914F
:103220001297878313968C9180875287418760E03D
:10323000CF010C94CD18FC01DB018C918583119694
:103240008C911197868312968C911297878313968F
:103250008C9180875287418761E0CF010C94CD1813
:10326000FC01DB018C91858311968C9111978683EB
:1032700012968C911297878313968C918087528730
:1032800041873487238760E0CF010C94CD18FC017F
:10329000DB018C91858311968C9111978683129610
:1032A0008C911297878313968C91808752874187E0
:1032B0003487238761E0CF010C94CD180F931F93BF
:1032C000CF93DF93EC018A01AC014B5F5F4F8FE03E
:1032D00094E00E94C01081110AC01A87098760E03B
:1032E000CE01DF91CF911F910F910C94CD1880E00A
:1032F00090E0DF91CF911F910F9108950F931F934D
:10330000CF93DF93EC018A01AC014B5F5F4F8FE0FD
:1033100094E00E94C01081110AC01A87098761E0F9
:10332000CE01DF91CF911F910F910C94CD1880E0C9
:1033300090E0DF91CF911F910F9108950895DB01E7
:103340008F939F930E94F619BF91AF91A29F800D1A
:10335000911DA39F900DB29F900D11240895A1E29D
:103360001A2EAA1BBB1BFD010DC0AA1FBB1FEE1FFF
:10337000FF1FA217B307E407F50720F0A21BB30B4A
:10338000E40BF50B661F771F881F991F1A9469F7C6
:1033900060957095809590959B01AC01BD01CF0122
:1033A0000895052E97FB1EF400940E94E81957FD1E
:1033B00007D00E94AF1907FC03D04EF40C94E81913
:1033C00050954095309521953F4F4F4F5F4F089551
:1033D00090958095709561957F4F8F4F9F4F089581
:1033E000EE0FFF1F0590F491E02D09940E94011A41
:1033F000A59F900DB49F900DA49F800D911D112449
:103400000895A29FB001B39FC001A39F700D811DBD
:103410001124911DB29F700D811D1124911D0895DD
:103420000F931F93CF93DF93869F8001879F100D8B
:10343000969F100D1124C8010E942C1AEC010097D0
:1034400029F0A80160E070E00E946D1BCE01DF91C1
:10345000CF911F910F910895CF93DF938230910503
:1034600010F482E090E0E0915904F0915A0420E0D9
:1034700030E0C0E0D0E0309711F140815181481731
:103480005907C0F04817590761F48281938120974A
:1034900019F09B838A832BC090935A04809359041C
:1034A00026C02115310519F04217530718F49A0167
:1034B000BE01DF01EF010280F381E02DDCCF211599
:1034C000310509F1281B390B2430310590F412968F
:1034D0008D919C9113976115710521F0FB019383E8
:1034E000828304C090935A0480935904FD0132965C
:1034F00044C0FD01E20FF31F8193919322503109E3
:103500002D933C933AC02091570430915804232BBB
:1035100041F420910201309103013093580420932B
:10352000570420910001309101012115310541F42A
:103530002DB73EB74091040150910501241B350B76
:10354000E0915704F0915804E217F307A0F42E1B02
:103550003F0B2817390778F0AC014E5F5F4F2417F7
:10356000350748F04E0F5F1F50935804409357049F
:103570008193919302C0E0E0F0E0CF01DF91CF9121
:1035800008950F931F93CF93DF93009709F48CC096
:10359000FC013297138212820091590410915A044F
:1035A0000115110581F420813181820F931F209133
:1035B0005704309158042817390779F5F0935804C7
:1035C000E093570471C0D80140E050E0AE17BF0748
:1035D00050F412962D913C911397AD0121153105B0
:1035E00009F1D901F3CF9D01DA0133832283608190
:1035F0007181860F971F8217930769F4EC01288168
:103600003981260F371F2E5F3F4F318320838A81F8
:103610009B8193838283452B29F4F0935A04E09392
:10362000590442C01396FC93EE931297ED01499111
:1036300059919E01240F351FE217F30771F4808121
:103640009181840F951F029611969C938E9382818F
:10365000938113969C938E931297E0E0F0E0D8014B
:1036600012968D919C911397009719F0F8018C0197
:10367000F6CF8D919C9198012E5F3F4F820F931F43
:1036800020915704309158042817390769F430976E
:1036900029F410925A041092590402C01382128223
:1036A0001093580400935704DF91CF911F910F910D
:1036B0000895FB01DC010D900020E9F711970590BA
:1036C0000D920020E1F70895FC0105900020E9F734
:1036D000809590958E0F9F1F0895DC0101C06D931A
:1036E00041505040E0F70895FB01DC010D900020AF
:1036F000E9F7119701900D920020E1F70895FB0181
:1037000051915523A9F0BF01DC014D91451741119D
:10371000E1F759F4CD010190002049F04D91401599
:103720004111C9F3FB014111EFCF81E090E0019716
:103730000895BB274A3031F4992322F4BDE29095D5
:1037400081959F4F0C94A51BBB27FB015527AA27EA
:10375000880F991FAA1FA41710F0A41B839550511E
:10376000B9F7A05DAA3308F0A95DA193009779F796
:10377000B111B1931192CB010C94C91DAEE0B0E030
:10378000E4ECFBE10C947D1E0D891E898EE08C8398
:103790001A8309838FEF9FE79E838D83AE01475E77
:1037A0005F4F6F89788DCE0101960E94E11B2F81BA
:1037B0003885F801E20FF31F10822E96E4E00C9496
:1037C000991EACE0B0E0E7EEFBE10C946F1E7C01CB
:1037D0006B018A01FC0117821682838181FFBDC1C2
:1037E000CE0101964C01F7019381F60193FD85917D
:1037F00093FF81916F01882309F4ABC1853239F4BD
:1038000093FD859193FF81916F01853229F4B70172
:1038100090E00E94D91DE7CF512C312C20E02032BE
:10382000A0F48B3269F030F4803259F0833269F4BD
:1038300020612CC08D3239F0803339F4216026C0EC
:103840002260246023C0286021C027FD27C030EDFE
:10385000380F3A3078F426FF06C0FAE05F9E300D4C
:103860001124532E13C08AE0389E300D1124332EBC
:1038700020620CC08E3221F426FD6BC1206406C08C
:103880008C3611F4206802C0883641F4F60193FDAD
:10389000859193FF81916F018111C1CF982F9F7DF9
:1038A0009554933028F40C5F1F4FFFE3F9830DC04C
:1038B000833631F0833771F0833509F05BC022C065
:1038C000F801808189830E5F1F4F44244394512C5B
:1038D000540115C03801F2E06F0E711CF801A08090
:1038E000B18026FF03C0652D70E002C06FEF7FEF4F
:1038F000C5012C870E94BE1D2C0183012C852F77CA
:10390000222E17C03801F2E06F0E711CF801A08062
:10391000B18026FF03C0652D70E002C06FEF7FEF1E
:10392000C5012C870E94B31D2C012C852068222EF6
:10393000830123FC1BC0832D90E048165906B0F488
:10394000B70180E290E00E94D91D3A94F4CFF501CE
:1039500027FC859127FE81915F01B70190E00E94CD
:10396000D91D31103A94F1E04F1A51084114510415
:1039700071F7E5C0843611F0893639F5F80127FF73
:1039800007C060817181828193810C5F1F4F08C0E5
:1039900060817181072E000C880B990B0E5F1F4F01
:1039A0002F76722E97FF09C090958095709561953E
:1039B0007F4F8F4F9F4F2068722E2AE030E0A40186
:1039C0000E94111EA82EA81844C0853729F42F7E06
:1039D000B22E2AE030E025C0F22FF97FBF2E8F36BD
:1039E000C1F018F4883579F0B4C0803719F0883701
:1039F00021F0AFC02F2F2061B22EB4FE0DC08B2D51
:103A00008460B82E09C024FF0AC09F2F9660B92E8B
:103A100006C028E030E005C020E130E002C020E12F
:103A200032E0F801B7FE07C0608171818281938125
:103A30000C5F1F4F06C06081718180E090E00E5FD7
:103A40001F4FA4010E94111EA82EA818FB2DFF775E
:103A50007F2E76FE0BC0372D3E7FA51450F474FEEA
:103A60000AC072FC08C0372D3E7E05C0BA2C372D27
:103A700003C0BA2C01C0B52C34FF0DC0FE01EA0D05
:103A8000F11D8081803311F4397E09C032FF06C0F8
:103A9000B394B39404C0832F867809F0B39433FDB4
:103AA00013C030FF06C05A2CB31418F4530C5B1823
:103AB000B32CB31468F4B70180E290E03C870E9415
:103AC000D91DB3943C85F5CFB31410F43B1801C055
:103AD000312C34FF12C0B70180E390E03C870E9494
:103AE000D91D3C8532FF17C031FD03C088E790E047
:103AF00002C088E590E0B7010CC0832F867859F0AA
:103B000031FF02C08BE201C080E237FD8DE2B701D8
:103B100090E00E94D91DA51438F4B70180E390E02D
:103B20000E94D91D5A94F7CFAA94F401EA0DF11D11
:103B30008081B70190E00E94D91DA110F5CF3320FC
:103B400009F451CEB70180E290E00E94D91D3A9469
:103B5000F6CFF7018681978102C08FEF9FEF2C96F9
:103B6000E2E10C948B1EFC01059061507040011045
:103B7000D8F7809590958E0F9F1F0895FC01615096
:103B8000704001900110D8F7809590958E0F9F1F7F
:103B90000895DC01FC01672F71917723E1F73297DB
:103BA00004C07C916D9370836291AE17BF07C8F318
:103BB00008950F931F93CF93DF93FB01238121FD82
:103BC00003C08FEF9FEF28C022FF16C046815781A8
:103BD000248135814217530744F4A081B1819D01AE
:103BE0002F5F3F4F318320838C93268137812F5F56
:103BF0003F4F3783268310C0EB01092F182F008415
:103C0000F185E02D0995892BE1F68E819F81019642
:103C10009F838E83812F902FDF91CF911F910F91E2
:103C20000895FA01AA27283051F1203181F1E89452
:103C30006F936E7F6E5F7F4F8F4F9F4FAF4FB1E09F
:103C40003ED0B4E03CD0670F781F891F9A1FA11D9A
:103C5000680F791F8A1F911DA11D6A0F711D811D9B
:103C6000911DA11D20D009F468943F912AE0269F60
:103C700011243019305D3193DEF6CF010895462FBF
:103C80004770405D4193B3E00FD0C9F7F6CF462FA0
:103C90004F70405D4A3318F0495D31FD4052419309
:103CA00002D0A9F7EACFB4E0A695979587957795C6
:103CB0006795BA95C9F700976105710508959B014D
:103CC000AC010A2E06945795479537952795BA95D6
:103CD000C9F7620F731F841F951FA01D08952F92AF
:103CE0003F924F925F926F927F928F929F92AF928C
:103CF000BF92CF92DF92EF92FF920F931F93CF93D9
:103D0000DF93CDB7DEB7CA1BDB0B0FB6F894DEBF6F
:103D10000FBECDBF09942A88398848885F846E8495
:103D20007D848C849B84AA84B984C884DF80EE80DF
:103D3000FD800C811B81AA81B981CE0FD11D0FB6E8
:103D4000F894DEBF0FBECDBFED010895F894FFCF0C
:103D500000005B0480000100000000000100020080
:103D6000CD0004015401BA01E10140771B00E803D2
:103D7000000001FF000445737461626C6973685749
:103D8000694669436F6E6E656374696F6E576974D7
:103D900068526564466C79536869656C64282900CB
:103DA000526564466C792E696E6974204552524F93
:103DB00052003136303436343434363234363830DA
:103DC000333600574C414E2D4B6162656C00526595
:103DD00064466C792E6A6F696E204552524F5200CC
:103DE000526564466C792E626567696E2045525251
:103DF0004F52005769466920536869656C642063B7
:103E00006F6E6E656374656400737461727420779D
:103E1000616974696E67007472616E736D69737342
:103E2000696F6E206661696C65640073746F707091
:103E300065642077616974696E67007472616E737E
:103E40006D697373696F6E20737563636573730057
:103E5000504F5354202F76616C75656765742E70D2
:103E60006870003F6E616D653D0054657374002697
:103E7000747970653D0050726F7A656E7466657511
:103E800063687465002676616C75653D00266B6518
:103E9000793D6333373831363333663166623164A6
:103EA00064636137376339303338643439393433D4
:103EB000340020485454502F312E310D0A486F736E
:103EC000743A20003139322E3136382E3137382EBF
:103ED0003234000D0A0D0A0048747470506F737408
:103EE0005265717565737400487474702053656E03
:103EF000640073657276657220756E617661696CB7
:103F000061626C65006E657720617474656D7074B4
:103F100020746F20646F206120504F535400766FDF
:103F2000696420736574757028290053656E644D4B
:103F30006F69737475726550657263656E746167DD
:103F40006556616C7565546F446174616261736537
:103F5000000000000057079208D806F206E4063574
:103F6000076E616E00696E66006F7666002E000057
:103F7000000000C3170318FA18FD180019031906EA
:103F8000191B19301947195E197E198517AA1728A8
:103F9000174F17B616E1163D187418FF16201700B4
:00000001FF
